{
	"Base58.sol": {
		"Base58": {
			"abi": [
				{
					"inputs": [
						{
							"internalType": "string",
							"name": "data_",
							"type": "string"
						}
					],
					"name": "decodeFromString",
					"outputs": [
						{
							"internalType": "bytes",
							"name": "",
							"type": "bytes"
						}
					],
					"stateMutability": "pure",
					"type": "function"
				},
				{
					"inputs": [
						{
							"internalType": "string",
							"name": "data_",
							"type": "string"
						}
					],
					"name": "encodeFromString",
					"outputs": [
						{
							"internalType": "bytes",
							"name": "",
							"type": "bytes"
						}
					],
					"stateMutability": "pure",
					"type": "function"
				},
				{
					"inputs": [
						{
							"internalType": "bytes",
							"name": "data_",
							"type": "bytes"
						},
						{
							"internalType": "bytes1",
							"name": "char_",
							"type": "bytes1"
						}
					],
					"name": "indexOf",
					"outputs": [
						{
							"internalType": "uint256",
							"name": "",
							"type": "uint256"
						},
						{
							"internalType": "bool",
							"name": "",
							"type": "bool"
						}
					],
					"stateMutability": "pure",
					"type": "function"
				},
				{
					"inputs": [
						{
							"internalType": "bytes",
							"name": "data_",
							"type": "bytes"
						},
						{
							"internalType": "uint256",
							"name": "start_",
							"type": "uint256"
						},
						{
							"internalType": "uint256",
							"name": "end_",
							"type": "uint256"
						}
					],
					"name": "slice",
					"outputs": [
						{
							"internalType": "bytes",
							"name": "",
							"type": "bytes"
						}
					],
					"stateMutability": "pure",
					"type": "function"
				}
			],
			"devdoc": {
				"author": "storyicon@foxmail.com",
				"kind": "dev",
				"methods": {
					"decodeFromString(string)": {
						"params": {
							"data_": "data encoded with base58, passed in as string."
						},
						"returns": {
							"_0": "raw data, returned as bytes."
						}
					},
					"encodeFromString(string)": {
						"params": {
							"data_": "raw data, passed in as a string."
						},
						"returns": {
							"_0": "base58 encoded data_, returned as bytes."
						}
					},
					"indexOf(bytes,bytes1)": {
						"params": {
							"char_": "target byte.",
							"data_": "raw data, passed in as bytes."
						},
						"returns": {
							"_0": "index, and whether the search was successful."
						}
					},
					"slice(bytes,uint256,uint256)": {
						"params": {
							"data_": "raw data, passed in as bytes.",
							"end_": "end index.",
							"start_": "start index."
						},
						"returns": {
							"_0": "slice data"
						}
					}
				},
				"title": "Base58",
				"version": 1
			},
			"evm": {
				"assembly": "    /* \"Base58.sol\":316:6358  library Base58 {... */\n  dataSize(sub_0)\n  dataOffset(sub_0)\n  0x0b\n  dup3\n  dup3\n  dup3\n  codecopy\n  dup1\n  mload\n  0x00\n  byte\n  0x73\n  eq\n  tag_1\n  jumpi\n  mstore(0x00, 0x4e487b7100000000000000000000000000000000000000000000000000000000)\n  mstore(0x04, 0x00)\n  revert(0x00, 0x24)\ntag_1:\n  mstore(0x00, address)\n  0x73\n  dup2\n  mstore8\n  dup3\n  dup2\n  return\nstop\n\nsub_0: assembly {\n        /* \"Base58.sol\":316:6358  library Base58 {... */\n      eq(address, deployTimeAddress())\n      mstore(0x40, 0x80)\n      jumpi(tag_1, lt(calldatasize, 0x04))\n      shr(0xe0, calldataload(0x00))\n      dup1\n      0x046a466a\n      eq\n      tag_2\n      jumpi\n      dup1\n      0x529d1bb7\n      eq\n      tag_3\n      jumpi\n      dup1\n      0x8178ff43\n      eq\n      tag_4\n      jumpi\n      dup1\n      0xe0041396\n      eq\n      tag_5\n      jumpi\n    tag_1:\n      0x00\n      dup1\n      revert\n        /* \"Base58.sol\":4938:5098  function decodeFromString(string memory data_)... */\n    tag_2:\n      tag_6\n      0x04\n      dup1\n      calldatasize\n      sub\n      dup2\n      add\n      swap1\n      tag_7\n      swap2\n      swap1\n      tag_8\n      jump\t// in\n    tag_7:\n      tag_9\n      jump\t// in\n    tag_6:\n      mload(0x40)\n      tag_10\n      swap2\n      swap1\n      tag_11\n      jump\t// in\n    tag_10:\n      mload(0x40)\n      dup1\n      swap2\n      sub\n      swap1\n      return\n        /* \"Base58.sol\":4561:4721  function encodeFromString(string memory data_)... */\n    tag_3:\n      tag_12\n      0x04\n      dup1\n      calldatasize\n      sub\n      dup2\n      add\n      swap1\n      tag_13\n      swap2\n      swap1\n      tag_8\n      jump\t// in\n    tag_13:\n      tag_14\n      jump\t// in\n    tag_12:\n      mload(0x40)\n      tag_15\n      swap2\n      swap1\n      tag_11\n      jump\t// in\n    tag_15:\n      mload(0x40)\n      dup1\n      swap2\n      sub\n      swap1\n      return\n        /* \"Base58.sol\":5991:6355  function indexOf(bytes memory data_, bytes1 char_)... */\n    tag_4:\n      tag_16\n      0x04\n      dup1\n      calldatasize\n      sub\n      dup2\n      add\n      swap1\n      tag_17\n      swap2\n      swap1\n      tag_18\n      jump\t// in\n    tag_17:\n      tag_19\n      jump\t// in\n    tag_16:\n      mload(0x40)\n      tag_20\n      swap3\n      swap2\n      swap1\n      tag_21\n      jump\t// in\n    tag_20:\n      mload(0x40)\n      dup1\n      swap2\n      sub\n      swap1\n      return\n        /* \"Base58.sol\":5372:5748  function slice(... */\n    tag_5:\n      tag_22\n      0x04\n      dup1\n      calldatasize\n      sub\n      dup2\n      add\n      swap1\n      tag_23\n      swap2\n      swap1\n      tag_24\n      jump\t// in\n    tag_23:\n      tag_25\n      jump\t// in\n    tag_22:\n      mload(0x40)\n      tag_26\n      swap2\n      swap1\n      tag_11\n      jump\t// in\n    tag_26:\n      mload(0x40)\n      dup1\n      swap2\n      sub\n      swap1\n      return\n        /* \"Base58.sol\":4938:5098  function decodeFromString(string memory data_)... */\n    tag_9:\n        /* \"Base58.sol\":5033:5045  bytes memory */\n      0x60\n        /* \"Base58.sol\":5070:5090  decode(bytes(data_)) */\n      tag_28\n        /* \"Base58.sol\":5083:5088  data_ */\n      dup3\n        /* \"Base58.sol\":5070:5076  decode */\n      tag_29\n        /* \"Base58.sol\":5070:5090  decode(bytes(data_)) */\n      jump\t// in\n    tag_28:\n        /* \"Base58.sol\":5063:5090  return decode(bytes(data_)) */\n      swap1\n      pop\n        /* \"Base58.sol\":4938:5098  function decodeFromString(string memory data_)... */\n      swap2\n      swap1\n      pop\n      jump\t// out\n        /* \"Base58.sol\":4561:4721  function encodeFromString(string memory data_)... */\n    tag_14:\n        /* \"Base58.sol\":4656:4668  bytes memory */\n      0x60\n        /* \"Base58.sol\":4693:4713  encode(bytes(data_)) */\n      tag_31\n        /* \"Base58.sol\":4706:4711  data_ */\n      dup3\n        /* \"Base58.sol\":4693:4699  encode */\n      tag_32\n        /* \"Base58.sol\":4693:4713  encode(bytes(data_)) */\n      jump\t// in\n    tag_31:\n        /* \"Base58.sol\":4686:4713  return encode(bytes(data_)) */\n      swap1\n      pop\n        /* \"Base58.sol\":4561:4721  function encodeFromString(string memory data_)... */\n      swap2\n      swap1\n      pop\n      jump\t// out\n        /* \"Base58.sol\":5991:6355  function indexOf(bytes memory data_, bytes1 char_)... */\n    tag_19:\n        /* \"Base58.sol\":6090:6097  uint256 */\n      0x00\n        /* \"Base58.sol\":6099:6103  bool */\n      dup1\n        /* \"Base58.sol\":6151:6160  uint256 i */\n      0x00\n        /* \"Base58.sol\":6146:6305  for (uint256 i = 0; i < data_.length; i++) {... */\n    tag_34:\n        /* \"Base58.sol\":6170:6175  data_ */\n      dup5\n        /* \"Base58.sol\":6170:6182  data_.length */\n      mload\n        /* \"Base58.sol\":6166:6167  i */\n      dup2\n        /* \"Base58.sol\":6166:6182  i < data_.length */\n      lt\n        /* \"Base58.sol\":6146:6305  for (uint256 i = 0; i < data_.length; i++) {... */\n      iszero\n      tag_35\n      jumpi\n        /* \"Base58.sol\":6224:6229  char_ */\n      dup4\n        /* \"Base58.sol\":6212:6229  data_[i] == char_ */\n      not(0xffffffffffffffffffffffffffffffffffffffffffffffffffffffffffffff)\n      and\n        /* \"Base58.sol\":6212:6217  data_ */\n      dup6\n        /* \"Base58.sol\":6218:6219  i */\n      dup3\n        /* \"Base58.sol\":6212:6220  data_[i] */\n      dup2\n      mload\n      dup2\n      lt\n      tag_37\n      jumpi\n      tag_38\n      tag_39\n      jump\t// in\n    tag_38:\n    tag_37:\n      0x20\n      add\n      add\n      mload\n      0xf8\n      shr\n      0xf8\n      shl\n        /* \"Base58.sol\":6212:6229  data_[i] == char_ */\n      not(0xffffffffffffffffffffffffffffffffffffffffffffffffffffffffffffff)\n      and\n      sub\n        /* \"Base58.sol\":6208:6290  if (data_[i] == char_) {... */\n      tag_40\n      jumpi\n        /* \"Base58.sol\":6262:6263  i */\n      dup1\n        /* \"Base58.sol\":6265:6269  true */\n      0x01\n        /* \"Base58.sol\":6254:6270  return (i, true) */\n      swap3\n      pop\n      swap3\n      pop\n      pop\n      jump(tag_33)\n        /* \"Base58.sol\":6208:6290  if (data_[i] == char_) {... */\n    tag_40:\n        /* \"Base58.sol\":6184:6187  i++ */\n      dup1\n      dup1\n      0x01\n      add\n      swap2\n      pop\n      pop\n        /* \"Base58.sol\":6146:6305  for (uint256 i = 0; i < data_.length; i++) {... */\n      jump(tag_34)\n    tag_35:\n      pop\n        /* \"Base58.sol\":6327:6328  0 */\n      0x00\n        /* \"Base58.sol\":6330:6335  false */\n      dup1\n        /* \"Base58.sol\":6319:6336  return (0, false) */\n      swap2\n      pop\n      swap2\n      pop\n        /* \"Base58.sol\":5991:6355  function indexOf(bytes memory data_, bytes1 char_)... */\n    tag_33:\n      swap3\n      pop\n      swap3\n      swap1\n      pop\n      jump\t// out\n        /* \"Base58.sol\":5372:5748  function slice(... */\n    tag_25:\n        /* \"Base58.sol\":5492:5504  bytes memory */\n      0x60\n        /* \"Base58.sol\":5542:5558  bytes memory ret */\n      0x00\n        /* \"Base58.sol\":5578:5584  start_ */\n      dup4\n        /* \"Base58.sol\":5571:5575  end_ */\n      dup4\n        /* \"Base58.sol\":5571:5584  end_ - start_ */\n      sub\n        /* \"Base58.sol\":5561:5585  new bytes(end_ - start_) */\n      0xffffffffffffffff\n      dup2\n      gt\n      iszero\n      tag_42\n      jumpi\n      tag_43\n      tag_44\n      jump\t// in\n    tag_43:\n    tag_42:\n      mload(0x40)\n      swap1\n      dup1\n      dup3\n      mstore\n      dup1\n      0x1f\n      add\n      not(0x1f)\n      and\n      0x20\n      add\n      dup3\n      add\n      0x40\n      mstore\n      dup1\n      iszero\n      tag_45\n      jumpi\n      dup2\n      0x20\n      add\n      0x01\n      dup3\n      mul\n      dup1\n      calldatasize\n      dup4\n      calldatacopy\n      dup1\n      dup3\n      add\n      swap2\n      pop\n      pop\n      swap1\n      pop\n    tag_45:\n      pop\n        /* \"Base58.sol\":5542:5585  bytes memory ret = new bytes(end_ - start_) */\n      swap1\n      pop\n        /* \"Base58.sol\":5605:5614  uint256 i */\n      0x00\n        /* \"Base58.sol\":5600:5705  for (uint256 i = 0; i < end_ - start_; i++) {... */\n    tag_46:\n        /* \"Base58.sol\":5631:5637  start_ */\n      dup5\n        /* \"Base58.sol\":5624:5628  end_ */\n      dup5\n        /* \"Base58.sol\":5624:5637  end_ - start_ */\n      sub\n        /* \"Base58.sol\":5620:5621  i */\n      dup2\n        /* \"Base58.sol\":5620:5637  i < end_ - start_ */\n      lt\n        /* \"Base58.sol\":5600:5705  for (uint256 i = 0; i < end_ - start_; i++) {... */\n      iszero\n      tag_47\n      jumpi\n        /* \"Base58.sol\":5672:5677  data_ */\n      dup6\n        /* \"Base58.sol\":5682:5688  start_ */\n      dup6\n        /* \"Base58.sol\":5678:5679  i */\n      dup3\n        /* \"Base58.sol\":5678:5688  i + start_ */\n      add\n        /* \"Base58.sol\":5672:5689  data_[i + start_] */\n      dup2\n      mload\n      dup2\n      lt\n      tag_49\n      jumpi\n      tag_50\n      tag_39\n      jump\t// in\n    tag_50:\n    tag_49:\n      0x20\n      add\n      add\n      mload\n      0xf8\n      shr\n      0xf8\n      shl\n        /* \"Base58.sol\":5663:5666  ret */\n      dup3\n        /* \"Base58.sol\":5667:5668  i */\n      dup3\n        /* \"Base58.sol\":5663:5669  ret[i] */\n      dup2\n      mload\n      dup2\n      lt\n      tag_51\n      jumpi\n      tag_52\n      tag_39\n      jump\t// in\n    tag_52:\n    tag_51:\n      0x20\n      add\n      add\n        /* \"Base58.sol\":5663:5689  ret[i] = data_[i + start_] */\n      swap1\n      not(0xffffffffffffffffffffffffffffffffffffffffffffffffffffffffffffff)\n      and\n      swap1\n      dup2\n      0x00\n      byte\n      swap1\n      mstore8\n      pop\n        /* \"Base58.sol\":5639:5642  i++ */\n      dup1\n      dup1\n      0x01\n      add\n      swap2\n      pop\n      pop\n        /* \"Base58.sol\":5600:5705  for (uint256 i = 0; i < end_ - start_; i++) {... */\n      jump(tag_46)\n    tag_47:\n      pop\n        /* \"Base58.sol\":5726:5729  ret */\n      dup1\n        /* \"Base58.sol\":5719:5729  return ret */\n      swap2\n      pop\n      pop\n        /* \"Base58.sol\":5372:5748  function slice(... */\n      swap4\n      swap3\n      pop\n      pop\n      pop\n      jump\t// out\n        /* \"Base58.sol\":2162:3986  function decode(bytes memory data_) internal pure returns (bytes memory) {... */\n    tag_29:\n        /* \"Base58.sol\":2221:2233  bytes memory */\n      0x60\n        /* \"Base58.sol\":2271:2283  uint256 zero */\n      0x00\n        /* \"Base58.sol\":2286:2288  49 */\n      0x31\n        /* \"Base58.sol\":2271:2288  uint256 zero = 49 */\n      swap1\n      pop\n        /* \"Base58.sol\":2303:2316  uint256 b58sz */\n      0x00\n        /* \"Base58.sol\":2319:2324  data_ */\n      dup4\n        /* \"Base58.sol\":2319:2331  data_.length */\n      mload\n        /* \"Base58.sol\":2303:2331  uint256 b58sz = data_.length */\n      swap1\n      pop\n        /* \"Base58.sol\":2346:2360  uint256 zcount */\n      0x00\n        /* \"Base58.sol\":2384:2393  uint256 i */\n      dup1\n        /* \"Base58.sol\":2379:2485  for (uint256 i = 0; i < b58sz && uint8(data_[i]) == zero; i++) {... */\n    tag_54:\n        /* \"Base58.sol\":2403:2408  b58sz */\n      dup3\n        /* \"Base58.sol\":2399:2400  i */\n      dup2\n        /* \"Base58.sol\":2399:2408  i < b58sz */\n      lt\n        /* \"Base58.sol\":2399:2435  i < b58sz && uint8(data_[i]) == zero */\n      dup1\n      iszero\n      tag_57\n      jumpi\n      pop\n        /* \"Base58.sol\":2431:2435  zero */\n      dup4\n        /* \"Base58.sol\":2418:2423  data_ */\n      dup7\n        /* \"Base58.sol\":2424:2425  i */\n      dup3\n        /* \"Base58.sol\":2418:2426  data_[i] */\n      dup2\n      mload\n      dup2\n      lt\n      tag_58\n      jumpi\n      tag_59\n      tag_39\n      jump\t// in\n    tag_59:\n    tag_58:\n      0x20\n      add\n      add\n      mload\n      0xf8\n      shr\n      0xf8\n      shl\n        /* \"Base58.sol\":2412:2427  uint8(data_[i]) */\n      0xf8\n      shr\n        /* \"Base58.sol\":2412:2435  uint8(data_[i]) == zero */\n      0xff\n      and\n      eq\n        /* \"Base58.sol\":2399:2435  i < b58sz && uint8(data_[i]) == zero */\n    tag_57:\n        /* \"Base58.sol\":2379:2485  for (uint256 i = 0; i < b58sz && uint8(data_[i]) == zero; i++) {... */\n      iszero\n      tag_55\n      jumpi\n        /* \"Base58.sol\":2461:2469  zcount++ */\n      dup2\n      dup1\n      0x01\n      add\n      swap3\n      pop\n      pop\n        /* \"Base58.sol\":2437:2440  i++ */\n      dup1\n      dup1\n      0x01\n      add\n      swap2\n      pop\n      pop\n        /* \"Base58.sol\":2379:2485  for (uint256 i = 0; i < b58sz && uint8(data_[i]) == zero; i++) {... */\n      jump(tag_54)\n    tag_55:\n      pop\n        /* \"Base58.sol\":2499:2508  uint256 t */\n      0x00\n        /* \"Base58.sol\":2523:2532  uint256 c */\n      dup1\n        /* \"Base58.sol\":2547:2553  bool f */\n      0x00\n        /* \"Base58.sol\":2568:2585  bytes memory binu */\n      dup1\n        /* \"Base58.sol\":2629:2630  1 */\n      0x01\n        /* \"Base58.sol\":2621:2625  6115 */\n      0x17e3\n        /* \"Base58.sol\":2613:2617  8351 */\n      0x209f\n        /* \"Base58.sol\":2605:2610  b58sz */\n      dup9\n        /* \"Base58.sol\":2605:2617  b58sz * 8351 */\n      mul\n        /* \"Base58.sol\":2604:2625  (b58sz * 8351) / 6115 */\n      dup2\n      tag_60\n      jumpi\n      tag_61\n      tag_62\n      jump\t// in\n    tag_61:\n    tag_60:\n      div\n        /* \"Base58.sol\":2603:2630  ((b58sz * 8351) / 6115) + 1 */\n      add\n        /* \"Base58.sol\":2598:2599  2 */\n      0x02\n        /* \"Base58.sol\":2598:2631  2 * (((b58sz * 8351) / 6115) + 1) */\n      mul\n        /* \"Base58.sol\":2588:2632  new bytes(2 * (((b58sz * 8351) / 6115) + 1)) */\n      0xffffffffffffffff\n      dup2\n      gt\n      iszero\n      tag_63\n      jumpi\n      tag_64\n      tag_44\n      jump\t// in\n    tag_64:\n    tag_63:\n      mload(0x40)\n      swap1\n      dup1\n      dup3\n      mstore\n      dup1\n      0x1f\n      add\n      not(0x1f)\n      and\n      0x20\n      add\n      dup3\n      add\n      0x40\n      mstore\n      dup1\n      iszero\n      tag_65\n      jumpi\n      dup2\n      0x20\n      add\n      0x01\n      dup3\n      mul\n      dup1\n      calldatasize\n      dup4\n      calldatacopy\n      dup1\n      dup3\n      add\n      swap2\n      pop\n      pop\n      swap1\n      pop\n    tag_65:\n      pop\n        /* \"Base58.sol\":2568:2632  bytes memory binu = new bytes(2 * (((b58sz * 8351) / 6115) + 1)) */\n      swap1\n      pop\n        /* \"Base58.sol\":2647:2667  uint32[] memory outi */\n      0x00\n        /* \"Base58.sol\":2697:2698  4 */\n      0x04\n        /* \"Base58.sol\":2692:2693  3 */\n      0x03\n        /* \"Base58.sol\":2684:2689  b58sz */\n      dup9\n        /* \"Base58.sol\":2684:2693  b58sz + 3 */\n      add\n        /* \"Base58.sol\":2683:2698  (b58sz + 3) / 4 */\n      dup2\n      tag_66\n      jumpi\n      tag_67\n      tag_62\n      jump\t// in\n    tag_67:\n    tag_66:\n      div\n        /* \"Base58.sol\":2670:2699  new uint32[]((b58sz + 3) / 4) */\n      0xffffffffffffffff\n      dup2\n      gt\n      iszero\n      tag_68\n      jumpi\n      tag_69\n      tag_44\n      jump\t// in\n    tag_69:\n    tag_68:\n      mload(0x40)\n      swap1\n      dup1\n      dup3\n      mstore\n      dup1\n      0x20\n      mul\n      0x20\n      add\n      dup3\n      add\n      0x40\n      mstore\n      dup1\n      iszero\n      tag_70\n      jumpi\n      dup2\n      0x20\n      add\n      0x20\n      dup3\n      mul\n      dup1\n      calldatasize\n      dup4\n      calldatacopy\n      dup1\n      dup3\n      add\n      swap2\n      pop\n      pop\n      swap1\n      pop\n    tag_70:\n      pop\n        /* \"Base58.sol\":2647:2699  uint32[] memory outi = new uint32[]((b58sz + 3) / 4) */\n      swap1\n      pop\n        /* \"Base58.sol\":2719:2728  uint256 i */\n      0x00\n        /* \"Base58.sol\":2714:3162  for (uint256 i = 0; i < data_.length; i++) {... */\n    tag_71:\n        /* \"Base58.sol\":2738:2743  data_ */\n      dup11\n        /* \"Base58.sol\":2738:2750  data_.length */\n      mload\n        /* \"Base58.sol\":2734:2735  i */\n      dup2\n        /* \"Base58.sol\":2734:2750  i < data_.length */\n      lt\n        /* \"Base58.sol\":2714:3162  for (uint256 i = 0; i < data_.length; i++) {... */\n      iszero\n      tag_72\n      jumpi\n        /* \"Base58.sol\":2776:2784  bytes1 r */\n      0x00\n        /* \"Base58.sol\":2787:2792  data_ */\n      dup12\n        /* \"Base58.sol\":2793:2794  i */\n      dup3\n        /* \"Base58.sol\":2787:2795  data_[i] */\n      dup2\n      mload\n      dup2\n      lt\n      tag_74\n      jumpi\n      tag_75\n      tag_39\n      jump\t// in\n    tag_75:\n    tag_74:\n      0x20\n      add\n      add\n      mload\n      0xf8\n      shr\n      0xf8\n      shl\n        /* \"Base58.sol\":2776:2795  bytes1 r = data_[i] */\n      swap1\n      pop\n        /* \"Base58.sol\":2823:2843  indexOf(ALPHABET, r) */\n      tag_76\n        /* \"Base58.sol\":2831:2839  ALPHABET */\n      mload(0x40)\n      dup1\n      0x60\n      add\n      0x40\n      mstore\n      dup1\n      0x3a\n      dup2\n      mstore\n      0x20\n      add\n      data_e72daf94b45f828c6e9fb35ca4f157bc4eef8ccec3cc5bc840ee513b6ee42a62\n      0x3a\n      swap2\n      codecopy\n        /* \"Base58.sol\":2841:2842  r */\n      dup3\n        /* \"Base58.sol\":2823:2830  indexOf */\n      tag_19\n        /* \"Base58.sol\":2823:2843  indexOf(ALPHABET, r) */\n      jump\t// in\n    tag_76:\n        /* \"Base58.sol\":2814:2843  (c, f) = indexOf(ALPHABET, r) */\n      dup1\n      swap7\n      pop\n      dup2\n      swap8\n      pop\n      pop\n      pop\n        /* \"Base58.sol\":2870:2871  f */\n      dup5\n        /* \"Base58.sol\":2862:2896  require(f, \"invalid base58 digit\") */\n      tag_77\n      jumpi\n      mload(0x40)\n      0x08c379a000000000000000000000000000000000000000000000000000000000\n      dup2\n      mstore\n      0x04\n      add\n      tag_78\n      swap1\n      tag_79\n      jump\t// in\n    tag_78:\n      mload(0x40)\n      dup1\n      swap2\n      sub\n      swap1\n      revert\n    tag_77:\n        /* \"Base58.sol\":2920:2928  int256 k */\n      0x00\n        /* \"Base58.sol\":2953:2954  1 */\n      0x01\n        /* \"Base58.sol\":2938:2942  outi */\n      dup5\n        /* \"Base58.sol\":2938:2949  outi.length */\n      mload\n        /* \"Base58.sol\":2931:2954  int256(outi.length) - 1 */\n      sub\n        /* \"Base58.sol\":2920:2954  int256 k = int256(outi.length) - 1 */\n      swap1\n      pop\n        /* \"Base58.sol\":2915:3147  for (int256 k = int256(outi.length) - 1; k >= 0; k--) {... */\n    tag_80:\n        /* \"Base58.sol\":2961:2962  0 */\n      0x00\n        /* \"Base58.sol\":2956:2957  k */\n      dup2\n        /* \"Base58.sol\":2956:2962  k >= 0 */\n      slt\n        /* \"Base58.sol\":2915:3147  for (int256 k = int256(outi.length) - 1; k >= 0; k--) {... */\n      tag_81\n      jumpi\n        /* \"Base58.sol\":3028:3029  c */\n      dup7\n        /* \"Base58.sol\":3023:3025  58 */\n      0x3a\n        /* \"Base58.sol\":3003:3007  outi */\n      dup6\n        /* \"Base58.sol\":3016:3017  k */\n      dup4\n        /* \"Base58.sol\":3003:3019  outi[uint256(k)] */\n      dup2\n      mload\n      dup2\n      lt\n      tag_83\n      jumpi\n      tag_84\n      tag_39\n      jump\t// in\n    tag_84:\n    tag_83:\n      0x20\n      mul\n      0x20\n      add\n      add\n      mload\n        /* \"Base58.sol\":2996:3020  uint64(outi[uint256(k)]) */\n      0xffffffff\n      and\n        /* \"Base58.sol\":2996:3025  uint64(outi[uint256(k)]) * 58 */\n      mul\n        /* \"Base58.sol\":2996:3029  uint64(outi[uint256(k)]) * 58 + c */\n      0xffffffffffffffff\n      and\n      add\n        /* \"Base58.sol\":2992:3029  t = uint64(outi[uint256(k)]) * 58 + c */\n      swap8\n      pop\n        /* \"Base58.sol\":3061:3063  32 */\n      0x20\n        /* \"Base58.sol\":3056:3057  t */\n      dup9\n        /* \"Base58.sol\":3056:3063  t >> 32 */\n      swap1\n      shr\n        /* \"Base58.sol\":3052:3063  c = t >> 32 */\n      swap7\n      pop\n        /* \"Base58.sol\":3116:3126  0xffffffff */\n      0xffffffff\n        /* \"Base58.sol\":3112:3113  t */\n      dup9\n        /* \"Base58.sol\":3112:3126  t & 0xffffffff */\n      and\n        /* \"Base58.sol\":3086:3090  outi */\n      dup5\n        /* \"Base58.sol\":3099:3100  k */\n      dup3\n        /* \"Base58.sol\":3086:3102  outi[uint256(k)] */\n      dup2\n      mload\n      dup2\n      lt\n      tag_85\n      jumpi\n      tag_86\n      tag_39\n      jump\t// in\n    tag_86:\n    tag_85:\n      0x20\n      mul\n      0x20\n      add\n      add\n        /* \"Base58.sol\":3086:3127  outi[uint256(k)] = uint32(t & 0xffffffff) */\n      swap1\n      0xffffffff\n      and\n      swap1\n      dup2\n      0xffffffff\n      and\n      dup2\n      mstore\n      pop\n      pop\n        /* \"Base58.sol\":2964:2967  k-- */\n      dup1\n      dup1\n      0x01\n      swap1\n      sub\n      swap2\n      pop\n      pop\n        /* \"Base58.sol\":2915:3147  for (int256 k = int256(outi.length) - 1; k >= 0; k--) {... */\n      jump(tag_80)\n    tag_81:\n      pop\n        /* \"Base58.sol\":2757:3162  {... */\n      pop\n        /* \"Base58.sol\":2752:2755  i++ */\n      dup1\n      dup1\n      0x01\n      add\n      swap2\n      pop\n      pop\n        /* \"Base58.sol\":2714:3162  for (uint256 i = 0; i < data_.length; i++) {... */\n      jump(tag_71)\n    tag_72:\n      pop\n        /* \"Base58.sol\":3176:3187  uint64 mask */\n      0x00\n        /* \"Base58.sol\":3210:3211  8 */\n      0x08\n        /* \"Base58.sol\":3205:3206  4 */\n      0x04\n        /* \"Base58.sol\":3197:3202  b58sz */\n      dup10\n        /* \"Base58.sol\":3197:3206  b58sz % 4 */\n      dup2\n      tag_87\n      jumpi\n      tag_88\n      tag_62\n      jump\t// in\n    tag_88:\n    tag_87:\n      mod\n        /* \"Base58.sol\":3190:3211  uint64(b58sz % 4) * 8 */\n      mul\n        /* \"Base58.sol\":3176:3211  uint64 mask = uint64(b58sz % 4) * 8 */\n      swap1\n      pop\n        /* \"Base58.sol\":3238:3239  0 */\n      0x00\n        /* \"Base58.sol\":3230:3234  mask */\n      dup2\n        /* \"Base58.sol\":3230:3239  mask == 0 */\n      0xffffffffffffffff\n      and\n      sub\n        /* \"Base58.sol\":3226:3285  if (mask == 0) {... */\n      tag_89\n      jumpi\n        /* \"Base58.sol\":3267:3269  32 */\n      0x20\n        /* \"Base58.sol\":3260:3269  mask = 32 */\n      swap1\n      pop\n        /* \"Base58.sol\":3226:3285  if (mask == 0) {... */\n    tag_89:\n        /* \"Base58.sol\":3307:3308  8 */\n      0x08\n        /* \"Base58.sol\":3299:3308  mask -= 8 */\n      dup2\n      sub\n      swap1\n      pop\n        /* \"Base58.sol\":3323:3337  uint256 outLen */\n      0x00\n        /* \"Base58.sol\":3361:3370  uint256 j */\n      dup1\n        /* \"Base58.sol\":3356:3721  for (uint256 j = 0; j < outi.length; j++) {... */\n    tag_90:\n        /* \"Base58.sol\":3380:3384  outi */\n      dup4\n        /* \"Base58.sol\":3380:3391  outi.length */\n      mload\n        /* \"Base58.sol\":3376:3377  j */\n      dup2\n        /* \"Base58.sol\":3376:3391  j < outi.length */\n      lt\n        /* \"Base58.sol\":3356:3721  for (uint256 j = 0; j < outi.length; j++) {... */\n      iszero\n      tag_91\n      jumpi\n        /* \"Base58.sol\":3417:3678  while (mask < 32) {... */\n    tag_93:\n        /* \"Base58.sol\":3431:3433  32 */\n      0x20\n        /* \"Base58.sol\":3424:3428  mask */\n      dup4\n        /* \"Base58.sol\":3424:3433  mask < 32 */\n      0xffffffffffffffff\n      and\n      lt\n        /* \"Base58.sol\":3417:3678  while (mask < 32) {... */\n      iszero\n      tag_94\n      jumpi\n        /* \"Base58.sol\":3497:3501  mask */\n      dup3\n        /* \"Base58.sol\":3486:3501  outi[j] >> mask */\n      0xffffffffffffffff\n      and\n        /* \"Base58.sol\":3486:3490  outi */\n      dup5\n        /* \"Base58.sol\":3491:3492  j */\n      dup3\n        /* \"Base58.sol\":3486:3493  outi[j] */\n      dup2\n      mload\n      dup2\n      lt\n      tag_95\n      jumpi\n      tag_96\n      tag_39\n      jump\t// in\n    tag_96:\n    tag_95:\n      0x20\n      mul\n      0x20\n      add\n      add\n      mload\n        /* \"Base58.sol\":3486:3501  outi[j] >> mask */\n      0xffffffff\n      and\n      swap1\n      shr\n        /* \"Base58.sol\":3473:3503  bytes1(uint8(outi[j] >> mask)) */\n      0xf8\n      shl\n        /* \"Base58.sol\":3458:3462  binu */\n      dup6\n        /* \"Base58.sol\":3463:3469  outLen */\n      dup4\n        /* \"Base58.sol\":3458:3470  binu[outLen] */\n      dup2\n      mload\n      dup2\n      lt\n      tag_97\n      jumpi\n      tag_98\n      tag_39\n      jump\t// in\n    tag_98:\n    tag_97:\n      0x20\n      add\n      add\n        /* \"Base58.sol\":3458:3503  binu[outLen] = bytes1(uint8(outi[j] >> mask)) */\n      swap1\n      not(0xffffffffffffffffffffffffffffffffffffffffffffffffffffffffffffff)\n      and\n      swap1\n      dup2\n      0x00\n      byte\n      swap1\n      mstore8\n      pop\n        /* \"Base58.sol\":3526:3534  outLen++ */\n      dup2\n      dup1\n      0x01\n      add\n      swap3\n      pop\n      pop\n        /* \"Base58.sol\":3568:3569  8 */\n      0x08\n        /* \"Base58.sol\":3561:3565  mask */\n      dup4\n        /* \"Base58.sol\":3561:3569  mask < 8 */\n      0xffffffffffffffff\n      and\n      lt\n        /* \"Base58.sol\":3598:3603  break */\n      tag_94\n        /* \"Base58.sol\":3557:3627  if (mask < 8) {... */\n      jumpi\n        /* \"Base58.sol\":3657:3658  8 */\n      0x08\n        /* \"Base58.sol\":3649:3658  mask -= 8 */\n      dup4\n      sub\n      swap3\n      pop\n        /* \"Base58.sol\":3417:3678  while (mask < 32) {... */\n      jump(tag_93)\n    tag_94:\n        /* \"Base58.sol\":3703:3705  24 */\n      0x18\n        /* \"Base58.sol\":3696:3705  mask = 24 */\n      swap3\n      pop\n        /* \"Base58.sol\":3393:3396  j++ */\n      dup1\n      dup1\n      0x01\n      add\n      swap2\n      pop\n      pop\n        /* \"Base58.sol\":3356:3721  for (uint256 j = 0; j < outi.length; j++) {... */\n      jump(tag_90)\n    tag_91:\n      pop\n        /* \"Base58.sol\":3740:3751  uint256 msb */\n      0x00\n        /* \"Base58.sol\":3754:3760  zcount */\n      dup9\n        /* \"Base58.sol\":3740:3760  uint256 msb = zcount */\n      swap1\n      pop\n        /* \"Base58.sol\":3735:3924  for (uint256 msb = zcount; msb < binu.length; msb++) {... */\n    tag_100:\n        /* \"Base58.sol\":3768:3772  binu */\n      dup5\n        /* \"Base58.sol\":3768:3779  binu.length */\n      mload\n        /* \"Base58.sol\":3762:3765  msb */\n      dup2\n        /* \"Base58.sol\":3762:3779  msb < binu.length */\n      lt\n        /* \"Base58.sol\":3735:3924  for (uint256 msb = zcount; msb < binu.length; msb++) {... */\n      iszero\n      tag_101\n      jumpi\n        /* \"Base58.sol\":3823:3824  0 */\n      0x00\n        /* \"Base58.sol\":3811:3824  binu[msb] > 0 */\n      0xf8\n      shl\n        /* \"Base58.sol\":3811:3815  binu */\n      dup6\n        /* \"Base58.sol\":3816:3819  msb */\n      dup3\n        /* \"Base58.sol\":3811:3820  binu[msb] */\n      dup2\n      mload\n      dup2\n      lt\n      tag_103\n      jumpi\n      tag_104\n      tag_39\n      jump\t// in\n    tag_104:\n    tag_103:\n      0x20\n      add\n      add\n      mload\n      0xf8\n      shr\n      0xf8\n      shl\n        /* \"Base58.sol\":3811:3824  binu[msb] > 0 */\n      not(0xffffffffffffffffffffffffffffffffffffffffffffffffffffffffffffff)\n      and\n      gt\n        /* \"Base58.sol\":3807:3909  if (binu[msb] > 0) {... */\n      iszero\n      tag_105\n      jumpi\n        /* \"Base58.sol\":3856:3889  slice(binu, msb - zcount, outLen) */\n      tag_106\n        /* \"Base58.sol\":3862:3866  binu */\n      dup6\n        /* \"Base58.sol\":3874:3880  zcount */\n      dup11\n        /* \"Base58.sol\":3868:3871  msb */\n      dup4\n        /* \"Base58.sol\":3868:3880  msb - zcount */\n      sub\n        /* \"Base58.sol\":3882:3888  outLen */\n      dup5\n        /* \"Base58.sol\":3856:3861  slice */\n      tag_25\n        /* \"Base58.sol\":3856:3889  slice(binu, msb - zcount, outLen) */\n      jump\t// in\n    tag_106:\n        /* \"Base58.sol\":3849:3889  return slice(binu, msb - zcount, outLen) */\n      swap12\n      pop\n      pop\n      pop\n      pop\n      pop\n      pop\n      pop\n      pop\n      pop\n      pop\n      pop\n      pop\n      jump(tag_53)\n        /* \"Base58.sol\":3807:3909  if (binu[msb] > 0) {... */\n    tag_105:\n        /* \"Base58.sol\":3781:3786  msb++ */\n      dup1\n      dup1\n      0x01\n      add\n      swap2\n      pop\n      pop\n        /* \"Base58.sol\":3735:3924  for (uint256 msb = zcount; msb < binu.length; msb++) {... */\n      jump(tag_100)\n    tag_101:\n      pop\n        /* \"Base58.sol\":3945:3967  slice(binu, 0, outLen) */\n      tag_107\n        /* \"Base58.sol\":3951:3955  binu */\n      dup5\n        /* \"Base58.sol\":3957:3958  0 */\n      0x00\n        /* \"Base58.sol\":3960:3966  outLen */\n      dup4\n        /* \"Base58.sol\":3945:3950  slice */\n      tag_25\n        /* \"Base58.sol\":3945:3967  slice(binu, 0, outLen) */\n      jump\t// in\n    tag_107:\n        /* \"Base58.sol\":3938:3967  return slice(binu, 0, outLen) */\n      swap11\n      pop\n      pop\n      pop\n      pop\n      pop\n      pop\n      pop\n      pop\n      pop\n      pop\n      pop\n        /* \"Base58.sol\":2162:3986  function decode(bytes memory data_) internal pure returns (bytes memory) {... */\n    tag_53:\n      swap2\n      swap1\n      pop\n      jump\t// out\n        /* \"Base58.sol\":645:1946  function encode(bytes memory data_) internal  pure returns (bytes memory) {... */\n    tag_32:\n        /* \"Base58.sol\":705:717  bytes memory */\n      0x60\n        /* \"Base58.sol\":755:767  uint256 size */\n      0x00\n        /* \"Base58.sol\":770:775  data_ */\n      dup3\n        /* \"Base58.sol\":770:782  data_.length */\n      mload\n        /* \"Base58.sol\":755:782  uint256 size = data_.length */\n      swap1\n      pop\n        /* \"Base58.sol\":797:814  uint256 zeroCount */\n      0x00\n        /* \"Base58.sol\":829:925  while (zeroCount < size && data_[zeroCount] == 0) {... */\n    tag_109:\n        /* \"Base58.sol\":848:852  size */\n      dup2\n        /* \"Base58.sol\":836:845  zeroCount */\n      dup2\n        /* \"Base58.sol\":836:852  zeroCount < size */\n      lt\n        /* \"Base58.sol\":836:877  zeroCount < size && data_[zeroCount] == 0 */\n      dup1\n      iszero\n      tag_111\n      jumpi\n      pop\n        /* \"Base58.sol\":876:877  0 */\n      0x00\n        /* \"Base58.sol\":856:877  data_[zeroCount] == 0 */\n      0xf8\n      shl\n        /* \"Base58.sol\":856:861  data_ */\n      dup5\n        /* \"Base58.sol\":862:871  zeroCount */\n      dup3\n        /* \"Base58.sol\":856:872  data_[zeroCount] */\n      dup2\n      mload\n      dup2\n      lt\n      tag_112\n      jumpi\n      tag_113\n      tag_39\n      jump\t// in\n    tag_113:\n    tag_112:\n      0x20\n      add\n      add\n      mload\n      0xf8\n      shr\n      0xf8\n      shl\n        /* \"Base58.sol\":856:877  data_[zeroCount] == 0 */\n      not(0xffffffffffffffffffffffffffffffffffffffffffffffffffffffffffffff)\n      and\n      eq\n        /* \"Base58.sol\":836:877  zeroCount < size && data_[zeroCount] == 0 */\n    tag_111:\n        /* \"Base58.sol\":829:925  while (zeroCount < size && data_[zeroCount] == 0) {... */\n      iszero\n      tag_110\n      jumpi\n        /* \"Base58.sol\":898:909  zeroCount++ */\n      dup1\n      dup1\n      0x01\n      add\n      swap2\n      pop\n      pop\n        /* \"Base58.sol\":829:925  while (zeroCount < size && data_[zeroCount] == 0) {... */\n      jump(tag_109)\n    tag_110:\n        /* \"Base58.sol\":995:996  1 */\n      0x01\n        /* \"Base58.sol\":988:992  6115 */\n      0x17e3\n        /* \"Base58.sol\":980:984  8351 */\n      0x209f\n        /* \"Base58.sol\":967:976  zeroCount */\n      dup4\n        /* \"Base58.sol\":960:964  size */\n      dup6\n        /* \"Base58.sol\":960:976  size - zeroCount */\n      sub\n        /* \"Base58.sol\":959:984  (size - zeroCount) * 8351 */\n      mul\n        /* \"Base58.sol\":958:992  ((size - zeroCount) * 8351) / 6115 */\n      dup2\n      tag_114\n      jumpi\n      tag_115\n      tag_62\n      jump\t// in\n    tag_115:\n    tag_114:\n      div\n        /* \"Base58.sol\":946:955  zeroCount */\n      dup3\n        /* \"Base58.sol\":946:992  zeroCount + ((size - zeroCount) * 8351) / 6115 */\n      add\n        /* \"Base58.sol\":946:996  zeroCount + ((size - zeroCount) * 8351) / 6115 + 1 */\n      add\n        /* \"Base58.sol\":939:996  size = zeroCount + ((size - zeroCount) * 8351) / 6115 + 1 */\n      swap2\n      pop\n        /* \"Base58.sol\":1011:1028  bytes memory slot */\n      0x00\n        /* \"Base58.sol\":1041:1045  size */\n      dup3\n        /* \"Base58.sol\":1031:1046  new bytes(size) */\n      0xffffffffffffffff\n      dup2\n      gt\n      iszero\n      tag_116\n      jumpi\n      tag_117\n      tag_44\n      jump\t// in\n    tag_117:\n    tag_116:\n      mload(0x40)\n      swap1\n      dup1\n      dup3\n      mstore\n      dup1\n      0x1f\n      add\n      not(0x1f)\n      and\n      0x20\n      add\n      dup3\n      add\n      0x40\n      mstore\n      dup1\n      iszero\n      tag_118\n      jumpi\n      dup2\n      0x20\n      add\n      0x01\n      dup3\n      mul\n      dup1\n      calldatasize\n      dup4\n      calldatacopy\n      dup1\n      dup3\n      add\n      swap2\n      pop\n      pop\n      swap1\n      pop\n    tag_118:\n      pop\n        /* \"Base58.sol\":1011:1046  bytes memory slot = new bytes(size) */\n      swap1\n      pop\n        /* \"Base58.sol\":1061:1073  uint32 carry */\n      0x00\n        /* \"Base58.sol\":1088:1096  int256 m */\n      dup1\n        /* \"Base58.sol\":1111:1122  int256 high */\n      0x00\n        /* \"Base58.sol\":1140:1141  1 */\n      0x01\n        /* \"Base58.sol\":1132:1136  size */\n      dup7\n        /* \"Base58.sol\":1125:1141  int256(size) - 1 */\n      sub\n        /* \"Base58.sol\":1111:1141  int256 high = int256(size) - 1 */\n      swap1\n      pop\n        /* \"Base58.sol\":1161:1170  uint256 i */\n      0x00\n        /* \"Base58.sol\":1156:1547  for (uint256 i = 0; i < data_.length; i++) {... */\n    tag_119:\n        /* \"Base58.sol\":1180:1185  data_ */\n      dup9\n        /* \"Base58.sol\":1180:1192  data_.length */\n      mload\n        /* \"Base58.sol\":1176:1177  i */\n      dup2\n        /* \"Base58.sol\":1176:1192  i < data_.length */\n      lt\n        /* \"Base58.sol\":1156:1547  for (uint256 i = 0; i < data_.length; i++) {... */\n      iszero\n      tag_120\n      jumpi\n        /* \"Base58.sol\":1236:1237  1 */\n      0x01\n        /* \"Base58.sol\":1229:1233  size */\n      dup8\n        /* \"Base58.sol\":1229:1237  size - 1 */\n      sub\n        /* \"Base58.sol\":1218:1238  m = int256(size - 1) */\n      swap3\n      pop\n        /* \"Base58.sol\":1276:1281  data_ */\n      dup9\n        /* \"Base58.sol\":1282:1283  i */\n      dup2\n        /* \"Base58.sol\":1276:1284  data_[i] */\n      dup2\n      mload\n      dup2\n      lt\n      tag_125\n      jumpi\n      tag_126\n      tag_39\n      jump\t// in\n    tag_126:\n    tag_125:\n      0x20\n      add\n      add\n      mload\n      0xf8\n      shr\n      0xf8\n      shl\n        /* \"Base58.sol\":1270:1285  uint8(data_[i]) */\n      0xf8\n      shr\n        /* \"Base58.sol\":1262:1285  carry = uint8(data_[i]) */\n      0xff\n      and\n      swap4\n      pop\n        /* \"Base58.sol\":1257:1505  for (carry = uint8(data_[i]); m > high || carry != 0; m--) {... */\n    tag_122:\n        /* \"Base58.sol\":1291:1295  high */\n      dup2\n        /* \"Base58.sol\":1287:1288  m */\n      dup4\n        /* \"Base58.sol\":1287:1295  m > high */\n      sgt\n        /* \"Base58.sol\":1287:1309  m > high || carry != 0 */\n      dup1\n      tag_127\n      jumpi\n      pop\n        /* \"Base58.sol\":1308:1309  0 */\n      0x00\n        /* \"Base58.sol\":1299:1304  carry */\n      dup5\n        /* \"Base58.sol\":1299:1309  carry != 0 */\n      0xffffffff\n      and\n      eq\n      iszero\n        /* \"Base58.sol\":1287:1309  m > high || carry != 0 */\n    tag_127:\n        /* \"Base58.sol\":1257:1505  for (carry = uint8(data_[i]); m > high || carry != 0; m--) {... */\n      iszero\n      tag_123\n      jumpi\n        /* \"Base58.sol\":1367:1371  slot */\n      dup5\n        /* \"Base58.sol\":1380:1381  m */\n      dup4\n        /* \"Base58.sol\":1367:1383  slot[uint256(m)] */\n      dup2\n      mload\n      dup2\n      lt\n      tag_128\n      jumpi\n      tag_129\n      tag_39\n      jump\t// in\n    tag_129:\n    tag_128:\n      0x20\n      add\n      add\n      mload\n      0xf8\n      shr\n      0xf8\n      shl\n        /* \"Base58.sol\":1361:1384  uint8(slot[uint256(m)]) */\n      0xf8\n      shr\n        /* \"Base58.sol\":1355:1384  256 * uint8(slot[uint256(m)]) */\n      0xff\n      and\n        /* \"Base58.sol\":1355:1358  256 */\n      0x0100\n        /* \"Base58.sol\":1355:1384  256 * uint8(slot[uint256(m)]) */\n      mul\n        /* \"Base58.sol\":1347:1384  carry + 256 * uint8(slot[uint256(m)]) */\n      0xffff\n      and\n        /* \"Base58.sol\":1347:1352  carry */\n      dup5\n        /* \"Base58.sol\":1347:1384  carry + 256 * uint8(slot[uint256(m)]) */\n      add\n        /* \"Base58.sol\":1339:1384  carry = carry + 256 * uint8(slot[uint256(m)]) */\n      swap4\n      pop\n        /* \"Base58.sol\":1447:1449  58 */\n      0x3a\n        /* \"Base58.sol\":1439:1444  carry */\n      dup5\n        /* \"Base58.sol\":1439:1449  carry % 58 */\n      0xffffffff\n      and\n      dup2\n      tag_130\n      jumpi\n      tag_131\n      tag_62\n      jump\t// in\n    tag_131:\n    tag_130:\n      mod\n        /* \"Base58.sol\":1426:1451  bytes1(uint8(carry % 58)) */\n      0xf8\n      shl\n        /* \"Base58.sol\":1407:1411  slot */\n      dup6\n        /* \"Base58.sol\":1420:1421  m */\n      dup5\n        /* \"Base58.sol\":1407:1423  slot[uint256(m)] */\n      dup2\n      mload\n      dup2\n      lt\n      tag_132\n      jumpi\n      tag_133\n      tag_39\n      jump\t// in\n    tag_133:\n    tag_132:\n      0x20\n      add\n      add\n        /* \"Base58.sol\":1407:1451  slot[uint256(m)] = bytes1(uint8(carry % 58)) */\n      swap1\n      not(0xffffffffffffffffffffffffffffffffffffffffffffffffffffffffffffff)\n      and\n      swap1\n      dup2\n      0x00\n      byte\n      swap1\n      mstore8\n      pop\n        /* \"Base58.sol\":1483:1485  58 */\n      0x3a\n        /* \"Base58.sol\":1474:1485  carry /= 58 */\n      dup5\n      0xffffffff\n      and\n      dup2\n      tag_134\n      jumpi\n      tag_135\n      tag_62\n      jump\t// in\n    tag_135:\n    tag_134:\n      div\n      swap4\n      pop\n        /* \"Base58.sol\":1311:1314  m-- */\n      dup3\n      dup1\n      0x01\n      swap1\n      sub\n      swap4\n      pop\n      pop\n        /* \"Base58.sol\":1257:1505  for (carry = uint8(data_[i]); m > high || carry != 0; m--) {... */\n      jump(tag_122)\n    tag_123:\n        /* \"Base58.sol\":1530:1531  m */\n      dup3\n        /* \"Base58.sol\":1523:1531  high = m */\n      swap2\n      pop\n        /* \"Base58.sol\":1194:1197  i++ */\n      dup1\n      dup1\n      0x01\n      add\n      swap2\n      pop\n      pop\n        /* \"Base58.sol\":1156:1547  for (uint256 i = 0; i < data_.length; i++) {... */\n      jump(tag_119)\n    tag_120:\n      pop\n        /* \"Base58.sol\":1561:1570  uint256 n */\n      0x00\n        /* \"Base58.sol\":1594:1603  zeroCount */\n      dup6\n        /* \"Base58.sol\":1590:1603  n = zeroCount */\n      swap1\n      pop\n        /* \"Base58.sol\":1585:1638  for (n = zeroCount; n < size && slot[n] == 0; n++) {} */\n    tag_136:\n        /* \"Base58.sol\":1609:1613  size */\n      dup7\n        /* \"Base58.sol\":1605:1606  n */\n      dup2\n        /* \"Base58.sol\":1605:1613  n < size */\n      lt\n        /* \"Base58.sol\":1605:1629  n < size && slot[n] == 0 */\n      dup1\n      iszero\n      tag_139\n      jumpi\n      pop\n        /* \"Base58.sol\":1628:1629  0 */\n      0x00\n        /* \"Base58.sol\":1617:1629  slot[n] == 0 */\n      0xf8\n      shl\n        /* \"Base58.sol\":1617:1621  slot */\n      dup6\n        /* \"Base58.sol\":1622:1623  n */\n      dup3\n        /* \"Base58.sol\":1617:1624  slot[n] */\n      dup2\n      mload\n      dup2\n      lt\n      tag_140\n      jumpi\n      tag_141\n      tag_39\n      jump\t// in\n    tag_141:\n    tag_140:\n      0x20\n      add\n      add\n      mload\n      0xf8\n      shr\n      0xf8\n      shl\n        /* \"Base58.sol\":1617:1629  slot[n] == 0 */\n      not(0xffffffffffffffffffffffffffffffffffffffffffffffffffffffffffffff)\n      and\n      eq\n        /* \"Base58.sol\":1605:1629  n < size && slot[n] == 0 */\n    tag_139:\n        /* \"Base58.sol\":1585:1638  for (n = zeroCount; n < size && slot[n] == 0; n++) {} */\n      iszero\n      tag_137\n      jumpi\n        /* \"Base58.sol\":1631:1634  n++ */\n      dup1\n      dup1\n      0x01\n      add\n      swap2\n      pop\n      pop\n        /* \"Base58.sol\":1585:1638  for (n = zeroCount; n < size && slot[n] == 0; n++) {} */\n      jump(tag_136)\n    tag_137:\n        /* \"Base58.sol\":1678:1687  zeroCount */\n      dup6\n        /* \"Base58.sol\":1674:1675  n */\n      dup2\n        /* \"Base58.sol\":1674:1687  n - zeroCount */\n      sub\n        /* \"Base58.sol\":1659:1663  slot */\n      dup6\n        /* \"Base58.sol\":1659:1670  slot.length */\n      mload\n        /* \"Base58.sol\":1659:1688  slot.length - (n - zeroCount) */\n      sub\n        /* \"Base58.sol\":1652:1688  size = slot.length - (n - zeroCount) */\n      swap7\n      pop\n        /* \"Base58.sol\":1703:1719  bytes memory out */\n      0x00\n        /* \"Base58.sol\":1732:1736  size */\n      dup8\n        /* \"Base58.sol\":1722:1737  new bytes(size) */\n      0xffffffffffffffff\n      dup2\n      gt\n      iszero\n      tag_142\n      jumpi\n      tag_143\n      tag_44\n      jump\t// in\n    tag_143:\n    tag_142:\n      mload(0x40)\n      swap1\n      dup1\n      dup3\n      mstore\n      dup1\n      0x1f\n      add\n      not(0x1f)\n      and\n      0x20\n      add\n      dup3\n      add\n      0x40\n      mstore\n      dup1\n      iszero\n      tag_144\n      jumpi\n      dup2\n      0x20\n      add\n      0x01\n      dup3\n      mul\n      dup1\n      calldatasize\n      dup4\n      calldatacopy\n      dup1\n      dup3\n      add\n      swap2\n      pop\n      pop\n      swap1\n      pop\n    tag_144:\n      pop\n        /* \"Base58.sol\":1703:1737  bytes memory out = new bytes(size) */\n      swap1\n      pop\n        /* \"Base58.sol\":1757:1766  uint256 i */\n      0x00\n        /* \"Base58.sol\":1752:1903  for (uint256 i = 0; i < size; i++) {... */\n    tag_145:\n        /* \"Base58.sol\":1776:1780  size */\n      dup9\n        /* \"Base58.sol\":1772:1773  i */\n      dup2\n        /* \"Base58.sol\":1772:1780  i < size */\n      lt\n        /* \"Base58.sol\":1752:1903  for (uint256 i = 0; i < size; i++) {... */\n      iszero\n      tag_146\n      jumpi\n        /* \"Base58.sol\":1806:1815  uint256 j */\n      0x00\n        /* \"Base58.sol\":1826:1835  zeroCount */\n      dup9\n        /* \"Base58.sol\":1822:1823  n */\n      dup5\n        /* \"Base58.sol\":1818:1819  i */\n      dup4\n        /* \"Base58.sol\":1818:1823  i + n */\n      add\n        /* \"Base58.sol\":1818:1835  i + n - zeroCount */\n      sub\n        /* \"Base58.sol\":1806:1835  uint256 j = i + n - zeroCount */\n      swap1\n      pop\n        /* \"Base58.sol\":1863:1871  ALPHABET */\n      mload(0x40)\n      dup1\n      0x60\n      add\n      0x40\n      mstore\n      dup1\n      0x3a\n      dup2\n      mstore\n      0x20\n      add\n      data_e72daf94b45f828c6e9fb35ca4f157bc4eef8ccec3cc5bc840ee513b6ee42a62\n      0x3a\n      swap2\n      codecopy\n        /* \"Base58.sol\":1878:1882  slot */\n      dup9\n        /* \"Base58.sol\":1883:1884  j */\n      dup3\n        /* \"Base58.sol\":1878:1885  slot[j] */\n      dup2\n      mload\n      dup2\n      lt\n      tag_148\n      jumpi\n      tag_149\n      tag_39\n      jump\t// in\n    tag_149:\n    tag_148:\n      0x20\n      add\n      add\n      mload\n      0xf8\n      shr\n      0xf8\n      shl\n        /* \"Base58.sol\":1872:1886  uint8(slot[j]) */\n      0xf8\n      shr\n        /* \"Base58.sol\":1863:1887  ALPHABET[uint8(slot[j])] */\n      0xff\n      and\n      dup2\n      mload\n      dup2\n      lt\n      tag_150\n      jumpi\n      tag_151\n      tag_39\n      jump\t// in\n    tag_151:\n    tag_150:\n      0x20\n      add\n      add\n      mload\n      0xf8\n      shr\n      0xf8\n      shl\n        /* \"Base58.sol\":1854:1857  out */\n      dup4\n        /* \"Base58.sol\":1858:1859  i */\n      dup4\n        /* \"Base58.sol\":1854:1860  out[i] */\n      dup2\n      mload\n      dup2\n      lt\n      tag_152\n      jumpi\n      tag_153\n      tag_39\n      jump\t// in\n    tag_153:\n    tag_152:\n      0x20\n      add\n      add\n        /* \"Base58.sol\":1854:1887  out[i] = ALPHABET[uint8(slot[j])] */\n      swap1\n      not(0xffffffffffffffffffffffffffffffffffffffffffffffffffffffffffffff)\n      and\n      swap1\n      dup2\n      0x00\n      byte\n      swap1\n      mstore8\n      pop\n        /* \"Base58.sol\":1787:1903  {... */\n      pop\n        /* \"Base58.sol\":1782:1785  i++ */\n      dup1\n      dup1\n      0x01\n      add\n      swap2\n      pop\n      pop\n        /* \"Base58.sol\":1752:1903  for (uint256 i = 0; i < size; i++) {... */\n      jump(tag_145)\n    tag_146:\n      pop\n        /* \"Base58.sol\":1924:1927  out */\n      dup1\n        /* \"Base58.sol\":1917:1927  return out */\n      swap9\n      pop\n      pop\n      pop\n      pop\n      pop\n      pop\n      pop\n      pop\n      pop\n        /* \"Base58.sol\":645:1946  function encode(bytes memory data_) internal  pure returns (bytes memory) {... */\n      swap2\n      swap1\n      pop\n      jump\t// out\n        /* \"#utility.yul\":7:82   */\n    tag_154:\n        /* \"#utility.yul\":40:46   */\n      0x00\n        /* \"#utility.yul\":73:75   */\n      0x40\n        /* \"#utility.yul\":67:76   */\n      mload\n        /* \"#utility.yul\":57:76   */\n      swap1\n      pop\n        /* \"#utility.yul\":7:82   */\n      swap1\n      jump\t// out\n        /* \"#utility.yul\":88:205   */\n    tag_155:\n        /* \"#utility.yul\":197:198   */\n      0x00\n        /* \"#utility.yul\":194:195   */\n      dup1\n        /* \"#utility.yul\":187:199   */\n      revert\n        /* \"#utility.yul\":211:328   */\n    tag_156:\n        /* \"#utility.yul\":320:321   */\n      0x00\n        /* \"#utility.yul\":317:318   */\n      dup1\n        /* \"#utility.yul\":310:322   */\n      revert\n        /* \"#utility.yul\":334:451   */\n    tag_157:\n        /* \"#utility.yul\":443:444   */\n      0x00\n        /* \"#utility.yul\":440:441   */\n      dup1\n        /* \"#utility.yul\":433:445   */\n      revert\n        /* \"#utility.yul\":457:574   */\n    tag_158:\n        /* \"#utility.yul\":566:567   */\n      0x00\n        /* \"#utility.yul\":563:564   */\n      dup1\n        /* \"#utility.yul\":556:568   */\n      revert\n        /* \"#utility.yul\":580:682   */\n    tag_159:\n        /* \"#utility.yul\":621:627   */\n      0x00\n        /* \"#utility.yul\":672:674   */\n      0x1f\n        /* \"#utility.yul\":668:675   */\n      not\n        /* \"#utility.yul\":663:665   */\n      0x1f\n        /* \"#utility.yul\":656:661   */\n      dup4\n        /* \"#utility.yul\":652:666   */\n      add\n        /* \"#utility.yul\":648:676   */\n      and\n        /* \"#utility.yul\":638:676   */\n      swap1\n      pop\n        /* \"#utility.yul\":580:682   */\n      swap2\n      swap1\n      pop\n      jump\t// out\n        /* \"#utility.yul\":688:868   */\n    tag_44:\n        /* \"#utility.yul\":736:813   */\n      0x4e487b7100000000000000000000000000000000000000000000000000000000\n        /* \"#utility.yul\":733:734   */\n      0x00\n        /* \"#utility.yul\":726:814   */\n      mstore\n        /* \"#utility.yul\":833:837   */\n      0x41\n        /* \"#utility.yul\":830:831   */\n      0x04\n        /* \"#utility.yul\":823:838   */\n      mstore\n        /* \"#utility.yul\":857:861   */\n      0x24\n        /* \"#utility.yul\":854:855   */\n      0x00\n        /* \"#utility.yul\":847:862   */\n      revert\n        /* \"#utility.yul\":874:1155   */\n    tag_160:\n        /* \"#utility.yul\":957:984   */\n      tag_194\n        /* \"#utility.yul\":979:983   */\n      dup3\n        /* \"#utility.yul\":957:984   */\n      tag_159\n      jump\t// in\n    tag_194:\n        /* \"#utility.yul\":949:955   */\n      dup2\n        /* \"#utility.yul\":945:985   */\n      add\n        /* \"#utility.yul\":1087:1093   */\n      dup2\n        /* \"#utility.yul\":1075:1085   */\n      dup2\n        /* \"#utility.yul\":1072:1094   */\n      lt\n        /* \"#utility.yul\":1051:1069   */\n      0xffffffffffffffff\n        /* \"#utility.yul\":1039:1049   */\n      dup3\n        /* \"#utility.yul\":1036:1070   */\n      gt\n        /* \"#utility.yul\":1033:1095   */\n      or\n        /* \"#utility.yul\":1030:1118   */\n      iszero\n      tag_195\n      jumpi\n        /* \"#utility.yul\":1098:1116   */\n      tag_196\n      tag_44\n      jump\t// in\n    tag_196:\n        /* \"#utility.yul\":1030:1118   */\n    tag_195:\n        /* \"#utility.yul\":1138:1148   */\n      dup1\n        /* \"#utility.yul\":1134:1136   */\n      0x40\n        /* \"#utility.yul\":1127:1149   */\n      mstore\n        /* \"#utility.yul\":917:1155   */\n      pop\n        /* \"#utility.yul\":874:1155   */\n      pop\n      pop\n      jump\t// out\n        /* \"#utility.yul\":1161:1290   */\n    tag_161:\n        /* \"#utility.yul\":1195:1201   */\n      0x00\n        /* \"#utility.yul\":1222:1242   */\n      tag_198\n      tag_154\n      jump\t// in\n    tag_198:\n        /* \"#utility.yul\":1212:1242   */\n      swap1\n      pop\n        /* \"#utility.yul\":1251:1284   */\n      tag_199\n        /* \"#utility.yul\":1279:1283   */\n      dup3\n        /* \"#utility.yul\":1271:1277   */\n      dup3\n        /* \"#utility.yul\":1251:1284   */\n      tag_160\n      jump\t// in\n    tag_199:\n        /* \"#utility.yul\":1161:1290   */\n      swap2\n      swap1\n      pop\n      jump\t// out\n        /* \"#utility.yul\":1296:1604   */\n    tag_162:\n        /* \"#utility.yul\":1358:1362   */\n      0x00\n        /* \"#utility.yul\":1448:1466   */\n      0xffffffffffffffff\n        /* \"#utility.yul\":1440:1446   */\n      dup3\n        /* \"#utility.yul\":1437:1467   */\n      gt\n        /* \"#utility.yul\":1434:1490   */\n      iszero\n      tag_201\n      jumpi\n        /* \"#utility.yul\":1470:1488   */\n      tag_202\n      tag_44\n      jump\t// in\n    tag_202:\n        /* \"#utility.yul\":1434:1490   */\n    tag_201:\n        /* \"#utility.yul\":1508:1537   */\n      tag_203\n        /* \"#utility.yul\":1530:1536   */\n      dup3\n        /* \"#utility.yul\":1508:1537   */\n      tag_159\n      jump\t// in\n    tag_203:\n        /* \"#utility.yul\":1500:1537   */\n      swap1\n      pop\n        /* \"#utility.yul\":1592:1596   */\n      0x20\n        /* \"#utility.yul\":1586:1590   */\n      dup2\n        /* \"#utility.yul\":1582:1597   */\n      add\n        /* \"#utility.yul\":1574:1597   */\n      swap1\n      pop\n        /* \"#utility.yul\":1296:1604   */\n      swap2\n      swap1\n      pop\n      jump\t// out\n        /* \"#utility.yul\":1610:1758   */\n    tag_163:\n        /* \"#utility.yul\":1708:1714   */\n      dup3\n        /* \"#utility.yul\":1703:1706   */\n      dup2\n        /* \"#utility.yul\":1698:1701   */\n      dup4\n        /* \"#utility.yul\":1685:1715   */\n      calldatacopy\n        /* \"#utility.yul\":1749:1750   */\n      0x00\n        /* \"#utility.yul\":1740:1746   */\n      dup4\n        /* \"#utility.yul\":1735:1738   */\n      dup4\n        /* \"#utility.yul\":1731:1747   */\n      add\n        /* \"#utility.yul\":1724:1751   */\n      mstore\n        /* \"#utility.yul\":1610:1758   */\n      pop\n      pop\n      pop\n      jump\t// out\n        /* \"#utility.yul\":1764:2189   */\n    tag_164:\n        /* \"#utility.yul\":1842:1847   */\n      0x00\n        /* \"#utility.yul\":1867:1933   */\n      tag_206\n        /* \"#utility.yul\":1883:1932   */\n      tag_207\n        /* \"#utility.yul\":1925:1931   */\n      dup5\n        /* \"#utility.yul\":1883:1932   */\n      tag_162\n      jump\t// in\n    tag_207:\n        /* \"#utility.yul\":1867:1933   */\n      tag_161\n      jump\t// in\n    tag_206:\n        /* \"#utility.yul\":1858:1933   */\n      swap1\n      pop\n        /* \"#utility.yul\":1956:1962   */\n      dup3\n        /* \"#utility.yul\":1949:1954   */\n      dup2\n        /* \"#utility.yul\":1942:1963   */\n      mstore\n        /* \"#utility.yul\":1994:1998   */\n      0x20\n        /* \"#utility.yul\":1987:1992   */\n      dup2\n        /* \"#utility.yul\":1983:1999   */\n      add\n        /* \"#utility.yul\":2032:2035   */\n      dup5\n        /* \"#utility.yul\":2023:2029   */\n      dup5\n        /* \"#utility.yul\":2018:2021   */\n      dup5\n        /* \"#utility.yul\":2014:2030   */\n      add\n        /* \"#utility.yul\":2011:2036   */\n      gt\n        /* \"#utility.yul\":2008:2120   */\n      iszero\n      tag_208\n      jumpi\n        /* \"#utility.yul\":2039:2118   */\n      tag_209\n      tag_158\n      jump\t// in\n    tag_209:\n        /* \"#utility.yul\":2008:2120   */\n    tag_208:\n        /* \"#utility.yul\":2129:2183   */\n      tag_210\n        /* \"#utility.yul\":2176:2182   */\n      dup5\n        /* \"#utility.yul\":2171:2174   */\n      dup3\n        /* \"#utility.yul\":2166:2169   */\n      dup6\n        /* \"#utility.yul\":2129:2183   */\n      tag_163\n      jump\t// in\n    tag_210:\n        /* \"#utility.yul\":1848:2189   */\n      pop\n        /* \"#utility.yul\":1764:2189   */\n      swap4\n      swap3\n      pop\n      pop\n      pop\n      jump\t// out\n        /* \"#utility.yul\":2209:2549   */\n    tag_165:\n        /* \"#utility.yul\":2265:2270   */\n      0x00\n        /* \"#utility.yul\":2314:2317   */\n      dup3\n        /* \"#utility.yul\":2307:2311   */\n      0x1f\n        /* \"#utility.yul\":2299:2305   */\n      dup4\n        /* \"#utility.yul\":2295:2312   */\n      add\n        /* \"#utility.yul\":2291:2318   */\n      slt\n        /* \"#utility.yul\":2281:2403   */\n      tag_212\n      jumpi\n        /* \"#utility.yul\":2322:2401   */\n      tag_213\n      tag_157\n      jump\t// in\n    tag_213:\n        /* \"#utility.yul\":2281:2403   */\n    tag_212:\n        /* \"#utility.yul\":2439:2445   */\n      dup2\n        /* \"#utility.yul\":2426:2446   */\n      calldataload\n        /* \"#utility.yul\":2464:2543   */\n      tag_214\n        /* \"#utility.yul\":2539:2542   */\n      dup5\n        /* \"#utility.yul\":2531:2537   */\n      dup3\n        /* \"#utility.yul\":2524:2528   */\n      0x20\n        /* \"#utility.yul\":2516:2522   */\n      dup7\n        /* \"#utility.yul\":2512:2529   */\n      add\n        /* \"#utility.yul\":2464:2543   */\n      tag_164\n      jump\t// in\n    tag_214:\n        /* \"#utility.yul\":2455:2543   */\n      swap2\n      pop\n        /* \"#utility.yul\":2271:2549   */\n      pop\n        /* \"#utility.yul\":2209:2549   */\n      swap3\n      swap2\n      pop\n      pop\n      jump\t// out\n        /* \"#utility.yul\":2555:3064   */\n    tag_8:\n        /* \"#utility.yul\":2624:2630   */\n      0x00\n        /* \"#utility.yul\":2673:2675   */\n      0x20\n        /* \"#utility.yul\":2661:2670   */\n      dup3\n        /* \"#utility.yul\":2652:2659   */\n      dup5\n        /* \"#utility.yul\":2648:2671   */\n      sub\n        /* \"#utility.yul\":2644:2676   */\n      slt\n        /* \"#utility.yul\":2641:2760   */\n      iszero\n      tag_216\n      jumpi\n        /* \"#utility.yul\":2679:2758   */\n      tag_217\n      tag_155\n      jump\t// in\n    tag_217:\n        /* \"#utility.yul\":2641:2760   */\n    tag_216:\n        /* \"#utility.yul\":2827:2828   */\n      0x00\n        /* \"#utility.yul\":2816:2825   */\n      dup3\n        /* \"#utility.yul\":2812:2829   */\n      add\n        /* \"#utility.yul\":2799:2830   */\n      calldataload\n        /* \"#utility.yul\":2857:2875   */\n      0xffffffffffffffff\n        /* \"#utility.yul\":2849:2855   */\n      dup2\n        /* \"#utility.yul\":2846:2876   */\n      gt\n        /* \"#utility.yul\":2843:2960   */\n      iszero\n      tag_218\n      jumpi\n        /* \"#utility.yul\":2879:2958   */\n      tag_219\n      tag_156\n      jump\t// in\n    tag_219:\n        /* \"#utility.yul\":2843:2960   */\n    tag_218:\n        /* \"#utility.yul\":2984:3047   */\n      tag_220\n        /* \"#utility.yul\":3039:3046   */\n      dup5\n        /* \"#utility.yul\":3030:3036   */\n      dup3\n        /* \"#utility.yul\":3019:3028   */\n      dup6\n        /* \"#utility.yul\":3015:3037   */\n      add\n        /* \"#utility.yul\":2984:3047   */\n      tag_165\n      jump\t// in\n    tag_220:\n        /* \"#utility.yul\":2974:3047   */\n      swap2\n      pop\n        /* \"#utility.yul\":2770:3057   */\n      pop\n        /* \"#utility.yul\":2555:3064   */\n      swap3\n      swap2\n      pop\n      pop\n      jump\t// out\n        /* \"#utility.yul\":3070:3168   */\n    tag_166:\n        /* \"#utility.yul\":3121:3127   */\n      0x00\n        /* \"#utility.yul\":3155:3160   */\n      dup2\n        /* \"#utility.yul\":3149:3161   */\n      mload\n        /* \"#utility.yul\":3139:3161   */\n      swap1\n      pop\n        /* \"#utility.yul\":3070:3168   */\n      swap2\n      swap1\n      pop\n      jump\t// out\n        /* \"#utility.yul\":3174:3350   */\n    tag_167:\n        /* \"#utility.yul\":3265:3276   */\n      0x00\n        /* \"#utility.yul\":3299:3305   */\n      dup3\n        /* \"#utility.yul\":3294:3297   */\n      dup3\n        /* \"#utility.yul\":3287:3306   */\n      mstore\n        /* \"#utility.yul\":3339:3343   */\n      0x20\n        /* \"#utility.yul\":3334:3337   */\n      dup3\n        /* \"#utility.yul\":3330:3344   */\n      add\n        /* \"#utility.yul\":3315:3344   */\n      swap1\n      pop\n        /* \"#utility.yul\":3174:3350   */\n      swap3\n      swap2\n      pop\n      pop\n      jump\t// out\n        /* \"#utility.yul\":3356:3495   */\n    tag_168:\n        /* \"#utility.yul\":3445:3451   */\n      dup3\n        /* \"#utility.yul\":3440:3443   */\n      dup2\n        /* \"#utility.yul\":3435:3438   */\n      dup4\n        /* \"#utility.yul\":3429:3452   */\n      mcopy\n        /* \"#utility.yul\":3486:3487   */\n      0x00\n        /* \"#utility.yul\":3477:3483   */\n      dup4\n        /* \"#utility.yul\":3472:3475   */\n      dup4\n        /* \"#utility.yul\":3468:3484   */\n      add\n        /* \"#utility.yul\":3461:3488   */\n      mstore\n        /* \"#utility.yul\":3356:3495   */\n      pop\n      pop\n      pop\n      jump\t// out\n        /* \"#utility.yul\":3501:3890   */\n    tag_169:\n        /* \"#utility.yul\":3595:3598   */\n      0x00\n        /* \"#utility.yul\":3623:3661   */\n      tag_225\n        /* \"#utility.yul\":3655:3660   */\n      dup3\n        /* \"#utility.yul\":3623:3661   */\n      tag_166\n      jump\t// in\n    tag_225:\n        /* \"#utility.yul\":3677:3755   */\n      tag_226\n        /* \"#utility.yul\":3748:3754   */\n      dup2\n        /* \"#utility.yul\":3743:3746   */\n      dup6\n        /* \"#utility.yul\":3677:3755   */\n      tag_167\n      jump\t// in\n    tag_226:\n        /* \"#utility.yul\":3670:3755   */\n      swap4\n      pop\n        /* \"#utility.yul\":3764:3829   */\n      tag_227\n        /* \"#utility.yul\":3822:3828   */\n      dup2\n        /* \"#utility.yul\":3817:3820   */\n      dup6\n        /* \"#utility.yul\":3810:3814   */\n      0x20\n        /* \"#utility.yul\":3803:3808   */\n      dup7\n        /* \"#utility.yul\":3799:3815   */\n      add\n        /* \"#utility.yul\":3764:3829   */\n      tag_168\n      jump\t// in\n    tag_227:\n        /* \"#utility.yul\":3854:3883   */\n      tag_228\n        /* \"#utility.yul\":3876:3882   */\n      dup2\n        /* \"#utility.yul\":3854:3883   */\n      tag_159\n      jump\t// in\n    tag_228:\n        /* \"#utility.yul\":3849:3852   */\n      dup5\n        /* \"#utility.yul\":3845:3884   */\n      add\n        /* \"#utility.yul\":3838:3884   */\n      swap2\n      pop\n        /* \"#utility.yul\":3599:3890   */\n      pop\n        /* \"#utility.yul\":3501:3890   */\n      swap3\n      swap2\n      pop\n      pop\n      jump\t// out\n        /* \"#utility.yul\":3896:4221   */\n    tag_11:\n        /* \"#utility.yul\":4015:4019   */\n      0x00\n        /* \"#utility.yul\":4053:4055   */\n      0x20\n        /* \"#utility.yul\":4042:4051   */\n      dup3\n        /* \"#utility.yul\":4038:4056   */\n      add\n        /* \"#utility.yul\":4030:4056   */\n      swap1\n      pop\n        /* \"#utility.yul\":4102:4111   */\n      dup2\n        /* \"#utility.yul\":4096:4100   */\n      dup2\n        /* \"#utility.yul\":4092:4112   */\n      sub\n        /* \"#utility.yul\":4088:4089   */\n      0x00\n        /* \"#utility.yul\":4077:4086   */\n      dup4\n        /* \"#utility.yul\":4073:4090   */\n      add\n        /* \"#utility.yul\":4066:4113   */\n      mstore\n        /* \"#utility.yul\":4130:4214   */\n      tag_230\n        /* \"#utility.yul\":4209:4213   */\n      dup2\n        /* \"#utility.yul\":4200:4206   */\n      dup5\n        /* \"#utility.yul\":4130:4214   */\n      tag_169\n      jump\t// in\n    tag_230:\n        /* \"#utility.yul\":4122:4214   */\n      swap1\n      pop\n        /* \"#utility.yul\":3896:4221   */\n      swap3\n      swap2\n      pop\n      pop\n      jump\t// out\n        /* \"#utility.yul\":4227:4534   */\n    tag_170:\n        /* \"#utility.yul\":4288:4292   */\n      0x00\n        /* \"#utility.yul\":4378:4396   */\n      0xffffffffffffffff\n        /* \"#utility.yul\":4370:4376   */\n      dup3\n        /* \"#utility.yul\":4367:4397   */\n      gt\n        /* \"#utility.yul\":4364:4420   */\n      iszero\n      tag_232\n      jumpi\n        /* \"#utility.yul\":4400:4418   */\n      tag_233\n      tag_44\n      jump\t// in\n    tag_233:\n        /* \"#utility.yul\":4364:4420   */\n    tag_232:\n        /* \"#utility.yul\":4438:4467   */\n      tag_234\n        /* \"#utility.yul\":4460:4466   */\n      dup3\n        /* \"#utility.yul\":4438:4467   */\n      tag_159\n      jump\t// in\n    tag_234:\n        /* \"#utility.yul\":4430:4467   */\n      swap1\n      pop\n        /* \"#utility.yul\":4522:4526   */\n      0x20\n        /* \"#utility.yul\":4516:4520   */\n      dup2\n        /* \"#utility.yul\":4512:4527   */\n      add\n        /* \"#utility.yul\":4504:4527   */\n      swap1\n      pop\n        /* \"#utility.yul\":4227:4534   */\n      swap2\n      swap1\n      pop\n      jump\t// out\n        /* \"#utility.yul\":4540:4963   */\n    tag_171:\n        /* \"#utility.yul\":4617:4622   */\n      0x00\n        /* \"#utility.yul\":4642:4707   */\n      tag_236\n        /* \"#utility.yul\":4658:4706   */\n      tag_237\n        /* \"#utility.yul\":4699:4705   */\n      dup5\n        /* \"#utility.yul\":4658:4706   */\n      tag_170\n      jump\t// in\n    tag_237:\n        /* \"#utility.yul\":4642:4707   */\n      tag_161\n      jump\t// in\n    tag_236:\n        /* \"#utility.yul\":4633:4707   */\n      swap1\n      pop\n        /* \"#utility.yul\":4730:4736   */\n      dup3\n        /* \"#utility.yul\":4723:4728   */\n      dup2\n        /* \"#utility.yul\":4716:4737   */\n      mstore\n        /* \"#utility.yul\":4768:4772   */\n      0x20\n        /* \"#utility.yul\":4761:4766   */\n      dup2\n        /* \"#utility.yul\":4757:4773   */\n      add\n        /* \"#utility.yul\":4806:4809   */\n      dup5\n        /* \"#utility.yul\":4797:4803   */\n      dup5\n        /* \"#utility.yul\":4792:4795   */\n      dup5\n        /* \"#utility.yul\":4788:4804   */\n      add\n        /* \"#utility.yul\":4785:4810   */\n      gt\n        /* \"#utility.yul\":4782:4894   */\n      iszero\n      tag_238\n      jumpi\n        /* \"#utility.yul\":4813:4892   */\n      tag_239\n      tag_158\n      jump\t// in\n    tag_239:\n        /* \"#utility.yul\":4782:4894   */\n    tag_238:\n        /* \"#utility.yul\":4903:4957   */\n      tag_240\n        /* \"#utility.yul\":4950:4956   */\n      dup5\n        /* \"#utility.yul\":4945:4948   */\n      dup3\n        /* \"#utility.yul\":4940:4943   */\n      dup6\n        /* \"#utility.yul\":4903:4957   */\n      tag_163\n      jump\t// in\n    tag_240:\n        /* \"#utility.yul\":4623:4963   */\n      pop\n        /* \"#utility.yul\":4540:4963   */\n      swap4\n      swap3\n      pop\n      pop\n      pop\n      jump\t// out\n        /* \"#utility.yul\":4982:5320   */\n    tag_172:\n        /* \"#utility.yul\":5037:5042   */\n      0x00\n        /* \"#utility.yul\":5086:5089   */\n      dup3\n        /* \"#utility.yul\":5079:5083   */\n      0x1f\n        /* \"#utility.yul\":5071:5077   */\n      dup4\n        /* \"#utility.yul\":5067:5084   */\n      add\n        /* \"#utility.yul\":5063:5090   */\n      slt\n        /* \"#utility.yul\":5053:5175   */\n      tag_242\n      jumpi\n        /* \"#utility.yul\":5094:5173   */\n      tag_243\n      tag_157\n      jump\t// in\n    tag_243:\n        /* \"#utility.yul\":5053:5175   */\n    tag_242:\n        /* \"#utility.yul\":5211:5217   */\n      dup2\n        /* \"#utility.yul\":5198:5218   */\n      calldataload\n        /* \"#utility.yul\":5236:5314   */\n      tag_244\n        /* \"#utility.yul\":5310:5313   */\n      dup5\n        /* \"#utility.yul\":5302:5308   */\n      dup3\n        /* \"#utility.yul\":5295:5299   */\n      0x20\n        /* \"#utility.yul\":5287:5293   */\n      dup7\n        /* \"#utility.yul\":5283:5300   */\n      add\n        /* \"#utility.yul\":5236:5314   */\n      tag_171\n      jump\t// in\n    tag_244:\n        /* \"#utility.yul\":5227:5314   */\n      swap2\n      pop\n        /* \"#utility.yul\":5043:5320   */\n      pop\n        /* \"#utility.yul\":4982:5320   */\n      swap3\n      swap2\n      pop\n      pop\n      jump\t// out\n        /* \"#utility.yul\":5326:5475   */\n    tag_173:\n        /* \"#utility.yul\":5362:5369   */\n      0x00\n        /* \"#utility.yul\":5402:5468   */\n      0xff00000000000000000000000000000000000000000000000000000000000000\n        /* \"#utility.yul\":5395:5400   */\n      dup3\n        /* \"#utility.yul\":5391:5469   */\n      and\n        /* \"#utility.yul\":5380:5469   */\n      swap1\n      pop\n        /* \"#utility.yul\":5326:5475   */\n      swap2\n      swap1\n      pop\n      jump\t// out\n        /* \"#utility.yul\":5481:5601   */\n    tag_174:\n        /* \"#utility.yul\":5553:5576   */\n      tag_247\n        /* \"#utility.yul\":5570:5575   */\n      dup2\n        /* \"#utility.yul\":5553:5576   */\n      tag_173\n      jump\t// in\n    tag_247:\n        /* \"#utility.yul\":5546:5551   */\n      dup2\n        /* \"#utility.yul\":5543:5577   */\n      eq\n        /* \"#utility.yul\":5533:5595   */\n      tag_248\n      jumpi\n        /* \"#utility.yul\":5591:5592   */\n      0x00\n        /* \"#utility.yul\":5588:5589   */\n      dup1\n        /* \"#utility.yul\":5581:5593   */\n      revert\n        /* \"#utility.yul\":5533:5595   */\n    tag_248:\n        /* \"#utility.yul\":5481:5601   */\n      pop\n      jump\t// out\n        /* \"#utility.yul\":5607:5744   */\n    tag_175:\n        /* \"#utility.yul\":5652:5657   */\n      0x00\n        /* \"#utility.yul\":5690:5696   */\n      dup2\n        /* \"#utility.yul\":5677:5697   */\n      calldataload\n        /* \"#utility.yul\":5668:5697   */\n      swap1\n      pop\n        /* \"#utility.yul\":5706:5738   */\n      tag_250\n        /* \"#utility.yul\":5732:5737   */\n      dup2\n        /* \"#utility.yul\":5706:5738   */\n      tag_174\n      jump\t// in\n    tag_250:\n        /* \"#utility.yul\":5607:5744   */\n      swap3\n      swap2\n      pop\n      pop\n      jump\t// out\n        /* \"#utility.yul\":5750:6400   */\n    tag_18:\n        /* \"#utility.yul\":5826:5832   */\n      0x00\n        /* \"#utility.yul\":5834:5840   */\n      dup1\n        /* \"#utility.yul\":5883:5885   */\n      0x40\n        /* \"#utility.yul\":5871:5880   */\n      dup4\n        /* \"#utility.yul\":5862:5869   */\n      dup6\n        /* \"#utility.yul\":5858:5881   */\n      sub\n        /* \"#utility.yul\":5854:5886   */\n      slt\n        /* \"#utility.yul\":5851:5970   */\n      iszero\n      tag_252\n      jumpi\n        /* \"#utility.yul\":5889:5968   */\n      tag_253\n      tag_155\n      jump\t// in\n    tag_253:\n        /* \"#utility.yul\":5851:5970   */\n    tag_252:\n        /* \"#utility.yul\":6037:6038   */\n      0x00\n        /* \"#utility.yul\":6026:6035   */\n      dup4\n        /* \"#utility.yul\":6022:6039   */\n      add\n        /* \"#utility.yul\":6009:6040   */\n      calldataload\n        /* \"#utility.yul\":6067:6085   */\n      0xffffffffffffffff\n        /* \"#utility.yul\":6059:6065   */\n      dup2\n        /* \"#utility.yul\":6056:6086   */\n      gt\n        /* \"#utility.yul\":6053:6170   */\n      iszero\n      tag_254\n      jumpi\n        /* \"#utility.yul\":6089:6168   */\n      tag_255\n      tag_156\n      jump\t// in\n    tag_255:\n        /* \"#utility.yul\":6053:6170   */\n    tag_254:\n        /* \"#utility.yul\":6194:6256   */\n      tag_256\n        /* \"#utility.yul\":6248:6255   */\n      dup6\n        /* \"#utility.yul\":6239:6245   */\n      dup3\n        /* \"#utility.yul\":6228:6237   */\n      dup7\n        /* \"#utility.yul\":6224:6246   */\n      add\n        /* \"#utility.yul\":6194:6256   */\n      tag_172\n      jump\t// in\n    tag_256:\n        /* \"#utility.yul\":6184:6256   */\n      swap3\n      pop\n        /* \"#utility.yul\":5980:6266   */\n      pop\n        /* \"#utility.yul\":6305:6307   */\n      0x20\n        /* \"#utility.yul\":6331:6383   */\n      tag_257\n        /* \"#utility.yul\":6375:6382   */\n      dup6\n        /* \"#utility.yul\":6366:6372   */\n      dup3\n        /* \"#utility.yul\":6355:6364   */\n      dup7\n        /* \"#utility.yul\":6351:6373   */\n      add\n        /* \"#utility.yul\":6331:6383   */\n      tag_175\n      jump\t// in\n    tag_257:\n        /* \"#utility.yul\":6321:6383   */\n      swap2\n      pop\n        /* \"#utility.yul\":6276:6393   */\n      pop\n        /* \"#utility.yul\":5750:6400   */\n      swap3\n      pop\n      swap3\n      swap1\n      pop\n      jump\t// out\n        /* \"#utility.yul\":6406:6483   */\n    tag_176:\n        /* \"#utility.yul\":6443:6450   */\n      0x00\n        /* \"#utility.yul\":6472:6477   */\n      dup2\n        /* \"#utility.yul\":6461:6477   */\n      swap1\n      pop\n        /* \"#utility.yul\":6406:6483   */\n      swap2\n      swap1\n      pop\n      jump\t// out\n        /* \"#utility.yul\":6489:6615   */\n    tag_177:\n        /* \"#utility.yul\":6584:6608   */\n      tag_260\n        /* \"#utility.yul\":6602:6607   */\n      dup2\n        /* \"#utility.yul\":6584:6608   */\n      tag_176\n      jump\t// in\n    tag_260:\n        /* \"#utility.yul\":6579:6582   */\n      dup3\n        /* \"#utility.yul\":6572:6609   */\n      mstore\n        /* \"#utility.yul\":6489:6615   */\n      pop\n      pop\n      jump\t// out\n        /* \"#utility.yul\":6621:6711   */\n    tag_178:\n        /* \"#utility.yul\":6655:6662   */\n      0x00\n        /* \"#utility.yul\":6698:6703   */\n      dup2\n        /* \"#utility.yul\":6691:6704   */\n      iszero\n        /* \"#utility.yul\":6684:6705   */\n      iszero\n        /* \"#utility.yul\":6673:6705   */\n      swap1\n      pop\n        /* \"#utility.yul\":6621:6711   */\n      swap2\n      swap1\n      pop\n      jump\t// out\n        /* \"#utility.yul\":6717:6834   */\n    tag_179:\n        /* \"#utility.yul\":6806:6827   */\n      tag_263\n        /* \"#utility.yul\":6821:6826   */\n      dup2\n        /* \"#utility.yul\":6806:6827   */\n      tag_178\n      jump\t// in\n    tag_263:\n        /* \"#utility.yul\":6801:6804   */\n      dup3\n        /* \"#utility.yul\":6794:6828   */\n      mstore\n        /* \"#utility.yul\":6717:6834   */\n      pop\n      pop\n      jump\t// out\n        /* \"#utility.yul\":6840:7184   */\n    tag_21:\n        /* \"#utility.yul\":6963:6967   */\n      0x00\n        /* \"#utility.yul\":7001:7003   */\n      0x40\n        /* \"#utility.yul\":6990:6999   */\n      dup3\n        /* \"#utility.yul\":6986:7004   */\n      add\n        /* \"#utility.yul\":6978:7004   */\n      swap1\n      pop\n        /* \"#utility.yul\":7014:7093   */\n      tag_265\n        /* \"#utility.yul\":7090:7091   */\n      0x00\n        /* \"#utility.yul\":7079:7088   */\n      dup4\n        /* \"#utility.yul\":7075:7092   */\n      add\n        /* \"#utility.yul\":7066:7072   */\n      dup6\n        /* \"#utility.yul\":7014:7093   */\n      tag_177\n      jump\t// in\n    tag_265:\n        /* \"#utility.yul\":7103:7177   */\n      tag_266\n        /* \"#utility.yul\":7173:7175   */\n      0x20\n        /* \"#utility.yul\":7162:7171   */\n      dup4\n        /* \"#utility.yul\":7158:7176   */\n      add\n        /* \"#utility.yul\":7149:7155   */\n      dup5\n        /* \"#utility.yul\":7103:7177   */\n      tag_179\n      jump\t// in\n    tag_266:\n        /* \"#utility.yul\":6840:7184   */\n      swap4\n      swap3\n      pop\n      pop\n      pop\n      jump\t// out\n        /* \"#utility.yul\":7190:7312   */\n    tag_180:\n        /* \"#utility.yul\":7263:7287   */\n      tag_268\n        /* \"#utility.yul\":7281:7286   */\n      dup2\n        /* \"#utility.yul\":7263:7287   */\n      tag_176\n      jump\t// in\n    tag_268:\n        /* \"#utility.yul\":7256:7261   */\n      dup2\n        /* \"#utility.yul\":7253:7288   */\n      eq\n        /* \"#utility.yul\":7243:7306   */\n      tag_269\n      jumpi\n        /* \"#utility.yul\":7302:7303   */\n      0x00\n        /* \"#utility.yul\":7299:7300   */\n      dup1\n        /* \"#utility.yul\":7292:7304   */\n      revert\n        /* \"#utility.yul\":7243:7306   */\n    tag_269:\n        /* \"#utility.yul\":7190:7312   */\n      pop\n      jump\t// out\n        /* \"#utility.yul\":7318:7457   */\n    tag_181:\n        /* \"#utility.yul\":7364:7369   */\n      0x00\n        /* \"#utility.yul\":7402:7408   */\n      dup2\n        /* \"#utility.yul\":7389:7409   */\n      calldataload\n        /* \"#utility.yul\":7380:7409   */\n      swap1\n      pop\n        /* \"#utility.yul\":7418:7451   */\n      tag_271\n        /* \"#utility.yul\":7445:7450   */\n      dup2\n        /* \"#utility.yul\":7418:7451   */\n      tag_180\n      jump\t// in\n    tag_271:\n        /* \"#utility.yul\":7318:7457   */\n      swap3\n      swap2\n      pop\n      pop\n      jump\t// out\n        /* \"#utility.yul\":7463:8260   */\n    tag_24:\n        /* \"#utility.yul\":7549:7555   */\n      0x00\n        /* \"#utility.yul\":7557:7563   */\n      dup1\n        /* \"#utility.yul\":7565:7571   */\n      0x00\n        /* \"#utility.yul\":7614:7616   */\n      0x60\n        /* \"#utility.yul\":7602:7611   */\n      dup5\n        /* \"#utility.yul\":7593:7600   */\n      dup7\n        /* \"#utility.yul\":7589:7612   */\n      sub\n        /* \"#utility.yul\":7585:7617   */\n      slt\n        /* \"#utility.yul\":7582:7701   */\n      iszero\n      tag_273\n      jumpi\n        /* \"#utility.yul\":7620:7699   */\n      tag_274\n      tag_155\n      jump\t// in\n    tag_274:\n        /* \"#utility.yul\":7582:7701   */\n    tag_273:\n        /* \"#utility.yul\":7768:7769   */\n      0x00\n        /* \"#utility.yul\":7757:7766   */\n      dup5\n        /* \"#utility.yul\":7753:7770   */\n      add\n        /* \"#utility.yul\":7740:7771   */\n      calldataload\n        /* \"#utility.yul\":7798:7816   */\n      0xffffffffffffffff\n        /* \"#utility.yul\":7790:7796   */\n      dup2\n        /* \"#utility.yul\":7787:7817   */\n      gt\n        /* \"#utility.yul\":7784:7901   */\n      iszero\n      tag_275\n      jumpi\n        /* \"#utility.yul\":7820:7899   */\n      tag_276\n      tag_156\n      jump\t// in\n    tag_276:\n        /* \"#utility.yul\":7784:7901   */\n    tag_275:\n        /* \"#utility.yul\":7925:7987   */\n      tag_277\n        /* \"#utility.yul\":7979:7986   */\n      dup7\n        /* \"#utility.yul\":7970:7976   */\n      dup3\n        /* \"#utility.yul\":7959:7968   */\n      dup8\n        /* \"#utility.yul\":7955:7977   */\n      add\n        /* \"#utility.yul\":7925:7987   */\n      tag_172\n      jump\t// in\n    tag_277:\n        /* \"#utility.yul\":7915:7987   */\n      swap4\n      pop\n        /* \"#utility.yul\":7711:7997   */\n      pop\n        /* \"#utility.yul\":8036:8038   */\n      0x20\n        /* \"#utility.yul\":8062:8115   */\n      tag_278\n        /* \"#utility.yul\":8107:8114   */\n      dup7\n        /* \"#utility.yul\":8098:8104   */\n      dup3\n        /* \"#utility.yul\":8087:8096   */\n      dup8\n        /* \"#utility.yul\":8083:8105   */\n      add\n        /* \"#utility.yul\":8062:8115   */\n      tag_181\n      jump\t// in\n    tag_278:\n        /* \"#utility.yul\":8052:8115   */\n      swap3\n      pop\n        /* \"#utility.yul\":8007:8125   */\n      pop\n        /* \"#utility.yul\":8164:8166   */\n      0x40\n        /* \"#utility.yul\":8190:8243   */\n      tag_279\n        /* \"#utility.yul\":8235:8242   */\n      dup7\n        /* \"#utility.yul\":8226:8232   */\n      dup3\n        /* \"#utility.yul\":8215:8224   */\n      dup8\n        /* \"#utility.yul\":8211:8233   */\n      add\n        /* \"#utility.yul\":8190:8243   */\n      tag_181\n      jump\t// in\n    tag_279:\n        /* \"#utility.yul\":8180:8243   */\n      swap2\n      pop\n        /* \"#utility.yul\":8135:8253   */\n      pop\n        /* \"#utility.yul\":7463:8260   */\n      swap3\n      pop\n      swap3\n      pop\n      swap3\n      jump\t// out\n        /* \"#utility.yul\":8266:8446   */\n    tag_39:\n        /* \"#utility.yul\":8314:8391   */\n      0x4e487b7100000000000000000000000000000000000000000000000000000000\n        /* \"#utility.yul\":8311:8312   */\n      0x00\n        /* \"#utility.yul\":8304:8392   */\n      mstore\n        /* \"#utility.yul\":8411:8415   */\n      0x32\n        /* \"#utility.yul\":8408:8409   */\n      0x04\n        /* \"#utility.yul\":8401:8416   */\n      mstore\n        /* \"#utility.yul\":8435:8439   */\n      0x24\n        /* \"#utility.yul\":8432:8433   */\n      0x00\n        /* \"#utility.yul\":8425:8440   */\n      revert\n        /* \"#utility.yul\":8452:8632   */\n    tag_62:\n        /* \"#utility.yul\":8500:8577   */\n      0x4e487b7100000000000000000000000000000000000000000000000000000000\n        /* \"#utility.yul\":8497:8498   */\n      0x00\n        /* \"#utility.yul\":8490:8578   */\n      mstore\n        /* \"#utility.yul\":8597:8601   */\n      0x12\n        /* \"#utility.yul\":8594:8595   */\n      0x04\n        /* \"#utility.yul\":8587:8602   */\n      mstore\n        /* \"#utility.yul\":8621:8625   */\n      0x24\n        /* \"#utility.yul\":8618:8619   */\n      0x00\n        /* \"#utility.yul\":8611:8626   */\n      revert\n        /* \"#utility.yul\":8638:8807   */\n    tag_182:\n        /* \"#utility.yul\":8722:8733   */\n      0x00\n        /* \"#utility.yul\":8756:8762   */\n      dup3\n        /* \"#utility.yul\":8751:8754   */\n      dup3\n        /* \"#utility.yul\":8744:8763   */\n      mstore\n        /* \"#utility.yul\":8796:8800   */\n      0x20\n        /* \"#utility.yul\":8791:8794   */\n      dup3\n        /* \"#utility.yul\":8787:8801   */\n      add\n        /* \"#utility.yul\":8772:8801   */\n      swap1\n      pop\n        /* \"#utility.yul\":8638:8807   */\n      swap3\n      swap2\n      pop\n      pop\n      jump\t// out\n        /* \"#utility.yul\":8813:8983   */\n    tag_183:\n        /* \"#utility.yul\":8953:8975   */\n      0x696e76616c696420626173653538206469676974000000000000000000000000\n        /* \"#utility.yul\":8949:8950   */\n      0x00\n        /* \"#utility.yul\":8941:8947   */\n      dup3\n        /* \"#utility.yul\":8937:8951   */\n      add\n        /* \"#utility.yul\":8930:8976   */\n      mstore\n        /* \"#utility.yul\":8813:8983   */\n      pop\n      jump\t// out\n        /* \"#utility.yul\":8989:9355   */\n    tag_184:\n        /* \"#utility.yul\":9131:9134   */\n      0x00\n        /* \"#utility.yul\":9152:9219   */\n      tag_285\n        /* \"#utility.yul\":9216:9218   */\n      0x14\n        /* \"#utility.yul\":9211:9214   */\n      dup4\n        /* \"#utility.yul\":9152:9219   */\n      tag_182\n      jump\t// in\n    tag_285:\n        /* \"#utility.yul\":9145:9219   */\n      swap2\n      pop\n        /* \"#utility.yul\":9228:9321   */\n      tag_286\n        /* \"#utility.yul\":9317:9320   */\n      dup3\n        /* \"#utility.yul\":9228:9321   */\n      tag_183\n      jump\t// in\n    tag_286:\n        /* \"#utility.yul\":9346:9348   */\n      0x20\n        /* \"#utility.yul\":9341:9344   */\n      dup3\n        /* \"#utility.yul\":9337:9349   */\n      add\n        /* \"#utility.yul\":9330:9349   */\n      swap1\n      pop\n        /* \"#utility.yul\":8989:9355   */\n      swap2\n      swap1\n      pop\n      jump\t// out\n        /* \"#utility.yul\":9361:9780   */\n    tag_79:\n        /* \"#utility.yul\":9527:9531   */\n      0x00\n        /* \"#utility.yul\":9565:9567   */\n      0x20\n        /* \"#utility.yul\":9554:9563   */\n      dup3\n        /* \"#utility.yul\":9550:9568   */\n      add\n        /* \"#utility.yul\":9542:9568   */\n      swap1\n      pop\n        /* \"#utility.yul\":9614:9623   */\n      dup2\n        /* \"#utility.yul\":9608:9612   */\n      dup2\n        /* \"#utility.yul\":9604:9624   */\n      sub\n        /* \"#utility.yul\":9600:9601   */\n      0x00\n        /* \"#utility.yul\":9589:9598   */\n      dup4\n        /* \"#utility.yul\":9585:9602   */\n      add\n        /* \"#utility.yul\":9578:9625   */\n      mstore\n        /* \"#utility.yul\":9642:9773   */\n      tag_288\n        /* \"#utility.yul\":9768:9772   */\n      dup2\n        /* \"#utility.yul\":9642:9773   */\n      tag_184\n      jump\t// in\n    tag_288:\n        /* \"#utility.yul\":9634:9773   */\n      swap1\n      pop\n        /* \"#utility.yul\":9361:9780   */\n      swap2\n      swap1\n      pop\n      jump\t// out\n    stop\n    data_e72daf94b45f828c6e9fb35ca4f157bc4eef8ccec3cc5bc840ee513b6ee42a62 31323334353637383941424344454647484a4b4c4d4e505152535455565758595a6162636465666768696a6b6d6e6f707172737475767778797a\n\n    auxdata: 0xa26469706673582212209a81bce6f9df542372cef6393f3af281acc68ad54a45659b397f5256fb1b9e1c64736f6c634300081a0033\n}\n",
				"bytecode": {
					"linkReferences": {},
					"object": "610fc661004d600b8282823980515f1a6073146041577f4e487b71000000000000000000000000000000000000000000000000000000005f525f60045260245ffd5b305f52607381538281f3fe7300000000000000000000000000000000000000003014608060405260043610610055575f3560e01c8063046a466a14610059578063529d1bb7146100895780638178ff43146100b9578063e0041396146100ea575b5f80fd5b610073600480360381019061006e9190610b81565b61011a565b6040516100809190610c28565b60405180910390f35b6100a3600480360381019061009e9190610b81565b61012c565b6040516100b09190610c28565b60405180910390f35b6100d360048036038101906100ce9190610d3b565b61013e565b6040516100e1929190610dc7565b60405180910390f35b61010460048036038101906100ff9190610e18565b6101dc565b6040516101119190610c28565b60405180910390f35b6060610125826102b6565b9050919050565b6060610137826106b0565b9050919050565b5f805f5b84518110156101cd57837effffffffffffffffffffffffffffffffffffffffffffffffffffffffffffff191685828151811061018157610180610e84565b5b602001015160f81c60f81b7effffffffffffffffffffffffffffffffffffffffffffffffffffffffffffff1916036101c05780600192509250506101d5565b8080600101915050610142565b505f80915091505b9250929050565b60605f83830367ffffffffffffffff8111156101fb576101fa610a5d565b5b6040519080825280601f01601f19166020018201604052801561022d5781602001600182028036833780820191505090505b5090505f5b8484038110156102aa57858582018151811061025157610250610e84565b5b602001015160f81c60f81b82828151811061026f5761026e610e84565b5b60200101907effffffffffffffffffffffffffffffffffffffffffffffffffffffffffffff191690815f1a9053508080600101915050610232565b50809150509392505050565b60605f603190505f835190505f805b82811080156102f65750838682815181106102e3576102e2610e84565b5b602001015160f81c60f81b60f81c60ff16145b1561031057818060010192505080806001019150506102c5565b505f805f8060016117e361209f88028161032d5761032c610eb1565b5b040160020267ffffffffffffffff81111561034b5761034a610a5d565b5b6040519080825280601f01601f19166020018201604052801561037d5781602001600182028036833780820191505090505b5090505f6004600388018161039557610394610eb1565b5b0467ffffffffffffffff8111156103af576103ae610a5d565b5b6040519080825280602002602001820160405280156103dd5781602001602082028036833780820191505090505b5090505f5b8a51811015610510575f8b82815181106103ff576103fe610e84565b5b602001015160f81c60f81b905061042e6040518060600160405280603a8152602001610f57603a91398261013e565b809650819750505084610476576040517f08c379a000000000000000000000000000000000000000000000000000000000815260040161046d90610f38565b60405180910390fd5b5f600184510390505b5f81126105015786603a85838151811061049c5761049b610e84565b5b602002602001015163ffffffff160267ffffffffffffffff16019750602088901c965063ffffffff88168482815181106104d9576104d8610e84565b5b602002602001019063ffffffff16908163ffffffff168152505080806001900391505061047f565b505080806001019150506103e2565b505f60086004898161052557610524610eb1565b5b060290505f8167ffffffffffffffff160361053f57602090505b6008810390505f805b835181101561060d575b60208367ffffffffffffffff1610156105fc578267ffffffffffffffff1684828151811061058357610582610e84565b5b602002602001015163ffffffff16901c60f81b8583815181106105a9576105a8610e84565b5b60200101907effffffffffffffffffffffffffffffffffffffffffffffffffffffffffffff191690815f1a905350818060010192505060088367ffffffffffffffff16106105fc57600883039250610552565b601892508080600101915050610548565b505f8890505b8451811015610692575f60f81b85828151811061063357610632610e84565b5b602001015160f81c60f81b7effffffffffffffffffffffffffffffffffffffffffffffffffffffffffffff1916111561068557610673858a8303846101dc565b9b5050505050505050505050506106ab565b8080600101915050610613565b5061069e845f836101dc565b9a50505050505050505050505b919050565b60605f825190505f5b818110801561070957505f60f81b8482815181106106da576106d9610e84565b5b602001015160f81c60f81b7effffffffffffffffffffffffffffffffffffffffffffffffffffffffffffff1916145b1561071b5780806001019150506106b9565b60016117e361209f838503028161073557610734610eb1565b5b0482010191505f8267ffffffffffffffff81111561075657610755610a5d565b5b6040519080825280601f01601f1916602001820160405280156107885781602001600182028036833780820191505090505b5090505f805f6001860390505f5b88518110156108a9576001870392508881815181106107b8576107b7610e84565b5b602001015160f81c60f81b60f81c60ff1693505b818313806107e057505f8463ffffffff1614155b15610899578483815181106107f8576107f7610e84565b5b602001015160f81c60f81b60f81c60ff166101000261ffff1684019350603a8463ffffffff168161082c5761082b610eb1565b5b0660f81b85848151811061084357610842610e84565b5b60200101907effffffffffffffffffffffffffffffffffffffffffffffffffffffffffffff191690815f1a905350603a8463ffffffff168161088857610887610eb1565b5b0493508280600190039350506107cc565b8291508080600101915050610796565b505f8590505b86811080156108ff57505f60f81b8582815181106108d0576108cf610e84565b5b602001015160f81c60f81b7effffffffffffffffffffffffffffffffffffffffffffffffffffffffffffff1916145b156109115780806001019150506108af565b85810385510396505f8767ffffffffffffffff81111561093457610933610a5d565b5b6040519080825280601f01601f1916602001820160405280156109665781602001600182028036833780820191505090505b5090505f5b88811015610a23575f888483010390506040518060600160405280603a8152602001610f57603a91398882815181106109a7576109a6610e84565b5b602001015160f81c60f81b60f81c60ff16815181106109c9576109c8610e84565b5b602001015160f81c60f81b8383815181106109e7576109e6610e84565b5b60200101907effffffffffffffffffffffffffffffffffffffffffffffffffffffffffffff191690815f1a90535050808060010191505061096b565b508098505050505050505050919050565b5f604051905090565b5f80fd5b5f80fd5b5f80fd5b5f80fd5b5f601f19601f8301169050919050565b7f4e487b71000000000000000000000000000000000000000000000000000000005f52604160045260245ffd5b610a9382610a4d565b810181811067ffffffffffffffff82111715610ab257610ab1610a5d565b5b80604052505050565b5f610ac4610a34565b9050610ad08282610a8a565b919050565b5f67ffffffffffffffff821115610aef57610aee610a5d565b5b610af882610a4d565b9050602081019050919050565b828183375f83830152505050565b5f610b25610b2084610ad5565b610abb565b905082815260208101848484011115610b4157610b40610a49565b5b610b4c848285610b05565b509392505050565b5f82601f830112610b6857610b67610a45565b5b8135610b78848260208601610b13565b91505092915050565b5f60208284031215610b9657610b95610a3d565b5b5f82013567ffffffffffffffff811115610bb357610bb2610a41565b5b610bbf84828501610b54565b91505092915050565b5f81519050919050565b5f82825260208201905092915050565b8281835e5f83830152505050565b5f610bfa82610bc8565b610c048185610bd2565b9350610c14818560208601610be2565b610c1d81610a4d565b840191505092915050565b5f6020820190508181035f830152610c408184610bf0565b905092915050565b5f67ffffffffffffffff821115610c6257610c61610a5d565b5b610c6b82610a4d565b9050602081019050919050565b5f610c8a610c8584610c48565b610abb565b905082815260208101848484011115610ca657610ca5610a49565b5b610cb1848285610b05565b509392505050565b5f82601f830112610ccd57610ccc610a45565b5b8135610cdd848260208601610c78565b91505092915050565b5f7fff0000000000000000000000000000000000000000000000000000000000000082169050919050565b610d1a81610ce6565b8114610d24575f80fd5b50565b5f81359050610d3581610d11565b92915050565b5f8060408385031215610d5157610d50610a3d565b5b5f83013567ffffffffffffffff811115610d6e57610d6d610a41565b5b610d7a85828601610cb9565b9250506020610d8b85828601610d27565b9150509250929050565b5f819050919050565b610da781610d95565b82525050565b5f8115159050919050565b610dc181610dad565b82525050565b5f604082019050610dda5f830185610d9e565b610de76020830184610db8565b9392505050565b610df781610d95565b8114610e01575f80fd5b50565b5f81359050610e1281610dee565b92915050565b5f805f60608486031215610e2f57610e2e610a3d565b5b5f84013567ffffffffffffffff811115610e4c57610e4b610a41565b5b610e5886828701610cb9565b9350506020610e6986828701610e04565b9250506040610e7a86828701610e04565b9150509250925092565b7f4e487b71000000000000000000000000000000000000000000000000000000005f52603260045260245ffd5b7f4e487b71000000000000000000000000000000000000000000000000000000005f52601260045260245ffd5b5f82825260208201905092915050565b7f696e76616c6964206261736535382064696769740000000000000000000000005f82015250565b5f610f22601483610ede565b9150610f2d82610eee565b602082019050919050565b5f6020820190508181035f830152610f4f81610f16565b905091905056fe31323334353637383941424344454647484a4b4c4d4e505152535455565758595a6162636465666768696a6b6d6e6f707172737475767778797aa26469706673582212209a81bce6f9df542372cef6393f3af281acc68ad54a45659b397f5256fb1b9e1c64736f6c634300081a0033",
					"opcodes": "PUSH2 0xFC6 PUSH2 0x4D PUSH1 0xB DUP3 DUP3 DUP3 CODECOPY DUP1 MLOAD PUSH0 BYTE PUSH1 0x73 EQ PUSH1 0x41 JUMPI PUSH32 0x4E487B7100000000000000000000000000000000000000000000000000000000 PUSH0 MSTORE PUSH0 PUSH1 0x4 MSTORE PUSH1 0x24 PUSH0 REVERT JUMPDEST ADDRESS PUSH0 MSTORE PUSH1 0x73 DUP2 MSTORE8 DUP3 DUP2 RETURN INVALID PUSH20 0x0 ADDRESS EQ PUSH1 0x80 PUSH1 0x40 MSTORE PUSH1 0x4 CALLDATASIZE LT PUSH2 0x55 JUMPI PUSH0 CALLDATALOAD PUSH1 0xE0 SHR DUP1 PUSH4 0x46A466A EQ PUSH2 0x59 JUMPI DUP1 PUSH4 0x529D1BB7 EQ PUSH2 0x89 JUMPI DUP1 PUSH4 0x8178FF43 EQ PUSH2 0xB9 JUMPI DUP1 PUSH4 0xE0041396 EQ PUSH2 0xEA JUMPI JUMPDEST PUSH0 DUP1 REVERT JUMPDEST PUSH2 0x73 PUSH1 0x4 DUP1 CALLDATASIZE SUB DUP2 ADD SWAP1 PUSH2 0x6E SWAP2 SWAP1 PUSH2 0xB81 JUMP JUMPDEST PUSH2 0x11A JUMP JUMPDEST PUSH1 0x40 MLOAD PUSH2 0x80 SWAP2 SWAP1 PUSH2 0xC28 JUMP JUMPDEST PUSH1 0x40 MLOAD DUP1 SWAP2 SUB SWAP1 RETURN JUMPDEST PUSH2 0xA3 PUSH1 0x4 DUP1 CALLDATASIZE SUB DUP2 ADD SWAP1 PUSH2 0x9E SWAP2 SWAP1 PUSH2 0xB81 JUMP JUMPDEST PUSH2 0x12C JUMP JUMPDEST PUSH1 0x40 MLOAD PUSH2 0xB0 SWAP2 SWAP1 PUSH2 0xC28 JUMP JUMPDEST PUSH1 0x40 MLOAD DUP1 SWAP2 SUB SWAP1 RETURN JUMPDEST PUSH2 0xD3 PUSH1 0x4 DUP1 CALLDATASIZE SUB DUP2 ADD SWAP1 PUSH2 0xCE SWAP2 SWAP1 PUSH2 0xD3B JUMP JUMPDEST PUSH2 0x13E JUMP JUMPDEST PUSH1 0x40 MLOAD PUSH2 0xE1 SWAP3 SWAP2 SWAP1 PUSH2 0xDC7 JUMP JUMPDEST PUSH1 0x40 MLOAD DUP1 SWAP2 SUB SWAP1 RETURN JUMPDEST PUSH2 0x104 PUSH1 0x4 DUP1 CALLDATASIZE SUB DUP2 ADD SWAP1 PUSH2 0xFF SWAP2 SWAP1 PUSH2 0xE18 JUMP JUMPDEST PUSH2 0x1DC JUMP JUMPDEST PUSH1 0x40 MLOAD PUSH2 0x111 SWAP2 SWAP1 PUSH2 0xC28 JUMP JUMPDEST PUSH1 0x40 MLOAD DUP1 SWAP2 SUB SWAP1 RETURN JUMPDEST PUSH1 0x60 PUSH2 0x125 DUP3 PUSH2 0x2B6 JUMP JUMPDEST SWAP1 POP SWAP2 SWAP1 POP JUMP JUMPDEST PUSH1 0x60 PUSH2 0x137 DUP3 PUSH2 0x6B0 JUMP JUMPDEST SWAP1 POP SWAP2 SWAP1 POP JUMP JUMPDEST PUSH0 DUP1 PUSH0 JUMPDEST DUP5 MLOAD DUP2 LT ISZERO PUSH2 0x1CD JUMPI DUP4 PUSH31 0xFFFFFFFFFFFFFFFFFFFFFFFFFFFFFFFFFFFFFFFFFFFFFFFFFFFFFFFFFFFFFF NOT AND DUP6 DUP3 DUP2 MLOAD DUP2 LT PUSH2 0x181 JUMPI PUSH2 0x180 PUSH2 0xE84 JUMP JUMPDEST JUMPDEST PUSH1 0x20 ADD ADD MLOAD PUSH1 0xF8 SHR PUSH1 0xF8 SHL PUSH31 0xFFFFFFFFFFFFFFFFFFFFFFFFFFFFFFFFFFFFFFFFFFFFFFFFFFFFFFFFFFFFFF NOT AND SUB PUSH2 0x1C0 JUMPI DUP1 PUSH1 0x1 SWAP3 POP SWAP3 POP POP PUSH2 0x1D5 JUMP JUMPDEST DUP1 DUP1 PUSH1 0x1 ADD SWAP2 POP POP PUSH2 0x142 JUMP JUMPDEST POP PUSH0 DUP1 SWAP2 POP SWAP2 POP JUMPDEST SWAP3 POP SWAP3 SWAP1 POP JUMP JUMPDEST PUSH1 0x60 PUSH0 DUP4 DUP4 SUB PUSH8 0xFFFFFFFFFFFFFFFF DUP2 GT ISZERO PUSH2 0x1FB JUMPI PUSH2 0x1FA PUSH2 0xA5D JUMP JUMPDEST JUMPDEST PUSH1 0x40 MLOAD SWAP1 DUP1 DUP3 MSTORE DUP1 PUSH1 0x1F ADD PUSH1 0x1F NOT AND PUSH1 0x20 ADD DUP3 ADD PUSH1 0x40 MSTORE DUP1 ISZERO PUSH2 0x22D JUMPI DUP2 PUSH1 0x20 ADD PUSH1 0x1 DUP3 MUL DUP1 CALLDATASIZE DUP4 CALLDATACOPY DUP1 DUP3 ADD SWAP2 POP POP SWAP1 POP JUMPDEST POP SWAP1 POP PUSH0 JUMPDEST DUP5 DUP5 SUB DUP2 LT ISZERO PUSH2 0x2AA JUMPI DUP6 DUP6 DUP3 ADD DUP2 MLOAD DUP2 LT PUSH2 0x251 JUMPI PUSH2 0x250 PUSH2 0xE84 JUMP JUMPDEST JUMPDEST PUSH1 0x20 ADD ADD MLOAD PUSH1 0xF8 SHR PUSH1 0xF8 SHL DUP3 DUP3 DUP2 MLOAD DUP2 LT PUSH2 0x26F JUMPI PUSH2 0x26E PUSH2 0xE84 JUMP JUMPDEST JUMPDEST PUSH1 0x20 ADD ADD SWAP1 PUSH31 0xFFFFFFFFFFFFFFFFFFFFFFFFFFFFFFFFFFFFFFFFFFFFFFFFFFFFFFFFFFFFFF NOT AND SWAP1 DUP2 PUSH0 BYTE SWAP1 MSTORE8 POP DUP1 DUP1 PUSH1 0x1 ADD SWAP2 POP POP PUSH2 0x232 JUMP JUMPDEST POP DUP1 SWAP2 POP POP SWAP4 SWAP3 POP POP POP JUMP JUMPDEST PUSH1 0x60 PUSH0 PUSH1 0x31 SWAP1 POP PUSH0 DUP4 MLOAD SWAP1 POP PUSH0 DUP1 JUMPDEST DUP3 DUP2 LT DUP1 ISZERO PUSH2 0x2F6 JUMPI POP DUP4 DUP7 DUP3 DUP2 MLOAD DUP2 LT PUSH2 0x2E3 JUMPI PUSH2 0x2E2 PUSH2 0xE84 JUMP JUMPDEST JUMPDEST PUSH1 0x20 ADD ADD MLOAD PUSH1 0xF8 SHR PUSH1 0xF8 SHL PUSH1 0xF8 SHR PUSH1 0xFF AND EQ JUMPDEST ISZERO PUSH2 0x310 JUMPI DUP2 DUP1 PUSH1 0x1 ADD SWAP3 POP POP DUP1 DUP1 PUSH1 0x1 ADD SWAP2 POP POP PUSH2 0x2C5 JUMP JUMPDEST POP PUSH0 DUP1 PUSH0 DUP1 PUSH1 0x1 PUSH2 0x17E3 PUSH2 0x209F DUP9 MUL DUP2 PUSH2 0x32D JUMPI PUSH2 0x32C PUSH2 0xEB1 JUMP JUMPDEST JUMPDEST DIV ADD PUSH1 0x2 MUL PUSH8 0xFFFFFFFFFFFFFFFF DUP2 GT ISZERO PUSH2 0x34B JUMPI PUSH2 0x34A PUSH2 0xA5D JUMP JUMPDEST JUMPDEST PUSH1 0x40 MLOAD SWAP1 DUP1 DUP3 MSTORE DUP1 PUSH1 0x1F ADD PUSH1 0x1F NOT AND PUSH1 0x20 ADD DUP3 ADD PUSH1 0x40 MSTORE DUP1 ISZERO PUSH2 0x37D JUMPI DUP2 PUSH1 0x20 ADD PUSH1 0x1 DUP3 MUL DUP1 CALLDATASIZE DUP4 CALLDATACOPY DUP1 DUP3 ADD SWAP2 POP POP SWAP1 POP JUMPDEST POP SWAP1 POP PUSH0 PUSH1 0x4 PUSH1 0x3 DUP9 ADD DUP2 PUSH2 0x395 JUMPI PUSH2 0x394 PUSH2 0xEB1 JUMP JUMPDEST JUMPDEST DIV PUSH8 0xFFFFFFFFFFFFFFFF DUP2 GT ISZERO PUSH2 0x3AF JUMPI PUSH2 0x3AE PUSH2 0xA5D JUMP JUMPDEST JUMPDEST PUSH1 0x40 MLOAD SWAP1 DUP1 DUP3 MSTORE DUP1 PUSH1 0x20 MUL PUSH1 0x20 ADD DUP3 ADD PUSH1 0x40 MSTORE DUP1 ISZERO PUSH2 0x3DD JUMPI DUP2 PUSH1 0x20 ADD PUSH1 0x20 DUP3 MUL DUP1 CALLDATASIZE DUP4 CALLDATACOPY DUP1 DUP3 ADD SWAP2 POP POP SWAP1 POP JUMPDEST POP SWAP1 POP PUSH0 JUMPDEST DUP11 MLOAD DUP2 LT ISZERO PUSH2 0x510 JUMPI PUSH0 DUP12 DUP3 DUP2 MLOAD DUP2 LT PUSH2 0x3FF JUMPI PUSH2 0x3FE PUSH2 0xE84 JUMP JUMPDEST JUMPDEST PUSH1 0x20 ADD ADD MLOAD PUSH1 0xF8 SHR PUSH1 0xF8 SHL SWAP1 POP PUSH2 0x42E PUSH1 0x40 MLOAD DUP1 PUSH1 0x60 ADD PUSH1 0x40 MSTORE DUP1 PUSH1 0x3A DUP2 MSTORE PUSH1 0x20 ADD PUSH2 0xF57 PUSH1 0x3A SWAP2 CODECOPY DUP3 PUSH2 0x13E JUMP JUMPDEST DUP1 SWAP7 POP DUP2 SWAP8 POP POP POP DUP5 PUSH2 0x476 JUMPI PUSH1 0x40 MLOAD PUSH32 0x8C379A000000000000000000000000000000000000000000000000000000000 DUP2 MSTORE PUSH1 0x4 ADD PUSH2 0x46D SWAP1 PUSH2 0xF38 JUMP JUMPDEST PUSH1 0x40 MLOAD DUP1 SWAP2 SUB SWAP1 REVERT JUMPDEST PUSH0 PUSH1 0x1 DUP5 MLOAD SUB SWAP1 POP JUMPDEST PUSH0 DUP2 SLT PUSH2 0x501 JUMPI DUP7 PUSH1 0x3A DUP6 DUP4 DUP2 MLOAD DUP2 LT PUSH2 0x49C JUMPI PUSH2 0x49B PUSH2 0xE84 JUMP JUMPDEST JUMPDEST PUSH1 0x20 MUL PUSH1 0x20 ADD ADD MLOAD PUSH4 0xFFFFFFFF AND MUL PUSH8 0xFFFFFFFFFFFFFFFF AND ADD SWAP8 POP PUSH1 0x20 DUP9 SWAP1 SHR SWAP7 POP PUSH4 0xFFFFFFFF DUP9 AND DUP5 DUP3 DUP2 MLOAD DUP2 LT PUSH2 0x4D9 JUMPI PUSH2 0x4D8 PUSH2 0xE84 JUMP JUMPDEST JUMPDEST PUSH1 0x20 MUL PUSH1 0x20 ADD ADD SWAP1 PUSH4 0xFFFFFFFF AND SWAP1 DUP2 PUSH4 0xFFFFFFFF AND DUP2 MSTORE POP POP DUP1 DUP1 PUSH1 0x1 SWAP1 SUB SWAP2 POP POP PUSH2 0x47F JUMP JUMPDEST POP POP DUP1 DUP1 PUSH1 0x1 ADD SWAP2 POP POP PUSH2 0x3E2 JUMP JUMPDEST POP PUSH0 PUSH1 0x8 PUSH1 0x4 DUP10 DUP2 PUSH2 0x525 JUMPI PUSH2 0x524 PUSH2 0xEB1 JUMP JUMPDEST JUMPDEST MOD MUL SWAP1 POP PUSH0 DUP2 PUSH8 0xFFFFFFFFFFFFFFFF AND SUB PUSH2 0x53F JUMPI PUSH1 0x20 SWAP1 POP JUMPDEST PUSH1 0x8 DUP2 SUB SWAP1 POP PUSH0 DUP1 JUMPDEST DUP4 MLOAD DUP2 LT ISZERO PUSH2 0x60D JUMPI JUMPDEST PUSH1 0x20 DUP4 PUSH8 0xFFFFFFFFFFFFFFFF AND LT ISZERO PUSH2 0x5FC JUMPI DUP3 PUSH8 0xFFFFFFFFFFFFFFFF AND DUP5 DUP3 DUP2 MLOAD DUP2 LT PUSH2 0x583 JUMPI PUSH2 0x582 PUSH2 0xE84 JUMP JUMPDEST JUMPDEST PUSH1 0x20 MUL PUSH1 0x20 ADD ADD MLOAD PUSH4 0xFFFFFFFF AND SWAP1 SHR PUSH1 0xF8 SHL DUP6 DUP4 DUP2 MLOAD DUP2 LT PUSH2 0x5A9 JUMPI PUSH2 0x5A8 PUSH2 0xE84 JUMP JUMPDEST JUMPDEST PUSH1 0x20 ADD ADD SWAP1 PUSH31 0xFFFFFFFFFFFFFFFFFFFFFFFFFFFFFFFFFFFFFFFFFFFFFFFFFFFFFFFFFFFFFF NOT AND SWAP1 DUP2 PUSH0 BYTE SWAP1 MSTORE8 POP DUP2 DUP1 PUSH1 0x1 ADD SWAP3 POP POP PUSH1 0x8 DUP4 PUSH8 0xFFFFFFFFFFFFFFFF AND LT PUSH2 0x5FC JUMPI PUSH1 0x8 DUP4 SUB SWAP3 POP PUSH2 0x552 JUMP JUMPDEST PUSH1 0x18 SWAP3 POP DUP1 DUP1 PUSH1 0x1 ADD SWAP2 POP POP PUSH2 0x548 JUMP JUMPDEST POP PUSH0 DUP9 SWAP1 POP JUMPDEST DUP5 MLOAD DUP2 LT ISZERO PUSH2 0x692 JUMPI PUSH0 PUSH1 0xF8 SHL DUP6 DUP3 DUP2 MLOAD DUP2 LT PUSH2 0x633 JUMPI PUSH2 0x632 PUSH2 0xE84 JUMP JUMPDEST JUMPDEST PUSH1 0x20 ADD ADD MLOAD PUSH1 0xF8 SHR PUSH1 0xF8 SHL PUSH31 0xFFFFFFFFFFFFFFFFFFFFFFFFFFFFFFFFFFFFFFFFFFFFFFFFFFFFFFFFFFFFFF NOT AND GT ISZERO PUSH2 0x685 JUMPI PUSH2 0x673 DUP6 DUP11 DUP4 SUB DUP5 PUSH2 0x1DC JUMP JUMPDEST SWAP12 POP POP POP POP POP POP POP POP POP POP POP POP PUSH2 0x6AB JUMP JUMPDEST DUP1 DUP1 PUSH1 0x1 ADD SWAP2 POP POP PUSH2 0x613 JUMP JUMPDEST POP PUSH2 0x69E DUP5 PUSH0 DUP4 PUSH2 0x1DC JUMP JUMPDEST SWAP11 POP POP POP POP POP POP POP POP POP POP POP JUMPDEST SWAP2 SWAP1 POP JUMP JUMPDEST PUSH1 0x60 PUSH0 DUP3 MLOAD SWAP1 POP PUSH0 JUMPDEST DUP2 DUP2 LT DUP1 ISZERO PUSH2 0x709 JUMPI POP PUSH0 PUSH1 0xF8 SHL DUP5 DUP3 DUP2 MLOAD DUP2 LT PUSH2 0x6DA JUMPI PUSH2 0x6D9 PUSH2 0xE84 JUMP JUMPDEST JUMPDEST PUSH1 0x20 ADD ADD MLOAD PUSH1 0xF8 SHR PUSH1 0xF8 SHL PUSH31 0xFFFFFFFFFFFFFFFFFFFFFFFFFFFFFFFFFFFFFFFFFFFFFFFFFFFFFFFFFFFFFF NOT AND EQ JUMPDEST ISZERO PUSH2 0x71B JUMPI DUP1 DUP1 PUSH1 0x1 ADD SWAP2 POP POP PUSH2 0x6B9 JUMP JUMPDEST PUSH1 0x1 PUSH2 0x17E3 PUSH2 0x209F DUP4 DUP6 SUB MUL DUP2 PUSH2 0x735 JUMPI PUSH2 0x734 PUSH2 0xEB1 JUMP JUMPDEST JUMPDEST DIV DUP3 ADD ADD SWAP2 POP PUSH0 DUP3 PUSH8 0xFFFFFFFFFFFFFFFF DUP2 GT ISZERO PUSH2 0x756 JUMPI PUSH2 0x755 PUSH2 0xA5D JUMP JUMPDEST JUMPDEST PUSH1 0x40 MLOAD SWAP1 DUP1 DUP3 MSTORE DUP1 PUSH1 0x1F ADD PUSH1 0x1F NOT AND PUSH1 0x20 ADD DUP3 ADD PUSH1 0x40 MSTORE DUP1 ISZERO PUSH2 0x788 JUMPI DUP2 PUSH1 0x20 ADD PUSH1 0x1 DUP3 MUL DUP1 CALLDATASIZE DUP4 CALLDATACOPY DUP1 DUP3 ADD SWAP2 POP POP SWAP1 POP JUMPDEST POP SWAP1 POP PUSH0 DUP1 PUSH0 PUSH1 0x1 DUP7 SUB SWAP1 POP PUSH0 JUMPDEST DUP9 MLOAD DUP2 LT ISZERO PUSH2 0x8A9 JUMPI PUSH1 0x1 DUP8 SUB SWAP3 POP DUP9 DUP2 DUP2 MLOAD DUP2 LT PUSH2 0x7B8 JUMPI PUSH2 0x7B7 PUSH2 0xE84 JUMP JUMPDEST JUMPDEST PUSH1 0x20 ADD ADD MLOAD PUSH1 0xF8 SHR PUSH1 0xF8 SHL PUSH1 0xF8 SHR PUSH1 0xFF AND SWAP4 POP JUMPDEST DUP2 DUP4 SGT DUP1 PUSH2 0x7E0 JUMPI POP PUSH0 DUP5 PUSH4 0xFFFFFFFF AND EQ ISZERO JUMPDEST ISZERO PUSH2 0x899 JUMPI DUP5 DUP4 DUP2 MLOAD DUP2 LT PUSH2 0x7F8 JUMPI PUSH2 0x7F7 PUSH2 0xE84 JUMP JUMPDEST JUMPDEST PUSH1 0x20 ADD ADD MLOAD PUSH1 0xF8 SHR PUSH1 0xF8 SHL PUSH1 0xF8 SHR PUSH1 0xFF AND PUSH2 0x100 MUL PUSH2 0xFFFF AND DUP5 ADD SWAP4 POP PUSH1 0x3A DUP5 PUSH4 0xFFFFFFFF AND DUP2 PUSH2 0x82C JUMPI PUSH2 0x82B PUSH2 0xEB1 JUMP JUMPDEST JUMPDEST MOD PUSH1 0xF8 SHL DUP6 DUP5 DUP2 MLOAD DUP2 LT PUSH2 0x843 JUMPI PUSH2 0x842 PUSH2 0xE84 JUMP JUMPDEST JUMPDEST PUSH1 0x20 ADD ADD SWAP1 PUSH31 0xFFFFFFFFFFFFFFFFFFFFFFFFFFFFFFFFFFFFFFFFFFFFFFFFFFFFFFFFFFFFFF NOT AND SWAP1 DUP2 PUSH0 BYTE SWAP1 MSTORE8 POP PUSH1 0x3A DUP5 PUSH4 0xFFFFFFFF AND DUP2 PUSH2 0x888 JUMPI PUSH2 0x887 PUSH2 0xEB1 JUMP JUMPDEST JUMPDEST DIV SWAP4 POP DUP3 DUP1 PUSH1 0x1 SWAP1 SUB SWAP4 POP POP PUSH2 0x7CC JUMP JUMPDEST DUP3 SWAP2 POP DUP1 DUP1 PUSH1 0x1 ADD SWAP2 POP POP PUSH2 0x796 JUMP JUMPDEST POP PUSH0 DUP6 SWAP1 POP JUMPDEST DUP7 DUP2 LT DUP1 ISZERO PUSH2 0x8FF JUMPI POP PUSH0 PUSH1 0xF8 SHL DUP6 DUP3 DUP2 MLOAD DUP2 LT PUSH2 0x8D0 JUMPI PUSH2 0x8CF PUSH2 0xE84 JUMP JUMPDEST JUMPDEST PUSH1 0x20 ADD ADD MLOAD PUSH1 0xF8 SHR PUSH1 0xF8 SHL PUSH31 0xFFFFFFFFFFFFFFFFFFFFFFFFFFFFFFFFFFFFFFFFFFFFFFFFFFFFFFFFFFFFFF NOT AND EQ JUMPDEST ISZERO PUSH2 0x911 JUMPI DUP1 DUP1 PUSH1 0x1 ADD SWAP2 POP POP PUSH2 0x8AF JUMP JUMPDEST DUP6 DUP2 SUB DUP6 MLOAD SUB SWAP7 POP PUSH0 DUP8 PUSH8 0xFFFFFFFFFFFFFFFF DUP2 GT ISZERO PUSH2 0x934 JUMPI PUSH2 0x933 PUSH2 0xA5D JUMP JUMPDEST JUMPDEST PUSH1 0x40 MLOAD SWAP1 DUP1 DUP3 MSTORE DUP1 PUSH1 0x1F ADD PUSH1 0x1F NOT AND PUSH1 0x20 ADD DUP3 ADD PUSH1 0x40 MSTORE DUP1 ISZERO PUSH2 0x966 JUMPI DUP2 PUSH1 0x20 ADD PUSH1 0x1 DUP3 MUL DUP1 CALLDATASIZE DUP4 CALLDATACOPY DUP1 DUP3 ADD SWAP2 POP POP SWAP1 POP JUMPDEST POP SWAP1 POP PUSH0 JUMPDEST DUP9 DUP2 LT ISZERO PUSH2 0xA23 JUMPI PUSH0 DUP9 DUP5 DUP4 ADD SUB SWAP1 POP PUSH1 0x40 MLOAD DUP1 PUSH1 0x60 ADD PUSH1 0x40 MSTORE DUP1 PUSH1 0x3A DUP2 MSTORE PUSH1 0x20 ADD PUSH2 0xF57 PUSH1 0x3A SWAP2 CODECOPY DUP9 DUP3 DUP2 MLOAD DUP2 LT PUSH2 0x9A7 JUMPI PUSH2 0x9A6 PUSH2 0xE84 JUMP JUMPDEST JUMPDEST PUSH1 0x20 ADD ADD MLOAD PUSH1 0xF8 SHR PUSH1 0xF8 SHL PUSH1 0xF8 SHR PUSH1 0xFF AND DUP2 MLOAD DUP2 LT PUSH2 0x9C9 JUMPI PUSH2 0x9C8 PUSH2 0xE84 JUMP JUMPDEST JUMPDEST PUSH1 0x20 ADD ADD MLOAD PUSH1 0xF8 SHR PUSH1 0xF8 SHL DUP4 DUP4 DUP2 MLOAD DUP2 LT PUSH2 0x9E7 JUMPI PUSH2 0x9E6 PUSH2 0xE84 JUMP JUMPDEST JUMPDEST PUSH1 0x20 ADD ADD SWAP1 PUSH31 0xFFFFFFFFFFFFFFFFFFFFFFFFFFFFFFFFFFFFFFFFFFFFFFFFFFFFFFFFFFFFFF NOT AND SWAP1 DUP2 PUSH0 BYTE SWAP1 MSTORE8 POP POP DUP1 DUP1 PUSH1 0x1 ADD SWAP2 POP POP PUSH2 0x96B JUMP JUMPDEST POP DUP1 SWAP9 POP POP POP POP POP POP POP POP POP SWAP2 SWAP1 POP JUMP JUMPDEST PUSH0 PUSH1 0x40 MLOAD SWAP1 POP SWAP1 JUMP JUMPDEST PUSH0 DUP1 REVERT JUMPDEST PUSH0 DUP1 REVERT JUMPDEST PUSH0 DUP1 REVERT JUMPDEST PUSH0 DUP1 REVERT JUMPDEST PUSH0 PUSH1 0x1F NOT PUSH1 0x1F DUP4 ADD AND SWAP1 POP SWAP2 SWAP1 POP JUMP JUMPDEST PUSH32 0x4E487B7100000000000000000000000000000000000000000000000000000000 PUSH0 MSTORE PUSH1 0x41 PUSH1 0x4 MSTORE PUSH1 0x24 PUSH0 REVERT JUMPDEST PUSH2 0xA93 DUP3 PUSH2 0xA4D JUMP JUMPDEST DUP2 ADD DUP2 DUP2 LT PUSH8 0xFFFFFFFFFFFFFFFF DUP3 GT OR ISZERO PUSH2 0xAB2 JUMPI PUSH2 0xAB1 PUSH2 0xA5D JUMP JUMPDEST JUMPDEST DUP1 PUSH1 0x40 MSTORE POP POP POP JUMP JUMPDEST PUSH0 PUSH2 0xAC4 PUSH2 0xA34 JUMP JUMPDEST SWAP1 POP PUSH2 0xAD0 DUP3 DUP3 PUSH2 0xA8A JUMP JUMPDEST SWAP2 SWAP1 POP JUMP JUMPDEST PUSH0 PUSH8 0xFFFFFFFFFFFFFFFF DUP3 GT ISZERO PUSH2 0xAEF JUMPI PUSH2 0xAEE PUSH2 0xA5D JUMP JUMPDEST JUMPDEST PUSH2 0xAF8 DUP3 PUSH2 0xA4D JUMP JUMPDEST SWAP1 POP PUSH1 0x20 DUP2 ADD SWAP1 POP SWAP2 SWAP1 POP JUMP JUMPDEST DUP3 DUP2 DUP4 CALLDATACOPY PUSH0 DUP4 DUP4 ADD MSTORE POP POP POP JUMP JUMPDEST PUSH0 PUSH2 0xB25 PUSH2 0xB20 DUP5 PUSH2 0xAD5 JUMP JUMPDEST PUSH2 0xABB JUMP JUMPDEST SWAP1 POP DUP3 DUP2 MSTORE PUSH1 0x20 DUP2 ADD DUP5 DUP5 DUP5 ADD GT ISZERO PUSH2 0xB41 JUMPI PUSH2 0xB40 PUSH2 0xA49 JUMP JUMPDEST JUMPDEST PUSH2 0xB4C DUP5 DUP3 DUP6 PUSH2 0xB05 JUMP JUMPDEST POP SWAP4 SWAP3 POP POP POP JUMP JUMPDEST PUSH0 DUP3 PUSH1 0x1F DUP4 ADD SLT PUSH2 0xB68 JUMPI PUSH2 0xB67 PUSH2 0xA45 JUMP JUMPDEST JUMPDEST DUP2 CALLDATALOAD PUSH2 0xB78 DUP5 DUP3 PUSH1 0x20 DUP7 ADD PUSH2 0xB13 JUMP JUMPDEST SWAP2 POP POP SWAP3 SWAP2 POP POP JUMP JUMPDEST PUSH0 PUSH1 0x20 DUP3 DUP5 SUB SLT ISZERO PUSH2 0xB96 JUMPI PUSH2 0xB95 PUSH2 0xA3D JUMP JUMPDEST JUMPDEST PUSH0 DUP3 ADD CALLDATALOAD PUSH8 0xFFFFFFFFFFFFFFFF DUP2 GT ISZERO PUSH2 0xBB3 JUMPI PUSH2 0xBB2 PUSH2 0xA41 JUMP JUMPDEST JUMPDEST PUSH2 0xBBF DUP5 DUP3 DUP6 ADD PUSH2 0xB54 JUMP JUMPDEST SWAP2 POP POP SWAP3 SWAP2 POP POP JUMP JUMPDEST PUSH0 DUP2 MLOAD SWAP1 POP SWAP2 SWAP1 POP JUMP JUMPDEST PUSH0 DUP3 DUP3 MSTORE PUSH1 0x20 DUP3 ADD SWAP1 POP SWAP3 SWAP2 POP POP JUMP JUMPDEST DUP3 DUP2 DUP4 MCOPY PUSH0 DUP4 DUP4 ADD MSTORE POP POP POP JUMP JUMPDEST PUSH0 PUSH2 0xBFA DUP3 PUSH2 0xBC8 JUMP JUMPDEST PUSH2 0xC04 DUP2 DUP6 PUSH2 0xBD2 JUMP JUMPDEST SWAP4 POP PUSH2 0xC14 DUP2 DUP6 PUSH1 0x20 DUP7 ADD PUSH2 0xBE2 JUMP JUMPDEST PUSH2 0xC1D DUP2 PUSH2 0xA4D JUMP JUMPDEST DUP5 ADD SWAP2 POP POP SWAP3 SWAP2 POP POP JUMP JUMPDEST PUSH0 PUSH1 0x20 DUP3 ADD SWAP1 POP DUP2 DUP2 SUB PUSH0 DUP4 ADD MSTORE PUSH2 0xC40 DUP2 DUP5 PUSH2 0xBF0 JUMP JUMPDEST SWAP1 POP SWAP3 SWAP2 POP POP JUMP JUMPDEST PUSH0 PUSH8 0xFFFFFFFFFFFFFFFF DUP3 GT ISZERO PUSH2 0xC62 JUMPI PUSH2 0xC61 PUSH2 0xA5D JUMP JUMPDEST JUMPDEST PUSH2 0xC6B DUP3 PUSH2 0xA4D JUMP JUMPDEST SWAP1 POP PUSH1 0x20 DUP2 ADD SWAP1 POP SWAP2 SWAP1 POP JUMP JUMPDEST PUSH0 PUSH2 0xC8A PUSH2 0xC85 DUP5 PUSH2 0xC48 JUMP JUMPDEST PUSH2 0xABB JUMP JUMPDEST SWAP1 POP DUP3 DUP2 MSTORE PUSH1 0x20 DUP2 ADD DUP5 DUP5 DUP5 ADD GT ISZERO PUSH2 0xCA6 JUMPI PUSH2 0xCA5 PUSH2 0xA49 JUMP JUMPDEST JUMPDEST PUSH2 0xCB1 DUP5 DUP3 DUP6 PUSH2 0xB05 JUMP JUMPDEST POP SWAP4 SWAP3 POP POP POP JUMP JUMPDEST PUSH0 DUP3 PUSH1 0x1F DUP4 ADD SLT PUSH2 0xCCD JUMPI PUSH2 0xCCC PUSH2 0xA45 JUMP JUMPDEST JUMPDEST DUP2 CALLDATALOAD PUSH2 0xCDD DUP5 DUP3 PUSH1 0x20 DUP7 ADD PUSH2 0xC78 JUMP JUMPDEST SWAP2 POP POP SWAP3 SWAP2 POP POP JUMP JUMPDEST PUSH0 PUSH32 0xFF00000000000000000000000000000000000000000000000000000000000000 DUP3 AND SWAP1 POP SWAP2 SWAP1 POP JUMP JUMPDEST PUSH2 0xD1A DUP2 PUSH2 0xCE6 JUMP JUMPDEST DUP2 EQ PUSH2 0xD24 JUMPI PUSH0 DUP1 REVERT JUMPDEST POP JUMP JUMPDEST PUSH0 DUP2 CALLDATALOAD SWAP1 POP PUSH2 0xD35 DUP2 PUSH2 0xD11 JUMP JUMPDEST SWAP3 SWAP2 POP POP JUMP JUMPDEST PUSH0 DUP1 PUSH1 0x40 DUP4 DUP6 SUB SLT ISZERO PUSH2 0xD51 JUMPI PUSH2 0xD50 PUSH2 0xA3D JUMP JUMPDEST JUMPDEST PUSH0 DUP4 ADD CALLDATALOAD PUSH8 0xFFFFFFFFFFFFFFFF DUP2 GT ISZERO PUSH2 0xD6E JUMPI PUSH2 0xD6D PUSH2 0xA41 JUMP JUMPDEST JUMPDEST PUSH2 0xD7A DUP6 DUP3 DUP7 ADD PUSH2 0xCB9 JUMP JUMPDEST SWAP3 POP POP PUSH1 0x20 PUSH2 0xD8B DUP6 DUP3 DUP7 ADD PUSH2 0xD27 JUMP JUMPDEST SWAP2 POP POP SWAP3 POP SWAP3 SWAP1 POP JUMP JUMPDEST PUSH0 DUP2 SWAP1 POP SWAP2 SWAP1 POP JUMP JUMPDEST PUSH2 0xDA7 DUP2 PUSH2 0xD95 JUMP JUMPDEST DUP3 MSTORE POP POP JUMP JUMPDEST PUSH0 DUP2 ISZERO ISZERO SWAP1 POP SWAP2 SWAP1 POP JUMP JUMPDEST PUSH2 0xDC1 DUP2 PUSH2 0xDAD JUMP JUMPDEST DUP3 MSTORE POP POP JUMP JUMPDEST PUSH0 PUSH1 0x40 DUP3 ADD SWAP1 POP PUSH2 0xDDA PUSH0 DUP4 ADD DUP6 PUSH2 0xD9E JUMP JUMPDEST PUSH2 0xDE7 PUSH1 0x20 DUP4 ADD DUP5 PUSH2 0xDB8 JUMP JUMPDEST SWAP4 SWAP3 POP POP POP JUMP JUMPDEST PUSH2 0xDF7 DUP2 PUSH2 0xD95 JUMP JUMPDEST DUP2 EQ PUSH2 0xE01 JUMPI PUSH0 DUP1 REVERT JUMPDEST POP JUMP JUMPDEST PUSH0 DUP2 CALLDATALOAD SWAP1 POP PUSH2 0xE12 DUP2 PUSH2 0xDEE JUMP JUMPDEST SWAP3 SWAP2 POP POP JUMP JUMPDEST PUSH0 DUP1 PUSH0 PUSH1 0x60 DUP5 DUP7 SUB SLT ISZERO PUSH2 0xE2F JUMPI PUSH2 0xE2E PUSH2 0xA3D JUMP JUMPDEST JUMPDEST PUSH0 DUP5 ADD CALLDATALOAD PUSH8 0xFFFFFFFFFFFFFFFF DUP2 GT ISZERO PUSH2 0xE4C JUMPI PUSH2 0xE4B PUSH2 0xA41 JUMP JUMPDEST JUMPDEST PUSH2 0xE58 DUP7 DUP3 DUP8 ADD PUSH2 0xCB9 JUMP JUMPDEST SWAP4 POP POP PUSH1 0x20 PUSH2 0xE69 DUP7 DUP3 DUP8 ADD PUSH2 0xE04 JUMP JUMPDEST SWAP3 POP POP PUSH1 0x40 PUSH2 0xE7A DUP7 DUP3 DUP8 ADD PUSH2 0xE04 JUMP JUMPDEST SWAP2 POP POP SWAP3 POP SWAP3 POP SWAP3 JUMP JUMPDEST PUSH32 0x4E487B7100000000000000000000000000000000000000000000000000000000 PUSH0 MSTORE PUSH1 0x32 PUSH1 0x4 MSTORE PUSH1 0x24 PUSH0 REVERT JUMPDEST PUSH32 0x4E487B7100000000000000000000000000000000000000000000000000000000 PUSH0 MSTORE PUSH1 0x12 PUSH1 0x4 MSTORE PUSH1 0x24 PUSH0 REVERT JUMPDEST PUSH0 DUP3 DUP3 MSTORE PUSH1 0x20 DUP3 ADD SWAP1 POP SWAP3 SWAP2 POP POP JUMP JUMPDEST PUSH32 0x696E76616C696420626173653538206469676974000000000000000000000000 PUSH0 DUP3 ADD MSTORE POP JUMP JUMPDEST PUSH0 PUSH2 0xF22 PUSH1 0x14 DUP4 PUSH2 0xEDE JUMP JUMPDEST SWAP2 POP PUSH2 0xF2D DUP3 PUSH2 0xEEE JUMP JUMPDEST PUSH1 0x20 DUP3 ADD SWAP1 POP SWAP2 SWAP1 POP JUMP JUMPDEST PUSH0 PUSH1 0x20 DUP3 ADD SWAP1 POP DUP2 DUP2 SUB PUSH0 DUP4 ADD MSTORE PUSH2 0xF4F DUP2 PUSH2 0xF16 JUMP JUMPDEST SWAP1 POP SWAP2 SWAP1 POP JUMP INVALID BALANCE ORIGIN CALLER CALLVALUE CALLDATALOAD CALLDATASIZE CALLDATACOPY CODESIZE CODECOPY COINBASE TIMESTAMP NUMBER PREVRANDAO GASLIMIT CHAINID SELFBALANCE BASEFEE BLOBBASEFEE 0x4B 0x4C 0x4D 0x4E POP MLOAD MSTORE MSTORE8 SLOAD SSTORE JUMP JUMPI PC MSIZE GAS PUSH2 0x6263 PUSH5 0x6566676869 PUSH11 0x6B6D6E6F70717273747576 PUSH24 0x78797AA26469706673582212209A81BCE6F9DF542372CEF6 CODECOPY EXTCODEHASH GASPRICE CALLCODE DUP2 0xAC 0xC6 DUP11 0xD5 BLOBBASEFEE GASLIMIT PUSH6 0x9B397F5256FB SHL SWAP15 SHR PUSH5 0x736F6C6343 STOP ADDMOD BYTE STOP CALLER "
				},
				"gasEstimates": {
					"creation": {
						"codeDepositCost": "807600",
						"executionCost": "867",
						"totalCost": "808467"
					},
					"external": {
						"decodeFromString(string)": "infinite",
						"encodeFromString(string)": "infinite",
						"indexOf(bytes,bytes1)": "infinite",
						"slice(bytes,uint256,uint256)": "infinite"
					},
					"internal": {
						"decode(bytes memory)": "infinite",
						"encode(bytes memory)": "infinite",
						"encodeToString(bytes memory)": "infinite"
					}
				},
				"methodIdentifiers": {
					"decodeFromString(string)": "046a466a",
					"encodeFromString(string)": "529d1bb7",
					"indexOf(bytes,bytes1)": "8178ff43",
					"slice(bytes,uint256,uint256)": "e0041396"
				}
			},
			"storageLayout": {
				"storage": [],
				"types": null
			},
			"userdoc": {
				"kind": "user",
				"methods": {
					"decodeFromString(string)": {
						"notice": "decode is used to decode the given string in base58 standard."
					},
					"encodeFromString(string)": {
						"notice": "encodeFromString is used to encode the given string in base58 standard."
					},
					"indexOf(bytes,bytes1)": {
						"notice": "indexOf is used to find where char_ appears in data_."
					},
					"slice(bytes,uint256,uint256)": {
						"notice": "slice is used to slice the given byte, returns the bytes in the range of [start_, end_)"
					}
				},
				"notice": "This algorithm was migrated from github.com/mr-tron/base58 to solidity. Note that it is not yet optimized for gas, so it is recommended to use it only in the view/pure function.",
				"version": 1
			}
		}
	}
}