{
	"test.sol": {
		"NFTregistry": {
			"abi": [
				{
					"anonymous": false,
					"inputs": [
						{
							"indexed": true,
							"internalType": "string",
							"name": "filehash",
							"type": "string"
						},
						{
							"indexed": false,
							"internalType": "string",
							"name": "chainid",
							"type": "string"
						},
						{
							"indexed": true,
							"internalType": "address",
							"name": "contractAddress",
							"type": "address"
						},
						{
							"indexed": false,
							"internalType": "int256",
							"name": "tokenid",
							"type": "int256"
						}
					],
					"name": "NFTRegistered",
					"type": "event"
				},
				{
					"inputs": [
						{
							"internalType": "string",
							"name": "filehash",
							"type": "string"
						}
					],
					"name": "getNFTInfo",
					"outputs": [
						{
							"internalType": "string",
							"name": "",
							"type": "string"
						},
						{
							"internalType": "address",
							"name": "",
							"type": "address"
						},
						{
							"internalType": "int256",
							"name": "",
							"type": "int256"
						}
					],
					"stateMutability": "view",
					"type": "function"
				},
				{
					"inputs": [
						{
							"internalType": "address",
							"name": "_addr",
							"type": "address"
						}
					],
					"name": "isContract",
					"outputs": [
						{
							"internalType": "bool",
							"name": "",
							"type": "bool"
						}
					],
					"stateMutability": "view",
					"type": "function"
				},
				{
					"inputs": [
						{
							"internalType": "string",
							"name": "filehash",
							"type": "string"
						}
					],
					"name": "isContractRegistered",
					"outputs": [
						{
							"internalType": "bool",
							"name": "",
							"type": "bool"
						}
					],
					"stateMutability": "view",
					"type": "function"
				},
				{
					"inputs": [
						{
							"internalType": "string",
							"name": "",
							"type": "string"
						}
					],
					"name": "nfts",
					"outputs": [
						{
							"internalType": "string",
							"name": "chainid",
							"type": "string"
						},
						{
							"internalType": "address",
							"name": "contractaddress",
							"type": "address"
						},
						{
							"internalType": "int256",
							"name": "tokenid",
							"type": "int256"
						}
					],
					"stateMutability": "view",
					"type": "function"
				},
				{
					"inputs": [
						{
							"internalType": "string",
							"name": "filehash",
							"type": "string"
						},
						{
							"internalType": "string",
							"name": "chain",
							"type": "string"
						},
						{
							"internalType": "address",
							"name": "contractAddress",
							"type": "address"
						},
						{
							"internalType": "int256",
							"name": "tokenid",
							"type": "int256"
						}
					],
					"name": "registerNFT",
					"outputs": [],
					"stateMutability": "nonpayable",
					"type": "function"
				}
			],
			"devdoc": {
				"kind": "dev",
				"methods": {},
				"version": 1
			},
			"evm": {
				"assembly": "    /* \"test.sol\":60:1782  contract NFTregistry{... */\n  mstore(0x40, 0x80)\n  callvalue\n  dup1\n  iszero\n  tag_1\n  jumpi\n  0x00\n  dup1\n  revert\ntag_1:\n  pop\n  dataSize(sub_0)\n  dup1\n  dataOffset(sub_0)\n  0x00\n  codecopy\n  0x00\n  return\nstop\n\nsub_0: assembly {\n        /* \"test.sol\":60:1782  contract NFTregistry{... */\n      mstore(0x40, 0x80)\n      callvalue\n      dup1\n      iszero\n      tag_1\n      jumpi\n      0x00\n      dup1\n      revert\n    tag_1:\n      pop\n      jumpi(tag_2, lt(calldatasize, 0x04))\n      shr(0xe0, calldataload(0x00))\n      dup1\n      0x16279055\n      eq\n      tag_3\n      jumpi\n      dup1\n      0x1fea226e\n      eq\n      tag_4\n      jumpi\n      dup1\n      0x252941cd\n      eq\n      tag_5\n      jumpi\n      dup1\n      0x3896f226\n      eq\n      tag_6\n      jumpi\n      dup1\n      0xb66fb090\n      eq\n      tag_7\n      jumpi\n    tag_2:\n      0x00\n      dup1\n      revert\n        /* \"test.sol\":1509:1772  function isContract(address _addr) public view returns (bool) {... */\n    tag_3:\n      tag_8\n      0x04\n      dup1\n      calldatasize\n      sub\n      dup2\n      add\n      swap1\n      tag_9\n      swap2\n      swap1\n      tag_10\n      jump\t// in\n    tag_9:\n      tag_11\n      jump\t// in\n    tag_8:\n      mload(0x40)\n      tag_12\n      swap2\n      swap1\n      tag_13\n      jump\t// in\n    tag_12:\n      mload(0x40)\n      dup1\n      swap2\n      sub\n      swap1\n      return\n        /* \"test.sol\":362:1040  function registerNFT(string memory filehash,  string memory chain, address contractAddress, int tokenid) public {... */\n    tag_4:\n      tag_14\n      0x04\n      dup1\n      calldatasize\n      sub\n      dup2\n      add\n      swap1\n      tag_15\n      swap2\n      swap1\n      tag_16\n      jump\t// in\n    tag_15:\n      tag_17\n      jump\t// in\n    tag_14:\n      stop\n        /* \"test.sol\":1048:1341  function getNFTInfo(string memory filehash) public view returns (string memory, address, int) {... */\n    tag_5:\n      tag_18\n      0x04\n      dup1\n      calldatasize\n      sub\n      dup2\n      add\n      swap1\n      tag_19\n      swap2\n      swap1\n      tag_20\n      jump\t// in\n    tag_19:\n      tag_21\n      jump\t// in\n    tag_18:\n      mload(0x40)\n      tag_22\n      swap4\n      swap3\n      swap2\n      swap1\n      tag_23\n      jump\t// in\n    tag_22:\n      mload(0x40)\n      dup1\n      swap2\n      sub\n      swap1\n      return\n        /* \"test.sol\":1350:1501  function isContractRegistered(string memory filehash) public view returns (bool) {... */\n    tag_6:\n      tag_24\n      0x04\n      dup1\n      calldatasize\n      sub\n      dup2\n      add\n      swap1\n      tag_25\n      swap2\n      swap1\n      tag_20\n      jump\t// in\n    tag_25:\n      tag_26\n      jump\t// in\n    tag_24:\n      mload(0x40)\n      tag_27\n      swap2\n      swap1\n      tag_13\n      jump\t// in\n    tag_27:\n      mload(0x40)\n      dup1\n      swap2\n      sub\n      swap1\n      return\n        /* \"test.sol\":198:236  mapping(string => NFTInfo) public nfts */\n    tag_7:\n      tag_28\n      0x04\n      dup1\n      calldatasize\n      sub\n      dup2\n      add\n      swap1\n      tag_29\n      swap2\n      swap1\n      tag_20\n      jump\t// in\n    tag_29:\n      tag_30\n      jump\t// in\n    tag_28:\n      mload(0x40)\n      tag_31\n      swap4\n      swap3\n      swap2\n      swap1\n      tag_23\n      jump\t// in\n    tag_31:\n      mload(0x40)\n      dup1\n      swap2\n      sub\n      swap1\n      return\n        /* \"test.sol\":1509:1772  function isContract(address _addr) public view returns (bool) {... */\n    tag_11:\n        /* \"test.sol\":1565:1569  bool */\n      0x00\n        /* \"test.sol\":1582:1594  uint256 size */\n      dup1\n        /* \"test.sol\":1722:1727  _addr */\n      dup3\n        /* \"test.sol\":1710:1728  extcodesize(_addr) */\n      extcodesize\n        /* \"test.sol\":1702:1728  size := extcodesize(_addr) */\n      swap1\n      pop\n        /* \"test.sol\":1763:1764  0 */\n      0x00\n        /* \"test.sol\":1756:1760  size */\n      dup2\n        /* \"test.sol\":1756:1764  size > 0 */\n      gt\n        /* \"test.sol\":1749:1764  return size > 0 */\n      swap2\n      pop\n      pop\n        /* \"test.sol\":1509:1772  function isContract(address _addr) public view returns (bool) {... */\n      swap2\n      swap1\n      pop\n      jump\t// out\n        /* \"test.sol\":362:1040  function registerNFT(string memory filehash,  string memory chain, address contractAddress, int tokenid) public {... */\n    tag_17:\n        /* \"test.sol\":520:521  0 */\n      0x00\n        /* \"test.sol\":493:522  contractAddress != address(0) */\n      0xffffffffffffffffffffffffffffffffffffffff\n      and\n        /* \"test.sol\":493:508  contractAddress */\n      dup3\n        /* \"test.sol\":493:522  contractAddress != address(0) */\n      0xffffffffffffffffffffffffffffffffffffffff\n      and\n      sub\n        /* \"test.sol\":485:551  require(contractAddress != address(0), \"Invalid contract address\") */\n      tag_34\n      jumpi\n      mload(0x40)\n      0x08c379a000000000000000000000000000000000000000000000000000000000\n      dup2\n      mstore\n      0x04\n      add\n      tag_35\n      swap1\n      tag_36\n      jump\t// in\n    tag_35:\n      mload(0x40)\n      dup1\n      swap2\n      sub\n      swap1\n      revert\n    tag_34:\n        /* \"test.sol\":612:613  0 */\n      0x00\n        /* \"test.sol\":570:614  nfts[filehash].contractaddress == address(0) */\n      0xffffffffffffffffffffffffffffffffffffffff\n      and\n        /* \"test.sol\":570:574  nfts */\n      0x00\n        /* \"test.sol\":575:583  filehash */\n      dup6\n        /* \"test.sol\":570:584  nfts[filehash] */\n      mload(0x40)\n      tag_37\n      swap2\n      swap1\n      tag_38\n      jump\t// in\n    tag_37:\n      swap1\n      dup2\n      mstore\n      0x20\n      add\n      mload(0x40)\n      dup1\n      swap2\n      sub\n      swap1\n      keccak256\n        /* \"test.sol\":570:600  nfts[filehash].contractaddress */\n      0x01\n      add\n      0x00\n      swap1\n      sload\n      swap1\n      0x0100\n      exp\n      swap1\n      div\n      0xffffffffffffffffffffffffffffffffffffffff\n      and\n        /* \"test.sol\":570:614  nfts[filehash].contractaddress == address(0) */\n      0xffffffffffffffffffffffffffffffffffffffff\n      and\n      eq\n        /* \"test.sol\":562:634  require(nfts[filehash].contractaddress == address(0), \"ID already used\") */\n      tag_39\n      jumpi\n      mload(0x40)\n      0x08c379a000000000000000000000000000000000000000000000000000000000\n      dup2\n      mstore\n      0x04\n      add\n      tag_40\n      swap1\n      tag_41\n      jump\t// in\n    tag_40:\n      mload(0x40)\n      dup1\n      swap2\n      sub\n      swap1\n      revert\n    tag_39:\n        /* \"test.sol\":653:680  isContract(contractAddress) */\n      tag_42\n        /* \"test.sol\":664:679  contractAddress */\n      dup3\n        /* \"test.sol\":653:663  isContract */\n      tag_11\n        /* \"test.sol\":653:680  isContract(contractAddress) */\n      jump\t// in\n    tag_42:\n        /* \"test.sol\":645:719  require(isContract(contractAddress), \"Address is not a deployed contract\") */\n      tag_43\n      jumpi\n      mload(0x40)\n      0x08c379a000000000000000000000000000000000000000000000000000000000\n      dup2\n      mstore\n      0x04\n      add\n      tag_44\n      swap1\n      tag_45\n      jump\t// in\n    tag_44:\n      mload(0x40)\n      dup1\n      swap2\n      sub\n      swap1\n      revert\n    tag_43:\n        /* \"test.sol\":730:756  bytes memory filehashBytes */\n      0x00\n        /* \"test.sol\":765:773  filehash */\n      dup5\n        /* \"test.sol\":730:774  bytes memory filehashBytes = bytes(filehash) */\n      swap1\n      pop\n        /* \"test.sol\":785:796  uint length */\n      0x00\n        /* \"test.sol\":799:812  filehashBytes */\n      dup2\n        /* \"test.sol\":799:819  filehashBytes.length */\n      mload\n        /* \"test.sol\":785:819  uint length = filehashBytes.length */\n      swap1\n      pop\n        /* \"test.sol\":848:850  44 */\n      0x2c\n        /* \"test.sol\":838:844  length */\n      dup2\n        /* \"test.sol\":838:850  length >= 44 */\n      lt\n      iszero\n        /* \"test.sol\":838:866  length >= 44 && length <= 46 */\n      dup1\n      iszero\n      tag_46\n      jumpi\n      pop\n        /* \"test.sol\":864:866  46 */\n      0x2e\n        /* \"test.sol\":854:860  length */\n      dup2\n        /* \"test.sol\":854:866  length <= 46 */\n      gt\n      iszero\n        /* \"test.sol\":838:866  length >= 44 && length <= 46 */\n    tag_46:\n        /* \"test.sol\":830:894  require(length >= 44 && length <= 46, \"Invalid filehash length\") */\n      tag_47\n      jumpi\n      mload(0x40)\n      0x08c379a000000000000000000000000000000000000000000000000000000000\n      dup2\n      mstore\n      0x04\n      add\n      tag_48\n      swap1\n      tag_49\n      jump\t// in\n    tag_48:\n      mload(0x40)\n      dup1\n      swap2\n      sub\n      swap1\n      revert\n    tag_47:\n        /* \"test.sol\":922:960  NFTInfo(chain,contractAddress,tokenid) */\n      mload(0x40)\n      dup1\n      0x60\n      add\n      0x40\n      mstore\n      dup1\n        /* \"test.sol\":930:935  chain */\n      dup7\n        /* \"test.sol\":922:960  NFTInfo(chain,contractAddress,tokenid) */\n      dup2\n      mstore\n      0x20\n      add\n        /* \"test.sol\":936:951  contractAddress */\n      dup6\n        /* \"test.sol\":922:960  NFTInfo(chain,contractAddress,tokenid) */\n      0xffffffffffffffffffffffffffffffffffffffff\n      and\n      dup2\n      mstore\n      0x20\n      add\n        /* \"test.sol\":952:959  tokenid */\n      dup5\n        /* \"test.sol\":922:960  NFTInfo(chain,contractAddress,tokenid) */\n      dup2\n      mstore\n      pop\n        /* \"test.sol\":905:909  nfts */\n      0x00\n        /* \"test.sol\":910:918  filehash */\n      dup8\n        /* \"test.sol\":905:919  nfts[filehash] */\n      mload(0x40)\n      tag_50\n      swap2\n      swap1\n      tag_38\n      jump\t// in\n    tag_50:\n      swap1\n      dup2\n      mstore\n      0x20\n      add\n      mload(0x40)\n      dup1\n      swap2\n      sub\n      swap1\n      keccak256\n        /* \"test.sol\":905:960  nfts[filehash] = NFTInfo(chain,contractAddress,tokenid) */\n      0x00\n      dup3\n      add\n      mload\n      dup2\n      0x00\n      add\n      swap1\n      dup2\n      tag_51\n      swap2\n      swap1\n      tag_52\n      jump\t// in\n    tag_51:\n      pop\n      0x20\n      dup3\n      add\n      mload\n      dup2\n      0x01\n      add\n      exp(0x0100, 0x00)\n      dup2\n      sload\n      dup2\n      0xffffffffffffffffffffffffffffffffffffffff\n      mul\n      not\n      and\n      swap1\n      dup4\n      0xffffffffffffffffffffffffffffffffffffffff\n      and\n      mul\n      or\n      swap1\n      sstore\n      pop\n      0x40\n      dup3\n      add\n      mload\n      dup2\n      0x02\n      add\n      sstore\n      swap1\n      pop\n      pop\n        /* \"test.sol\":1007:1022  contractAddress */\n      dup4\n        /* \"test.sol\":976:1032  NFTRegistered(filehash, chain ,contractAddress, tokenid) */\n      0xffffffffffffffffffffffffffffffffffffffff\n      and\n        /* \"test.sol\":990:998  filehash */\n      dup7\n        /* \"test.sol\":976:1032  NFTRegistered(filehash, chain ,contractAddress, tokenid) */\n      mload(0x40)\n      tag_53\n      swap2\n      swap1\n      tag_38\n      jump\t// in\n    tag_53:\n      mload(0x40)\n      dup1\n      swap2\n      sub\n      swap1\n      keccak256\n      0x750fef9cbabba37dba3294530e977dfe7dcc452afe9ea7bb7f119416b1cf0f01\n        /* \"test.sol\":1000:1005  chain */\n      dup8\n        /* \"test.sol\":1024:1031  tokenid */\n      dup7\n        /* \"test.sol\":976:1032  NFTRegistered(filehash, chain ,contractAddress, tokenid) */\n      mload(0x40)\n      tag_54\n      swap3\n      swap2\n      swap1\n      tag_55\n      jump\t// in\n    tag_54:\n      mload(0x40)\n      dup1\n      swap2\n      sub\n      swap1\n      log3\n        /* \"test.sol\":474:1040  {... */\n      pop\n      pop\n        /* \"test.sol\":362:1040  function registerNFT(string memory filehash,  string memory chain, address contractAddress, int tokenid) public {... */\n      pop\n      pop\n      pop\n      pop\n      jump\t// out\n        /* \"test.sol\":1048:1341  function getNFTInfo(string memory filehash) public view returns (string memory, address, int) {... */\n    tag_21:\n        /* \"test.sol\":1113:1126  string memory */\n      0x60\n        /* \"test.sol\":1128:1135  address */\n      0x00\n        /* \"test.sol\":1137:1140  int */\n      dup1\n        /* \"test.sol\":1153:1172  NFTInfo memory info */\n      0x00\n        /* \"test.sol\":1175:1179  nfts */\n      dup1\n        /* \"test.sol\":1180:1188  filehash */\n      dup6\n        /* \"test.sol\":1175:1189  nfts[filehash] */\n      mload(0x40)\n      tag_57\n      swap2\n      swap1\n      tag_38\n      jump\t// in\n    tag_57:\n      swap1\n      dup2\n      mstore\n      0x20\n      add\n      mload(0x40)\n      dup1\n      swap2\n      sub\n      swap1\n      keccak256\n        /* \"test.sol\":1153:1189  NFTInfo memory info = nfts[filehash] */\n      mload(0x40)\n      dup1\n      0x60\n      add\n      0x40\n      mstore\n      swap1\n      dup2\n      0x00\n      dup3\n      add\n      dup1\n      sload\n      tag_58\n      swap1\n      tag_59\n      jump\t// in\n    tag_58:\n      dup1\n      0x1f\n      add\n      0x20\n      dup1\n      swap2\n      div\n      mul\n      0x20\n      add\n      mload(0x40)\n      swap1\n      dup2\n      add\n      0x40\n      mstore\n      dup1\n      swap3\n      swap2\n      swap1\n      dup2\n      dup2\n      mstore\n      0x20\n      add\n      dup3\n      dup1\n      sload\n      tag_60\n      swap1\n      tag_59\n      jump\t// in\n    tag_60:\n      dup1\n      iszero\n      tag_61\n      jumpi\n      dup1\n      0x1f\n      lt\n      tag_62\n      jumpi\n      0x0100\n      dup1\n      dup4\n      sload\n      div\n      mul\n      dup4\n      mstore\n      swap2\n      0x20\n      add\n      swap2\n      jump(tag_61)\n    tag_62:\n      dup3\n      add\n      swap2\n      swap1\n      0x00\n      mstore\n      keccak256(0x00, 0x20)\n      swap1\n    tag_63:\n      dup2\n      sload\n      dup2\n      mstore\n      swap1\n      0x01\n      add\n      swap1\n      0x20\n      add\n      dup1\n      dup4\n      gt\n      tag_63\n      jumpi\n      dup3\n      swap1\n      sub\n      0x1f\n      and\n      dup3\n      add\n      swap2\n    tag_61:\n      pop\n      pop\n      pop\n      pop\n      pop\n      dup2\n      mstore\n      0x20\n      add\n      0x01\n      dup3\n      add\n      0x00\n      swap1\n      sload\n      swap1\n      0x0100\n      exp\n      swap1\n      div\n      0xffffffffffffffffffffffffffffffffffffffff\n      and\n      0xffffffffffffffffffffffffffffffffffffffff\n      and\n      0xffffffffffffffffffffffffffffffffffffffff\n      and\n      dup2\n      mstore\n      0x20\n      add\n      0x02\n      dup3\n      add\n      sload\n      dup2\n      mstore\n      pop\n      pop\n      swap1\n      pop\n        /* \"test.sol\":1240:1241  0 */\n      0x00\n        /* \"test.sol\":1208:1242  info.contractaddress != address(0) */\n      0xffffffffffffffffffffffffffffffffffffffff\n      and\n        /* \"test.sol\":1208:1212  info */\n      dup2\n        /* \"test.sol\":1208:1228  info.contractaddress */\n      0x20\n      add\n      mload\n        /* \"test.sol\":1208:1242  info.contractaddress != address(0) */\n      0xffffffffffffffffffffffffffffffffffffffff\n      and\n      sub\n        /* \"test.sol\":1200:1265  require(info.contractaddress != address(0), \"Contract not found\") */\n      tag_64\n      jumpi\n      mload(0x40)\n      0x08c379a000000000000000000000000000000000000000000000000000000000\n      dup2\n      mstore\n      0x04\n      add\n      tag_65\n      swap1\n      tag_66\n      jump\t// in\n    tag_65:\n      mload(0x40)\n      dup1\n      swap2\n      sub\n      swap1\n      revert\n    tag_64:\n        /* \"test.sol\":1284:1288  info */\n      dup1\n        /* \"test.sol\":1284:1296  info.chainid */\n      0x00\n      add\n      mload\n        /* \"test.sol\":1298:1302  info */\n      dup2\n        /* \"test.sol\":1298:1318  info.contractaddress */\n      0x20\n      add\n      mload\n        /* \"test.sol\":1320:1324  info */\n      dup3\n        /* \"test.sol\":1320:1332  info.tokenid */\n      0x40\n      add\n      mload\n        /* \"test.sol\":1276:1333  return (info.chainid, info.contractaddress, info.tokenid) */\n      swap4\n      pop\n      swap4\n      pop\n      swap4\n      pop\n      pop\n        /* \"test.sol\":1048:1341  function getNFTInfo(string memory filehash) public view returns (string memory, address, int) {... */\n      swap2\n      swap4\n      swap1\n      swap3\n      pop\n      jump\t// out\n        /* \"test.sol\":1350:1501  function isContractRegistered(string memory filehash) public view returns (bool) {... */\n    tag_26:\n        /* \"test.sol\":1425:1429  bool */\n      0x00\n        /* \"test.sol\":1491:1492  0 */\n      dup1\n        /* \"test.sol\":1449:1493  nfts[filehash].contractaddress != address(0) */\n      0xffffffffffffffffffffffffffffffffffffffff\n      and\n        /* \"test.sol\":1449:1453  nfts */\n      0x00\n        /* \"test.sol\":1454:1462  filehash */\n      dup4\n        /* \"test.sol\":1449:1463  nfts[filehash] */\n      mload(0x40)\n      tag_68\n      swap2\n      swap1\n      tag_38\n      jump\t// in\n    tag_68:\n      swap1\n      dup2\n      mstore\n      0x20\n      add\n      mload(0x40)\n      dup1\n      swap2\n      sub\n      swap1\n      keccak256\n        /* \"test.sol\":1449:1479  nfts[filehash].contractaddress */\n      0x01\n      add\n      0x00\n      swap1\n      sload\n      swap1\n      0x0100\n      exp\n      swap1\n      div\n      0xffffffffffffffffffffffffffffffffffffffff\n      and\n        /* \"test.sol\":1449:1493  nfts[filehash].contractaddress != address(0) */\n      0xffffffffffffffffffffffffffffffffffffffff\n      and\n      eq\n      iszero\n        /* \"test.sol\":1442:1493  return nfts[filehash].contractaddress != address(0) */\n      swap1\n      pop\n        /* \"test.sol\":1350:1501  function isContractRegistered(string memory filehash) public view returns (bool) {... */\n      swap2\n      swap1\n      pop\n      jump\t// out\n        /* \"test.sol\":198:236  mapping(string => NFTInfo) public nfts */\n    tag_30:\n      0x00\n      dup2\n      dup1\n      mload\n      0x20\n      dup2\n      add\n      dup3\n      add\n      dup1\n      mload\n      dup5\n      dup3\n      mstore\n      0x20\n      dup4\n      add\n      0x20\n      dup6\n      add\n      keccak256\n      dup2\n      dup4\n      mstore\n      dup1\n      swap6\n      pop\n      pop\n      pop\n      pop\n      pop\n      pop\n      0x00\n      swap2\n      pop\n      swap1\n      pop\n      dup1\n      0x00\n      add\n      dup1\n      sload\n      tag_69\n      swap1\n      tag_59\n      jump\t// in\n    tag_69:\n      dup1\n      0x1f\n      add\n      0x20\n      dup1\n      swap2\n      div\n      mul\n      0x20\n      add\n      mload(0x40)\n      swap1\n      dup2\n      add\n      0x40\n      mstore\n      dup1\n      swap3\n      swap2\n      swap1\n      dup2\n      dup2\n      mstore\n      0x20\n      add\n      dup3\n      dup1\n      sload\n      tag_70\n      swap1\n      tag_59\n      jump\t// in\n    tag_70:\n      dup1\n      iszero\n      tag_71\n      jumpi\n      dup1\n      0x1f\n      lt\n      tag_72\n      jumpi\n      0x0100\n      dup1\n      dup4\n      sload\n      div\n      mul\n      dup4\n      mstore\n      swap2\n      0x20\n      add\n      swap2\n      jump(tag_71)\n    tag_72:\n      dup3\n      add\n      swap2\n      swap1\n      0x00\n      mstore\n      keccak256(0x00, 0x20)\n      swap1\n    tag_73:\n      dup2\n      sload\n      dup2\n      mstore\n      swap1\n      0x01\n      add\n      swap1\n      0x20\n      add\n      dup1\n      dup4\n      gt\n      tag_73\n      jumpi\n      dup3\n      swap1\n      sub\n      0x1f\n      and\n      dup3\n      add\n      swap2\n    tag_71:\n      pop\n      pop\n      pop\n      pop\n      pop\n      swap1\n      dup1\n      0x01\n      add\n      0x00\n      swap1\n      sload\n      swap1\n      0x0100\n      exp\n      swap1\n      div\n      0xffffffffffffffffffffffffffffffffffffffff\n      and\n      swap1\n      dup1\n      0x02\n      add\n      sload\n      swap1\n      pop\n      dup4\n      jump\t// out\n        /* \"#utility.yul\":7:82   */\n    tag_74:\n        /* \"#utility.yul\":40:46   */\n      0x00\n        /* \"#utility.yul\":73:75   */\n      0x40\n        /* \"#utility.yul\":67:76   */\n      mload\n        /* \"#utility.yul\":57:76   */\n      swap1\n      pop\n        /* \"#utility.yul\":7:82   */\n      swap1\n      jump\t// out\n        /* \"#utility.yul\":88:205   */\n    tag_75:\n        /* \"#utility.yul\":197:198   */\n      0x00\n        /* \"#utility.yul\":194:195   */\n      dup1\n        /* \"#utility.yul\":187:199   */\n      revert\n        /* \"#utility.yul\":211:328   */\n    tag_76:\n        /* \"#utility.yul\":320:321   */\n      0x00\n        /* \"#utility.yul\":317:318   */\n      dup1\n        /* \"#utility.yul\":310:322   */\n      revert\n        /* \"#utility.yul\":334:460   */\n    tag_77:\n        /* \"#utility.yul\":371:378   */\n      0x00\n        /* \"#utility.yul\":411:453   */\n      0xffffffffffffffffffffffffffffffffffffffff\n        /* \"#utility.yul\":404:409   */\n      dup3\n        /* \"#utility.yul\":400:454   */\n      and\n        /* \"#utility.yul\":389:454   */\n      swap1\n      pop\n        /* \"#utility.yul\":334:460   */\n      swap2\n      swap1\n      pop\n      jump\t// out\n        /* \"#utility.yul\":466:562   */\n    tag_78:\n        /* \"#utility.yul\":503:510   */\n      0x00\n        /* \"#utility.yul\":532:556   */\n      tag_137\n        /* \"#utility.yul\":550:555   */\n      dup3\n        /* \"#utility.yul\":532:556   */\n      tag_77\n      jump\t// in\n    tag_137:\n        /* \"#utility.yul\":521:556   */\n      swap1\n      pop\n        /* \"#utility.yul\":466:562   */\n      swap2\n      swap1\n      pop\n      jump\t// out\n        /* \"#utility.yul\":568:690   */\n    tag_79:\n        /* \"#utility.yul\":641:665   */\n      tag_139\n        /* \"#utility.yul\":659:664   */\n      dup2\n        /* \"#utility.yul\":641:665   */\n      tag_78\n      jump\t// in\n    tag_139:\n        /* \"#utility.yul\":634:639   */\n      dup2\n        /* \"#utility.yul\":631:666   */\n      eq\n        /* \"#utility.yul\":621:684   */\n      tag_140\n      jumpi\n        /* \"#utility.yul\":680:681   */\n      0x00\n        /* \"#utility.yul\":677:678   */\n      dup1\n        /* \"#utility.yul\":670:682   */\n      revert\n        /* \"#utility.yul\":621:684   */\n    tag_140:\n        /* \"#utility.yul\":568:690   */\n      pop\n      jump\t// out\n        /* \"#utility.yul\":696:835   */\n    tag_80:\n        /* \"#utility.yul\":742:747   */\n      0x00\n        /* \"#utility.yul\":780:786   */\n      dup2\n        /* \"#utility.yul\":767:787   */\n      calldataload\n        /* \"#utility.yul\":758:787   */\n      swap1\n      pop\n        /* \"#utility.yul\":796:829   */\n      tag_142\n        /* \"#utility.yul\":823:828   */\n      dup2\n        /* \"#utility.yul\":796:829   */\n      tag_79\n      jump\t// in\n    tag_142:\n        /* \"#utility.yul\":696:835   */\n      swap3\n      swap2\n      pop\n      pop\n      jump\t// out\n        /* \"#utility.yul\":841:1170   */\n    tag_10:\n        /* \"#utility.yul\":900:906   */\n      0x00\n        /* \"#utility.yul\":949:951   */\n      0x20\n        /* \"#utility.yul\":937:946   */\n      dup3\n        /* \"#utility.yul\":928:935   */\n      dup5\n        /* \"#utility.yul\":924:947   */\n      sub\n        /* \"#utility.yul\":920:952   */\n      slt\n        /* \"#utility.yul\":917:1036   */\n      iszero\n      tag_144\n      jumpi\n        /* \"#utility.yul\":955:1034   */\n      tag_145\n      tag_75\n      jump\t// in\n    tag_145:\n        /* \"#utility.yul\":917:1036   */\n    tag_144:\n        /* \"#utility.yul\":1075:1076   */\n      0x00\n        /* \"#utility.yul\":1100:1153   */\n      tag_146\n        /* \"#utility.yul\":1145:1152   */\n      dup5\n        /* \"#utility.yul\":1136:1142   */\n      dup3\n        /* \"#utility.yul\":1125:1134   */\n      dup6\n        /* \"#utility.yul\":1121:1143   */\n      add\n        /* \"#utility.yul\":1100:1153   */\n      tag_80\n      jump\t// in\n    tag_146:\n        /* \"#utility.yul\":1090:1153   */\n      swap2\n      pop\n        /* \"#utility.yul\":1046:1163   */\n      pop\n        /* \"#utility.yul\":841:1170   */\n      swap3\n      swap2\n      pop\n      pop\n      jump\t// out\n        /* \"#utility.yul\":1176:1266   */\n    tag_81:\n        /* \"#utility.yul\":1210:1217   */\n      0x00\n        /* \"#utility.yul\":1253:1258   */\n      dup2\n        /* \"#utility.yul\":1246:1259   */\n      iszero\n        /* \"#utility.yul\":1239:1260   */\n      iszero\n        /* \"#utility.yul\":1228:1260   */\n      swap1\n      pop\n        /* \"#utility.yul\":1176:1266   */\n      swap2\n      swap1\n      pop\n      jump\t// out\n        /* \"#utility.yul\":1272:1381   */\n    tag_82:\n        /* \"#utility.yul\":1353:1374   */\n      tag_149\n        /* \"#utility.yul\":1368:1373   */\n      dup2\n        /* \"#utility.yul\":1353:1374   */\n      tag_81\n      jump\t// in\n    tag_149:\n        /* \"#utility.yul\":1348:1351   */\n      dup3\n        /* \"#utility.yul\":1341:1375   */\n      mstore\n        /* \"#utility.yul\":1272:1381   */\n      pop\n      pop\n      jump\t// out\n        /* \"#utility.yul\":1387:1597   */\n    tag_13:\n        /* \"#utility.yul\":1474:1478   */\n      0x00\n        /* \"#utility.yul\":1512:1514   */\n      0x20\n        /* \"#utility.yul\":1501:1510   */\n      dup3\n        /* \"#utility.yul\":1497:1515   */\n      add\n        /* \"#utility.yul\":1489:1515   */\n      swap1\n      pop\n        /* \"#utility.yul\":1525:1590   */\n      tag_151\n        /* \"#utility.yul\":1587:1588   */\n      0x00\n        /* \"#utility.yul\":1576:1585   */\n      dup4\n        /* \"#utility.yul\":1572:1589   */\n      add\n        /* \"#utility.yul\":1563:1569   */\n      dup5\n        /* \"#utility.yul\":1525:1590   */\n      tag_82\n      jump\t// in\n    tag_151:\n        /* \"#utility.yul\":1387:1597   */\n      swap3\n      swap2\n      pop\n      pop\n      jump\t// out\n        /* \"#utility.yul\":1603:1720   */\n    tag_83:\n        /* \"#utility.yul\":1712:1713   */\n      0x00\n        /* \"#utility.yul\":1709:1710   */\n      dup1\n        /* \"#utility.yul\":1702:1714   */\n      revert\n        /* \"#utility.yul\":1726:1843   */\n    tag_84:\n        /* \"#utility.yul\":1835:1836   */\n      0x00\n        /* \"#utility.yul\":1832:1833   */\n      dup1\n        /* \"#utility.yul\":1825:1837   */\n      revert\n        /* \"#utility.yul\":1849:1951   */\n    tag_85:\n        /* \"#utility.yul\":1890:1896   */\n      0x00\n        /* \"#utility.yul\":1941:1943   */\n      0x1f\n        /* \"#utility.yul\":1937:1944   */\n      not\n        /* \"#utility.yul\":1932:1934   */\n      0x1f\n        /* \"#utility.yul\":1925:1930   */\n      dup4\n        /* \"#utility.yul\":1921:1935   */\n      add\n        /* \"#utility.yul\":1917:1945   */\n      and\n        /* \"#utility.yul\":1907:1945   */\n      swap1\n      pop\n        /* \"#utility.yul\":1849:1951   */\n      swap2\n      swap1\n      pop\n      jump\t// out\n        /* \"#utility.yul\":1957:2137   */\n    tag_86:\n        /* \"#utility.yul\":2005:2082   */\n      0x4e487b7100000000000000000000000000000000000000000000000000000000\n        /* \"#utility.yul\":2002:2003   */\n      0x00\n        /* \"#utility.yul\":1995:2083   */\n      mstore\n        /* \"#utility.yul\":2102:2106   */\n      0x41\n        /* \"#utility.yul\":2099:2100   */\n      0x04\n        /* \"#utility.yul\":2092:2107   */\n      mstore\n        /* \"#utility.yul\":2126:2130   */\n      0x24\n        /* \"#utility.yul\":2123:2124   */\n      0x00\n        /* \"#utility.yul\":2116:2131   */\n      revert\n        /* \"#utility.yul\":2143:2424   */\n    tag_87:\n        /* \"#utility.yul\":2226:2253   */\n      tag_157\n        /* \"#utility.yul\":2248:2252   */\n      dup3\n        /* \"#utility.yul\":2226:2253   */\n      tag_85\n      jump\t// in\n    tag_157:\n        /* \"#utility.yul\":2218:2224   */\n      dup2\n        /* \"#utility.yul\":2214:2254   */\n      add\n        /* \"#utility.yul\":2356:2362   */\n      dup2\n        /* \"#utility.yul\":2344:2354   */\n      dup2\n        /* \"#utility.yul\":2341:2363   */\n      lt\n        /* \"#utility.yul\":2320:2338   */\n      0xffffffffffffffff\n        /* \"#utility.yul\":2308:2318   */\n      dup3\n        /* \"#utility.yul\":2305:2339   */\n      gt\n        /* \"#utility.yul\":2302:2364   */\n      or\n        /* \"#utility.yul\":2299:2387   */\n      iszero\n      tag_158\n      jumpi\n        /* \"#utility.yul\":2367:2385   */\n      tag_159\n      tag_86\n      jump\t// in\n    tag_159:\n        /* \"#utility.yul\":2299:2387   */\n    tag_158:\n        /* \"#utility.yul\":2407:2417   */\n      dup1\n        /* \"#utility.yul\":2403:2405   */\n      0x40\n        /* \"#utility.yul\":2396:2418   */\n      mstore\n        /* \"#utility.yul\":2186:2424   */\n      pop\n        /* \"#utility.yul\":2143:2424   */\n      pop\n      pop\n      jump\t// out\n        /* \"#utility.yul\":2430:2559   */\n    tag_88:\n        /* \"#utility.yul\":2464:2470   */\n      0x00\n        /* \"#utility.yul\":2491:2511   */\n      tag_161\n      tag_74\n      jump\t// in\n    tag_161:\n        /* \"#utility.yul\":2481:2511   */\n      swap1\n      pop\n        /* \"#utility.yul\":2520:2553   */\n      tag_162\n        /* \"#utility.yul\":2548:2552   */\n      dup3\n        /* \"#utility.yul\":2540:2546   */\n      dup3\n        /* \"#utility.yul\":2520:2553   */\n      tag_87\n      jump\t// in\n    tag_162:\n        /* \"#utility.yul\":2430:2559   */\n      swap2\n      swap1\n      pop\n      jump\t// out\n        /* \"#utility.yul\":2565:2873   */\n    tag_89:\n        /* \"#utility.yul\":2627:2631   */\n      0x00\n        /* \"#utility.yul\":2717:2735   */\n      0xffffffffffffffff\n        /* \"#utility.yul\":2709:2715   */\n      dup3\n        /* \"#utility.yul\":2706:2736   */\n      gt\n        /* \"#utility.yul\":2703:2759   */\n      iszero\n      tag_164\n      jumpi\n        /* \"#utility.yul\":2739:2757   */\n      tag_165\n      tag_86\n      jump\t// in\n    tag_165:\n        /* \"#utility.yul\":2703:2759   */\n    tag_164:\n        /* \"#utility.yul\":2777:2806   */\n      tag_166\n        /* \"#utility.yul\":2799:2805   */\n      dup3\n        /* \"#utility.yul\":2777:2806   */\n      tag_85\n      jump\t// in\n    tag_166:\n        /* \"#utility.yul\":2769:2806   */\n      swap1\n      pop\n        /* \"#utility.yul\":2861:2865   */\n      0x20\n        /* \"#utility.yul\":2855:2859   */\n      dup2\n        /* \"#utility.yul\":2851:2866   */\n      add\n        /* \"#utility.yul\":2843:2866   */\n      swap1\n      pop\n        /* \"#utility.yul\":2565:2873   */\n      swap2\n      swap1\n      pop\n      jump\t// out\n        /* \"#utility.yul\":2879:3027   */\n    tag_90:\n        /* \"#utility.yul\":2977:2983   */\n      dup3\n        /* \"#utility.yul\":2972:2975   */\n      dup2\n        /* \"#utility.yul\":2967:2970   */\n      dup4\n        /* \"#utility.yul\":2954:2984   */\n      calldatacopy\n        /* \"#utility.yul\":3018:3019   */\n      0x00\n        /* \"#utility.yul\":3009:3015   */\n      dup4\n        /* \"#utility.yul\":3004:3007   */\n      dup4\n        /* \"#utility.yul\":3000:3016   */\n      add\n        /* \"#utility.yul\":2993:3020   */\n      mstore\n        /* \"#utility.yul\":2879:3027   */\n      pop\n      pop\n      pop\n      jump\t// out\n        /* \"#utility.yul\":3033:3458   */\n    tag_91:\n        /* \"#utility.yul\":3111:3116   */\n      0x00\n        /* \"#utility.yul\":3136:3202   */\n      tag_169\n        /* \"#utility.yul\":3152:3201   */\n      tag_170\n        /* \"#utility.yul\":3194:3200   */\n      dup5\n        /* \"#utility.yul\":3152:3201   */\n      tag_89\n      jump\t// in\n    tag_170:\n        /* \"#utility.yul\":3136:3202   */\n      tag_88\n      jump\t// in\n    tag_169:\n        /* \"#utility.yul\":3127:3202   */\n      swap1\n      pop\n        /* \"#utility.yul\":3225:3231   */\n      dup3\n        /* \"#utility.yul\":3218:3223   */\n      dup2\n        /* \"#utility.yul\":3211:3232   */\n      mstore\n        /* \"#utility.yul\":3263:3267   */\n      0x20\n        /* \"#utility.yul\":3256:3261   */\n      dup2\n        /* \"#utility.yul\":3252:3268   */\n      add\n        /* \"#utility.yul\":3301:3304   */\n      dup5\n        /* \"#utility.yul\":3292:3298   */\n      dup5\n        /* \"#utility.yul\":3287:3290   */\n      dup5\n        /* \"#utility.yul\":3283:3299   */\n      add\n        /* \"#utility.yul\":3280:3305   */\n      gt\n        /* \"#utility.yul\":3277:3389   */\n      iszero\n      tag_171\n      jumpi\n        /* \"#utility.yul\":3308:3387   */\n      tag_172\n      tag_84\n      jump\t// in\n    tag_172:\n        /* \"#utility.yul\":3277:3389   */\n    tag_171:\n        /* \"#utility.yul\":3398:3452   */\n      tag_173\n        /* \"#utility.yul\":3445:3451   */\n      dup5\n        /* \"#utility.yul\":3440:3443   */\n      dup3\n        /* \"#utility.yul\":3435:3438   */\n      dup6\n        /* \"#utility.yul\":3398:3452   */\n      tag_90\n      jump\t// in\n    tag_173:\n        /* \"#utility.yul\":3117:3458   */\n      pop\n        /* \"#utility.yul\":3033:3458   */\n      swap4\n      swap3\n      pop\n      pop\n      pop\n      jump\t// out\n        /* \"#utility.yul\":3478:3818   */\n    tag_92:\n        /* \"#utility.yul\":3534:3539   */\n      0x00\n        /* \"#utility.yul\":3583:3586   */\n      dup3\n        /* \"#utility.yul\":3576:3580   */\n      0x1f\n        /* \"#utility.yul\":3568:3574   */\n      dup4\n        /* \"#utility.yul\":3564:3581   */\n      add\n        /* \"#utility.yul\":3560:3587   */\n      slt\n        /* \"#utility.yul\":3550:3672   */\n      tag_175\n      jumpi\n        /* \"#utility.yul\":3591:3670   */\n      tag_176\n      tag_83\n      jump\t// in\n    tag_176:\n        /* \"#utility.yul\":3550:3672   */\n    tag_175:\n        /* \"#utility.yul\":3708:3714   */\n      dup2\n        /* \"#utility.yul\":3695:3715   */\n      calldataload\n        /* \"#utility.yul\":3733:3812   */\n      tag_177\n        /* \"#utility.yul\":3808:3811   */\n      dup5\n        /* \"#utility.yul\":3800:3806   */\n      dup3\n        /* \"#utility.yul\":3793:3797   */\n      0x20\n        /* \"#utility.yul\":3785:3791   */\n      dup7\n        /* \"#utility.yul\":3781:3798   */\n      add\n        /* \"#utility.yul\":3733:3812   */\n      tag_91\n      jump\t// in\n    tag_177:\n        /* \"#utility.yul\":3724:3812   */\n      swap2\n      pop\n        /* \"#utility.yul\":3540:3818   */\n      pop\n        /* \"#utility.yul\":3478:3818   */\n      swap3\n      swap2\n      pop\n      pop\n      jump\t// out\n        /* \"#utility.yul\":3824:3900   */\n    tag_93:\n        /* \"#utility.yul\":3860:3867   */\n      0x00\n        /* \"#utility.yul\":3889:3894   */\n      dup2\n        /* \"#utility.yul\":3878:3894   */\n      swap1\n      pop\n        /* \"#utility.yul\":3824:3900   */\n      swap2\n      swap1\n      pop\n      jump\t// out\n        /* \"#utility.yul\":3906:4026   */\n    tag_94:\n        /* \"#utility.yul\":3978:4001   */\n      tag_180\n        /* \"#utility.yul\":3995:4000   */\n      dup2\n        /* \"#utility.yul\":3978:4001   */\n      tag_93\n      jump\t// in\n    tag_180:\n        /* \"#utility.yul\":3971:3976   */\n      dup2\n        /* \"#utility.yul\":3968:4002   */\n      eq\n        /* \"#utility.yul\":3958:4020   */\n      tag_181\n      jumpi\n        /* \"#utility.yul\":4016:4017   */\n      0x00\n        /* \"#utility.yul\":4013:4014   */\n      dup1\n        /* \"#utility.yul\":4006:4018   */\n      revert\n        /* \"#utility.yul\":3958:4020   */\n    tag_181:\n        /* \"#utility.yul\":3906:4026   */\n      pop\n      jump\t// out\n        /* \"#utility.yul\":4032:4169   */\n    tag_95:\n        /* \"#utility.yul\":4077:4082   */\n      0x00\n        /* \"#utility.yul\":4115:4121   */\n      dup2\n        /* \"#utility.yul\":4102:4122   */\n      calldataload\n        /* \"#utility.yul\":4093:4122   */\n      swap1\n      pop\n        /* \"#utility.yul\":4131:4163   */\n      tag_183\n        /* \"#utility.yul\":4157:4162   */\n      dup2\n        /* \"#utility.yul\":4131:4163   */\n      tag_94\n      jump\t// in\n    tag_183:\n        /* \"#utility.yul\":4032:4169   */\n      swap3\n      swap2\n      pop\n      pop\n      jump\t// out\n        /* \"#utility.yul\":4175:5298   */\n    tag_16:\n        /* \"#utility.yul\":4280:4286   */\n      0x00\n        /* \"#utility.yul\":4288:4294   */\n      dup1\n        /* \"#utility.yul\":4296:4302   */\n      0x00\n        /* \"#utility.yul\":4304:4310   */\n      dup1\n        /* \"#utility.yul\":4353:4356   */\n      0x80\n        /* \"#utility.yul\":4341:4350   */\n      dup6\n        /* \"#utility.yul\":4332:4339   */\n      dup8\n        /* \"#utility.yul\":4328:4351   */\n      sub\n        /* \"#utility.yul\":4324:4357   */\n      slt\n        /* \"#utility.yul\":4321:4441   */\n      iszero\n      tag_185\n      jumpi\n        /* \"#utility.yul\":4360:4439   */\n      tag_186\n      tag_75\n      jump\t// in\n    tag_186:\n        /* \"#utility.yul\":4321:4441   */\n    tag_185:\n        /* \"#utility.yul\":4508:4509   */\n      0x00\n        /* \"#utility.yul\":4497:4506   */\n      dup6\n        /* \"#utility.yul\":4493:4510   */\n      add\n        /* \"#utility.yul\":4480:4511   */\n      calldataload\n        /* \"#utility.yul\":4538:4556   */\n      0xffffffffffffffff\n        /* \"#utility.yul\":4530:4536   */\n      dup2\n        /* \"#utility.yul\":4527:4557   */\n      gt\n        /* \"#utility.yul\":4524:4641   */\n      iszero\n      tag_187\n      jumpi\n        /* \"#utility.yul\":4560:4639   */\n      tag_188\n      tag_76\n      jump\t// in\n    tag_188:\n        /* \"#utility.yul\":4524:4641   */\n    tag_187:\n        /* \"#utility.yul\":4665:4728   */\n      tag_189\n        /* \"#utility.yul\":4720:4727   */\n      dup8\n        /* \"#utility.yul\":4711:4717   */\n      dup3\n        /* \"#utility.yul\":4700:4709   */\n      dup9\n        /* \"#utility.yul\":4696:4718   */\n      add\n        /* \"#utility.yul\":4665:4728   */\n      tag_92\n      jump\t// in\n    tag_189:\n        /* \"#utility.yul\":4655:4728   */\n      swap5\n      pop\n        /* \"#utility.yul\":4451:4738   */\n      pop\n        /* \"#utility.yul\":4805:4807   */\n      0x20\n        /* \"#utility.yul\":4794:4803   */\n      dup6\n        /* \"#utility.yul\":4790:4808   */\n      add\n        /* \"#utility.yul\":4777:4809   */\n      calldataload\n        /* \"#utility.yul\":4836:4854   */\n      0xffffffffffffffff\n        /* \"#utility.yul\":4828:4834   */\n      dup2\n        /* \"#utility.yul\":4825:4855   */\n      gt\n        /* \"#utility.yul\":4822:4939   */\n      iszero\n      tag_190\n      jumpi\n        /* \"#utility.yul\":4858:4937   */\n      tag_191\n      tag_76\n      jump\t// in\n    tag_191:\n        /* \"#utility.yul\":4822:4939   */\n    tag_190:\n        /* \"#utility.yul\":4963:5026   */\n      tag_192\n        /* \"#utility.yul\":5018:5025   */\n      dup8\n        /* \"#utility.yul\":5009:5015   */\n      dup3\n        /* \"#utility.yul\":4998:5007   */\n      dup9\n        /* \"#utility.yul\":4994:5016   */\n      add\n        /* \"#utility.yul\":4963:5026   */\n      tag_92\n      jump\t// in\n    tag_192:\n        /* \"#utility.yul\":4953:5026   */\n      swap4\n      pop\n        /* \"#utility.yul\":4748:5036   */\n      pop\n        /* \"#utility.yul\":5075:5077   */\n      0x40\n        /* \"#utility.yul\":5101:5154   */\n      tag_193\n        /* \"#utility.yul\":5146:5153   */\n      dup8\n        /* \"#utility.yul\":5137:5143   */\n      dup3\n        /* \"#utility.yul\":5126:5135   */\n      dup9\n        /* \"#utility.yul\":5122:5144   */\n      add\n        /* \"#utility.yul\":5101:5154   */\n      tag_80\n      jump\t// in\n    tag_193:\n        /* \"#utility.yul\":5091:5154   */\n      swap3\n      pop\n        /* \"#utility.yul\":5046:5164   */\n      pop\n        /* \"#utility.yul\":5203:5205   */\n      0x60\n        /* \"#utility.yul\":5229:5281   */\n      tag_194\n        /* \"#utility.yul\":5273:5280   */\n      dup8\n        /* \"#utility.yul\":5264:5270   */\n      dup3\n        /* \"#utility.yul\":5253:5262   */\n      dup9\n        /* \"#utility.yul\":5249:5271   */\n      add\n        /* \"#utility.yul\":5229:5281   */\n      tag_95\n      jump\t// in\n    tag_194:\n        /* \"#utility.yul\":5219:5281   */\n      swap2\n      pop\n        /* \"#utility.yul\":5174:5291   */\n      pop\n        /* \"#utility.yul\":4175:5298   */\n      swap3\n      swap6\n      swap2\n      swap5\n      pop\n      swap3\n      pop\n      jump\t// out\n        /* \"#utility.yul\":5304:5813   */\n    tag_20:\n        /* \"#utility.yul\":5373:5379   */\n      0x00\n        /* \"#utility.yul\":5422:5424   */\n      0x20\n        /* \"#utility.yul\":5410:5419   */\n      dup3\n        /* \"#utility.yul\":5401:5408   */\n      dup5\n        /* \"#utility.yul\":5397:5420   */\n      sub\n        /* \"#utility.yul\":5393:5425   */\n      slt\n        /* \"#utility.yul\":5390:5509   */\n      iszero\n      tag_196\n      jumpi\n        /* \"#utility.yul\":5428:5507   */\n      tag_197\n      tag_75\n      jump\t// in\n    tag_197:\n        /* \"#utility.yul\":5390:5509   */\n    tag_196:\n        /* \"#utility.yul\":5576:5577   */\n      0x00\n        /* \"#utility.yul\":5565:5574   */\n      dup3\n        /* \"#utility.yul\":5561:5578   */\n      add\n        /* \"#utility.yul\":5548:5579   */\n      calldataload\n        /* \"#utility.yul\":5606:5624   */\n      0xffffffffffffffff\n        /* \"#utility.yul\":5598:5604   */\n      dup2\n        /* \"#utility.yul\":5595:5625   */\n      gt\n        /* \"#utility.yul\":5592:5709   */\n      iszero\n      tag_198\n      jumpi\n        /* \"#utility.yul\":5628:5707   */\n      tag_199\n      tag_76\n      jump\t// in\n    tag_199:\n        /* \"#utility.yul\":5592:5709   */\n    tag_198:\n        /* \"#utility.yul\":5733:5796   */\n      tag_200\n        /* \"#utility.yul\":5788:5795   */\n      dup5\n        /* \"#utility.yul\":5779:5785   */\n      dup3\n        /* \"#utility.yul\":5768:5777   */\n      dup6\n        /* \"#utility.yul\":5764:5786   */\n      add\n        /* \"#utility.yul\":5733:5796   */\n      tag_92\n      jump\t// in\n    tag_200:\n        /* \"#utility.yul\":5723:5796   */\n      swap2\n      pop\n        /* \"#utility.yul\":5519:5806   */\n      pop\n        /* \"#utility.yul\":5304:5813   */\n      swap3\n      swap2\n      pop\n      pop\n      jump\t// out\n        /* \"#utility.yul\":5819:5918   */\n    tag_96:\n        /* \"#utility.yul\":5871:5877   */\n      0x00\n        /* \"#utility.yul\":5905:5910   */\n      dup2\n        /* \"#utility.yul\":5899:5911   */\n      mload\n        /* \"#utility.yul\":5889:5911   */\n      swap1\n      pop\n        /* \"#utility.yul\":5819:5918   */\n      swap2\n      swap1\n      pop\n      jump\t// out\n        /* \"#utility.yul\":5924:6093   */\n    tag_97:\n        /* \"#utility.yul\":6008:6019   */\n      0x00\n        /* \"#utility.yul\":6042:6048   */\n      dup3\n        /* \"#utility.yul\":6037:6040   */\n      dup3\n        /* \"#utility.yul\":6030:6049   */\n      mstore\n        /* \"#utility.yul\":6082:6086   */\n      0x20\n        /* \"#utility.yul\":6077:6080   */\n      dup3\n        /* \"#utility.yul\":6073:6087   */\n      add\n        /* \"#utility.yul\":6058:6087   */\n      swap1\n      pop\n        /* \"#utility.yul\":5924:6093   */\n      swap3\n      swap2\n      pop\n      pop\n      jump\t// out\n        /* \"#utility.yul\":6099:6238   */\n    tag_98:\n        /* \"#utility.yul\":6188:6194   */\n      dup3\n        /* \"#utility.yul\":6183:6186   */\n      dup2\n        /* \"#utility.yul\":6178:6181   */\n      dup4\n        /* \"#utility.yul\":6172:6195   */\n      mcopy\n        /* \"#utility.yul\":6229:6230   */\n      0x00\n        /* \"#utility.yul\":6220:6226   */\n      dup4\n        /* \"#utility.yul\":6215:6218   */\n      dup4\n        /* \"#utility.yul\":6211:6227   */\n      add\n        /* \"#utility.yul\":6204:6231   */\n      mstore\n        /* \"#utility.yul\":6099:6238   */\n      pop\n      pop\n      pop\n      jump\t// out\n        /* \"#utility.yul\":6244:6621   */\n    tag_99:\n        /* \"#utility.yul\":6332:6335   */\n      0x00\n        /* \"#utility.yul\":6360:6399   */\n      tag_205\n        /* \"#utility.yul\":6393:6398   */\n      dup3\n        /* \"#utility.yul\":6360:6399   */\n      tag_96\n      jump\t// in\n    tag_205:\n        /* \"#utility.yul\":6415:6486   */\n      tag_206\n        /* \"#utility.yul\":6479:6485   */\n      dup2\n        /* \"#utility.yul\":6474:6477   */\n      dup6\n        /* \"#utility.yul\":6415:6486   */\n      tag_97\n      jump\t// in\n    tag_206:\n        /* \"#utility.yul\":6408:6486   */\n      swap4\n      pop\n        /* \"#utility.yul\":6495:6560   */\n      tag_207\n        /* \"#utility.yul\":6553:6559   */\n      dup2\n        /* \"#utility.yul\":6548:6551   */\n      dup6\n        /* \"#utility.yul\":6541:6545   */\n      0x20\n        /* \"#utility.yul\":6534:6539   */\n      dup7\n        /* \"#utility.yul\":6530:6546   */\n      add\n        /* \"#utility.yul\":6495:6560   */\n      tag_98\n      jump\t// in\n    tag_207:\n        /* \"#utility.yul\":6585:6614   */\n      tag_208\n        /* \"#utility.yul\":6607:6613   */\n      dup2\n        /* \"#utility.yul\":6585:6614   */\n      tag_85\n      jump\t// in\n    tag_208:\n        /* \"#utility.yul\":6580:6583   */\n      dup5\n        /* \"#utility.yul\":6576:6615   */\n      add\n        /* \"#utility.yul\":6569:6615   */\n      swap2\n      pop\n        /* \"#utility.yul\":6336:6621   */\n      pop\n        /* \"#utility.yul\":6244:6621   */\n      swap3\n      swap2\n      pop\n      pop\n      jump\t// out\n        /* \"#utility.yul\":6627:6745   */\n    tag_100:\n        /* \"#utility.yul\":6714:6738   */\n      tag_210\n        /* \"#utility.yul\":6732:6737   */\n      dup2\n        /* \"#utility.yul\":6714:6738   */\n      tag_78\n      jump\t// in\n    tag_210:\n        /* \"#utility.yul\":6709:6712   */\n      dup3\n        /* \"#utility.yul\":6702:6739   */\n      mstore\n        /* \"#utility.yul\":6627:6745   */\n      pop\n      pop\n      jump\t// out\n        /* \"#utility.yul\":6751:6866   */\n    tag_101:\n        /* \"#utility.yul\":6836:6859   */\n      tag_212\n        /* \"#utility.yul\":6853:6858   */\n      dup2\n        /* \"#utility.yul\":6836:6859   */\n      tag_93\n      jump\t// in\n    tag_212:\n        /* \"#utility.yul\":6831:6834   */\n      dup3\n        /* \"#utility.yul\":6824:6860   */\n      mstore\n        /* \"#utility.yul\":6751:6866   */\n      pop\n      pop\n      jump\t// out\n        /* \"#utility.yul\":6872:7401   */\n    tag_23:\n        /* \"#utility.yul\":7039:7043   */\n      0x00\n        /* \"#utility.yul\":7077:7079   */\n      0x60\n        /* \"#utility.yul\":7066:7075   */\n      dup3\n        /* \"#utility.yul\":7062:7080   */\n      add\n        /* \"#utility.yul\":7054:7080   */\n      swap1\n      pop\n        /* \"#utility.yul\":7126:7135   */\n      dup2\n        /* \"#utility.yul\":7120:7124   */\n      dup2\n        /* \"#utility.yul\":7116:7136   */\n      sub\n        /* \"#utility.yul\":7112:7113   */\n      0x00\n        /* \"#utility.yul\":7101:7110   */\n      dup4\n        /* \"#utility.yul\":7097:7114   */\n      add\n        /* \"#utility.yul\":7090:7137   */\n      mstore\n        /* \"#utility.yul\":7154:7232   */\n      tag_214\n        /* \"#utility.yul\":7227:7231   */\n      dup2\n        /* \"#utility.yul\":7218:7224   */\n      dup7\n        /* \"#utility.yul\":7154:7232   */\n      tag_99\n      jump\t// in\n    tag_214:\n        /* \"#utility.yul\":7146:7232   */\n      swap1\n      pop\n        /* \"#utility.yul\":7242:7314   */\n      tag_215\n        /* \"#utility.yul\":7310:7312   */\n      0x20\n        /* \"#utility.yul\":7299:7308   */\n      dup4\n        /* \"#utility.yul\":7295:7313   */\n      add\n        /* \"#utility.yul\":7286:7292   */\n      dup6\n        /* \"#utility.yul\":7242:7314   */\n      tag_100\n      jump\t// in\n    tag_215:\n        /* \"#utility.yul\":7324:7394   */\n      tag_216\n        /* \"#utility.yul\":7390:7392   */\n      0x40\n        /* \"#utility.yul\":7379:7388   */\n      dup4\n        /* \"#utility.yul\":7375:7393   */\n      add\n        /* \"#utility.yul\":7366:7372   */\n      dup5\n        /* \"#utility.yul\":7324:7394   */\n      tag_101\n      jump\t// in\n    tag_216:\n        /* \"#utility.yul\":6872:7401   */\n      swap5\n      swap4\n      pop\n      pop\n      pop\n      pop\n      jump\t// out\n        /* \"#utility.yul\":7407:7581   */\n    tag_102:\n        /* \"#utility.yul\":7547:7573   */\n      0x496e76616c696420636f6e747261637420616464726573730000000000000000\n        /* \"#utility.yul\":7543:7544   */\n      0x00\n        /* \"#utility.yul\":7535:7541   */\n      dup3\n        /* \"#utility.yul\":7531:7545   */\n      add\n        /* \"#utility.yul\":7524:7574   */\n      mstore\n        /* \"#utility.yul\":7407:7581   */\n      pop\n      jump\t// out\n        /* \"#utility.yul\":7587:7953   */\n    tag_103:\n        /* \"#utility.yul\":7729:7732   */\n      0x00\n        /* \"#utility.yul\":7750:7817   */\n      tag_219\n        /* \"#utility.yul\":7814:7816   */\n      0x18\n        /* \"#utility.yul\":7809:7812   */\n      dup4\n        /* \"#utility.yul\":7750:7817   */\n      tag_97\n      jump\t// in\n    tag_219:\n        /* \"#utility.yul\":7743:7817   */\n      swap2\n      pop\n        /* \"#utility.yul\":7826:7919   */\n      tag_220\n        /* \"#utility.yul\":7915:7918   */\n      dup3\n        /* \"#utility.yul\":7826:7919   */\n      tag_102\n      jump\t// in\n    tag_220:\n        /* \"#utility.yul\":7944:7946   */\n      0x20\n        /* \"#utility.yul\":7939:7942   */\n      dup3\n        /* \"#utility.yul\":7935:7947   */\n      add\n        /* \"#utility.yul\":7928:7947   */\n      swap1\n      pop\n        /* \"#utility.yul\":7587:7953   */\n      swap2\n      swap1\n      pop\n      jump\t// out\n        /* \"#utility.yul\":7959:8378   */\n    tag_36:\n        /* \"#utility.yul\":8125:8129   */\n      0x00\n        /* \"#utility.yul\":8163:8165   */\n      0x20\n        /* \"#utility.yul\":8152:8161   */\n      dup3\n        /* \"#utility.yul\":8148:8166   */\n      add\n        /* \"#utility.yul\":8140:8166   */\n      swap1\n      pop\n        /* \"#utility.yul\":8212:8221   */\n      dup2\n        /* \"#utility.yul\":8206:8210   */\n      dup2\n        /* \"#utility.yul\":8202:8222   */\n      sub\n        /* \"#utility.yul\":8198:8199   */\n      0x00\n        /* \"#utility.yul\":8187:8196   */\n      dup4\n        /* \"#utility.yul\":8183:8200   */\n      add\n        /* \"#utility.yul\":8176:8223   */\n      mstore\n        /* \"#utility.yul\":8240:8371   */\n      tag_222\n        /* \"#utility.yul\":8366:8370   */\n      dup2\n        /* \"#utility.yul\":8240:8371   */\n      tag_103\n      jump\t// in\n    tag_222:\n        /* \"#utility.yul\":8232:8371   */\n      swap1\n      pop\n        /* \"#utility.yul\":7959:8378   */\n      swap2\n      swap1\n      pop\n      jump\t// out\n        /* \"#utility.yul\":8384:8532   */\n    tag_104:\n        /* \"#utility.yul\":8486:8497   */\n      0x00\n        /* \"#utility.yul\":8523:8526   */\n      dup2\n        /* \"#utility.yul\":8508:8526   */\n      swap1\n      pop\n        /* \"#utility.yul\":8384:8532   */\n      swap3\n      swap2\n      pop\n      pop\n      jump\t// out\n        /* \"#utility.yul\":8538:8928   */\n    tag_105:\n        /* \"#utility.yul\":8644:8647   */\n      0x00\n        /* \"#utility.yul\":8672:8711   */\n      tag_225\n        /* \"#utility.yul\":8705:8710   */\n      dup3\n        /* \"#utility.yul\":8672:8711   */\n      tag_96\n      jump\t// in\n    tag_225:\n        /* \"#utility.yul\":8727:8816   */\n      tag_226\n        /* \"#utility.yul\":8809:8815   */\n      dup2\n        /* \"#utility.yul\":8804:8807   */\n      dup6\n        /* \"#utility.yul\":8727:8816   */\n      tag_104\n      jump\t// in\n    tag_226:\n        /* \"#utility.yul\":8720:8816   */\n      swap4\n      pop\n        /* \"#utility.yul\":8825:8890   */\n      tag_227\n        /* \"#utility.yul\":8883:8889   */\n      dup2\n        /* \"#utility.yul\":8878:8881   */\n      dup6\n        /* \"#utility.yul\":8871:8875   */\n      0x20\n        /* \"#utility.yul\":8864:8869   */\n      dup7\n        /* \"#utility.yul\":8860:8876   */\n      add\n        /* \"#utility.yul\":8825:8890   */\n      tag_98\n      jump\t// in\n    tag_227:\n        /* \"#utility.yul\":8915:8921   */\n      dup1\n        /* \"#utility.yul\":8910:8913   */\n      dup5\n        /* \"#utility.yul\":8906:8922   */\n      add\n        /* \"#utility.yul\":8899:8922   */\n      swap2\n      pop\n        /* \"#utility.yul\":8648:8928   */\n      pop\n        /* \"#utility.yul\":8538:8928   */\n      swap3\n      swap2\n      pop\n      pop\n      jump\t// out\n        /* \"#utility.yul\":8934:9209   */\n    tag_38:\n        /* \"#utility.yul\":9066:9069   */\n      0x00\n        /* \"#utility.yul\":9088:9183   */\n      tag_229\n        /* \"#utility.yul\":9179:9182   */\n      dup3\n        /* \"#utility.yul\":9170:9176   */\n      dup5\n        /* \"#utility.yul\":9088:9183   */\n      tag_105\n      jump\t// in\n    tag_229:\n        /* \"#utility.yul\":9081:9183   */\n      swap2\n      pop\n        /* \"#utility.yul\":9200:9203   */\n      dup2\n        /* \"#utility.yul\":9193:9203   */\n      swap1\n      pop\n        /* \"#utility.yul\":8934:9209   */\n      swap3\n      swap2\n      pop\n      pop\n      jump\t// out\n        /* \"#utility.yul\":9215:9380   */\n    tag_106:\n        /* \"#utility.yul\":9355:9372   */\n      0x494420616c726561647920757365640000000000000000000000000000000000\n        /* \"#utility.yul\":9351:9352   */\n      0x00\n        /* \"#utility.yul\":9343:9349   */\n      dup3\n        /* \"#utility.yul\":9339:9353   */\n      add\n        /* \"#utility.yul\":9332:9373   */\n      mstore\n        /* \"#utility.yul\":9215:9380   */\n      pop\n      jump\t// out\n        /* \"#utility.yul\":9386:9752   */\n    tag_107:\n        /* \"#utility.yul\":9528:9531   */\n      0x00\n        /* \"#utility.yul\":9549:9616   */\n      tag_232\n        /* \"#utility.yul\":9613:9615   */\n      0x0f\n        /* \"#utility.yul\":9608:9611   */\n      dup4\n        /* \"#utility.yul\":9549:9616   */\n      tag_97\n      jump\t// in\n    tag_232:\n        /* \"#utility.yul\":9542:9616   */\n      swap2\n      pop\n        /* \"#utility.yul\":9625:9718   */\n      tag_233\n        /* \"#utility.yul\":9714:9717   */\n      dup3\n        /* \"#utility.yul\":9625:9718   */\n      tag_106\n      jump\t// in\n    tag_233:\n        /* \"#utility.yul\":9743:9745   */\n      0x20\n        /* \"#utility.yul\":9738:9741   */\n      dup3\n        /* \"#utility.yul\":9734:9746   */\n      add\n        /* \"#utility.yul\":9727:9746   */\n      swap1\n      pop\n        /* \"#utility.yul\":9386:9752   */\n      swap2\n      swap1\n      pop\n      jump\t// out\n        /* \"#utility.yul\":9758:10177   */\n    tag_41:\n        /* \"#utility.yul\":9924:9928   */\n      0x00\n        /* \"#utility.yul\":9962:9964   */\n      0x20\n        /* \"#utility.yul\":9951:9960   */\n      dup3\n        /* \"#utility.yul\":9947:9965   */\n      add\n        /* \"#utility.yul\":9939:9965   */\n      swap1\n      pop\n        /* \"#utility.yul\":10011:10020   */\n      dup2\n        /* \"#utility.yul\":10005:10009   */\n      dup2\n        /* \"#utility.yul\":10001:10021   */\n      sub\n        /* \"#utility.yul\":9997:9998   */\n      0x00\n        /* \"#utility.yul\":9986:9995   */\n      dup4\n        /* \"#utility.yul\":9982:9999   */\n      add\n        /* \"#utility.yul\":9975:10022   */\n      mstore\n        /* \"#utility.yul\":10039:10170   */\n      tag_235\n        /* \"#utility.yul\":10165:10169   */\n      dup2\n        /* \"#utility.yul\":10039:10170   */\n      tag_107\n      jump\t// in\n    tag_235:\n        /* \"#utility.yul\":10031:10170   */\n      swap1\n      pop\n        /* \"#utility.yul\":9758:10177   */\n      swap2\n      swap1\n      pop\n      jump\t// out\n        /* \"#utility.yul\":10183:10404   */\n    tag_108:\n        /* \"#utility.yul\":10323:10357   */\n      0x41646472657373206973206e6f742061206465706c6f79656420636f6e747261\n        /* \"#utility.yul\":10319:10320   */\n      0x00\n        /* \"#utility.yul\":10311:10317   */\n      dup3\n        /* \"#utility.yul\":10307:10321   */\n      add\n        /* \"#utility.yul\":10300:10358   */\n      mstore\n        /* \"#utility.yul\":10392:10396   */\n      0x6374000000000000000000000000000000000000000000000000000000000000\n        /* \"#utility.yul\":10387:10389   */\n      0x20\n        /* \"#utility.yul\":10379:10385   */\n      dup3\n        /* \"#utility.yul\":10375:10390   */\n      add\n        /* \"#utility.yul\":10368:10397   */\n      mstore\n        /* \"#utility.yul\":10183:10404   */\n      pop\n      jump\t// out\n        /* \"#utility.yul\":10410:10776   */\n    tag_109:\n        /* \"#utility.yul\":10552:10555   */\n      0x00\n        /* \"#utility.yul\":10573:10640   */\n      tag_238\n        /* \"#utility.yul\":10637:10639   */\n      0x22\n        /* \"#utility.yul\":10632:10635   */\n      dup4\n        /* \"#utility.yul\":10573:10640   */\n      tag_97\n      jump\t// in\n    tag_238:\n        /* \"#utility.yul\":10566:10640   */\n      swap2\n      pop\n        /* \"#utility.yul\":10649:10742   */\n      tag_239\n        /* \"#utility.yul\":10738:10741   */\n      dup3\n        /* \"#utility.yul\":10649:10742   */\n      tag_108\n      jump\t// in\n    tag_239:\n        /* \"#utility.yul\":10767:10769   */\n      0x40\n        /* \"#utility.yul\":10762:10765   */\n      dup3\n        /* \"#utility.yul\":10758:10770   */\n      add\n        /* \"#utility.yul\":10751:10770   */\n      swap1\n      pop\n        /* \"#utility.yul\":10410:10776   */\n      swap2\n      swap1\n      pop\n      jump\t// out\n        /* \"#utility.yul\":10782:11201   */\n    tag_45:\n        /* \"#utility.yul\":10948:10952   */\n      0x00\n        /* \"#utility.yul\":10986:10988   */\n      0x20\n        /* \"#utility.yul\":10975:10984   */\n      dup3\n        /* \"#utility.yul\":10971:10989   */\n      add\n        /* \"#utility.yul\":10963:10989   */\n      swap1\n      pop\n        /* \"#utility.yul\":11035:11044   */\n      dup2\n        /* \"#utility.yul\":11029:11033   */\n      dup2\n        /* \"#utility.yul\":11025:11045   */\n      sub\n        /* \"#utility.yul\":11021:11022   */\n      0x00\n        /* \"#utility.yul\":11010:11019   */\n      dup4\n        /* \"#utility.yul\":11006:11023   */\n      add\n        /* \"#utility.yul\":10999:11046   */\n      mstore\n        /* \"#utility.yul\":11063:11194   */\n      tag_241\n        /* \"#utility.yul\":11189:11193   */\n      dup2\n        /* \"#utility.yul\":11063:11194   */\n      tag_109\n      jump\t// in\n    tag_241:\n        /* \"#utility.yul\":11055:11194   */\n      swap1\n      pop\n        /* \"#utility.yul\":10782:11201   */\n      swap2\n      swap1\n      pop\n      jump\t// out\n        /* \"#utility.yul\":11207:11380   */\n    tag_110:\n        /* \"#utility.yul\":11347:11372   */\n      0x496e76616c69642066696c6568617368206c656e677468000000000000000000\n        /* \"#utility.yul\":11343:11344   */\n      0x00\n        /* \"#utility.yul\":11335:11341   */\n      dup3\n        /* \"#utility.yul\":11331:11345   */\n      add\n        /* \"#utility.yul\":11324:11373   */\n      mstore\n        /* \"#utility.yul\":11207:11380   */\n      pop\n      jump\t// out\n        /* \"#utility.yul\":11386:11752   */\n    tag_111:\n        /* \"#utility.yul\":11528:11531   */\n      0x00\n        /* \"#utility.yul\":11549:11616   */\n      tag_244\n        /* \"#utility.yul\":11613:11615   */\n      0x17\n        /* \"#utility.yul\":11608:11611   */\n      dup4\n        /* \"#utility.yul\":11549:11616   */\n      tag_97\n      jump\t// in\n    tag_244:\n        /* \"#utility.yul\":11542:11616   */\n      swap2\n      pop\n        /* \"#utility.yul\":11625:11718   */\n      tag_245\n        /* \"#utility.yul\":11714:11717   */\n      dup3\n        /* \"#utility.yul\":11625:11718   */\n      tag_110\n      jump\t// in\n    tag_245:\n        /* \"#utility.yul\":11743:11745   */\n      0x20\n        /* \"#utility.yul\":11738:11741   */\n      dup3\n        /* \"#utility.yul\":11734:11746   */\n      add\n        /* \"#utility.yul\":11727:11746   */\n      swap1\n      pop\n        /* \"#utility.yul\":11386:11752   */\n      swap2\n      swap1\n      pop\n      jump\t// out\n        /* \"#utility.yul\":11758:12177   */\n    tag_49:\n        /* \"#utility.yul\":11924:11928   */\n      0x00\n        /* \"#utility.yul\":11962:11964   */\n      0x20\n        /* \"#utility.yul\":11951:11960   */\n      dup3\n        /* \"#utility.yul\":11947:11965   */\n      add\n        /* \"#utility.yul\":11939:11965   */\n      swap1\n      pop\n        /* \"#utility.yul\":12011:12020   */\n      dup2\n        /* \"#utility.yul\":12005:12009   */\n      dup2\n        /* \"#utility.yul\":12001:12021   */\n      sub\n        /* \"#utility.yul\":11997:11998   */\n      0x00\n        /* \"#utility.yul\":11986:11995   */\n      dup4\n        /* \"#utility.yul\":11982:11999   */\n      add\n        /* \"#utility.yul\":11975:12022   */\n      mstore\n        /* \"#utility.yul\":12039:12170   */\n      tag_247\n        /* \"#utility.yul\":12165:12169   */\n      dup2\n        /* \"#utility.yul\":12039:12170   */\n      tag_111\n      jump\t// in\n    tag_247:\n        /* \"#utility.yul\":12031:12170   */\n      swap1\n      pop\n        /* \"#utility.yul\":11758:12177   */\n      swap2\n      swap1\n      pop\n      jump\t// out\n        /* \"#utility.yul\":12183:12363   */\n    tag_112:\n        /* \"#utility.yul\":12231:12308   */\n      0x4e487b7100000000000000000000000000000000000000000000000000000000\n        /* \"#utility.yul\":12228:12229   */\n      0x00\n        /* \"#utility.yul\":12221:12309   */\n      mstore\n        /* \"#utility.yul\":12328:12332   */\n      0x22\n        /* \"#utility.yul\":12325:12326   */\n      0x04\n        /* \"#utility.yul\":12318:12333   */\n      mstore\n        /* \"#utility.yul\":12352:12356   */\n      0x24\n        /* \"#utility.yul\":12349:12350   */\n      0x00\n        /* \"#utility.yul\":12342:12357   */\n      revert\n        /* \"#utility.yul\":12369:12689   */\n    tag_59:\n        /* \"#utility.yul\":12413:12419   */\n      0x00\n        /* \"#utility.yul\":12450:12451   */\n      0x02\n        /* \"#utility.yul\":12444:12448   */\n      dup3\n        /* \"#utility.yul\":12440:12452   */\n      div\n        /* \"#utility.yul\":12430:12452   */\n      swap1\n      pop\n        /* \"#utility.yul\":12497:12498   */\n      0x01\n        /* \"#utility.yul\":12491:12495   */\n      dup3\n        /* \"#utility.yul\":12487:12499   */\n      and\n        /* \"#utility.yul\":12518:12536   */\n      dup1\n        /* \"#utility.yul\":12508:12589   */\n      tag_250\n      jumpi\n        /* \"#utility.yul\":12574:12578   */\n      0x7f\n        /* \"#utility.yul\":12566:12572   */\n      dup3\n        /* \"#utility.yul\":12562:12579   */\n      and\n        /* \"#utility.yul\":12552:12579   */\n      swap2\n      pop\n        /* \"#utility.yul\":12508:12589   */\n    tag_250:\n        /* \"#utility.yul\":12636:12638   */\n      0x20\n        /* \"#utility.yul\":12628:12634   */\n      dup3\n        /* \"#utility.yul\":12625:12639   */\n      lt\n        /* \"#utility.yul\":12605:12623   */\n      dup2\n        /* \"#utility.yul\":12602:12640   */\n      sub\n        /* \"#utility.yul\":12599:12683   */\n      tag_251\n      jumpi\n        /* \"#utility.yul\":12655:12673   */\n      tag_252\n      tag_112\n      jump\t// in\n    tag_252:\n        /* \"#utility.yul\":12599:12683   */\n    tag_251:\n        /* \"#utility.yul\":12420:12689   */\n      pop\n        /* \"#utility.yul\":12369:12689   */\n      swap2\n      swap1\n      pop\n      jump\t// out\n        /* \"#utility.yul\":12695:12836   */\n    tag_113:\n        /* \"#utility.yul\":12744:12748   */\n      0x00\n        /* \"#utility.yul\":12767:12770   */\n      dup2\n        /* \"#utility.yul\":12759:12770   */\n      swap1\n      pop\n        /* \"#utility.yul\":12790:12793   */\n      dup2\n        /* \"#utility.yul\":12787:12788   */\n      0x00\n        /* \"#utility.yul\":12780:12794   */\n      mstore\n        /* \"#utility.yul\":12824:12828   */\n      0x20\n        /* \"#utility.yul\":12821:12822   */\n      0x00\n        /* \"#utility.yul\":12811:12829   */\n      keccak256\n        /* \"#utility.yul\":12803:12829   */\n      swap1\n      pop\n        /* \"#utility.yul\":12695:12836   */\n      swap2\n      swap1\n      pop\n      jump\t// out\n        /* \"#utility.yul\":12842:12935   */\n    tag_114:\n        /* \"#utility.yul\":12879:12885   */\n      0x00\n        /* \"#utility.yul\":12926:12928   */\n      0x20\n        /* \"#utility.yul\":12921:12923   */\n      0x1f\n        /* \"#utility.yul\":12914:12919   */\n      dup4\n        /* \"#utility.yul\":12910:12924   */\n      add\n        /* \"#utility.yul\":12906:12929   */\n      div\n        /* \"#utility.yul\":12896:12929   */\n      swap1\n      pop\n        /* \"#utility.yul\":12842:12935   */\n      swap2\n      swap1\n      pop\n      jump\t// out\n        /* \"#utility.yul\":12941:13048   */\n    tag_115:\n        /* \"#utility.yul\":12985:12993   */\n      0x00\n        /* \"#utility.yul\":13035:13040   */\n      dup3\n        /* \"#utility.yul\":13029:13033   */\n      dup3\n        /* \"#utility.yul\":13025:13041   */\n      shl\n        /* \"#utility.yul\":13004:13041   */\n      swap1\n      pop\n        /* \"#utility.yul\":12941:13048   */\n      swap3\n      swap2\n      pop\n      pop\n      jump\t// out\n        /* \"#utility.yul\":13054:13447   */\n    tag_116:\n        /* \"#utility.yul\":13123:13129   */\n      0x00\n        /* \"#utility.yul\":13173:13174   */\n      0x08\n        /* \"#utility.yul\":13161:13171   */\n      dup4\n        /* \"#utility.yul\":13157:13175   */\n      mul\n        /* \"#utility.yul\":13196:13293   */\n      tag_257\n        /* \"#utility.yul\":13226:13292   */\n      0xffffffffffffffffffffffffffffffffffffffffffffffffffffffffffffffff\n        /* \"#utility.yul\":13215:13224   */\n      dup3\n        /* \"#utility.yul\":13196:13293   */\n      tag_115\n      jump\t// in\n    tag_257:\n        /* \"#utility.yul\":13314:13353   */\n      tag_258\n        /* \"#utility.yul\":13344:13352   */\n      dup7\n        /* \"#utility.yul\":13333:13342   */\n      dup4\n        /* \"#utility.yul\":13314:13353   */\n      tag_115\n      jump\t// in\n    tag_258:\n        /* \"#utility.yul\":13302:13353   */\n      swap6\n      pop\n        /* \"#utility.yul\":13386:13390   */\n      dup1\n        /* \"#utility.yul\":13382:13391   */\n      not\n        /* \"#utility.yul\":13375:13380   */\n      dup5\n        /* \"#utility.yul\":13371:13392   */\n      and\n        /* \"#utility.yul\":13362:13392   */\n      swap4\n      pop\n        /* \"#utility.yul\":13435:13439   */\n      dup1\n        /* \"#utility.yul\":13425:13433   */\n      dup7\n        /* \"#utility.yul\":13421:13440   */\n      and\n        /* \"#utility.yul\":13414:13419   */\n      dup5\n        /* \"#utility.yul\":13411:13441   */\n      or\n        /* \"#utility.yul\":13401:13441   */\n      swap3\n      pop\n        /* \"#utility.yul\":13130:13447   */\n      pop\n      pop\n        /* \"#utility.yul\":13054:13447   */\n      swap4\n      swap3\n      pop\n      pop\n      pop\n      jump\t// out\n        /* \"#utility.yul\":13453:13530   */\n    tag_117:\n        /* \"#utility.yul\":13490:13497   */\n      0x00\n        /* \"#utility.yul\":13519:13524   */\n      dup2\n        /* \"#utility.yul\":13508:13524   */\n      swap1\n      pop\n        /* \"#utility.yul\":13453:13530   */\n      swap2\n      swap1\n      pop\n      jump\t// out\n        /* \"#utility.yul\":13536:13596   */\n    tag_118:\n        /* \"#utility.yul\":13564:13567   */\n      0x00\n        /* \"#utility.yul\":13585:13590   */\n      dup2\n        /* \"#utility.yul\":13578:13590   */\n      swap1\n      pop\n        /* \"#utility.yul\":13536:13596   */\n      swap2\n      swap1\n      pop\n      jump\t// out\n        /* \"#utility.yul\":13602:13744   */\n    tag_119:\n        /* \"#utility.yul\":13652:13661   */\n      0x00\n        /* \"#utility.yul\":13685:13738   */\n      tag_262\n        /* \"#utility.yul\":13703:13737   */\n      tag_263\n        /* \"#utility.yul\":13712:13736   */\n      tag_264\n        /* \"#utility.yul\":13730:13735   */\n      dup5\n        /* \"#utility.yul\":13712:13736   */\n      tag_117\n      jump\t// in\n    tag_264:\n        /* \"#utility.yul\":13703:13737   */\n      tag_118\n      jump\t// in\n    tag_263:\n        /* \"#utility.yul\":13685:13738   */\n      tag_117\n      jump\t// in\n    tag_262:\n        /* \"#utility.yul\":13672:13738   */\n      swap1\n      pop\n        /* \"#utility.yul\":13602:13744   */\n      swap2\n      swap1\n      pop\n      jump\t// out\n        /* \"#utility.yul\":13750:13825   */\n    tag_120:\n        /* \"#utility.yul\":13793:13796   */\n      0x00\n        /* \"#utility.yul\":13814:13819   */\n      dup2\n        /* \"#utility.yul\":13807:13819   */\n      swap1\n      pop\n        /* \"#utility.yul\":13750:13825   */\n      swap2\n      swap1\n      pop\n      jump\t// out\n        /* \"#utility.yul\":13831:14100   */\n    tag_121:\n        /* \"#utility.yul\":13941:13980   */\n      tag_267\n        /* \"#utility.yul\":13972:13979   */\n      dup4\n        /* \"#utility.yul\":13941:13980   */\n      tag_119\n      jump\t// in\n    tag_267:\n        /* \"#utility.yul\":14002:14093   */\n      tag_268\n        /* \"#utility.yul\":14051:14092   */\n      tag_269\n        /* \"#utility.yul\":14075:14091   */\n      dup3\n        /* \"#utility.yul\":14051:14092   */\n      tag_120\n      jump\t// in\n    tag_269:\n        /* \"#utility.yul\":14043:14049   */\n      dup5\n        /* \"#utility.yul\":14036:14040   */\n      dup5\n        /* \"#utility.yul\":14030:14041   */\n      sload\n        /* \"#utility.yul\":14002:14093   */\n      tag_116\n      jump\t// in\n    tag_268:\n        /* \"#utility.yul\":13996:14000   */\n      dup3\n        /* \"#utility.yul\":13989:14094   */\n      sstore\n        /* \"#utility.yul\":13907:14100   */\n      pop\n        /* \"#utility.yul\":13831:14100   */\n      pop\n      pop\n      pop\n      jump\t// out\n        /* \"#utility.yul\":14106:14179   */\n    tag_122:\n        /* \"#utility.yul\":14151:14154   */\n      0x00\n        /* \"#utility.yul\":14106:14179   */\n      swap1\n      jump\t// out\n        /* \"#utility.yul\":14185:14374   */\n    tag_123:\n        /* \"#utility.yul\":14262:14294   */\n      tag_272\n      tag_122\n      jump\t// in\n    tag_272:\n        /* \"#utility.yul\":14303:14368   */\n      tag_273\n        /* \"#utility.yul\":14361:14367   */\n      dup2\n        /* \"#utility.yul\":14353:14359   */\n      dup5\n        /* \"#utility.yul\":14347:14351   */\n      dup5\n        /* \"#utility.yul\":14303:14368   */\n      tag_121\n      jump\t// in\n    tag_273:\n        /* \"#utility.yul\":14238:14374   */\n      pop\n        /* \"#utility.yul\":14185:14374   */\n      pop\n      pop\n      jump\t// out\n        /* \"#utility.yul\":14380:14566   */\n    tag_124:\n        /* \"#utility.yul\":14440:14560   */\n    tag_275:\n        /* \"#utility.yul\":14457:14460   */\n      dup2\n        /* \"#utility.yul\":14450:14455   */\n      dup2\n        /* \"#utility.yul\":14447:14461   */\n      lt\n        /* \"#utility.yul\":14440:14560   */\n      iszero\n      tag_277\n      jumpi\n        /* \"#utility.yul\":14511:14550   */\n      tag_278\n        /* \"#utility.yul\":14548:14549   */\n      0x00\n        /* \"#utility.yul\":14541:14546   */\n      dup3\n        /* \"#utility.yul\":14511:14550   */\n      tag_123\n      jump\t// in\n    tag_278:\n        /* \"#utility.yul\":14484:14485   */\n      0x01\n        /* \"#utility.yul\":14477:14482   */\n      dup2\n        /* \"#utility.yul\":14473:14486   */\n      add\n        /* \"#utility.yul\":14464:14486   */\n      swap1\n      pop\n        /* \"#utility.yul\":14440:14560   */\n      jump(tag_275)\n    tag_277:\n        /* \"#utility.yul\":14380:14566   */\n      pop\n      pop\n      jump\t// out\n        /* \"#utility.yul\":14572:15115   */\n    tag_125:\n        /* \"#utility.yul\":14673:14675   */\n      0x1f\n        /* \"#utility.yul\":14668:14671   */\n      dup3\n        /* \"#utility.yul\":14665:14676   */\n      gt\n        /* \"#utility.yul\":14662:15108   */\n      iszero\n      tag_280\n      jumpi\n        /* \"#utility.yul\":14707:14745   */\n      tag_281\n        /* \"#utility.yul\":14739:14744   */\n      dup2\n        /* \"#utility.yul\":14707:14745   */\n      tag_113\n      jump\t// in\n    tag_281:\n        /* \"#utility.yul\":14791:14820   */\n      tag_282\n        /* \"#utility.yul\":14809:14819   */\n      dup5\n        /* \"#utility.yul\":14791:14820   */\n      tag_114\n      jump\t// in\n    tag_282:\n        /* \"#utility.yul\":14781:14789   */\n      dup2\n        /* \"#utility.yul\":14777:14821   */\n      add\n        /* \"#utility.yul\":14974:14976   */\n      0x20\n        /* \"#utility.yul\":14962:14972   */\n      dup6\n        /* \"#utility.yul\":14959:14977   */\n      lt\n        /* \"#utility.yul\":14956:15005   */\n      iszero\n      tag_283\n      jumpi\n        /* \"#utility.yul\":14995:15003   */\n      dup2\n        /* \"#utility.yul\":14980:15003   */\n      swap1\n      pop\n        /* \"#utility.yul\":14956:15005   */\n    tag_283:\n        /* \"#utility.yul\":15018:15098   */\n      tag_284\n        /* \"#utility.yul\":15074:15096   */\n      tag_285\n        /* \"#utility.yul\":15092:15095   */\n      dup6\n        /* \"#utility.yul\":15074:15096   */\n      tag_114\n      jump\t// in\n    tag_285:\n        /* \"#utility.yul\":15064:15072   */\n      dup4\n        /* \"#utility.yul\":15060:15097   */\n      add\n        /* \"#utility.yul\":15047:15058   */\n      dup3\n        /* \"#utility.yul\":15018:15098   */\n      tag_124\n      jump\t// in\n    tag_284:\n        /* \"#utility.yul\":14677:15108   */\n      pop\n      pop\n        /* \"#utility.yul\":14662:15108   */\n    tag_280:\n        /* \"#utility.yul\":14572:15115   */\n      pop\n      pop\n      pop\n      jump\t// out\n        /* \"#utility.yul\":15121:15238   */\n    tag_126:\n        /* \"#utility.yul\":15175:15183   */\n      0x00\n        /* \"#utility.yul\":15225:15230   */\n      dup3\n        /* \"#utility.yul\":15219:15223   */\n      dup3\n        /* \"#utility.yul\":15215:15231   */\n      shr\n        /* \"#utility.yul\":15194:15231   */\n      swap1\n      pop\n        /* \"#utility.yul\":15121:15238   */\n      swap3\n      swap2\n      pop\n      pop\n      jump\t// out\n        /* \"#utility.yul\":15244:15413   */\n    tag_127:\n        /* \"#utility.yul\":15288:15294   */\n      0x00\n        /* \"#utility.yul\":15321:15372   */\n      tag_288\n        /* \"#utility.yul\":15369:15370   */\n      0x00\n        /* \"#utility.yul\":15365:15371   */\n      not\n        /* \"#utility.yul\":15357:15362   */\n      dup5\n        /* \"#utility.yul\":15354:15355   */\n      0x08\n        /* \"#utility.yul\":15350:15363   */\n      mul\n        /* \"#utility.yul\":15321:15372   */\n      tag_126\n      jump\t// in\n    tag_288:\n        /* \"#utility.yul\":15317:15373   */\n      not\n        /* \"#utility.yul\":15402:15406   */\n      dup1\n        /* \"#utility.yul\":15396:15400   */\n      dup4\n        /* \"#utility.yul\":15392:15407   */\n      and\n        /* \"#utility.yul\":15382:15407   */\n      swap2\n      pop\n        /* \"#utility.yul\":15295:15413   */\n      pop\n        /* \"#utility.yul\":15244:15413   */\n      swap3\n      swap2\n      pop\n      pop\n      jump\t// out\n        /* \"#utility.yul\":15418:15713   */\n    tag_128:\n        /* \"#utility.yul\":15494:15498   */\n      0x00\n        /* \"#utility.yul\":15640:15669   */\n      tag_290\n        /* \"#utility.yul\":15665:15668   */\n      dup4\n        /* \"#utility.yul\":15659:15663   */\n      dup4\n        /* \"#utility.yul\":15640:15669   */\n      tag_127\n      jump\t// in\n    tag_290:\n        /* \"#utility.yul\":15632:15669   */\n      swap2\n      pop\n        /* \"#utility.yul\":15702:15705   */\n      dup3\n        /* \"#utility.yul\":15699:15700   */\n      0x02\n        /* \"#utility.yul\":15695:15706   */\n      mul\n        /* \"#utility.yul\":15689:15693   */\n      dup3\n        /* \"#utility.yul\":15686:15707   */\n      or\n        /* \"#utility.yul\":15678:15707   */\n      swap1\n      pop\n        /* \"#utility.yul\":15418:15713   */\n      swap3\n      swap2\n      pop\n      pop\n      jump\t// out\n        /* \"#utility.yul\":15718:17113   */\n    tag_52:\n        /* \"#utility.yul\":15835:15872   */\n      tag_292\n        /* \"#utility.yul\":15868:15871   */\n      dup3\n        /* \"#utility.yul\":15835:15872   */\n      tag_96\n      jump\t// in\n    tag_292:\n        /* \"#utility.yul\":15937:15955   */\n      0xffffffffffffffff\n        /* \"#utility.yul\":15929:15935   */\n      dup2\n        /* \"#utility.yul\":15926:15956   */\n      gt\n        /* \"#utility.yul\":15923:15979   */\n      iszero\n      tag_293\n      jumpi\n        /* \"#utility.yul\":15959:15977   */\n      tag_294\n      tag_86\n      jump\t// in\n    tag_294:\n        /* \"#utility.yul\":15923:15979   */\n    tag_293:\n        /* \"#utility.yul\":16003:16041   */\n      tag_295\n        /* \"#utility.yul\":16035:16039   */\n      dup3\n        /* \"#utility.yul\":16029:16040   */\n      sload\n        /* \"#utility.yul\":16003:16041   */\n      tag_59\n      jump\t// in\n    tag_295:\n        /* \"#utility.yul\":16088:16155   */\n      tag_296\n        /* \"#utility.yul\":16148:16154   */\n      dup3\n        /* \"#utility.yul\":16140:16146   */\n      dup3\n        /* \"#utility.yul\":16134:16138   */\n      dup6\n        /* \"#utility.yul\":16088:16155   */\n      tag_125\n      jump\t// in\n    tag_296:\n        /* \"#utility.yul\":16182:16183   */\n      0x00\n        /* \"#utility.yul\":16206:16210   */\n      0x20\n        /* \"#utility.yul\":16193:16210   */\n      swap1\n      pop\n        /* \"#utility.yul\":16238:16240   */\n      0x1f\n        /* \"#utility.yul\":16230:16236   */\n      dup4\n        /* \"#utility.yul\":16227:16241   */\n      gt\n        /* \"#utility.yul\":16255:16256   */\n      0x01\n        /* \"#utility.yul\":16250:16868   */\n      dup2\n      eq\n      tag_298\n      jumpi\n        /* \"#utility.yul\":16912:16913   */\n      0x00\n        /* \"#utility.yul\":16929:16935   */\n      dup5\n        /* \"#utility.yul\":16926:17003   */\n      iszero\n      tag_299\n      jumpi\n        /* \"#utility.yul\":16978:16987   */\n      dup3\n        /* \"#utility.yul\":16973:16976   */\n      dup8\n        /* \"#utility.yul\":16969:16988   */\n      add\n        /* \"#utility.yul\":16963:16989   */\n      mload\n        /* \"#utility.yul\":16954:16989   */\n      swap1\n      pop\n        /* \"#utility.yul\":16926:17003   */\n    tag_299:\n        /* \"#utility.yul\":17029:17096   */\n      tag_300\n        /* \"#utility.yul\":17089:17095   */\n      dup6\n        /* \"#utility.yul\":17082:17087   */\n      dup3\n        /* \"#utility.yul\":17029:17096   */\n      tag_128\n      jump\t// in\n    tag_300:\n        /* \"#utility.yul\":17023:17027   */\n      dup7\n        /* \"#utility.yul\":17016:17097   */\n      sstore\n        /* \"#utility.yul\":16885:17107   */\n      pop\n        /* \"#utility.yul\":16220:17107   */\n      jump(tag_297)\n        /* \"#utility.yul\":16250:16868   */\n    tag_298:\n        /* \"#utility.yul\":16302:16306   */\n      0x1f\n        /* \"#utility.yul\":16298:16307   */\n      not\n        /* \"#utility.yul\":16290:16296   */\n      dup5\n        /* \"#utility.yul\":16286:16308   */\n      and\n        /* \"#utility.yul\":16336:16373   */\n      tag_301\n        /* \"#utility.yul\":16368:16372   */\n      dup7\n        /* \"#utility.yul\":16336:16373   */\n      tag_113\n      jump\t// in\n    tag_301:\n        /* \"#utility.yul\":16395:16396   */\n      0x00\n        /* \"#utility.yul\":16409:16617   */\n    tag_302:\n        /* \"#utility.yul\":16423:16430   */\n      dup3\n        /* \"#utility.yul\":16420:16421   */\n      dup2\n        /* \"#utility.yul\":16417:16431   */\n      lt\n        /* \"#utility.yul\":16409:16617   */\n      iszero\n      tag_304\n      jumpi\n        /* \"#utility.yul\":16502:16511   */\n      dup5\n        /* \"#utility.yul\":16497:16500   */\n      dup10\n        /* \"#utility.yul\":16493:16512   */\n      add\n        /* \"#utility.yul\":16487:16513   */\n      mload\n        /* \"#utility.yul\":16479:16485   */\n      dup3\n        /* \"#utility.yul\":16472:16514   */\n      sstore\n        /* \"#utility.yul\":16553:16554   */\n      0x01\n        /* \"#utility.yul\":16545:16551   */\n      dup3\n        /* \"#utility.yul\":16541:16555   */\n      add\n        /* \"#utility.yul\":16531:16555   */\n      swap2\n      pop\n        /* \"#utility.yul\":16600:16602   */\n      0x20\n        /* \"#utility.yul\":16589:16598   */\n      dup6\n        /* \"#utility.yul\":16585:16603   */\n      add\n        /* \"#utility.yul\":16572:16603   */\n      swap5\n      pop\n        /* \"#utility.yul\":16446:16450   */\n      0x20\n        /* \"#utility.yul\":16443:16444   */\n      dup2\n        /* \"#utility.yul\":16439:16451   */\n      add\n        /* \"#utility.yul\":16434:16451   */\n      swap1\n      pop\n        /* \"#utility.yul\":16409:16617   */\n      jump(tag_302)\n    tag_304:\n        /* \"#utility.yul\":16645:16651   */\n      dup7\n        /* \"#utility.yul\":16636:16643   */\n      dup4\n        /* \"#utility.yul\":16633:16652   */\n      lt\n        /* \"#utility.yul\":16630:16809   */\n      iszero\n      tag_305\n      jumpi\n        /* \"#utility.yul\":16703:16712   */\n      dup5\n        /* \"#utility.yul\":16698:16701   */\n      dup10\n        /* \"#utility.yul\":16694:16713   */\n      add\n        /* \"#utility.yul\":16688:16714   */\n      mload\n        /* \"#utility.yul\":16746:16794   */\n      tag_306\n        /* \"#utility.yul\":16788:16792   */\n      0x1f\n        /* \"#utility.yul\":16780:16786   */\n      dup10\n        /* \"#utility.yul\":16776:16793   */\n      and\n        /* \"#utility.yul\":16765:16774   */\n      dup3\n        /* \"#utility.yul\":16746:16794   */\n      tag_127\n      jump\t// in\n    tag_306:\n        /* \"#utility.yul\":16738:16744   */\n      dup4\n        /* \"#utility.yul\":16731:16795   */\n      sstore\n        /* \"#utility.yul\":16653:16809   */\n      pop\n        /* \"#utility.yul\":16630:16809   */\n    tag_305:\n        /* \"#utility.yul\":16855:16856   */\n      0x01\n        /* \"#utility.yul\":16851:16852   */\n      0x02\n        /* \"#utility.yul\":16843:16849   */\n      dup9\n        /* \"#utility.yul\":16839:16853   */\n      mul\n        /* \"#utility.yul\":16835:16857   */\n      add\n        /* \"#utility.yul\":16829:16833   */\n      dup9\n        /* \"#utility.yul\":16822:16858   */\n      sstore\n        /* \"#utility.yul\":16257:16868   */\n      pop\n      pop\n      pop\n        /* \"#utility.yul\":16220:17107   */\n    tag_297:\n      pop\n        /* \"#utility.yul\":15810:17113   */\n      pop\n      pop\n      pop\n        /* \"#utility.yul\":15718:17113   */\n      pop\n      pop\n      jump\t// out\n        /* \"#utility.yul\":17119:17538   */\n    tag_55:\n        /* \"#utility.yul\":17258:17262   */\n      0x00\n        /* \"#utility.yul\":17296:17298   */\n      0x40\n        /* \"#utility.yul\":17285:17294   */\n      dup3\n        /* \"#utility.yul\":17281:17299   */\n      add\n        /* \"#utility.yul\":17273:17299   */\n      swap1\n      pop\n        /* \"#utility.yul\":17345:17354   */\n      dup2\n        /* \"#utility.yul\":17339:17343   */\n      dup2\n        /* \"#utility.yul\":17335:17355   */\n      sub\n        /* \"#utility.yul\":17331:17332   */\n      0x00\n        /* \"#utility.yul\":17320:17329   */\n      dup4\n        /* \"#utility.yul\":17316:17333   */\n      add\n        /* \"#utility.yul\":17309:17356   */\n      mstore\n        /* \"#utility.yul\":17373:17451   */\n      tag_308\n        /* \"#utility.yul\":17446:17450   */\n      dup2\n        /* \"#utility.yul\":17437:17443   */\n      dup6\n        /* \"#utility.yul\":17373:17451   */\n      tag_99\n      jump\t// in\n    tag_308:\n        /* \"#utility.yul\":17365:17451   */\n      swap1\n      pop\n        /* \"#utility.yul\":17461:17531   */\n      tag_309\n        /* \"#utility.yul\":17527:17529   */\n      0x20\n        /* \"#utility.yul\":17516:17525   */\n      dup4\n        /* \"#utility.yul\":17512:17530   */\n      add\n        /* \"#utility.yul\":17503:17509   */\n      dup5\n        /* \"#utility.yul\":17461:17531   */\n      tag_101\n      jump\t// in\n    tag_309:\n        /* \"#utility.yul\":17119:17538   */\n      swap4\n      swap3\n      pop\n      pop\n      pop\n      jump\t// out\n        /* \"#utility.yul\":17544:17712   */\n    tag_129:\n        /* \"#utility.yul\":17684:17704   */\n      0x436f6e7472616374206e6f7420666f756e640000000000000000000000000000\n        /* \"#utility.yul\":17680:17681   */\n      0x00\n        /* \"#utility.yul\":17672:17678   */\n      dup3\n        /* \"#utility.yul\":17668:17682   */\n      add\n        /* \"#utility.yul\":17661:17705   */\n      mstore\n        /* \"#utility.yul\":17544:17712   */\n      pop\n      jump\t// out\n        /* \"#utility.yul\":17718:18084   */\n    tag_130:\n        /* \"#utility.yul\":17860:17863   */\n      0x00\n        /* \"#utility.yul\":17881:17948   */\n      tag_312\n        /* \"#utility.yul\":17945:17947   */\n      0x12\n        /* \"#utility.yul\":17940:17943   */\n      dup4\n        /* \"#utility.yul\":17881:17948   */\n      tag_97\n      jump\t// in\n    tag_312:\n        /* \"#utility.yul\":17874:17948   */\n      swap2\n      pop\n        /* \"#utility.yul\":17957:18050   */\n      tag_313\n        /* \"#utility.yul\":18046:18049   */\n      dup3\n        /* \"#utility.yul\":17957:18050   */\n      tag_129\n      jump\t// in\n    tag_313:\n        /* \"#utility.yul\":18075:18077   */\n      0x20\n        /* \"#utility.yul\":18070:18073   */\n      dup3\n        /* \"#utility.yul\":18066:18078   */\n      add\n        /* \"#utility.yul\":18059:18078   */\n      swap1\n      pop\n        /* \"#utility.yul\":17718:18084   */\n      swap2\n      swap1\n      pop\n      jump\t// out\n        /* \"#utility.yul\":18090:18509   */\n    tag_66:\n        /* \"#utility.yul\":18256:18260   */\n      0x00\n        /* \"#utility.yul\":18294:18296   */\n      0x20\n        /* \"#utility.yul\":18283:18292   */\n      dup3\n        /* \"#utility.yul\":18279:18297   */\n      add\n        /* \"#utility.yul\":18271:18297   */\n      swap1\n      pop\n        /* \"#utility.yul\":18343:18352   */\n      dup2\n        /* \"#utility.yul\":18337:18341   */\n      dup2\n        /* \"#utility.yul\":18333:18353   */\n      sub\n        /* \"#utility.yul\":18329:18330   */\n      0x00\n        /* \"#utility.yul\":18318:18327   */\n      dup4\n        /* \"#utility.yul\":18314:18331   */\n      add\n        /* \"#utility.yul\":18307:18354   */\n      mstore\n        /* \"#utility.yul\":18371:18502   */\n      tag_315\n        /* \"#utility.yul\":18497:18501   */\n      dup2\n        /* \"#utility.yul\":18371:18502   */\n      tag_130\n      jump\t// in\n    tag_315:\n        /* \"#utility.yul\":18363:18502   */\n      swap1\n      pop\n        /* \"#utility.yul\":18090:18509   */\n      swap2\n      swap1\n      pop\n      jump\t// out\n\n    auxdata: 0xa26469706673582212201d40b0322132234ab576cd77fbdcd9bbb3e231bf926fea46b52e56b966ee19a764736f6c634300081a0033\n}\n",
				"bytecode": {
					"linkReferences": {},
					"object": "6080604052348015600e575f80fd5b506110b78061001c5f395ff3fe608060405234801561000f575f80fd5b5060043610610055575f3560e01c806316279055146100595780631fea226e14610089578063252941cd146100a55780633896f226146100d7578063b66fb09014610107575b5f80fd5b610073600480360381019061006e9190610799565b610139565b60405161008091906107de565b60405180910390f35b6100a3600480360381019061009e9190610966565b61014a565b005b6100bf60048036038101906100ba9190610a02565b61042a565b6040516100ce93929190610ac7565b60405180910390f35b6100f160048036038101906100ec9190610a02565b6105d5565b6040516100fe91906107de565b60405180910390f35b610121600480360381019061011c9190610a02565b61064c565b60405161013093929190610ac7565b60405180910390f35b5f80823b90505f8111915050919050565b5f73ffffffffffffffffffffffffffffffffffffffff168273ffffffffffffffffffffffffffffffffffffffff16036101b8576040517f08c379a00000000000000000000000000000000000000000000000000000000081526004016101af90610b4d565b60405180910390fd5b5f73ffffffffffffffffffffffffffffffffffffffff165f856040516101de9190610ba5565b90815260200160405180910390206001015f9054906101000a900473ffffffffffffffffffffffffffffffffffffffff1673ffffffffffffffffffffffffffffffffffffffff1614610265576040517f08c379a000000000000000000000000000000000000000000000000000000000815260040161025c90610c05565b60405180910390fd5b61026e82610139565b6102ad576040517f08c379a00000000000000000000000000000000000000000000000000000000081526004016102a490610c93565b60405180910390fd5b5f8490505f81519050602c81101580156102c85750602e8111155b610307576040517f08c379a00000000000000000000000000000000000000000000000000000000081526004016102fe90610cfb565b60405180910390fd5b60405180606001604052808681526020018573ffffffffffffffffffffffffffffffffffffffff168152602001848152505f876040516103479190610ba5565b90815260200160405180910390205f820151815f0190816103689190610f1c565b506020820151816001015f6101000a81548173ffffffffffffffffffffffffffffffffffffffff021916908373ffffffffffffffffffffffffffffffffffffffff160217905550604082015181600201559050508373ffffffffffffffffffffffffffffffffffffffff16866040516103e19190610ba5565b60405180910390207f750fef9cbabba37dba3294530e977dfe7dcc452afe9ea7bb7f119416b1cf0f01878660405161041a929190610feb565b60405180910390a3505050505050565b60605f805f808560405161043e9190610ba5565b90815260200160405180910390206040518060600160405290815f8201805461046690610d46565b80601f016020809104026020016040519081016040528092919081815260200182805461049290610d46565b80156104dd5780601f106104b4576101008083540402835291602001916104dd565b820191905f5260205f20905b8154815290600101906020018083116104c057829003601f168201915b50505050508152602001600182015f9054906101000a900473ffffffffffffffffffffffffffffffffffffffff1673ffffffffffffffffffffffffffffffffffffffff1673ffffffffffffffffffffffffffffffffffffffff16815260200160028201548152505090505f73ffffffffffffffffffffffffffffffffffffffff16816020015173ffffffffffffffffffffffffffffffffffffffff16036105b9576040517f08c379a00000000000000000000000000000000000000000000000000000000081526004016105b090611063565b60405180910390fd5b805f015181602001518260400151935093509350509193909250565b5f8073ffffffffffffffffffffffffffffffffffffffff165f836040516105fc9190610ba5565b90815260200160405180910390206001015f9054906101000a900473ffffffffffffffffffffffffffffffffffffffff1673ffffffffffffffffffffffffffffffffffffffff1614159050919050565b5f818051602081018201805184825260208301602085012081835280955050505050505f91509050805f01805461068290610d46565b80601f01602080910402602001604051908101604052809291908181526020018280546106ae90610d46565b80156106f95780601f106106d0576101008083540402835291602001916106f9565b820191905f5260205f20905b8154815290600101906020018083116106dc57829003601f168201915b505050505090806001015f9054906101000a900473ffffffffffffffffffffffffffffffffffffffff16908060020154905083565b5f604051905090565b5f80fd5b5f80fd5b5f73ffffffffffffffffffffffffffffffffffffffff82169050919050565b5f6107688261073f565b9050919050565b6107788161075e565b8114610782575f80fd5b50565b5f813590506107938161076f565b92915050565b5f602082840312156107ae576107ad610737565b5b5f6107bb84828501610785565b91505092915050565b5f8115159050919050565b6107d8816107c4565b82525050565b5f6020820190506107f15f8301846107cf565b92915050565b5f80fd5b5f80fd5b5f601f19601f8301169050919050565b7f4e487b71000000000000000000000000000000000000000000000000000000005f52604160045260245ffd5b610845826107ff565b810181811067ffffffffffffffff821117156108645761086361080f565b5b80604052505050565b5f61087661072e565b9050610882828261083c565b919050565b5f67ffffffffffffffff8211156108a1576108a061080f565b5b6108aa826107ff565b9050602081019050919050565b828183375f83830152505050565b5f6108d76108d284610887565b61086d565b9050828152602081018484840111156108f3576108f26107fb565b5b6108fe8482856108b7565b509392505050565b5f82601f83011261091a576109196107f7565b5b813561092a8482602086016108c5565b91505092915050565b5f819050919050565b61094581610933565b811461094f575f80fd5b50565b5f813590506109608161093c565b92915050565b5f805f806080858703121561097e5761097d610737565b5b5f85013567ffffffffffffffff81111561099b5761099a61073b565b5b6109a787828801610906565b945050602085013567ffffffffffffffff8111156109c8576109c761073b565b5b6109d487828801610906565b93505060406109e587828801610785565b92505060606109f687828801610952565b91505092959194509250565b5f60208284031215610a1757610a16610737565b5b5f82013567ffffffffffffffff811115610a3457610a3361073b565b5b610a4084828501610906565b91505092915050565b5f81519050919050565b5f82825260208201905092915050565b8281835e5f83830152505050565b5f610a7b82610a49565b610a858185610a53565b9350610a95818560208601610a63565b610a9e816107ff565b840191505092915050565b610ab28161075e565b82525050565b610ac181610933565b82525050565b5f6060820190508181035f830152610adf8186610a71565b9050610aee6020830185610aa9565b610afb6040830184610ab8565b949350505050565b7f496e76616c696420636f6e7472616374206164647265737300000000000000005f82015250565b5f610b37601883610a53565b9150610b4282610b03565b602082019050919050565b5f6020820190508181035f830152610b6481610b2b565b9050919050565b5f81905092915050565b5f610b7f82610a49565b610b898185610b6b565b9350610b99818560208601610a63565b80840191505092915050565b5f610bb08284610b75565b915081905092915050565b7f494420616c7265616479207573656400000000000000000000000000000000005f82015250565b5f610bef600f83610a53565b9150610bfa82610bbb565b602082019050919050565b5f6020820190508181035f830152610c1c81610be3565b9050919050565b7f41646472657373206973206e6f742061206465706c6f79656420636f6e7472615f8201527f6374000000000000000000000000000000000000000000000000000000000000602082015250565b5f610c7d602283610a53565b9150610c8882610c23565b604082019050919050565b5f6020820190508181035f830152610caa81610c71565b9050919050565b7f496e76616c69642066696c6568617368206c656e6774680000000000000000005f82015250565b5f610ce5601783610a53565b9150610cf082610cb1565b602082019050919050565b5f6020820190508181035f830152610d1281610cd9565b9050919050565b7f4e487b71000000000000000000000000000000000000000000000000000000005f52602260045260245ffd5b5f6002820490506001821680610d5d57607f821691505b602082108103610d7057610d6f610d19565b5b50919050565b5f819050815f5260205f209050919050565b5f6020601f8301049050919050565b5f82821b905092915050565b5f60088302610dd27fffffffffffffffffffffffffffffffffffffffffffffffffffffffffffffffff82610d97565b610ddc8683610d97565b95508019841693508086168417925050509392505050565b5f819050919050565b5f819050919050565b5f610e20610e1b610e1684610df4565b610dfd565b610df4565b9050919050565b5f819050919050565b610e3983610e06565b610e4d610e4582610e27565b848454610da3565b825550505050565b5f90565b610e61610e55565b610e6c818484610e30565b505050565b5b81811015610e8f57610e845f82610e59565b600181019050610e72565b5050565b601f821115610ed457610ea581610d76565b610eae84610d88565b81016020851015610ebd578190505b610ed1610ec985610d88565b830182610e71565b50505b505050565b5f82821c905092915050565b5f610ef45f1984600802610ed9565b1980831691505092915050565b5f610f0c8383610ee5565b9150826002028217905092915050565b610f2582610a49565b67ffffffffffffffff811115610f3e57610f3d61080f565b5b610f488254610d46565b610f53828285610e93565b5f60209050601f831160018114610f84575f8415610f72578287015190505b610f7c8582610f01565b865550610fe3565b601f198416610f9286610d76565b5f5b82811015610fb957848901518255600182019150602085019450602081019050610f94565b86831015610fd65784890151610fd2601f891682610ee5565b8355505b6001600288020188555050505b505050505050565b5f6040820190508181035f8301526110038185610a71565b90506110126020830184610ab8565b9392505050565b7f436f6e7472616374206e6f7420666f756e6400000000000000000000000000005f82015250565b5f61104d601283610a53565b915061105882611019565b602082019050919050565b5f6020820190508181035f83015261107a81611041565b905091905056fea26469706673582212201d40b0322132234ab576cd77fbdcd9bbb3e231bf926fea46b52e56b966ee19a764736f6c634300081a0033",
					"opcodes": "PUSH1 0x80 PUSH1 0x40 MSTORE CALLVALUE DUP1 ISZERO PUSH1 0xE JUMPI PUSH0 DUP1 REVERT JUMPDEST POP PUSH2 0x10B7 DUP1 PUSH2 0x1C PUSH0 CODECOPY PUSH0 RETURN INVALID PUSH1 0x80 PUSH1 0x40 MSTORE CALLVALUE DUP1 ISZERO PUSH2 0xF JUMPI PUSH0 DUP1 REVERT JUMPDEST POP PUSH1 0x4 CALLDATASIZE LT PUSH2 0x55 JUMPI PUSH0 CALLDATALOAD PUSH1 0xE0 SHR DUP1 PUSH4 0x16279055 EQ PUSH2 0x59 JUMPI DUP1 PUSH4 0x1FEA226E EQ PUSH2 0x89 JUMPI DUP1 PUSH4 0x252941CD EQ PUSH2 0xA5 JUMPI DUP1 PUSH4 0x3896F226 EQ PUSH2 0xD7 JUMPI DUP1 PUSH4 0xB66FB090 EQ PUSH2 0x107 JUMPI JUMPDEST PUSH0 DUP1 REVERT JUMPDEST PUSH2 0x73 PUSH1 0x4 DUP1 CALLDATASIZE SUB DUP2 ADD SWAP1 PUSH2 0x6E SWAP2 SWAP1 PUSH2 0x799 JUMP JUMPDEST PUSH2 0x139 JUMP JUMPDEST PUSH1 0x40 MLOAD PUSH2 0x80 SWAP2 SWAP1 PUSH2 0x7DE JUMP JUMPDEST PUSH1 0x40 MLOAD DUP1 SWAP2 SUB SWAP1 RETURN JUMPDEST PUSH2 0xA3 PUSH1 0x4 DUP1 CALLDATASIZE SUB DUP2 ADD SWAP1 PUSH2 0x9E SWAP2 SWAP1 PUSH2 0x966 JUMP JUMPDEST PUSH2 0x14A JUMP JUMPDEST STOP JUMPDEST PUSH2 0xBF PUSH1 0x4 DUP1 CALLDATASIZE SUB DUP2 ADD SWAP1 PUSH2 0xBA SWAP2 SWAP1 PUSH2 0xA02 JUMP JUMPDEST PUSH2 0x42A JUMP JUMPDEST PUSH1 0x40 MLOAD PUSH2 0xCE SWAP4 SWAP3 SWAP2 SWAP1 PUSH2 0xAC7 JUMP JUMPDEST PUSH1 0x40 MLOAD DUP1 SWAP2 SUB SWAP1 RETURN JUMPDEST PUSH2 0xF1 PUSH1 0x4 DUP1 CALLDATASIZE SUB DUP2 ADD SWAP1 PUSH2 0xEC SWAP2 SWAP1 PUSH2 0xA02 JUMP JUMPDEST PUSH2 0x5D5 JUMP JUMPDEST PUSH1 0x40 MLOAD PUSH2 0xFE SWAP2 SWAP1 PUSH2 0x7DE JUMP JUMPDEST PUSH1 0x40 MLOAD DUP1 SWAP2 SUB SWAP1 RETURN JUMPDEST PUSH2 0x121 PUSH1 0x4 DUP1 CALLDATASIZE SUB DUP2 ADD SWAP1 PUSH2 0x11C SWAP2 SWAP1 PUSH2 0xA02 JUMP JUMPDEST PUSH2 0x64C JUMP JUMPDEST PUSH1 0x40 MLOAD PUSH2 0x130 SWAP4 SWAP3 SWAP2 SWAP1 PUSH2 0xAC7 JUMP JUMPDEST PUSH1 0x40 MLOAD DUP1 SWAP2 SUB SWAP1 RETURN JUMPDEST PUSH0 DUP1 DUP3 EXTCODESIZE SWAP1 POP PUSH0 DUP2 GT SWAP2 POP POP SWAP2 SWAP1 POP JUMP JUMPDEST PUSH0 PUSH20 0xFFFFFFFFFFFFFFFFFFFFFFFFFFFFFFFFFFFFFFFF AND DUP3 PUSH20 0xFFFFFFFFFFFFFFFFFFFFFFFFFFFFFFFFFFFFFFFF AND SUB PUSH2 0x1B8 JUMPI PUSH1 0x40 MLOAD PUSH32 0x8C379A000000000000000000000000000000000000000000000000000000000 DUP2 MSTORE PUSH1 0x4 ADD PUSH2 0x1AF SWAP1 PUSH2 0xB4D JUMP JUMPDEST PUSH1 0x40 MLOAD DUP1 SWAP2 SUB SWAP1 REVERT JUMPDEST PUSH0 PUSH20 0xFFFFFFFFFFFFFFFFFFFFFFFFFFFFFFFFFFFFFFFF AND PUSH0 DUP6 PUSH1 0x40 MLOAD PUSH2 0x1DE SWAP2 SWAP1 PUSH2 0xBA5 JUMP JUMPDEST SWAP1 DUP2 MSTORE PUSH1 0x20 ADD PUSH1 0x40 MLOAD DUP1 SWAP2 SUB SWAP1 KECCAK256 PUSH1 0x1 ADD PUSH0 SWAP1 SLOAD SWAP1 PUSH2 0x100 EXP SWAP1 DIV PUSH20 0xFFFFFFFFFFFFFFFFFFFFFFFFFFFFFFFFFFFFFFFF AND PUSH20 0xFFFFFFFFFFFFFFFFFFFFFFFFFFFFFFFFFFFFFFFF AND EQ PUSH2 0x265 JUMPI PUSH1 0x40 MLOAD PUSH32 0x8C379A000000000000000000000000000000000000000000000000000000000 DUP2 MSTORE PUSH1 0x4 ADD PUSH2 0x25C SWAP1 PUSH2 0xC05 JUMP JUMPDEST PUSH1 0x40 MLOAD DUP1 SWAP2 SUB SWAP1 REVERT JUMPDEST PUSH2 0x26E DUP3 PUSH2 0x139 JUMP JUMPDEST PUSH2 0x2AD JUMPI PUSH1 0x40 MLOAD PUSH32 0x8C379A000000000000000000000000000000000000000000000000000000000 DUP2 MSTORE PUSH1 0x4 ADD PUSH2 0x2A4 SWAP1 PUSH2 0xC93 JUMP JUMPDEST PUSH1 0x40 MLOAD DUP1 SWAP2 SUB SWAP1 REVERT JUMPDEST PUSH0 DUP5 SWAP1 POP PUSH0 DUP2 MLOAD SWAP1 POP PUSH1 0x2C DUP2 LT ISZERO DUP1 ISZERO PUSH2 0x2C8 JUMPI POP PUSH1 0x2E DUP2 GT ISZERO JUMPDEST PUSH2 0x307 JUMPI PUSH1 0x40 MLOAD PUSH32 0x8C379A000000000000000000000000000000000000000000000000000000000 DUP2 MSTORE PUSH1 0x4 ADD PUSH2 0x2FE SWAP1 PUSH2 0xCFB JUMP JUMPDEST PUSH1 0x40 MLOAD DUP1 SWAP2 SUB SWAP1 REVERT JUMPDEST PUSH1 0x40 MLOAD DUP1 PUSH1 0x60 ADD PUSH1 0x40 MSTORE DUP1 DUP7 DUP2 MSTORE PUSH1 0x20 ADD DUP6 PUSH20 0xFFFFFFFFFFFFFFFFFFFFFFFFFFFFFFFFFFFFFFFF AND DUP2 MSTORE PUSH1 0x20 ADD DUP5 DUP2 MSTORE POP PUSH0 DUP8 PUSH1 0x40 MLOAD PUSH2 0x347 SWAP2 SWAP1 PUSH2 0xBA5 JUMP JUMPDEST SWAP1 DUP2 MSTORE PUSH1 0x20 ADD PUSH1 0x40 MLOAD DUP1 SWAP2 SUB SWAP1 KECCAK256 PUSH0 DUP3 ADD MLOAD DUP2 PUSH0 ADD SWAP1 DUP2 PUSH2 0x368 SWAP2 SWAP1 PUSH2 0xF1C JUMP JUMPDEST POP PUSH1 0x20 DUP3 ADD MLOAD DUP2 PUSH1 0x1 ADD PUSH0 PUSH2 0x100 EXP DUP2 SLOAD DUP2 PUSH20 0xFFFFFFFFFFFFFFFFFFFFFFFFFFFFFFFFFFFFFFFF MUL NOT AND SWAP1 DUP4 PUSH20 0xFFFFFFFFFFFFFFFFFFFFFFFFFFFFFFFFFFFFFFFF AND MUL OR SWAP1 SSTORE POP PUSH1 0x40 DUP3 ADD MLOAD DUP2 PUSH1 0x2 ADD SSTORE SWAP1 POP POP DUP4 PUSH20 0xFFFFFFFFFFFFFFFFFFFFFFFFFFFFFFFFFFFFFFFF AND DUP7 PUSH1 0x40 MLOAD PUSH2 0x3E1 SWAP2 SWAP1 PUSH2 0xBA5 JUMP JUMPDEST PUSH1 0x40 MLOAD DUP1 SWAP2 SUB SWAP1 KECCAK256 PUSH32 0x750FEF9CBABBA37DBA3294530E977DFE7DCC452AFE9EA7BB7F119416B1CF0F01 DUP8 DUP7 PUSH1 0x40 MLOAD PUSH2 0x41A SWAP3 SWAP2 SWAP1 PUSH2 0xFEB JUMP JUMPDEST PUSH1 0x40 MLOAD DUP1 SWAP2 SUB SWAP1 LOG3 POP POP POP POP POP POP JUMP JUMPDEST PUSH1 0x60 PUSH0 DUP1 PUSH0 DUP1 DUP6 PUSH1 0x40 MLOAD PUSH2 0x43E SWAP2 SWAP1 PUSH2 0xBA5 JUMP JUMPDEST SWAP1 DUP2 MSTORE PUSH1 0x20 ADD PUSH1 0x40 MLOAD DUP1 SWAP2 SUB SWAP1 KECCAK256 PUSH1 0x40 MLOAD DUP1 PUSH1 0x60 ADD PUSH1 0x40 MSTORE SWAP1 DUP2 PUSH0 DUP3 ADD DUP1 SLOAD PUSH2 0x466 SWAP1 PUSH2 0xD46 JUMP JUMPDEST DUP1 PUSH1 0x1F ADD PUSH1 0x20 DUP1 SWAP2 DIV MUL PUSH1 0x20 ADD PUSH1 0x40 MLOAD SWAP1 DUP2 ADD PUSH1 0x40 MSTORE DUP1 SWAP3 SWAP2 SWAP1 DUP2 DUP2 MSTORE PUSH1 0x20 ADD DUP3 DUP1 SLOAD PUSH2 0x492 SWAP1 PUSH2 0xD46 JUMP JUMPDEST DUP1 ISZERO PUSH2 0x4DD JUMPI DUP1 PUSH1 0x1F LT PUSH2 0x4B4 JUMPI PUSH2 0x100 DUP1 DUP4 SLOAD DIV MUL DUP4 MSTORE SWAP2 PUSH1 0x20 ADD SWAP2 PUSH2 0x4DD JUMP JUMPDEST DUP3 ADD SWAP2 SWAP1 PUSH0 MSTORE PUSH1 0x20 PUSH0 KECCAK256 SWAP1 JUMPDEST DUP2 SLOAD DUP2 MSTORE SWAP1 PUSH1 0x1 ADD SWAP1 PUSH1 0x20 ADD DUP1 DUP4 GT PUSH2 0x4C0 JUMPI DUP3 SWAP1 SUB PUSH1 0x1F AND DUP3 ADD SWAP2 JUMPDEST POP POP POP POP POP DUP2 MSTORE PUSH1 0x20 ADD PUSH1 0x1 DUP3 ADD PUSH0 SWAP1 SLOAD SWAP1 PUSH2 0x100 EXP SWAP1 DIV PUSH20 0xFFFFFFFFFFFFFFFFFFFFFFFFFFFFFFFFFFFFFFFF AND PUSH20 0xFFFFFFFFFFFFFFFFFFFFFFFFFFFFFFFFFFFFFFFF AND PUSH20 0xFFFFFFFFFFFFFFFFFFFFFFFFFFFFFFFFFFFFFFFF AND DUP2 MSTORE PUSH1 0x20 ADD PUSH1 0x2 DUP3 ADD SLOAD DUP2 MSTORE POP POP SWAP1 POP PUSH0 PUSH20 0xFFFFFFFFFFFFFFFFFFFFFFFFFFFFFFFFFFFFFFFF AND DUP2 PUSH1 0x20 ADD MLOAD PUSH20 0xFFFFFFFFFFFFFFFFFFFFFFFFFFFFFFFFFFFFFFFF AND SUB PUSH2 0x5B9 JUMPI PUSH1 0x40 MLOAD PUSH32 0x8C379A000000000000000000000000000000000000000000000000000000000 DUP2 MSTORE PUSH1 0x4 ADD PUSH2 0x5B0 SWAP1 PUSH2 0x1063 JUMP JUMPDEST PUSH1 0x40 MLOAD DUP1 SWAP2 SUB SWAP1 REVERT JUMPDEST DUP1 PUSH0 ADD MLOAD DUP2 PUSH1 0x20 ADD MLOAD DUP3 PUSH1 0x40 ADD MLOAD SWAP4 POP SWAP4 POP SWAP4 POP POP SWAP2 SWAP4 SWAP1 SWAP3 POP JUMP JUMPDEST PUSH0 DUP1 PUSH20 0xFFFFFFFFFFFFFFFFFFFFFFFFFFFFFFFFFFFFFFFF AND PUSH0 DUP4 PUSH1 0x40 MLOAD PUSH2 0x5FC SWAP2 SWAP1 PUSH2 0xBA5 JUMP JUMPDEST SWAP1 DUP2 MSTORE PUSH1 0x20 ADD PUSH1 0x40 MLOAD DUP1 SWAP2 SUB SWAP1 KECCAK256 PUSH1 0x1 ADD PUSH0 SWAP1 SLOAD SWAP1 PUSH2 0x100 EXP SWAP1 DIV PUSH20 0xFFFFFFFFFFFFFFFFFFFFFFFFFFFFFFFFFFFFFFFF AND PUSH20 0xFFFFFFFFFFFFFFFFFFFFFFFFFFFFFFFFFFFFFFFF AND EQ ISZERO SWAP1 POP SWAP2 SWAP1 POP JUMP JUMPDEST PUSH0 DUP2 DUP1 MLOAD PUSH1 0x20 DUP2 ADD DUP3 ADD DUP1 MLOAD DUP5 DUP3 MSTORE PUSH1 0x20 DUP4 ADD PUSH1 0x20 DUP6 ADD KECCAK256 DUP2 DUP4 MSTORE DUP1 SWAP6 POP POP POP POP POP POP PUSH0 SWAP2 POP SWAP1 POP DUP1 PUSH0 ADD DUP1 SLOAD PUSH2 0x682 SWAP1 PUSH2 0xD46 JUMP JUMPDEST DUP1 PUSH1 0x1F ADD PUSH1 0x20 DUP1 SWAP2 DIV MUL PUSH1 0x20 ADD PUSH1 0x40 MLOAD SWAP1 DUP2 ADD PUSH1 0x40 MSTORE DUP1 SWAP3 SWAP2 SWAP1 DUP2 DUP2 MSTORE PUSH1 0x20 ADD DUP3 DUP1 SLOAD PUSH2 0x6AE SWAP1 PUSH2 0xD46 JUMP JUMPDEST DUP1 ISZERO PUSH2 0x6F9 JUMPI DUP1 PUSH1 0x1F LT PUSH2 0x6D0 JUMPI PUSH2 0x100 DUP1 DUP4 SLOAD DIV MUL DUP4 MSTORE SWAP2 PUSH1 0x20 ADD SWAP2 PUSH2 0x6F9 JUMP JUMPDEST DUP3 ADD SWAP2 SWAP1 PUSH0 MSTORE PUSH1 0x20 PUSH0 KECCAK256 SWAP1 JUMPDEST DUP2 SLOAD DUP2 MSTORE SWAP1 PUSH1 0x1 ADD SWAP1 PUSH1 0x20 ADD DUP1 DUP4 GT PUSH2 0x6DC JUMPI DUP3 SWAP1 SUB PUSH1 0x1F AND DUP3 ADD SWAP2 JUMPDEST POP POP POP POP POP SWAP1 DUP1 PUSH1 0x1 ADD PUSH0 SWAP1 SLOAD SWAP1 PUSH2 0x100 EXP SWAP1 DIV PUSH20 0xFFFFFFFFFFFFFFFFFFFFFFFFFFFFFFFFFFFFFFFF AND SWAP1 DUP1 PUSH1 0x2 ADD SLOAD SWAP1 POP DUP4 JUMP JUMPDEST PUSH0 PUSH1 0x40 MLOAD SWAP1 POP SWAP1 JUMP JUMPDEST PUSH0 DUP1 REVERT JUMPDEST PUSH0 DUP1 REVERT JUMPDEST PUSH0 PUSH20 0xFFFFFFFFFFFFFFFFFFFFFFFFFFFFFFFFFFFFFFFF DUP3 AND SWAP1 POP SWAP2 SWAP1 POP JUMP JUMPDEST PUSH0 PUSH2 0x768 DUP3 PUSH2 0x73F JUMP JUMPDEST SWAP1 POP SWAP2 SWAP1 POP JUMP JUMPDEST PUSH2 0x778 DUP2 PUSH2 0x75E JUMP JUMPDEST DUP2 EQ PUSH2 0x782 JUMPI PUSH0 DUP1 REVERT JUMPDEST POP JUMP JUMPDEST PUSH0 DUP2 CALLDATALOAD SWAP1 POP PUSH2 0x793 DUP2 PUSH2 0x76F JUMP JUMPDEST SWAP3 SWAP2 POP POP JUMP JUMPDEST PUSH0 PUSH1 0x20 DUP3 DUP5 SUB SLT ISZERO PUSH2 0x7AE JUMPI PUSH2 0x7AD PUSH2 0x737 JUMP JUMPDEST JUMPDEST PUSH0 PUSH2 0x7BB DUP5 DUP3 DUP6 ADD PUSH2 0x785 JUMP JUMPDEST SWAP2 POP POP SWAP3 SWAP2 POP POP JUMP JUMPDEST PUSH0 DUP2 ISZERO ISZERO SWAP1 POP SWAP2 SWAP1 POP JUMP JUMPDEST PUSH2 0x7D8 DUP2 PUSH2 0x7C4 JUMP JUMPDEST DUP3 MSTORE POP POP JUMP JUMPDEST PUSH0 PUSH1 0x20 DUP3 ADD SWAP1 POP PUSH2 0x7F1 PUSH0 DUP4 ADD DUP5 PUSH2 0x7CF JUMP JUMPDEST SWAP3 SWAP2 POP POP JUMP JUMPDEST PUSH0 DUP1 REVERT JUMPDEST PUSH0 DUP1 REVERT JUMPDEST PUSH0 PUSH1 0x1F NOT PUSH1 0x1F DUP4 ADD AND SWAP1 POP SWAP2 SWAP1 POP JUMP JUMPDEST PUSH32 0x4E487B7100000000000000000000000000000000000000000000000000000000 PUSH0 MSTORE PUSH1 0x41 PUSH1 0x4 MSTORE PUSH1 0x24 PUSH0 REVERT JUMPDEST PUSH2 0x845 DUP3 PUSH2 0x7FF JUMP JUMPDEST DUP2 ADD DUP2 DUP2 LT PUSH8 0xFFFFFFFFFFFFFFFF DUP3 GT OR ISZERO PUSH2 0x864 JUMPI PUSH2 0x863 PUSH2 0x80F JUMP JUMPDEST JUMPDEST DUP1 PUSH1 0x40 MSTORE POP POP POP JUMP JUMPDEST PUSH0 PUSH2 0x876 PUSH2 0x72E JUMP JUMPDEST SWAP1 POP PUSH2 0x882 DUP3 DUP3 PUSH2 0x83C JUMP JUMPDEST SWAP2 SWAP1 POP JUMP JUMPDEST PUSH0 PUSH8 0xFFFFFFFFFFFFFFFF DUP3 GT ISZERO PUSH2 0x8A1 JUMPI PUSH2 0x8A0 PUSH2 0x80F JUMP JUMPDEST JUMPDEST PUSH2 0x8AA DUP3 PUSH2 0x7FF JUMP JUMPDEST SWAP1 POP PUSH1 0x20 DUP2 ADD SWAP1 POP SWAP2 SWAP1 POP JUMP JUMPDEST DUP3 DUP2 DUP4 CALLDATACOPY PUSH0 DUP4 DUP4 ADD MSTORE POP POP POP JUMP JUMPDEST PUSH0 PUSH2 0x8D7 PUSH2 0x8D2 DUP5 PUSH2 0x887 JUMP JUMPDEST PUSH2 0x86D JUMP JUMPDEST SWAP1 POP DUP3 DUP2 MSTORE PUSH1 0x20 DUP2 ADD DUP5 DUP5 DUP5 ADD GT ISZERO PUSH2 0x8F3 JUMPI PUSH2 0x8F2 PUSH2 0x7FB JUMP JUMPDEST JUMPDEST PUSH2 0x8FE DUP5 DUP3 DUP6 PUSH2 0x8B7 JUMP JUMPDEST POP SWAP4 SWAP3 POP POP POP JUMP JUMPDEST PUSH0 DUP3 PUSH1 0x1F DUP4 ADD SLT PUSH2 0x91A JUMPI PUSH2 0x919 PUSH2 0x7F7 JUMP JUMPDEST JUMPDEST DUP2 CALLDATALOAD PUSH2 0x92A DUP5 DUP3 PUSH1 0x20 DUP7 ADD PUSH2 0x8C5 JUMP JUMPDEST SWAP2 POP POP SWAP3 SWAP2 POP POP JUMP JUMPDEST PUSH0 DUP2 SWAP1 POP SWAP2 SWAP1 POP JUMP JUMPDEST PUSH2 0x945 DUP2 PUSH2 0x933 JUMP JUMPDEST DUP2 EQ PUSH2 0x94F JUMPI PUSH0 DUP1 REVERT JUMPDEST POP JUMP JUMPDEST PUSH0 DUP2 CALLDATALOAD SWAP1 POP PUSH2 0x960 DUP2 PUSH2 0x93C JUMP JUMPDEST SWAP3 SWAP2 POP POP JUMP JUMPDEST PUSH0 DUP1 PUSH0 DUP1 PUSH1 0x80 DUP6 DUP8 SUB SLT ISZERO PUSH2 0x97E JUMPI PUSH2 0x97D PUSH2 0x737 JUMP JUMPDEST JUMPDEST PUSH0 DUP6 ADD CALLDATALOAD PUSH8 0xFFFFFFFFFFFFFFFF DUP2 GT ISZERO PUSH2 0x99B JUMPI PUSH2 0x99A PUSH2 0x73B JUMP JUMPDEST JUMPDEST PUSH2 0x9A7 DUP8 DUP3 DUP9 ADD PUSH2 0x906 JUMP JUMPDEST SWAP5 POP POP PUSH1 0x20 DUP6 ADD CALLDATALOAD PUSH8 0xFFFFFFFFFFFFFFFF DUP2 GT ISZERO PUSH2 0x9C8 JUMPI PUSH2 0x9C7 PUSH2 0x73B JUMP JUMPDEST JUMPDEST PUSH2 0x9D4 DUP8 DUP3 DUP9 ADD PUSH2 0x906 JUMP JUMPDEST SWAP4 POP POP PUSH1 0x40 PUSH2 0x9E5 DUP8 DUP3 DUP9 ADD PUSH2 0x785 JUMP JUMPDEST SWAP3 POP POP PUSH1 0x60 PUSH2 0x9F6 DUP8 DUP3 DUP9 ADD PUSH2 0x952 JUMP JUMPDEST SWAP2 POP POP SWAP3 SWAP6 SWAP2 SWAP5 POP SWAP3 POP JUMP JUMPDEST PUSH0 PUSH1 0x20 DUP3 DUP5 SUB SLT ISZERO PUSH2 0xA17 JUMPI PUSH2 0xA16 PUSH2 0x737 JUMP JUMPDEST JUMPDEST PUSH0 DUP3 ADD CALLDATALOAD PUSH8 0xFFFFFFFFFFFFFFFF DUP2 GT ISZERO PUSH2 0xA34 JUMPI PUSH2 0xA33 PUSH2 0x73B JUMP JUMPDEST JUMPDEST PUSH2 0xA40 DUP5 DUP3 DUP6 ADD PUSH2 0x906 JUMP JUMPDEST SWAP2 POP POP SWAP3 SWAP2 POP POP JUMP JUMPDEST PUSH0 DUP2 MLOAD SWAP1 POP SWAP2 SWAP1 POP JUMP JUMPDEST PUSH0 DUP3 DUP3 MSTORE PUSH1 0x20 DUP3 ADD SWAP1 POP SWAP3 SWAP2 POP POP JUMP JUMPDEST DUP3 DUP2 DUP4 MCOPY PUSH0 DUP4 DUP4 ADD MSTORE POP POP POP JUMP JUMPDEST PUSH0 PUSH2 0xA7B DUP3 PUSH2 0xA49 JUMP JUMPDEST PUSH2 0xA85 DUP2 DUP6 PUSH2 0xA53 JUMP JUMPDEST SWAP4 POP PUSH2 0xA95 DUP2 DUP6 PUSH1 0x20 DUP7 ADD PUSH2 0xA63 JUMP JUMPDEST PUSH2 0xA9E DUP2 PUSH2 0x7FF JUMP JUMPDEST DUP5 ADD SWAP2 POP POP SWAP3 SWAP2 POP POP JUMP JUMPDEST PUSH2 0xAB2 DUP2 PUSH2 0x75E JUMP JUMPDEST DUP3 MSTORE POP POP JUMP JUMPDEST PUSH2 0xAC1 DUP2 PUSH2 0x933 JUMP JUMPDEST DUP3 MSTORE POP POP JUMP JUMPDEST PUSH0 PUSH1 0x60 DUP3 ADD SWAP1 POP DUP2 DUP2 SUB PUSH0 DUP4 ADD MSTORE PUSH2 0xADF DUP2 DUP7 PUSH2 0xA71 JUMP JUMPDEST SWAP1 POP PUSH2 0xAEE PUSH1 0x20 DUP4 ADD DUP6 PUSH2 0xAA9 JUMP JUMPDEST PUSH2 0xAFB PUSH1 0x40 DUP4 ADD DUP5 PUSH2 0xAB8 JUMP JUMPDEST SWAP5 SWAP4 POP POP POP POP JUMP JUMPDEST PUSH32 0x496E76616C696420636F6E747261637420616464726573730000000000000000 PUSH0 DUP3 ADD MSTORE POP JUMP JUMPDEST PUSH0 PUSH2 0xB37 PUSH1 0x18 DUP4 PUSH2 0xA53 JUMP JUMPDEST SWAP2 POP PUSH2 0xB42 DUP3 PUSH2 0xB03 JUMP JUMPDEST PUSH1 0x20 DUP3 ADD SWAP1 POP SWAP2 SWAP1 POP JUMP JUMPDEST PUSH0 PUSH1 0x20 DUP3 ADD SWAP1 POP DUP2 DUP2 SUB PUSH0 DUP4 ADD MSTORE PUSH2 0xB64 DUP2 PUSH2 0xB2B JUMP JUMPDEST SWAP1 POP SWAP2 SWAP1 POP JUMP JUMPDEST PUSH0 DUP2 SWAP1 POP SWAP3 SWAP2 POP POP JUMP JUMPDEST PUSH0 PUSH2 0xB7F DUP3 PUSH2 0xA49 JUMP JUMPDEST PUSH2 0xB89 DUP2 DUP6 PUSH2 0xB6B JUMP JUMPDEST SWAP4 POP PUSH2 0xB99 DUP2 DUP6 PUSH1 0x20 DUP7 ADD PUSH2 0xA63 JUMP JUMPDEST DUP1 DUP5 ADD SWAP2 POP POP SWAP3 SWAP2 POP POP JUMP JUMPDEST PUSH0 PUSH2 0xBB0 DUP3 DUP5 PUSH2 0xB75 JUMP JUMPDEST SWAP2 POP DUP2 SWAP1 POP SWAP3 SWAP2 POP POP JUMP JUMPDEST PUSH32 0x494420616C726561647920757365640000000000000000000000000000000000 PUSH0 DUP3 ADD MSTORE POP JUMP JUMPDEST PUSH0 PUSH2 0xBEF PUSH1 0xF DUP4 PUSH2 0xA53 JUMP JUMPDEST SWAP2 POP PUSH2 0xBFA DUP3 PUSH2 0xBBB JUMP JUMPDEST PUSH1 0x20 DUP3 ADD SWAP1 POP SWAP2 SWAP1 POP JUMP JUMPDEST PUSH0 PUSH1 0x20 DUP3 ADD SWAP1 POP DUP2 DUP2 SUB PUSH0 DUP4 ADD MSTORE PUSH2 0xC1C DUP2 PUSH2 0xBE3 JUMP JUMPDEST SWAP1 POP SWAP2 SWAP1 POP JUMP JUMPDEST PUSH32 0x41646472657373206973206E6F742061206465706C6F79656420636F6E747261 PUSH0 DUP3 ADD MSTORE PUSH32 0x6374000000000000000000000000000000000000000000000000000000000000 PUSH1 0x20 DUP3 ADD MSTORE POP JUMP JUMPDEST PUSH0 PUSH2 0xC7D PUSH1 0x22 DUP4 PUSH2 0xA53 JUMP JUMPDEST SWAP2 POP PUSH2 0xC88 DUP3 PUSH2 0xC23 JUMP JUMPDEST PUSH1 0x40 DUP3 ADD SWAP1 POP SWAP2 SWAP1 POP JUMP JUMPDEST PUSH0 PUSH1 0x20 DUP3 ADD SWAP1 POP DUP2 DUP2 SUB PUSH0 DUP4 ADD MSTORE PUSH2 0xCAA DUP2 PUSH2 0xC71 JUMP JUMPDEST SWAP1 POP SWAP2 SWAP1 POP JUMP JUMPDEST PUSH32 0x496E76616C69642066696C6568617368206C656E677468000000000000000000 PUSH0 DUP3 ADD MSTORE POP JUMP JUMPDEST PUSH0 PUSH2 0xCE5 PUSH1 0x17 DUP4 PUSH2 0xA53 JUMP JUMPDEST SWAP2 POP PUSH2 0xCF0 DUP3 PUSH2 0xCB1 JUMP JUMPDEST PUSH1 0x20 DUP3 ADD SWAP1 POP SWAP2 SWAP1 POP JUMP JUMPDEST PUSH0 PUSH1 0x20 DUP3 ADD SWAP1 POP DUP2 DUP2 SUB PUSH0 DUP4 ADD MSTORE PUSH2 0xD12 DUP2 PUSH2 0xCD9 JUMP JUMPDEST SWAP1 POP SWAP2 SWAP1 POP JUMP JUMPDEST PUSH32 0x4E487B7100000000000000000000000000000000000000000000000000000000 PUSH0 MSTORE PUSH1 0x22 PUSH1 0x4 MSTORE PUSH1 0x24 PUSH0 REVERT JUMPDEST PUSH0 PUSH1 0x2 DUP3 DIV SWAP1 POP PUSH1 0x1 DUP3 AND DUP1 PUSH2 0xD5D JUMPI PUSH1 0x7F DUP3 AND SWAP2 POP JUMPDEST PUSH1 0x20 DUP3 LT DUP2 SUB PUSH2 0xD70 JUMPI PUSH2 0xD6F PUSH2 0xD19 JUMP JUMPDEST JUMPDEST POP SWAP2 SWAP1 POP JUMP JUMPDEST PUSH0 DUP2 SWAP1 POP DUP2 PUSH0 MSTORE PUSH1 0x20 PUSH0 KECCAK256 SWAP1 POP SWAP2 SWAP1 POP JUMP JUMPDEST PUSH0 PUSH1 0x20 PUSH1 0x1F DUP4 ADD DIV SWAP1 POP SWAP2 SWAP1 POP JUMP JUMPDEST PUSH0 DUP3 DUP3 SHL SWAP1 POP SWAP3 SWAP2 POP POP JUMP JUMPDEST PUSH0 PUSH1 0x8 DUP4 MUL PUSH2 0xDD2 PUSH32 0xFFFFFFFFFFFFFFFFFFFFFFFFFFFFFFFFFFFFFFFFFFFFFFFFFFFFFFFFFFFFFFFF DUP3 PUSH2 0xD97 JUMP JUMPDEST PUSH2 0xDDC DUP7 DUP4 PUSH2 0xD97 JUMP JUMPDEST SWAP6 POP DUP1 NOT DUP5 AND SWAP4 POP DUP1 DUP7 AND DUP5 OR SWAP3 POP POP POP SWAP4 SWAP3 POP POP POP JUMP JUMPDEST PUSH0 DUP2 SWAP1 POP SWAP2 SWAP1 POP JUMP JUMPDEST PUSH0 DUP2 SWAP1 POP SWAP2 SWAP1 POP JUMP JUMPDEST PUSH0 PUSH2 0xE20 PUSH2 0xE1B PUSH2 0xE16 DUP5 PUSH2 0xDF4 JUMP JUMPDEST PUSH2 0xDFD JUMP JUMPDEST PUSH2 0xDF4 JUMP JUMPDEST SWAP1 POP SWAP2 SWAP1 POP JUMP JUMPDEST PUSH0 DUP2 SWAP1 POP SWAP2 SWAP1 POP JUMP JUMPDEST PUSH2 0xE39 DUP4 PUSH2 0xE06 JUMP JUMPDEST PUSH2 0xE4D PUSH2 0xE45 DUP3 PUSH2 0xE27 JUMP JUMPDEST DUP5 DUP5 SLOAD PUSH2 0xDA3 JUMP JUMPDEST DUP3 SSTORE POP POP POP POP JUMP JUMPDEST PUSH0 SWAP1 JUMP JUMPDEST PUSH2 0xE61 PUSH2 0xE55 JUMP JUMPDEST PUSH2 0xE6C DUP2 DUP5 DUP5 PUSH2 0xE30 JUMP JUMPDEST POP POP POP JUMP JUMPDEST JUMPDEST DUP2 DUP2 LT ISZERO PUSH2 0xE8F JUMPI PUSH2 0xE84 PUSH0 DUP3 PUSH2 0xE59 JUMP JUMPDEST PUSH1 0x1 DUP2 ADD SWAP1 POP PUSH2 0xE72 JUMP JUMPDEST POP POP JUMP JUMPDEST PUSH1 0x1F DUP3 GT ISZERO PUSH2 0xED4 JUMPI PUSH2 0xEA5 DUP2 PUSH2 0xD76 JUMP JUMPDEST PUSH2 0xEAE DUP5 PUSH2 0xD88 JUMP JUMPDEST DUP2 ADD PUSH1 0x20 DUP6 LT ISZERO PUSH2 0xEBD JUMPI DUP2 SWAP1 POP JUMPDEST PUSH2 0xED1 PUSH2 0xEC9 DUP6 PUSH2 0xD88 JUMP JUMPDEST DUP4 ADD DUP3 PUSH2 0xE71 JUMP JUMPDEST POP POP JUMPDEST POP POP POP JUMP JUMPDEST PUSH0 DUP3 DUP3 SHR SWAP1 POP SWAP3 SWAP2 POP POP JUMP JUMPDEST PUSH0 PUSH2 0xEF4 PUSH0 NOT DUP5 PUSH1 0x8 MUL PUSH2 0xED9 JUMP JUMPDEST NOT DUP1 DUP4 AND SWAP2 POP POP SWAP3 SWAP2 POP POP JUMP JUMPDEST PUSH0 PUSH2 0xF0C DUP4 DUP4 PUSH2 0xEE5 JUMP JUMPDEST SWAP2 POP DUP3 PUSH1 0x2 MUL DUP3 OR SWAP1 POP SWAP3 SWAP2 POP POP JUMP JUMPDEST PUSH2 0xF25 DUP3 PUSH2 0xA49 JUMP JUMPDEST PUSH8 0xFFFFFFFFFFFFFFFF DUP2 GT ISZERO PUSH2 0xF3E JUMPI PUSH2 0xF3D PUSH2 0x80F JUMP JUMPDEST JUMPDEST PUSH2 0xF48 DUP3 SLOAD PUSH2 0xD46 JUMP JUMPDEST PUSH2 0xF53 DUP3 DUP3 DUP6 PUSH2 0xE93 JUMP JUMPDEST PUSH0 PUSH1 0x20 SWAP1 POP PUSH1 0x1F DUP4 GT PUSH1 0x1 DUP2 EQ PUSH2 0xF84 JUMPI PUSH0 DUP5 ISZERO PUSH2 0xF72 JUMPI DUP3 DUP8 ADD MLOAD SWAP1 POP JUMPDEST PUSH2 0xF7C DUP6 DUP3 PUSH2 0xF01 JUMP JUMPDEST DUP7 SSTORE POP PUSH2 0xFE3 JUMP JUMPDEST PUSH1 0x1F NOT DUP5 AND PUSH2 0xF92 DUP7 PUSH2 0xD76 JUMP JUMPDEST PUSH0 JUMPDEST DUP3 DUP2 LT ISZERO PUSH2 0xFB9 JUMPI DUP5 DUP10 ADD MLOAD DUP3 SSTORE PUSH1 0x1 DUP3 ADD SWAP2 POP PUSH1 0x20 DUP6 ADD SWAP5 POP PUSH1 0x20 DUP2 ADD SWAP1 POP PUSH2 0xF94 JUMP JUMPDEST DUP7 DUP4 LT ISZERO PUSH2 0xFD6 JUMPI DUP5 DUP10 ADD MLOAD PUSH2 0xFD2 PUSH1 0x1F DUP10 AND DUP3 PUSH2 0xEE5 JUMP JUMPDEST DUP4 SSTORE POP JUMPDEST PUSH1 0x1 PUSH1 0x2 DUP9 MUL ADD DUP9 SSTORE POP POP POP JUMPDEST POP POP POP POP POP POP JUMP JUMPDEST PUSH0 PUSH1 0x40 DUP3 ADD SWAP1 POP DUP2 DUP2 SUB PUSH0 DUP4 ADD MSTORE PUSH2 0x1003 DUP2 DUP6 PUSH2 0xA71 JUMP JUMPDEST SWAP1 POP PUSH2 0x1012 PUSH1 0x20 DUP4 ADD DUP5 PUSH2 0xAB8 JUMP JUMPDEST SWAP4 SWAP3 POP POP POP JUMP JUMPDEST PUSH32 0x436F6E7472616374206E6F7420666F756E640000000000000000000000000000 PUSH0 DUP3 ADD MSTORE POP JUMP JUMPDEST PUSH0 PUSH2 0x104D PUSH1 0x12 DUP4 PUSH2 0xA53 JUMP JUMPDEST SWAP2 POP PUSH2 0x1058 DUP3 PUSH2 0x1019 JUMP JUMPDEST PUSH1 0x20 DUP3 ADD SWAP1 POP SWAP2 SWAP1 POP JUMP JUMPDEST PUSH0 PUSH1 0x20 DUP3 ADD SWAP1 POP DUP2 DUP2 SUB PUSH0 DUP4 ADD MSTORE PUSH2 0x107A DUP2 PUSH2 0x1041 JUMP JUMPDEST SWAP1 POP SWAP2 SWAP1 POP JUMP INVALID LOG2 PUSH5 0x6970667358 0x22 SLT KECCAK256 SAR BLOCKHASH 0xB0 ORIGIN 0x21 ORIGIN 0x23 BLOBBASEFEE 0xB5 PUSH23 0xCD77FBDCD9BBB3E231BF926FEA46B52E56B966EE19A764 PUSH20 0x6F6C634300081A00330000000000000000000000 "
				},
				"gasEstimates": {
					"creation": {
						"codeDepositCost": "855800",
						"executionCost": "888",
						"totalCost": "856688"
					},
					"external": {
						"getNFTInfo(string)": "infinite",
						"isContract(address)": "3243",
						"isContractRegistered(string)": "infinite",
						"nfts(string)": "infinite",
						"registerNFT(string,string,address,int256)": "infinite"
					}
				},
				"methodIdentifiers": {
					"getNFTInfo(string)": "252941cd",
					"isContract(address)": "16279055",
					"isContractRegistered(string)": "3896f226",
					"nfts(string)": "b66fb090",
					"registerNFT(string,string,address,int256)": "1fea226e"
				}
			},
			"storageLayout": {
				"storage": [
					{
						"astId": 13,
						"contract": "test.sol:NFTregistry",
						"label": "nfts",
						"offset": 0,
						"slot": "0",
						"type": "t_mapping(t_string_memory_ptr,t_struct(NFTInfo)8_storage)"
					}
				],
				"types": {
					"t_address": {
						"encoding": "inplace",
						"label": "address",
						"numberOfBytes": "20"
					},
					"t_int256": {
						"encoding": "inplace",
						"label": "int256",
						"numberOfBytes": "32"
					},
					"t_mapping(t_string_memory_ptr,t_struct(NFTInfo)8_storage)": {
						"encoding": "mapping",
						"key": "t_string_memory_ptr",
						"label": "mapping(string => struct NFTregistry.NFTInfo)",
						"numberOfBytes": "32",
						"value": "t_struct(NFTInfo)8_storage"
					},
					"t_string_memory_ptr": {
						"encoding": "bytes",
						"label": "string",
						"numberOfBytes": "32"
					},
					"t_string_storage": {
						"encoding": "bytes",
						"label": "string",
						"numberOfBytes": "32"
					},
					"t_struct(NFTInfo)8_storage": {
						"encoding": "inplace",
						"label": "struct NFTregistry.NFTInfo",
						"members": [
							{
								"astId": 3,
								"contract": "test.sol:NFTregistry",
								"label": "chainid",
								"offset": 0,
								"slot": "0",
								"type": "t_string_storage"
							},
							{
								"astId": 5,
								"contract": "test.sol:NFTregistry",
								"label": "contractaddress",
								"offset": 0,
								"slot": "1",
								"type": "t_address"
							},
							{
								"astId": 7,
								"contract": "test.sol:NFTregistry",
								"label": "tokenid",
								"offset": 0,
								"slot": "2",
								"type": "t_int256"
							}
						],
						"numberOfBytes": "96"
					}
				}
			},
			"userdoc": {
				"kind": "user",
				"methods": {},
				"version": 1
			}
		}
	}
}