{
	"test.sol": {
		"NFTregistry": {
			"abi": [
				{
					"anonymous": false,
					"inputs": [
						{
							"indexed": true,
							"internalType": "string",
							"name": "filehash",
							"type": "string"
						},
						{
							"indexed": false,
							"internalType": "string",
							"name": "chainid",
							"type": "string"
						},
						{
							"indexed": true,
							"internalType": "address",
							"name": "contractAddress",
							"type": "address"
						},
						{
							"indexed": false,
							"internalType": "int256",
							"name": "tokenid",
							"type": "int256"
						}
					],
					"name": "NFTRegistered",
					"type": "event"
				},
				{
					"inputs": [
						{
							"internalType": "string",
							"name": "filehash",
							"type": "string"
						}
					],
					"name": "getNFTInfo",
					"outputs": [
						{
							"internalType": "string",
							"name": "",
							"type": "string"
						},
						{
							"internalType": "address",
							"name": "",
							"type": "address"
						},
						{
							"internalType": "int256",
							"name": "",
							"type": "int256"
						}
					],
					"stateMutability": "view",
					"type": "function"
				},
				{
					"inputs": [
						{
							"internalType": "address",
							"name": "_addr",
							"type": "address"
						}
					],
					"name": "isContract",
					"outputs": [
						{
							"internalType": "bool",
							"name": "",
							"type": "bool"
						}
					],
					"stateMutability": "view",
					"type": "function"
				},
				{
					"inputs": [
						{
							"internalType": "string",
							"name": "filehash",
							"type": "string"
						}
					],
					"name": "isContractRegistered",
					"outputs": [
						{
							"internalType": "bool",
							"name": "",
							"type": "bool"
						}
					],
					"stateMutability": "view",
					"type": "function"
				},
				{
					"inputs": [
						{
							"internalType": "string",
							"name": "",
							"type": "string"
						}
					],
					"name": "nfts",
					"outputs": [
						{
							"internalType": "string",
							"name": "chainid",
							"type": "string"
						},
						{
							"internalType": "address",
							"name": "contractaddress",
							"type": "address"
						},
						{
							"internalType": "int256",
							"name": "tokenid",
							"type": "int256"
						}
					],
					"stateMutability": "view",
					"type": "function"
				},
				{
					"inputs": [
						{
							"internalType": "string",
							"name": "filehash",
							"type": "string"
						},
						{
							"internalType": "string",
							"name": "chain",
							"type": "string"
						},
						{
							"internalType": "address",
							"name": "contractAddress",
							"type": "address"
						},
						{
							"internalType": "int256",
							"name": "tokenid",
							"type": "int256"
						}
					],
					"name": "registerNFT",
					"outputs": [],
					"stateMutability": "nonpayable",
					"type": "function"
				}
			],
			"devdoc": {
				"kind": "dev",
				"methods": {},
				"version": 1
			},
			"evm": {
				"assembly": "    /* \"test.sol\":60:1607  contract NFTregistry{... */\n  mstore(0x40, 0x80)\n  callvalue\n  dup1\n  iszero\n  tag_1\n  jumpi\n  0x00\n  dup1\n  revert\ntag_1:\n  pop\n  dataSize(sub_0)\n  dup1\n  dataOffset(sub_0)\n  0x00\n  codecopy\n  0x00\n  return\nstop\n\nsub_0: assembly {\n        /* \"test.sol\":60:1607  contract NFTregistry{... */\n      mstore(0x40, 0x80)\n      callvalue\n      dup1\n      iszero\n      tag_1\n      jumpi\n      0x00\n      dup1\n      revert\n    tag_1:\n      pop\n      jumpi(tag_2, lt(calldatasize, 0x04))\n      shr(0xe0, calldataload(0x00))\n      dup1\n      0x16279055\n      eq\n      tag_3\n      jumpi\n      dup1\n      0x1fea226e\n      eq\n      tag_4\n      jumpi\n      dup1\n      0x252941cd\n      eq\n      tag_5\n      jumpi\n      dup1\n      0x3896f226\n      eq\n      tag_6\n      jumpi\n      dup1\n      0xb66fb090\n      eq\n      tag_7\n      jumpi\n    tag_2:\n      0x00\n      dup1\n      revert\n        /* \"test.sol\":1334:1597  function isContract(address _addr) public view returns (bool) {... */\n    tag_3:\n      tag_8\n      0x04\n      dup1\n      calldatasize\n      sub\n      dup2\n      add\n      swap1\n      tag_9\n      swap2\n      swap1\n      tag_10\n      jump\t// in\n    tag_9:\n      tag_11\n      jump\t// in\n    tag_8:\n      mload(0x40)\n      tag_12\n      swap2\n      swap1\n      tag_13\n      jump\t// in\n    tag_12:\n      mload(0x40)\n      dup1\n      swap2\n      sub\n      swap1\n      return\n        /* \"test.sol\":362:865  function registerNFT(string memory filehash,  string memory chain, address contractAddress, int tokenid) public {... */\n    tag_4:\n      tag_14\n      0x04\n      dup1\n      calldatasize\n      sub\n      dup2\n      add\n      swap1\n      tag_15\n      swap2\n      swap1\n      tag_16\n      jump\t// in\n    tag_15:\n      tag_17\n      jump\t// in\n    tag_14:\n      stop\n        /* \"test.sol\":873:1166  function getNFTInfo(string memory filehash) public view returns (string memory, address, int) {... */\n    tag_5:\n      tag_18\n      0x04\n      dup1\n      calldatasize\n      sub\n      dup2\n      add\n      swap1\n      tag_19\n      swap2\n      swap1\n      tag_20\n      jump\t// in\n    tag_19:\n      tag_21\n      jump\t// in\n    tag_18:\n      mload(0x40)\n      tag_22\n      swap4\n      swap3\n      swap2\n      swap1\n      tag_23\n      jump\t// in\n    tag_22:\n      mload(0x40)\n      dup1\n      swap2\n      sub\n      swap1\n      return\n        /* \"test.sol\":1175:1326  function isContractRegistered(string memory filehash) public view returns (bool) {... */\n    tag_6:\n      tag_24\n      0x04\n      dup1\n      calldatasize\n      sub\n      dup2\n      add\n      swap1\n      tag_25\n      swap2\n      swap1\n      tag_20\n      jump\t// in\n    tag_25:\n      tag_26\n      jump\t// in\n    tag_24:\n      mload(0x40)\n      tag_27\n      swap2\n      swap1\n      tag_13\n      jump\t// in\n    tag_27:\n      mload(0x40)\n      dup1\n      swap2\n      sub\n      swap1\n      return\n        /* \"test.sol\":198:236  mapping(string => NFTInfo) public nfts */\n    tag_7:\n      tag_28\n      0x04\n      dup1\n      calldatasize\n      sub\n      dup2\n      add\n      swap1\n      tag_29\n      swap2\n      swap1\n      tag_20\n      jump\t// in\n    tag_29:\n      tag_30\n      jump\t// in\n    tag_28:\n      mload(0x40)\n      tag_31\n      swap4\n      swap3\n      swap2\n      swap1\n      tag_23\n      jump\t// in\n    tag_31:\n      mload(0x40)\n      dup1\n      swap2\n      sub\n      swap1\n      return\n        /* \"test.sol\":1334:1597  function isContract(address _addr) public view returns (bool) {... */\n    tag_11:\n        /* \"test.sol\":1390:1394  bool */\n      0x00\n        /* \"test.sol\":1407:1419  uint256 size */\n      dup1\n        /* \"test.sol\":1547:1552  _addr */\n      dup3\n        /* \"test.sol\":1535:1553  extcodesize(_addr) */\n      extcodesize\n        /* \"test.sol\":1527:1553  size := extcodesize(_addr) */\n      swap1\n      pop\n        /* \"test.sol\":1588:1589  0 */\n      0x00\n        /* \"test.sol\":1581:1585  size */\n      dup2\n        /* \"test.sol\":1581:1589  size > 0 */\n      gt\n        /* \"test.sol\":1574:1589  return size > 0 */\n      swap2\n      pop\n      pop\n        /* \"test.sol\":1334:1597  function isContract(address _addr) public view returns (bool) {... */\n      swap2\n      swap1\n      pop\n      jump\t// out\n        /* \"test.sol\":362:865  function registerNFT(string memory filehash,  string memory chain, address contractAddress, int tokenid) public {... */\n    tag_17:\n        /* \"test.sol\":520:521  0 */\n      0x00\n        /* \"test.sol\":493:522  contractAddress != address(0) */\n      0xffffffffffffffffffffffffffffffffffffffff\n      and\n        /* \"test.sol\":493:508  contractAddress */\n      dup3\n        /* \"test.sol\":493:522  contractAddress != address(0) */\n      0xffffffffffffffffffffffffffffffffffffffff\n      and\n      sub\n        /* \"test.sol\":485:551  require(contractAddress != address(0), \"Invalid contract address\") */\n      tag_34\n      jumpi\n      mload(0x40)\n      0x08c379a000000000000000000000000000000000000000000000000000000000\n      dup2\n      mstore\n      0x04\n      add\n      tag_35\n      swap1\n      tag_36\n      jump\t// in\n    tag_35:\n      mload(0x40)\n      dup1\n      swap2\n      sub\n      swap1\n      revert\n    tag_34:\n        /* \"test.sol\":612:613  0 */\n      0x00\n        /* \"test.sol\":570:614  nfts[filehash].contractaddress == address(0) */\n      0xffffffffffffffffffffffffffffffffffffffff\n      and\n        /* \"test.sol\":570:574  nfts */\n      0x00\n        /* \"test.sol\":575:583  filehash */\n      dup6\n        /* \"test.sol\":570:584  nfts[filehash] */\n      mload(0x40)\n      tag_37\n      swap2\n      swap1\n      tag_38\n      jump\t// in\n    tag_37:\n      swap1\n      dup2\n      mstore\n      0x20\n      add\n      mload(0x40)\n      dup1\n      swap2\n      sub\n      swap1\n      keccak256\n        /* \"test.sol\":570:600  nfts[filehash].contractaddress */\n      0x01\n      add\n      0x00\n      swap1\n      sload\n      swap1\n      0x0100\n      exp\n      swap1\n      div\n      0xffffffffffffffffffffffffffffffffffffffff\n      and\n        /* \"test.sol\":570:614  nfts[filehash].contractaddress == address(0) */\n      0xffffffffffffffffffffffffffffffffffffffff\n      and\n      eq\n        /* \"test.sol\":562:634  require(nfts[filehash].contractaddress == address(0), \"ID already used\") */\n      tag_39\n      jumpi\n      mload(0x40)\n      0x08c379a000000000000000000000000000000000000000000000000000000000\n      dup2\n      mstore\n      0x04\n      add\n      tag_40\n      swap1\n      tag_41\n      jump\t// in\n    tag_40:\n      mload(0x40)\n      dup1\n      swap2\n      sub\n      swap1\n      revert\n    tag_39:\n        /* \"test.sol\":653:680  isContract(contractAddress) */\n      tag_42\n        /* \"test.sol\":664:679  contractAddress */\n      dup3\n        /* \"test.sol\":653:663  isContract */\n      tag_11\n        /* \"test.sol\":653:680  isContract(contractAddress) */\n      jump\t// in\n    tag_42:\n        /* \"test.sol\":645:719  require(isContract(contractAddress), \"Address is not a deployed contract\") */\n      tag_43\n      jumpi\n      mload(0x40)\n      0x08c379a000000000000000000000000000000000000000000000000000000000\n      dup2\n      mstore\n      0x04\n      add\n      tag_44\n      swap1\n      tag_45\n      jump\t// in\n    tag_44:\n      mload(0x40)\n      dup1\n      swap2\n      sub\n      swap1\n      revert\n    tag_43:\n        /* \"test.sol\":747:785  NFTInfo(chain,contractAddress,tokenid) */\n      mload(0x40)\n      dup1\n      0x60\n      add\n      0x40\n      mstore\n      dup1\n        /* \"test.sol\":755:760  chain */\n      dup5\n        /* \"test.sol\":747:785  NFTInfo(chain,contractAddress,tokenid) */\n      dup2\n      mstore\n      0x20\n      add\n        /* \"test.sol\":761:776  contractAddress */\n      dup4\n        /* \"test.sol\":747:785  NFTInfo(chain,contractAddress,tokenid) */\n      0xffffffffffffffffffffffffffffffffffffffff\n      and\n      dup2\n      mstore\n      0x20\n      add\n        /* \"test.sol\":777:784  tokenid */\n      dup3\n        /* \"test.sol\":747:785  NFTInfo(chain,contractAddress,tokenid) */\n      dup2\n      mstore\n      pop\n        /* \"test.sol\":730:734  nfts */\n      0x00\n        /* \"test.sol\":735:743  filehash */\n      dup6\n        /* \"test.sol\":730:744  nfts[filehash] */\n      mload(0x40)\n      tag_46\n      swap2\n      swap1\n      tag_38\n      jump\t// in\n    tag_46:\n      swap1\n      dup2\n      mstore\n      0x20\n      add\n      mload(0x40)\n      dup1\n      swap2\n      sub\n      swap1\n      keccak256\n        /* \"test.sol\":730:785  nfts[filehash] = NFTInfo(chain,contractAddress,tokenid) */\n      0x00\n      dup3\n      add\n      mload\n      dup2\n      0x00\n      add\n      swap1\n      dup2\n      tag_47\n      swap2\n      swap1\n      tag_48\n      jump\t// in\n    tag_47:\n      pop\n      0x20\n      dup3\n      add\n      mload\n      dup2\n      0x01\n      add\n      exp(0x0100, 0x00)\n      dup2\n      sload\n      dup2\n      0xffffffffffffffffffffffffffffffffffffffff\n      mul\n      not\n      and\n      swap1\n      dup4\n      0xffffffffffffffffffffffffffffffffffffffff\n      and\n      mul\n      or\n      swap1\n      sstore\n      pop\n      0x40\n      dup3\n      add\n      mload\n      dup2\n      0x02\n      add\n      sstore\n      swap1\n      pop\n      pop\n        /* \"test.sol\":832:847  contractAddress */\n      dup2\n        /* \"test.sol\":801:857  NFTRegistered(filehash, chain ,contractAddress, tokenid) */\n      0xffffffffffffffffffffffffffffffffffffffff\n      and\n        /* \"test.sol\":815:823  filehash */\n      dup5\n        /* \"test.sol\":801:857  NFTRegistered(filehash, chain ,contractAddress, tokenid) */\n      mload(0x40)\n      tag_49\n      swap2\n      swap1\n      tag_38\n      jump\t// in\n    tag_49:\n      mload(0x40)\n      dup1\n      swap2\n      sub\n      swap1\n      keccak256\n      0x750fef9cbabba37dba3294530e977dfe7dcc452afe9ea7bb7f119416b1cf0f01\n        /* \"test.sol\":825:830  chain */\n      dup6\n        /* \"test.sol\":849:856  tokenid */\n      dup5\n        /* \"test.sol\":801:857  NFTRegistered(filehash, chain ,contractAddress, tokenid) */\n      mload(0x40)\n      tag_50\n      swap3\n      swap2\n      swap1\n      tag_51\n      jump\t// in\n    tag_50:\n      mload(0x40)\n      dup1\n      swap2\n      sub\n      swap1\n      log3\n        /* \"test.sol\":362:865  function registerNFT(string memory filehash,  string memory chain, address contractAddress, int tokenid) public {... */\n      pop\n      pop\n      pop\n      pop\n      jump\t// out\n        /* \"test.sol\":873:1166  function getNFTInfo(string memory filehash) public view returns (string memory, address, int) {... */\n    tag_21:\n        /* \"test.sol\":938:951  string memory */\n      0x60\n        /* \"test.sol\":953:960  address */\n      0x00\n        /* \"test.sol\":962:965  int */\n      dup1\n        /* \"test.sol\":978:997  NFTInfo memory info */\n      0x00\n        /* \"test.sol\":1000:1004  nfts */\n      dup1\n        /* \"test.sol\":1005:1013  filehash */\n      dup6\n        /* \"test.sol\":1000:1014  nfts[filehash] */\n      mload(0x40)\n      tag_53\n      swap2\n      swap1\n      tag_38\n      jump\t// in\n    tag_53:\n      swap1\n      dup2\n      mstore\n      0x20\n      add\n      mload(0x40)\n      dup1\n      swap2\n      sub\n      swap1\n      keccak256\n        /* \"test.sol\":978:1014  NFTInfo memory info = nfts[filehash] */\n      mload(0x40)\n      dup1\n      0x60\n      add\n      0x40\n      mstore\n      swap1\n      dup2\n      0x00\n      dup3\n      add\n      dup1\n      sload\n      tag_54\n      swap1\n      tag_55\n      jump\t// in\n    tag_54:\n      dup1\n      0x1f\n      add\n      0x20\n      dup1\n      swap2\n      div\n      mul\n      0x20\n      add\n      mload(0x40)\n      swap1\n      dup2\n      add\n      0x40\n      mstore\n      dup1\n      swap3\n      swap2\n      swap1\n      dup2\n      dup2\n      mstore\n      0x20\n      add\n      dup3\n      dup1\n      sload\n      tag_56\n      swap1\n      tag_55\n      jump\t// in\n    tag_56:\n      dup1\n      iszero\n      tag_57\n      jumpi\n      dup1\n      0x1f\n      lt\n      tag_58\n      jumpi\n      0x0100\n      dup1\n      dup4\n      sload\n      div\n      mul\n      dup4\n      mstore\n      swap2\n      0x20\n      add\n      swap2\n      jump(tag_57)\n    tag_58:\n      dup3\n      add\n      swap2\n      swap1\n      0x00\n      mstore\n      keccak256(0x00, 0x20)\n      swap1\n    tag_59:\n      dup2\n      sload\n      dup2\n      mstore\n      swap1\n      0x01\n      add\n      swap1\n      0x20\n      add\n      dup1\n      dup4\n      gt\n      tag_59\n      jumpi\n      dup3\n      swap1\n      sub\n      0x1f\n      and\n      dup3\n      add\n      swap2\n    tag_57:\n      pop\n      pop\n      pop\n      pop\n      pop\n      dup2\n      mstore\n      0x20\n      add\n      0x01\n      dup3\n      add\n      0x00\n      swap1\n      sload\n      swap1\n      0x0100\n      exp\n      swap1\n      div\n      0xffffffffffffffffffffffffffffffffffffffff\n      and\n      0xffffffffffffffffffffffffffffffffffffffff\n      and\n      0xffffffffffffffffffffffffffffffffffffffff\n      and\n      dup2\n      mstore\n      0x20\n      add\n      0x02\n      dup3\n      add\n      sload\n      dup2\n      mstore\n      pop\n      pop\n      swap1\n      pop\n        /* \"test.sol\":1065:1066  0 */\n      0x00\n        /* \"test.sol\":1033:1067  info.contractaddress != address(0) */\n      0xffffffffffffffffffffffffffffffffffffffff\n      and\n        /* \"test.sol\":1033:1037  info */\n      dup2\n        /* \"test.sol\":1033:1053  info.contractaddress */\n      0x20\n      add\n      mload\n        /* \"test.sol\":1033:1067  info.contractaddress != address(0) */\n      0xffffffffffffffffffffffffffffffffffffffff\n      and\n      sub\n        /* \"test.sol\":1025:1090  require(info.contractaddress != address(0), \"Contract not found\") */\n      tag_60\n      jumpi\n      mload(0x40)\n      0x08c379a000000000000000000000000000000000000000000000000000000000\n      dup2\n      mstore\n      0x04\n      add\n      tag_61\n      swap1\n      tag_62\n      jump\t// in\n    tag_61:\n      mload(0x40)\n      dup1\n      swap2\n      sub\n      swap1\n      revert\n    tag_60:\n        /* \"test.sol\":1109:1113  info */\n      dup1\n        /* \"test.sol\":1109:1121  info.chainid */\n      0x00\n      add\n      mload\n        /* \"test.sol\":1123:1127  info */\n      dup2\n        /* \"test.sol\":1123:1143  info.contractaddress */\n      0x20\n      add\n      mload\n        /* \"test.sol\":1145:1149  info */\n      dup3\n        /* \"test.sol\":1145:1157  info.tokenid */\n      0x40\n      add\n      mload\n        /* \"test.sol\":1101:1158  return (info.chainid, info.contractaddress, info.tokenid) */\n      swap4\n      pop\n      swap4\n      pop\n      swap4\n      pop\n      pop\n        /* \"test.sol\":873:1166  function getNFTInfo(string memory filehash) public view returns (string memory, address, int) {... */\n      swap2\n      swap4\n      swap1\n      swap3\n      pop\n      jump\t// out\n        /* \"test.sol\":1175:1326  function isContractRegistered(string memory filehash) public view returns (bool) {... */\n    tag_26:\n        /* \"test.sol\":1250:1254  bool */\n      0x00\n        /* \"test.sol\":1316:1317  0 */\n      dup1\n        /* \"test.sol\":1274:1318  nfts[filehash].contractaddress != address(0) */\n      0xffffffffffffffffffffffffffffffffffffffff\n      and\n        /* \"test.sol\":1274:1278  nfts */\n      0x00\n        /* \"test.sol\":1279:1287  filehash */\n      dup4\n        /* \"test.sol\":1274:1288  nfts[filehash] */\n      mload(0x40)\n      tag_64\n      swap2\n      swap1\n      tag_38\n      jump\t// in\n    tag_64:\n      swap1\n      dup2\n      mstore\n      0x20\n      add\n      mload(0x40)\n      dup1\n      swap2\n      sub\n      swap1\n      keccak256\n        /* \"test.sol\":1274:1304  nfts[filehash].contractaddress */\n      0x01\n      add\n      0x00\n      swap1\n      sload\n      swap1\n      0x0100\n      exp\n      swap1\n      div\n      0xffffffffffffffffffffffffffffffffffffffff\n      and\n        /* \"test.sol\":1274:1318  nfts[filehash].contractaddress != address(0) */\n      0xffffffffffffffffffffffffffffffffffffffff\n      and\n      eq\n      iszero\n        /* \"test.sol\":1267:1318  return nfts[filehash].contractaddress != address(0) */\n      swap1\n      pop\n        /* \"test.sol\":1175:1326  function isContractRegistered(string memory filehash) public view returns (bool) {... */\n      swap2\n      swap1\n      pop\n      jump\t// out\n        /* \"test.sol\":198:236  mapping(string => NFTInfo) public nfts */\n    tag_30:\n      0x00\n      dup2\n      dup1\n      mload\n      0x20\n      dup2\n      add\n      dup3\n      add\n      dup1\n      mload\n      dup5\n      dup3\n      mstore\n      0x20\n      dup4\n      add\n      0x20\n      dup6\n      add\n      keccak256\n      dup2\n      dup4\n      mstore\n      dup1\n      swap6\n      pop\n      pop\n      pop\n      pop\n      pop\n      pop\n      0x00\n      swap2\n      pop\n      swap1\n      pop\n      dup1\n      0x00\n      add\n      dup1\n      sload\n      tag_65\n      swap1\n      tag_55\n      jump\t// in\n    tag_65:\n      dup1\n      0x1f\n      add\n      0x20\n      dup1\n      swap2\n      div\n      mul\n      0x20\n      add\n      mload(0x40)\n      swap1\n      dup2\n      add\n      0x40\n      mstore\n      dup1\n      swap3\n      swap2\n      swap1\n      dup2\n      dup2\n      mstore\n      0x20\n      add\n      dup3\n      dup1\n      sload\n      tag_66\n      swap1\n      tag_55\n      jump\t// in\n    tag_66:\n      dup1\n      iszero\n      tag_67\n      jumpi\n      dup1\n      0x1f\n      lt\n      tag_68\n      jumpi\n      0x0100\n      dup1\n      dup4\n      sload\n      div\n      mul\n      dup4\n      mstore\n      swap2\n      0x20\n      add\n      swap2\n      jump(tag_67)\n    tag_68:\n      dup3\n      add\n      swap2\n      swap1\n      0x00\n      mstore\n      keccak256(0x00, 0x20)\n      swap1\n    tag_69:\n      dup2\n      sload\n      dup2\n      mstore\n      swap1\n      0x01\n      add\n      swap1\n      0x20\n      add\n      dup1\n      dup4\n      gt\n      tag_69\n      jumpi\n      dup3\n      swap1\n      sub\n      0x1f\n      and\n      dup3\n      add\n      swap2\n    tag_67:\n      pop\n      pop\n      pop\n      pop\n      pop\n      swap1\n      dup1\n      0x01\n      add\n      0x00\n      swap1\n      sload\n      swap1\n      0x0100\n      exp\n      swap1\n      div\n      0xffffffffffffffffffffffffffffffffffffffff\n      and\n      swap1\n      dup1\n      0x02\n      add\n      sload\n      swap1\n      pop\n      dup4\n      jump\t// out\n        /* \"#utility.yul\":7:82   */\n    tag_70:\n        /* \"#utility.yul\":40:46   */\n      0x00\n        /* \"#utility.yul\":73:75   */\n      0x40\n        /* \"#utility.yul\":67:76   */\n      mload\n        /* \"#utility.yul\":57:76   */\n      swap1\n      pop\n        /* \"#utility.yul\":7:82   */\n      swap1\n      jump\t// out\n        /* \"#utility.yul\":88:205   */\n    tag_71:\n        /* \"#utility.yul\":197:198   */\n      0x00\n        /* \"#utility.yul\":194:195   */\n      dup1\n        /* \"#utility.yul\":187:199   */\n      revert\n        /* \"#utility.yul\":211:328   */\n    tag_72:\n        /* \"#utility.yul\":320:321   */\n      0x00\n        /* \"#utility.yul\":317:318   */\n      dup1\n        /* \"#utility.yul\":310:322   */\n      revert\n        /* \"#utility.yul\":334:460   */\n    tag_73:\n        /* \"#utility.yul\":371:378   */\n      0x00\n        /* \"#utility.yul\":411:453   */\n      0xffffffffffffffffffffffffffffffffffffffff\n        /* \"#utility.yul\":404:409   */\n      dup3\n        /* \"#utility.yul\":400:454   */\n      and\n        /* \"#utility.yul\":389:454   */\n      swap1\n      pop\n        /* \"#utility.yul\":334:460   */\n      swap2\n      swap1\n      pop\n      jump\t// out\n        /* \"#utility.yul\":466:562   */\n    tag_74:\n        /* \"#utility.yul\":503:510   */\n      0x00\n        /* \"#utility.yul\":532:556   */\n      tag_131\n        /* \"#utility.yul\":550:555   */\n      dup3\n        /* \"#utility.yul\":532:556   */\n      tag_73\n      jump\t// in\n    tag_131:\n        /* \"#utility.yul\":521:556   */\n      swap1\n      pop\n        /* \"#utility.yul\":466:562   */\n      swap2\n      swap1\n      pop\n      jump\t// out\n        /* \"#utility.yul\":568:690   */\n    tag_75:\n        /* \"#utility.yul\":641:665   */\n      tag_133\n        /* \"#utility.yul\":659:664   */\n      dup2\n        /* \"#utility.yul\":641:665   */\n      tag_74\n      jump\t// in\n    tag_133:\n        /* \"#utility.yul\":634:639   */\n      dup2\n        /* \"#utility.yul\":631:666   */\n      eq\n        /* \"#utility.yul\":621:684   */\n      tag_134\n      jumpi\n        /* \"#utility.yul\":680:681   */\n      0x00\n        /* \"#utility.yul\":677:678   */\n      dup1\n        /* \"#utility.yul\":670:682   */\n      revert\n        /* \"#utility.yul\":621:684   */\n    tag_134:\n        /* \"#utility.yul\":568:690   */\n      pop\n      jump\t// out\n        /* \"#utility.yul\":696:835   */\n    tag_76:\n        /* \"#utility.yul\":742:747   */\n      0x00\n        /* \"#utility.yul\":780:786   */\n      dup2\n        /* \"#utility.yul\":767:787   */\n      calldataload\n        /* \"#utility.yul\":758:787   */\n      swap1\n      pop\n        /* \"#utility.yul\":796:829   */\n      tag_136\n        /* \"#utility.yul\":823:828   */\n      dup2\n        /* \"#utility.yul\":796:829   */\n      tag_75\n      jump\t// in\n    tag_136:\n        /* \"#utility.yul\":696:835   */\n      swap3\n      swap2\n      pop\n      pop\n      jump\t// out\n        /* \"#utility.yul\":841:1170   */\n    tag_10:\n        /* \"#utility.yul\":900:906   */\n      0x00\n        /* \"#utility.yul\":949:951   */\n      0x20\n        /* \"#utility.yul\":937:946   */\n      dup3\n        /* \"#utility.yul\":928:935   */\n      dup5\n        /* \"#utility.yul\":924:947   */\n      sub\n        /* \"#utility.yul\":920:952   */\n      slt\n        /* \"#utility.yul\":917:1036   */\n      iszero\n      tag_138\n      jumpi\n        /* \"#utility.yul\":955:1034   */\n      tag_139\n      tag_71\n      jump\t// in\n    tag_139:\n        /* \"#utility.yul\":917:1036   */\n    tag_138:\n        /* \"#utility.yul\":1075:1076   */\n      0x00\n        /* \"#utility.yul\":1100:1153   */\n      tag_140\n        /* \"#utility.yul\":1145:1152   */\n      dup5\n        /* \"#utility.yul\":1136:1142   */\n      dup3\n        /* \"#utility.yul\":1125:1134   */\n      dup6\n        /* \"#utility.yul\":1121:1143   */\n      add\n        /* \"#utility.yul\":1100:1153   */\n      tag_76\n      jump\t// in\n    tag_140:\n        /* \"#utility.yul\":1090:1153   */\n      swap2\n      pop\n        /* \"#utility.yul\":1046:1163   */\n      pop\n        /* \"#utility.yul\":841:1170   */\n      swap3\n      swap2\n      pop\n      pop\n      jump\t// out\n        /* \"#utility.yul\":1176:1266   */\n    tag_77:\n        /* \"#utility.yul\":1210:1217   */\n      0x00\n        /* \"#utility.yul\":1253:1258   */\n      dup2\n        /* \"#utility.yul\":1246:1259   */\n      iszero\n        /* \"#utility.yul\":1239:1260   */\n      iszero\n        /* \"#utility.yul\":1228:1260   */\n      swap1\n      pop\n        /* \"#utility.yul\":1176:1266   */\n      swap2\n      swap1\n      pop\n      jump\t// out\n        /* \"#utility.yul\":1272:1381   */\n    tag_78:\n        /* \"#utility.yul\":1353:1374   */\n      tag_143\n        /* \"#utility.yul\":1368:1373   */\n      dup2\n        /* \"#utility.yul\":1353:1374   */\n      tag_77\n      jump\t// in\n    tag_143:\n        /* \"#utility.yul\":1348:1351   */\n      dup3\n        /* \"#utility.yul\":1341:1375   */\n      mstore\n        /* \"#utility.yul\":1272:1381   */\n      pop\n      pop\n      jump\t// out\n        /* \"#utility.yul\":1387:1597   */\n    tag_13:\n        /* \"#utility.yul\":1474:1478   */\n      0x00\n        /* \"#utility.yul\":1512:1514   */\n      0x20\n        /* \"#utility.yul\":1501:1510   */\n      dup3\n        /* \"#utility.yul\":1497:1515   */\n      add\n        /* \"#utility.yul\":1489:1515   */\n      swap1\n      pop\n        /* \"#utility.yul\":1525:1590   */\n      tag_145\n        /* \"#utility.yul\":1587:1588   */\n      0x00\n        /* \"#utility.yul\":1576:1585   */\n      dup4\n        /* \"#utility.yul\":1572:1589   */\n      add\n        /* \"#utility.yul\":1563:1569   */\n      dup5\n        /* \"#utility.yul\":1525:1590   */\n      tag_78\n      jump\t// in\n    tag_145:\n        /* \"#utility.yul\":1387:1597   */\n      swap3\n      swap2\n      pop\n      pop\n      jump\t// out\n        /* \"#utility.yul\":1603:1720   */\n    tag_79:\n        /* \"#utility.yul\":1712:1713   */\n      0x00\n        /* \"#utility.yul\":1709:1710   */\n      dup1\n        /* \"#utility.yul\":1702:1714   */\n      revert\n        /* \"#utility.yul\":1726:1843   */\n    tag_80:\n        /* \"#utility.yul\":1835:1836   */\n      0x00\n        /* \"#utility.yul\":1832:1833   */\n      dup1\n        /* \"#utility.yul\":1825:1837   */\n      revert\n        /* \"#utility.yul\":1849:1951   */\n    tag_81:\n        /* \"#utility.yul\":1890:1896   */\n      0x00\n        /* \"#utility.yul\":1941:1943   */\n      0x1f\n        /* \"#utility.yul\":1937:1944   */\n      not\n        /* \"#utility.yul\":1932:1934   */\n      0x1f\n        /* \"#utility.yul\":1925:1930   */\n      dup4\n        /* \"#utility.yul\":1921:1935   */\n      add\n        /* \"#utility.yul\":1917:1945   */\n      and\n        /* \"#utility.yul\":1907:1945   */\n      swap1\n      pop\n        /* \"#utility.yul\":1849:1951   */\n      swap2\n      swap1\n      pop\n      jump\t// out\n        /* \"#utility.yul\":1957:2137   */\n    tag_82:\n        /* \"#utility.yul\":2005:2082   */\n      0x4e487b7100000000000000000000000000000000000000000000000000000000\n        /* \"#utility.yul\":2002:2003   */\n      0x00\n        /* \"#utility.yul\":1995:2083   */\n      mstore\n        /* \"#utility.yul\":2102:2106   */\n      0x41\n        /* \"#utility.yul\":2099:2100   */\n      0x04\n        /* \"#utility.yul\":2092:2107   */\n      mstore\n        /* \"#utility.yul\":2126:2130   */\n      0x24\n        /* \"#utility.yul\":2123:2124   */\n      0x00\n        /* \"#utility.yul\":2116:2131   */\n      revert\n        /* \"#utility.yul\":2143:2424   */\n    tag_83:\n        /* \"#utility.yul\":2226:2253   */\n      tag_151\n        /* \"#utility.yul\":2248:2252   */\n      dup3\n        /* \"#utility.yul\":2226:2253   */\n      tag_81\n      jump\t// in\n    tag_151:\n        /* \"#utility.yul\":2218:2224   */\n      dup2\n        /* \"#utility.yul\":2214:2254   */\n      add\n        /* \"#utility.yul\":2356:2362   */\n      dup2\n        /* \"#utility.yul\":2344:2354   */\n      dup2\n        /* \"#utility.yul\":2341:2363   */\n      lt\n        /* \"#utility.yul\":2320:2338   */\n      0xffffffffffffffff\n        /* \"#utility.yul\":2308:2318   */\n      dup3\n        /* \"#utility.yul\":2305:2339   */\n      gt\n        /* \"#utility.yul\":2302:2364   */\n      or\n        /* \"#utility.yul\":2299:2387   */\n      iszero\n      tag_152\n      jumpi\n        /* \"#utility.yul\":2367:2385   */\n      tag_153\n      tag_82\n      jump\t// in\n    tag_153:\n        /* \"#utility.yul\":2299:2387   */\n    tag_152:\n        /* \"#utility.yul\":2407:2417   */\n      dup1\n        /* \"#utility.yul\":2403:2405   */\n      0x40\n        /* \"#utility.yul\":2396:2418   */\n      mstore\n        /* \"#utility.yul\":2186:2424   */\n      pop\n        /* \"#utility.yul\":2143:2424   */\n      pop\n      pop\n      jump\t// out\n        /* \"#utility.yul\":2430:2559   */\n    tag_84:\n        /* \"#utility.yul\":2464:2470   */\n      0x00\n        /* \"#utility.yul\":2491:2511   */\n      tag_155\n      tag_70\n      jump\t// in\n    tag_155:\n        /* \"#utility.yul\":2481:2511   */\n      swap1\n      pop\n        /* \"#utility.yul\":2520:2553   */\n      tag_156\n        /* \"#utility.yul\":2548:2552   */\n      dup3\n        /* \"#utility.yul\":2540:2546   */\n      dup3\n        /* \"#utility.yul\":2520:2553   */\n      tag_83\n      jump\t// in\n    tag_156:\n        /* \"#utility.yul\":2430:2559   */\n      swap2\n      swap1\n      pop\n      jump\t// out\n        /* \"#utility.yul\":2565:2873   */\n    tag_85:\n        /* \"#utility.yul\":2627:2631   */\n      0x00\n        /* \"#utility.yul\":2717:2735   */\n      0xffffffffffffffff\n        /* \"#utility.yul\":2709:2715   */\n      dup3\n        /* \"#utility.yul\":2706:2736   */\n      gt\n        /* \"#utility.yul\":2703:2759   */\n      iszero\n      tag_158\n      jumpi\n        /* \"#utility.yul\":2739:2757   */\n      tag_159\n      tag_82\n      jump\t// in\n    tag_159:\n        /* \"#utility.yul\":2703:2759   */\n    tag_158:\n        /* \"#utility.yul\":2777:2806   */\n      tag_160\n        /* \"#utility.yul\":2799:2805   */\n      dup3\n        /* \"#utility.yul\":2777:2806   */\n      tag_81\n      jump\t// in\n    tag_160:\n        /* \"#utility.yul\":2769:2806   */\n      swap1\n      pop\n        /* \"#utility.yul\":2861:2865   */\n      0x20\n        /* \"#utility.yul\":2855:2859   */\n      dup2\n        /* \"#utility.yul\":2851:2866   */\n      add\n        /* \"#utility.yul\":2843:2866   */\n      swap1\n      pop\n        /* \"#utility.yul\":2565:2873   */\n      swap2\n      swap1\n      pop\n      jump\t// out\n        /* \"#utility.yul\":2879:3027   */\n    tag_86:\n        /* \"#utility.yul\":2977:2983   */\n      dup3\n        /* \"#utility.yul\":2972:2975   */\n      dup2\n        /* \"#utility.yul\":2967:2970   */\n      dup4\n        /* \"#utility.yul\":2954:2984   */\n      calldatacopy\n        /* \"#utility.yul\":3018:3019   */\n      0x00\n        /* \"#utility.yul\":3009:3015   */\n      dup4\n        /* \"#utility.yul\":3004:3007   */\n      dup4\n        /* \"#utility.yul\":3000:3016   */\n      add\n        /* \"#utility.yul\":2993:3020   */\n      mstore\n        /* \"#utility.yul\":2879:3027   */\n      pop\n      pop\n      pop\n      jump\t// out\n        /* \"#utility.yul\":3033:3458   */\n    tag_87:\n        /* \"#utility.yul\":3111:3116   */\n      0x00\n        /* \"#utility.yul\":3136:3202   */\n      tag_163\n        /* \"#utility.yul\":3152:3201   */\n      tag_164\n        /* \"#utility.yul\":3194:3200   */\n      dup5\n        /* \"#utility.yul\":3152:3201   */\n      tag_85\n      jump\t// in\n    tag_164:\n        /* \"#utility.yul\":3136:3202   */\n      tag_84\n      jump\t// in\n    tag_163:\n        /* \"#utility.yul\":3127:3202   */\n      swap1\n      pop\n        /* \"#utility.yul\":3225:3231   */\n      dup3\n        /* \"#utility.yul\":3218:3223   */\n      dup2\n        /* \"#utility.yul\":3211:3232   */\n      mstore\n        /* \"#utility.yul\":3263:3267   */\n      0x20\n        /* \"#utility.yul\":3256:3261   */\n      dup2\n        /* \"#utility.yul\":3252:3268   */\n      add\n        /* \"#utility.yul\":3301:3304   */\n      dup5\n        /* \"#utility.yul\":3292:3298   */\n      dup5\n        /* \"#utility.yul\":3287:3290   */\n      dup5\n        /* \"#utility.yul\":3283:3299   */\n      add\n        /* \"#utility.yul\":3280:3305   */\n      gt\n        /* \"#utility.yul\":3277:3389   */\n      iszero\n      tag_165\n      jumpi\n        /* \"#utility.yul\":3308:3387   */\n      tag_166\n      tag_80\n      jump\t// in\n    tag_166:\n        /* \"#utility.yul\":3277:3389   */\n    tag_165:\n        /* \"#utility.yul\":3398:3452   */\n      tag_167\n        /* \"#utility.yul\":3445:3451   */\n      dup5\n        /* \"#utility.yul\":3440:3443   */\n      dup3\n        /* \"#utility.yul\":3435:3438   */\n      dup6\n        /* \"#utility.yul\":3398:3452   */\n      tag_86\n      jump\t// in\n    tag_167:\n        /* \"#utility.yul\":3117:3458   */\n      pop\n        /* \"#utility.yul\":3033:3458   */\n      swap4\n      swap3\n      pop\n      pop\n      pop\n      jump\t// out\n        /* \"#utility.yul\":3478:3818   */\n    tag_88:\n        /* \"#utility.yul\":3534:3539   */\n      0x00\n        /* \"#utility.yul\":3583:3586   */\n      dup3\n        /* \"#utility.yul\":3576:3580   */\n      0x1f\n        /* \"#utility.yul\":3568:3574   */\n      dup4\n        /* \"#utility.yul\":3564:3581   */\n      add\n        /* \"#utility.yul\":3560:3587   */\n      slt\n        /* \"#utility.yul\":3550:3672   */\n      tag_169\n      jumpi\n        /* \"#utility.yul\":3591:3670   */\n      tag_170\n      tag_79\n      jump\t// in\n    tag_170:\n        /* \"#utility.yul\":3550:3672   */\n    tag_169:\n        /* \"#utility.yul\":3708:3714   */\n      dup2\n        /* \"#utility.yul\":3695:3715   */\n      calldataload\n        /* \"#utility.yul\":3733:3812   */\n      tag_171\n        /* \"#utility.yul\":3808:3811   */\n      dup5\n        /* \"#utility.yul\":3800:3806   */\n      dup3\n        /* \"#utility.yul\":3793:3797   */\n      0x20\n        /* \"#utility.yul\":3785:3791   */\n      dup7\n        /* \"#utility.yul\":3781:3798   */\n      add\n        /* \"#utility.yul\":3733:3812   */\n      tag_87\n      jump\t// in\n    tag_171:\n        /* \"#utility.yul\":3724:3812   */\n      swap2\n      pop\n        /* \"#utility.yul\":3540:3818   */\n      pop\n        /* \"#utility.yul\":3478:3818   */\n      swap3\n      swap2\n      pop\n      pop\n      jump\t// out\n        /* \"#utility.yul\":3824:3900   */\n    tag_89:\n        /* \"#utility.yul\":3860:3867   */\n      0x00\n        /* \"#utility.yul\":3889:3894   */\n      dup2\n        /* \"#utility.yul\":3878:3894   */\n      swap1\n      pop\n        /* \"#utility.yul\":3824:3900   */\n      swap2\n      swap1\n      pop\n      jump\t// out\n        /* \"#utility.yul\":3906:4026   */\n    tag_90:\n        /* \"#utility.yul\":3978:4001   */\n      tag_174\n        /* \"#utility.yul\":3995:4000   */\n      dup2\n        /* \"#utility.yul\":3978:4001   */\n      tag_89\n      jump\t// in\n    tag_174:\n        /* \"#utility.yul\":3971:3976   */\n      dup2\n        /* \"#utility.yul\":3968:4002   */\n      eq\n        /* \"#utility.yul\":3958:4020   */\n      tag_175\n      jumpi\n        /* \"#utility.yul\":4016:4017   */\n      0x00\n        /* \"#utility.yul\":4013:4014   */\n      dup1\n        /* \"#utility.yul\":4006:4018   */\n      revert\n        /* \"#utility.yul\":3958:4020   */\n    tag_175:\n        /* \"#utility.yul\":3906:4026   */\n      pop\n      jump\t// out\n        /* \"#utility.yul\":4032:4169   */\n    tag_91:\n        /* \"#utility.yul\":4077:4082   */\n      0x00\n        /* \"#utility.yul\":4115:4121   */\n      dup2\n        /* \"#utility.yul\":4102:4122   */\n      calldataload\n        /* \"#utility.yul\":4093:4122   */\n      swap1\n      pop\n        /* \"#utility.yul\":4131:4163   */\n      tag_177\n        /* \"#utility.yul\":4157:4162   */\n      dup2\n        /* \"#utility.yul\":4131:4163   */\n      tag_90\n      jump\t// in\n    tag_177:\n        /* \"#utility.yul\":4032:4169   */\n      swap3\n      swap2\n      pop\n      pop\n      jump\t// out\n        /* \"#utility.yul\":4175:5298   */\n    tag_16:\n        /* \"#utility.yul\":4280:4286   */\n      0x00\n        /* \"#utility.yul\":4288:4294   */\n      dup1\n        /* \"#utility.yul\":4296:4302   */\n      0x00\n        /* \"#utility.yul\":4304:4310   */\n      dup1\n        /* \"#utility.yul\":4353:4356   */\n      0x80\n        /* \"#utility.yul\":4341:4350   */\n      dup6\n        /* \"#utility.yul\":4332:4339   */\n      dup8\n        /* \"#utility.yul\":4328:4351   */\n      sub\n        /* \"#utility.yul\":4324:4357   */\n      slt\n        /* \"#utility.yul\":4321:4441   */\n      iszero\n      tag_179\n      jumpi\n        /* \"#utility.yul\":4360:4439   */\n      tag_180\n      tag_71\n      jump\t// in\n    tag_180:\n        /* \"#utility.yul\":4321:4441   */\n    tag_179:\n        /* \"#utility.yul\":4508:4509   */\n      0x00\n        /* \"#utility.yul\":4497:4506   */\n      dup6\n        /* \"#utility.yul\":4493:4510   */\n      add\n        /* \"#utility.yul\":4480:4511   */\n      calldataload\n        /* \"#utility.yul\":4538:4556   */\n      0xffffffffffffffff\n        /* \"#utility.yul\":4530:4536   */\n      dup2\n        /* \"#utility.yul\":4527:4557   */\n      gt\n        /* \"#utility.yul\":4524:4641   */\n      iszero\n      tag_181\n      jumpi\n        /* \"#utility.yul\":4560:4639   */\n      tag_182\n      tag_72\n      jump\t// in\n    tag_182:\n        /* \"#utility.yul\":4524:4641   */\n    tag_181:\n        /* \"#utility.yul\":4665:4728   */\n      tag_183\n        /* \"#utility.yul\":4720:4727   */\n      dup8\n        /* \"#utility.yul\":4711:4717   */\n      dup3\n        /* \"#utility.yul\":4700:4709   */\n      dup9\n        /* \"#utility.yul\":4696:4718   */\n      add\n        /* \"#utility.yul\":4665:4728   */\n      tag_88\n      jump\t// in\n    tag_183:\n        /* \"#utility.yul\":4655:4728   */\n      swap5\n      pop\n        /* \"#utility.yul\":4451:4738   */\n      pop\n        /* \"#utility.yul\":4805:4807   */\n      0x20\n        /* \"#utility.yul\":4794:4803   */\n      dup6\n        /* \"#utility.yul\":4790:4808   */\n      add\n        /* \"#utility.yul\":4777:4809   */\n      calldataload\n        /* \"#utility.yul\":4836:4854   */\n      0xffffffffffffffff\n        /* \"#utility.yul\":4828:4834   */\n      dup2\n        /* \"#utility.yul\":4825:4855   */\n      gt\n        /* \"#utility.yul\":4822:4939   */\n      iszero\n      tag_184\n      jumpi\n        /* \"#utility.yul\":4858:4937   */\n      tag_185\n      tag_72\n      jump\t// in\n    tag_185:\n        /* \"#utility.yul\":4822:4939   */\n    tag_184:\n        /* \"#utility.yul\":4963:5026   */\n      tag_186\n        /* \"#utility.yul\":5018:5025   */\n      dup8\n        /* \"#utility.yul\":5009:5015   */\n      dup3\n        /* \"#utility.yul\":4998:5007   */\n      dup9\n        /* \"#utility.yul\":4994:5016   */\n      add\n        /* \"#utility.yul\":4963:5026   */\n      tag_88\n      jump\t// in\n    tag_186:\n        /* \"#utility.yul\":4953:5026   */\n      swap4\n      pop\n        /* \"#utility.yul\":4748:5036   */\n      pop\n        /* \"#utility.yul\":5075:5077   */\n      0x40\n        /* \"#utility.yul\":5101:5154   */\n      tag_187\n        /* \"#utility.yul\":5146:5153   */\n      dup8\n        /* \"#utility.yul\":5137:5143   */\n      dup3\n        /* \"#utility.yul\":5126:5135   */\n      dup9\n        /* \"#utility.yul\":5122:5144   */\n      add\n        /* \"#utility.yul\":5101:5154   */\n      tag_76\n      jump\t// in\n    tag_187:\n        /* \"#utility.yul\":5091:5154   */\n      swap3\n      pop\n        /* \"#utility.yul\":5046:5164   */\n      pop\n        /* \"#utility.yul\":5203:5205   */\n      0x60\n        /* \"#utility.yul\":5229:5281   */\n      tag_188\n        /* \"#utility.yul\":5273:5280   */\n      dup8\n        /* \"#utility.yul\":5264:5270   */\n      dup3\n        /* \"#utility.yul\":5253:5262   */\n      dup9\n        /* \"#utility.yul\":5249:5271   */\n      add\n        /* \"#utility.yul\":5229:5281   */\n      tag_91\n      jump\t// in\n    tag_188:\n        /* \"#utility.yul\":5219:5281   */\n      swap2\n      pop\n        /* \"#utility.yul\":5174:5291   */\n      pop\n        /* \"#utility.yul\":4175:5298   */\n      swap3\n      swap6\n      swap2\n      swap5\n      pop\n      swap3\n      pop\n      jump\t// out\n        /* \"#utility.yul\":5304:5813   */\n    tag_20:\n        /* \"#utility.yul\":5373:5379   */\n      0x00\n        /* \"#utility.yul\":5422:5424   */\n      0x20\n        /* \"#utility.yul\":5410:5419   */\n      dup3\n        /* \"#utility.yul\":5401:5408   */\n      dup5\n        /* \"#utility.yul\":5397:5420   */\n      sub\n        /* \"#utility.yul\":5393:5425   */\n      slt\n        /* \"#utility.yul\":5390:5509   */\n      iszero\n      tag_190\n      jumpi\n        /* \"#utility.yul\":5428:5507   */\n      tag_191\n      tag_71\n      jump\t// in\n    tag_191:\n        /* \"#utility.yul\":5390:5509   */\n    tag_190:\n        /* \"#utility.yul\":5576:5577   */\n      0x00\n        /* \"#utility.yul\":5565:5574   */\n      dup3\n        /* \"#utility.yul\":5561:5578   */\n      add\n        /* \"#utility.yul\":5548:5579   */\n      calldataload\n        /* \"#utility.yul\":5606:5624   */\n      0xffffffffffffffff\n        /* \"#utility.yul\":5598:5604   */\n      dup2\n        /* \"#utility.yul\":5595:5625   */\n      gt\n        /* \"#utility.yul\":5592:5709   */\n      iszero\n      tag_192\n      jumpi\n        /* \"#utility.yul\":5628:5707   */\n      tag_193\n      tag_72\n      jump\t// in\n    tag_193:\n        /* \"#utility.yul\":5592:5709   */\n    tag_192:\n        /* \"#utility.yul\":5733:5796   */\n      tag_194\n        /* \"#utility.yul\":5788:5795   */\n      dup5\n        /* \"#utility.yul\":5779:5785   */\n      dup3\n        /* \"#utility.yul\":5768:5777   */\n      dup6\n        /* \"#utility.yul\":5764:5786   */\n      add\n        /* \"#utility.yul\":5733:5796   */\n      tag_88\n      jump\t// in\n    tag_194:\n        /* \"#utility.yul\":5723:5796   */\n      swap2\n      pop\n        /* \"#utility.yul\":5519:5806   */\n      pop\n        /* \"#utility.yul\":5304:5813   */\n      swap3\n      swap2\n      pop\n      pop\n      jump\t// out\n        /* \"#utility.yul\":5819:5918   */\n    tag_92:\n        /* \"#utility.yul\":5871:5877   */\n      0x00\n        /* \"#utility.yul\":5905:5910   */\n      dup2\n        /* \"#utility.yul\":5899:5911   */\n      mload\n        /* \"#utility.yul\":5889:5911   */\n      swap1\n      pop\n        /* \"#utility.yul\":5819:5918   */\n      swap2\n      swap1\n      pop\n      jump\t// out\n        /* \"#utility.yul\":5924:6093   */\n    tag_93:\n        /* \"#utility.yul\":6008:6019   */\n      0x00\n        /* \"#utility.yul\":6042:6048   */\n      dup3\n        /* \"#utility.yul\":6037:6040   */\n      dup3\n        /* \"#utility.yul\":6030:6049   */\n      mstore\n        /* \"#utility.yul\":6082:6086   */\n      0x20\n        /* \"#utility.yul\":6077:6080   */\n      dup3\n        /* \"#utility.yul\":6073:6087   */\n      add\n        /* \"#utility.yul\":6058:6087   */\n      swap1\n      pop\n        /* \"#utility.yul\":5924:6093   */\n      swap3\n      swap2\n      pop\n      pop\n      jump\t// out\n        /* \"#utility.yul\":6099:6238   */\n    tag_94:\n        /* \"#utility.yul\":6188:6194   */\n      dup3\n        /* \"#utility.yul\":6183:6186   */\n      dup2\n        /* \"#utility.yul\":6178:6181   */\n      dup4\n        /* \"#utility.yul\":6172:6195   */\n      mcopy\n        /* \"#utility.yul\":6229:6230   */\n      0x00\n        /* \"#utility.yul\":6220:6226   */\n      dup4\n        /* \"#utility.yul\":6215:6218   */\n      dup4\n        /* \"#utility.yul\":6211:6227   */\n      add\n        /* \"#utility.yul\":6204:6231   */\n      mstore\n        /* \"#utility.yul\":6099:6238   */\n      pop\n      pop\n      pop\n      jump\t// out\n        /* \"#utility.yul\":6244:6621   */\n    tag_95:\n        /* \"#utility.yul\":6332:6335   */\n      0x00\n        /* \"#utility.yul\":6360:6399   */\n      tag_199\n        /* \"#utility.yul\":6393:6398   */\n      dup3\n        /* \"#utility.yul\":6360:6399   */\n      tag_92\n      jump\t// in\n    tag_199:\n        /* \"#utility.yul\":6415:6486   */\n      tag_200\n        /* \"#utility.yul\":6479:6485   */\n      dup2\n        /* \"#utility.yul\":6474:6477   */\n      dup6\n        /* \"#utility.yul\":6415:6486   */\n      tag_93\n      jump\t// in\n    tag_200:\n        /* \"#utility.yul\":6408:6486   */\n      swap4\n      pop\n        /* \"#utility.yul\":6495:6560   */\n      tag_201\n        /* \"#utility.yul\":6553:6559   */\n      dup2\n        /* \"#utility.yul\":6548:6551   */\n      dup6\n        /* \"#utility.yul\":6541:6545   */\n      0x20\n        /* \"#utility.yul\":6534:6539   */\n      dup7\n        /* \"#utility.yul\":6530:6546   */\n      add\n        /* \"#utility.yul\":6495:6560   */\n      tag_94\n      jump\t// in\n    tag_201:\n        /* \"#utility.yul\":6585:6614   */\n      tag_202\n        /* \"#utility.yul\":6607:6613   */\n      dup2\n        /* \"#utility.yul\":6585:6614   */\n      tag_81\n      jump\t// in\n    tag_202:\n        /* \"#utility.yul\":6580:6583   */\n      dup5\n        /* \"#utility.yul\":6576:6615   */\n      add\n        /* \"#utility.yul\":6569:6615   */\n      swap2\n      pop\n        /* \"#utility.yul\":6336:6621   */\n      pop\n        /* \"#utility.yul\":6244:6621   */\n      swap3\n      swap2\n      pop\n      pop\n      jump\t// out\n        /* \"#utility.yul\":6627:6745   */\n    tag_96:\n        /* \"#utility.yul\":6714:6738   */\n      tag_204\n        /* \"#utility.yul\":6732:6737   */\n      dup2\n        /* \"#utility.yul\":6714:6738   */\n      tag_74\n      jump\t// in\n    tag_204:\n        /* \"#utility.yul\":6709:6712   */\n      dup3\n        /* \"#utility.yul\":6702:6739   */\n      mstore\n        /* \"#utility.yul\":6627:6745   */\n      pop\n      pop\n      jump\t// out\n        /* \"#utility.yul\":6751:6866   */\n    tag_97:\n        /* \"#utility.yul\":6836:6859   */\n      tag_206\n        /* \"#utility.yul\":6853:6858   */\n      dup2\n        /* \"#utility.yul\":6836:6859   */\n      tag_89\n      jump\t// in\n    tag_206:\n        /* \"#utility.yul\":6831:6834   */\n      dup3\n        /* \"#utility.yul\":6824:6860   */\n      mstore\n        /* \"#utility.yul\":6751:6866   */\n      pop\n      pop\n      jump\t// out\n        /* \"#utility.yul\":6872:7401   */\n    tag_23:\n        /* \"#utility.yul\":7039:7043   */\n      0x00\n        /* \"#utility.yul\":7077:7079   */\n      0x60\n        /* \"#utility.yul\":7066:7075   */\n      dup3\n        /* \"#utility.yul\":7062:7080   */\n      add\n        /* \"#utility.yul\":7054:7080   */\n      swap1\n      pop\n        /* \"#utility.yul\":7126:7135   */\n      dup2\n        /* \"#utility.yul\":7120:7124   */\n      dup2\n        /* \"#utility.yul\":7116:7136   */\n      sub\n        /* \"#utility.yul\":7112:7113   */\n      0x00\n        /* \"#utility.yul\":7101:7110   */\n      dup4\n        /* \"#utility.yul\":7097:7114   */\n      add\n        /* \"#utility.yul\":7090:7137   */\n      mstore\n        /* \"#utility.yul\":7154:7232   */\n      tag_208\n        /* \"#utility.yul\":7227:7231   */\n      dup2\n        /* \"#utility.yul\":7218:7224   */\n      dup7\n        /* \"#utility.yul\":7154:7232   */\n      tag_95\n      jump\t// in\n    tag_208:\n        /* \"#utility.yul\":7146:7232   */\n      swap1\n      pop\n        /* \"#utility.yul\":7242:7314   */\n      tag_209\n        /* \"#utility.yul\":7310:7312   */\n      0x20\n        /* \"#utility.yul\":7299:7308   */\n      dup4\n        /* \"#utility.yul\":7295:7313   */\n      add\n        /* \"#utility.yul\":7286:7292   */\n      dup6\n        /* \"#utility.yul\":7242:7314   */\n      tag_96\n      jump\t// in\n    tag_209:\n        /* \"#utility.yul\":7324:7394   */\n      tag_210\n        /* \"#utility.yul\":7390:7392   */\n      0x40\n        /* \"#utility.yul\":7379:7388   */\n      dup4\n        /* \"#utility.yul\":7375:7393   */\n      add\n        /* \"#utility.yul\":7366:7372   */\n      dup5\n        /* \"#utility.yul\":7324:7394   */\n      tag_97\n      jump\t// in\n    tag_210:\n        /* \"#utility.yul\":6872:7401   */\n      swap5\n      swap4\n      pop\n      pop\n      pop\n      pop\n      jump\t// out\n        /* \"#utility.yul\":7407:7581   */\n    tag_98:\n        /* \"#utility.yul\":7547:7573   */\n      0x496e76616c696420636f6e747261637420616464726573730000000000000000\n        /* \"#utility.yul\":7543:7544   */\n      0x00\n        /* \"#utility.yul\":7535:7541   */\n      dup3\n        /* \"#utility.yul\":7531:7545   */\n      add\n        /* \"#utility.yul\":7524:7574   */\n      mstore\n        /* \"#utility.yul\":7407:7581   */\n      pop\n      jump\t// out\n        /* \"#utility.yul\":7587:7953   */\n    tag_99:\n        /* \"#utility.yul\":7729:7732   */\n      0x00\n        /* \"#utility.yul\":7750:7817   */\n      tag_213\n        /* \"#utility.yul\":7814:7816   */\n      0x18\n        /* \"#utility.yul\":7809:7812   */\n      dup4\n        /* \"#utility.yul\":7750:7817   */\n      tag_93\n      jump\t// in\n    tag_213:\n        /* \"#utility.yul\":7743:7817   */\n      swap2\n      pop\n        /* \"#utility.yul\":7826:7919   */\n      tag_214\n        /* \"#utility.yul\":7915:7918   */\n      dup3\n        /* \"#utility.yul\":7826:7919   */\n      tag_98\n      jump\t// in\n    tag_214:\n        /* \"#utility.yul\":7944:7946   */\n      0x20\n        /* \"#utility.yul\":7939:7942   */\n      dup3\n        /* \"#utility.yul\":7935:7947   */\n      add\n        /* \"#utility.yul\":7928:7947   */\n      swap1\n      pop\n        /* \"#utility.yul\":7587:7953   */\n      swap2\n      swap1\n      pop\n      jump\t// out\n        /* \"#utility.yul\":7959:8378   */\n    tag_36:\n        /* \"#utility.yul\":8125:8129   */\n      0x00\n        /* \"#utility.yul\":8163:8165   */\n      0x20\n        /* \"#utility.yul\":8152:8161   */\n      dup3\n        /* \"#utility.yul\":8148:8166   */\n      add\n        /* \"#utility.yul\":8140:8166   */\n      swap1\n      pop\n        /* \"#utility.yul\":8212:8221   */\n      dup2\n        /* \"#utility.yul\":8206:8210   */\n      dup2\n        /* \"#utility.yul\":8202:8222   */\n      sub\n        /* \"#utility.yul\":8198:8199   */\n      0x00\n        /* \"#utility.yul\":8187:8196   */\n      dup4\n        /* \"#utility.yul\":8183:8200   */\n      add\n        /* \"#utility.yul\":8176:8223   */\n      mstore\n        /* \"#utility.yul\":8240:8371   */\n      tag_216\n        /* \"#utility.yul\":8366:8370   */\n      dup2\n        /* \"#utility.yul\":8240:8371   */\n      tag_99\n      jump\t// in\n    tag_216:\n        /* \"#utility.yul\":8232:8371   */\n      swap1\n      pop\n        /* \"#utility.yul\":7959:8378   */\n      swap2\n      swap1\n      pop\n      jump\t// out\n        /* \"#utility.yul\":8384:8532   */\n    tag_100:\n        /* \"#utility.yul\":8486:8497   */\n      0x00\n        /* \"#utility.yul\":8523:8526   */\n      dup2\n        /* \"#utility.yul\":8508:8526   */\n      swap1\n      pop\n        /* \"#utility.yul\":8384:8532   */\n      swap3\n      swap2\n      pop\n      pop\n      jump\t// out\n        /* \"#utility.yul\":8538:8928   */\n    tag_101:\n        /* \"#utility.yul\":8644:8647   */\n      0x00\n        /* \"#utility.yul\":8672:8711   */\n      tag_219\n        /* \"#utility.yul\":8705:8710   */\n      dup3\n        /* \"#utility.yul\":8672:8711   */\n      tag_92\n      jump\t// in\n    tag_219:\n        /* \"#utility.yul\":8727:8816   */\n      tag_220\n        /* \"#utility.yul\":8809:8815   */\n      dup2\n        /* \"#utility.yul\":8804:8807   */\n      dup6\n        /* \"#utility.yul\":8727:8816   */\n      tag_100\n      jump\t// in\n    tag_220:\n        /* \"#utility.yul\":8720:8816   */\n      swap4\n      pop\n        /* \"#utility.yul\":8825:8890   */\n      tag_221\n        /* \"#utility.yul\":8883:8889   */\n      dup2\n        /* \"#utility.yul\":8878:8881   */\n      dup6\n        /* \"#utility.yul\":8871:8875   */\n      0x20\n        /* \"#utility.yul\":8864:8869   */\n      dup7\n        /* \"#utility.yul\":8860:8876   */\n      add\n        /* \"#utility.yul\":8825:8890   */\n      tag_94\n      jump\t// in\n    tag_221:\n        /* \"#utility.yul\":8915:8921   */\n      dup1\n        /* \"#utility.yul\":8910:8913   */\n      dup5\n        /* \"#utility.yul\":8906:8922   */\n      add\n        /* \"#utility.yul\":8899:8922   */\n      swap2\n      pop\n        /* \"#utility.yul\":8648:8928   */\n      pop\n        /* \"#utility.yul\":8538:8928   */\n      swap3\n      swap2\n      pop\n      pop\n      jump\t// out\n        /* \"#utility.yul\":8934:9209   */\n    tag_38:\n        /* \"#utility.yul\":9066:9069   */\n      0x00\n        /* \"#utility.yul\":9088:9183   */\n      tag_223\n        /* \"#utility.yul\":9179:9182   */\n      dup3\n        /* \"#utility.yul\":9170:9176   */\n      dup5\n        /* \"#utility.yul\":9088:9183   */\n      tag_101\n      jump\t// in\n    tag_223:\n        /* \"#utility.yul\":9081:9183   */\n      swap2\n      pop\n        /* \"#utility.yul\":9200:9203   */\n      dup2\n        /* \"#utility.yul\":9193:9203   */\n      swap1\n      pop\n        /* \"#utility.yul\":8934:9209   */\n      swap3\n      swap2\n      pop\n      pop\n      jump\t// out\n        /* \"#utility.yul\":9215:9380   */\n    tag_102:\n        /* \"#utility.yul\":9355:9372   */\n      0x494420616c726561647920757365640000000000000000000000000000000000\n        /* \"#utility.yul\":9351:9352   */\n      0x00\n        /* \"#utility.yul\":9343:9349   */\n      dup3\n        /* \"#utility.yul\":9339:9353   */\n      add\n        /* \"#utility.yul\":9332:9373   */\n      mstore\n        /* \"#utility.yul\":9215:9380   */\n      pop\n      jump\t// out\n        /* \"#utility.yul\":9386:9752   */\n    tag_103:\n        /* \"#utility.yul\":9528:9531   */\n      0x00\n        /* \"#utility.yul\":9549:9616   */\n      tag_226\n        /* \"#utility.yul\":9613:9615   */\n      0x0f\n        /* \"#utility.yul\":9608:9611   */\n      dup4\n        /* \"#utility.yul\":9549:9616   */\n      tag_93\n      jump\t// in\n    tag_226:\n        /* \"#utility.yul\":9542:9616   */\n      swap2\n      pop\n        /* \"#utility.yul\":9625:9718   */\n      tag_227\n        /* \"#utility.yul\":9714:9717   */\n      dup3\n        /* \"#utility.yul\":9625:9718   */\n      tag_102\n      jump\t// in\n    tag_227:\n        /* \"#utility.yul\":9743:9745   */\n      0x20\n        /* \"#utility.yul\":9738:9741   */\n      dup3\n        /* \"#utility.yul\":9734:9746   */\n      add\n        /* \"#utility.yul\":9727:9746   */\n      swap1\n      pop\n        /* \"#utility.yul\":9386:9752   */\n      swap2\n      swap1\n      pop\n      jump\t// out\n        /* \"#utility.yul\":9758:10177   */\n    tag_41:\n        /* \"#utility.yul\":9924:9928   */\n      0x00\n        /* \"#utility.yul\":9962:9964   */\n      0x20\n        /* \"#utility.yul\":9951:9960   */\n      dup3\n        /* \"#utility.yul\":9947:9965   */\n      add\n        /* \"#utility.yul\":9939:9965   */\n      swap1\n      pop\n        /* \"#utility.yul\":10011:10020   */\n      dup2\n        /* \"#utility.yul\":10005:10009   */\n      dup2\n        /* \"#utility.yul\":10001:10021   */\n      sub\n        /* \"#utility.yul\":9997:9998   */\n      0x00\n        /* \"#utility.yul\":9986:9995   */\n      dup4\n        /* \"#utility.yul\":9982:9999   */\n      add\n        /* \"#utility.yul\":9975:10022   */\n      mstore\n        /* \"#utility.yul\":10039:10170   */\n      tag_229\n        /* \"#utility.yul\":10165:10169   */\n      dup2\n        /* \"#utility.yul\":10039:10170   */\n      tag_103\n      jump\t// in\n    tag_229:\n        /* \"#utility.yul\":10031:10170   */\n      swap1\n      pop\n        /* \"#utility.yul\":9758:10177   */\n      swap2\n      swap1\n      pop\n      jump\t// out\n        /* \"#utility.yul\":10183:10404   */\n    tag_104:\n        /* \"#utility.yul\":10323:10357   */\n      0x41646472657373206973206e6f742061206465706c6f79656420636f6e747261\n        /* \"#utility.yul\":10319:10320   */\n      0x00\n        /* \"#utility.yul\":10311:10317   */\n      dup3\n        /* \"#utility.yul\":10307:10321   */\n      add\n        /* \"#utility.yul\":10300:10358   */\n      mstore\n        /* \"#utility.yul\":10392:10396   */\n      0x6374000000000000000000000000000000000000000000000000000000000000\n        /* \"#utility.yul\":10387:10389   */\n      0x20\n        /* \"#utility.yul\":10379:10385   */\n      dup3\n        /* \"#utility.yul\":10375:10390   */\n      add\n        /* \"#utility.yul\":10368:10397   */\n      mstore\n        /* \"#utility.yul\":10183:10404   */\n      pop\n      jump\t// out\n        /* \"#utility.yul\":10410:10776   */\n    tag_105:\n        /* \"#utility.yul\":10552:10555   */\n      0x00\n        /* \"#utility.yul\":10573:10640   */\n      tag_232\n        /* \"#utility.yul\":10637:10639   */\n      0x22\n        /* \"#utility.yul\":10632:10635   */\n      dup4\n        /* \"#utility.yul\":10573:10640   */\n      tag_93\n      jump\t// in\n    tag_232:\n        /* \"#utility.yul\":10566:10640   */\n      swap2\n      pop\n        /* \"#utility.yul\":10649:10742   */\n      tag_233\n        /* \"#utility.yul\":10738:10741   */\n      dup3\n        /* \"#utility.yul\":10649:10742   */\n      tag_104\n      jump\t// in\n    tag_233:\n        /* \"#utility.yul\":10767:10769   */\n      0x40\n        /* \"#utility.yul\":10762:10765   */\n      dup3\n        /* \"#utility.yul\":10758:10770   */\n      add\n        /* \"#utility.yul\":10751:10770   */\n      swap1\n      pop\n        /* \"#utility.yul\":10410:10776   */\n      swap2\n      swap1\n      pop\n      jump\t// out\n        /* \"#utility.yul\":10782:11201   */\n    tag_45:\n        /* \"#utility.yul\":10948:10952   */\n      0x00\n        /* \"#utility.yul\":10986:10988   */\n      0x20\n        /* \"#utility.yul\":10975:10984   */\n      dup3\n        /* \"#utility.yul\":10971:10989   */\n      add\n        /* \"#utility.yul\":10963:10989   */\n      swap1\n      pop\n        /* \"#utility.yul\":11035:11044   */\n      dup2\n        /* \"#utility.yul\":11029:11033   */\n      dup2\n        /* \"#utility.yul\":11025:11045   */\n      sub\n        /* \"#utility.yul\":11021:11022   */\n      0x00\n        /* \"#utility.yul\":11010:11019   */\n      dup4\n        /* \"#utility.yul\":11006:11023   */\n      add\n        /* \"#utility.yul\":10999:11046   */\n      mstore\n        /* \"#utility.yul\":11063:11194   */\n      tag_235\n        /* \"#utility.yul\":11189:11193   */\n      dup2\n        /* \"#utility.yul\":11063:11194   */\n      tag_105\n      jump\t// in\n    tag_235:\n        /* \"#utility.yul\":11055:11194   */\n      swap1\n      pop\n        /* \"#utility.yul\":10782:11201   */\n      swap2\n      swap1\n      pop\n      jump\t// out\n        /* \"#utility.yul\":11207:11387   */\n    tag_106:\n        /* \"#utility.yul\":11255:11332   */\n      0x4e487b7100000000000000000000000000000000000000000000000000000000\n        /* \"#utility.yul\":11252:11253   */\n      0x00\n        /* \"#utility.yul\":11245:11333   */\n      mstore\n        /* \"#utility.yul\":11352:11356   */\n      0x22\n        /* \"#utility.yul\":11349:11350   */\n      0x04\n        /* \"#utility.yul\":11342:11357   */\n      mstore\n        /* \"#utility.yul\":11376:11380   */\n      0x24\n        /* \"#utility.yul\":11373:11374   */\n      0x00\n        /* \"#utility.yul\":11366:11381   */\n      revert\n        /* \"#utility.yul\":11393:11713   */\n    tag_55:\n        /* \"#utility.yul\":11437:11443   */\n      0x00\n        /* \"#utility.yul\":11474:11475   */\n      0x02\n        /* \"#utility.yul\":11468:11472   */\n      dup3\n        /* \"#utility.yul\":11464:11476   */\n      div\n        /* \"#utility.yul\":11454:11476   */\n      swap1\n      pop\n        /* \"#utility.yul\":11521:11522   */\n      0x01\n        /* \"#utility.yul\":11515:11519   */\n      dup3\n        /* \"#utility.yul\":11511:11523   */\n      and\n        /* \"#utility.yul\":11542:11560   */\n      dup1\n        /* \"#utility.yul\":11532:11613   */\n      tag_238\n      jumpi\n        /* \"#utility.yul\":11598:11602   */\n      0x7f\n        /* \"#utility.yul\":11590:11596   */\n      dup3\n        /* \"#utility.yul\":11586:11603   */\n      and\n        /* \"#utility.yul\":11576:11603   */\n      swap2\n      pop\n        /* \"#utility.yul\":11532:11613   */\n    tag_238:\n        /* \"#utility.yul\":11660:11662   */\n      0x20\n        /* \"#utility.yul\":11652:11658   */\n      dup3\n        /* \"#utility.yul\":11649:11663   */\n      lt\n        /* \"#utility.yul\":11629:11647   */\n      dup2\n        /* \"#utility.yul\":11626:11664   */\n      sub\n        /* \"#utility.yul\":11623:11707   */\n      tag_239\n      jumpi\n        /* \"#utility.yul\":11679:11697   */\n      tag_240\n      tag_106\n      jump\t// in\n    tag_240:\n        /* \"#utility.yul\":11623:11707   */\n    tag_239:\n        /* \"#utility.yul\":11444:11713   */\n      pop\n        /* \"#utility.yul\":11393:11713   */\n      swap2\n      swap1\n      pop\n      jump\t// out\n        /* \"#utility.yul\":11719:11860   */\n    tag_107:\n        /* \"#utility.yul\":11768:11772   */\n      0x00\n        /* \"#utility.yul\":11791:11794   */\n      dup2\n        /* \"#utility.yul\":11783:11794   */\n      swap1\n      pop\n        /* \"#utility.yul\":11814:11817   */\n      dup2\n        /* \"#utility.yul\":11811:11812   */\n      0x00\n        /* \"#utility.yul\":11804:11818   */\n      mstore\n        /* \"#utility.yul\":11848:11852   */\n      0x20\n        /* \"#utility.yul\":11845:11846   */\n      0x00\n        /* \"#utility.yul\":11835:11853   */\n      keccak256\n        /* \"#utility.yul\":11827:11853   */\n      swap1\n      pop\n        /* \"#utility.yul\":11719:11860   */\n      swap2\n      swap1\n      pop\n      jump\t// out\n        /* \"#utility.yul\":11866:11959   */\n    tag_108:\n        /* \"#utility.yul\":11903:11909   */\n      0x00\n        /* \"#utility.yul\":11950:11952   */\n      0x20\n        /* \"#utility.yul\":11945:11947   */\n      0x1f\n        /* \"#utility.yul\":11938:11943   */\n      dup4\n        /* \"#utility.yul\":11934:11948   */\n      add\n        /* \"#utility.yul\":11930:11953   */\n      div\n        /* \"#utility.yul\":11920:11953   */\n      swap1\n      pop\n        /* \"#utility.yul\":11866:11959   */\n      swap2\n      swap1\n      pop\n      jump\t// out\n        /* \"#utility.yul\":11965:12072   */\n    tag_109:\n        /* \"#utility.yul\":12009:12017   */\n      0x00\n        /* \"#utility.yul\":12059:12064   */\n      dup3\n        /* \"#utility.yul\":12053:12057   */\n      dup3\n        /* \"#utility.yul\":12049:12065   */\n      shl\n        /* \"#utility.yul\":12028:12065   */\n      swap1\n      pop\n        /* \"#utility.yul\":11965:12072   */\n      swap3\n      swap2\n      pop\n      pop\n      jump\t// out\n        /* \"#utility.yul\":12078:12471   */\n    tag_110:\n        /* \"#utility.yul\":12147:12153   */\n      0x00\n        /* \"#utility.yul\":12197:12198   */\n      0x08\n        /* \"#utility.yul\":12185:12195   */\n      dup4\n        /* \"#utility.yul\":12181:12199   */\n      mul\n        /* \"#utility.yul\":12220:12317   */\n      tag_245\n        /* \"#utility.yul\":12250:12316   */\n      0xffffffffffffffffffffffffffffffffffffffffffffffffffffffffffffffff\n        /* \"#utility.yul\":12239:12248   */\n      dup3\n        /* \"#utility.yul\":12220:12317   */\n      tag_109\n      jump\t// in\n    tag_245:\n        /* \"#utility.yul\":12338:12377   */\n      tag_246\n        /* \"#utility.yul\":12368:12376   */\n      dup7\n        /* \"#utility.yul\":12357:12366   */\n      dup4\n        /* \"#utility.yul\":12338:12377   */\n      tag_109\n      jump\t// in\n    tag_246:\n        /* \"#utility.yul\":12326:12377   */\n      swap6\n      pop\n        /* \"#utility.yul\":12410:12414   */\n      dup1\n        /* \"#utility.yul\":12406:12415   */\n      not\n        /* \"#utility.yul\":12399:12404   */\n      dup5\n        /* \"#utility.yul\":12395:12416   */\n      and\n        /* \"#utility.yul\":12386:12416   */\n      swap4\n      pop\n        /* \"#utility.yul\":12459:12463   */\n      dup1\n        /* \"#utility.yul\":12449:12457   */\n      dup7\n        /* \"#utility.yul\":12445:12464   */\n      and\n        /* \"#utility.yul\":12438:12443   */\n      dup5\n        /* \"#utility.yul\":12435:12465   */\n      or\n        /* \"#utility.yul\":12425:12465   */\n      swap3\n      pop\n        /* \"#utility.yul\":12154:12471   */\n      pop\n      pop\n        /* \"#utility.yul\":12078:12471   */\n      swap4\n      swap3\n      pop\n      pop\n      pop\n      jump\t// out\n        /* \"#utility.yul\":12477:12554   */\n    tag_111:\n        /* \"#utility.yul\":12514:12521   */\n      0x00\n        /* \"#utility.yul\":12543:12548   */\n      dup2\n        /* \"#utility.yul\":12532:12548   */\n      swap1\n      pop\n        /* \"#utility.yul\":12477:12554   */\n      swap2\n      swap1\n      pop\n      jump\t// out\n        /* \"#utility.yul\":12560:12620   */\n    tag_112:\n        /* \"#utility.yul\":12588:12591   */\n      0x00\n        /* \"#utility.yul\":12609:12614   */\n      dup2\n        /* \"#utility.yul\":12602:12614   */\n      swap1\n      pop\n        /* \"#utility.yul\":12560:12620   */\n      swap2\n      swap1\n      pop\n      jump\t// out\n        /* \"#utility.yul\":12626:12768   */\n    tag_113:\n        /* \"#utility.yul\":12676:12685   */\n      0x00\n        /* \"#utility.yul\":12709:12762   */\n      tag_250\n        /* \"#utility.yul\":12727:12761   */\n      tag_251\n        /* \"#utility.yul\":12736:12760   */\n      tag_252\n        /* \"#utility.yul\":12754:12759   */\n      dup5\n        /* \"#utility.yul\":12736:12760   */\n      tag_111\n      jump\t// in\n    tag_252:\n        /* \"#utility.yul\":12727:12761   */\n      tag_112\n      jump\t// in\n    tag_251:\n        /* \"#utility.yul\":12709:12762   */\n      tag_111\n      jump\t// in\n    tag_250:\n        /* \"#utility.yul\":12696:12762   */\n      swap1\n      pop\n        /* \"#utility.yul\":12626:12768   */\n      swap2\n      swap1\n      pop\n      jump\t// out\n        /* \"#utility.yul\":12774:12849   */\n    tag_114:\n        /* \"#utility.yul\":12817:12820   */\n      0x00\n        /* \"#utility.yul\":12838:12843   */\n      dup2\n        /* \"#utility.yul\":12831:12843   */\n      swap1\n      pop\n        /* \"#utility.yul\":12774:12849   */\n      swap2\n      swap1\n      pop\n      jump\t// out\n        /* \"#utility.yul\":12855:13124   */\n    tag_115:\n        /* \"#utility.yul\":12965:13004   */\n      tag_255\n        /* \"#utility.yul\":12996:13003   */\n      dup4\n        /* \"#utility.yul\":12965:13004   */\n      tag_113\n      jump\t// in\n    tag_255:\n        /* \"#utility.yul\":13026:13117   */\n      tag_256\n        /* \"#utility.yul\":13075:13116   */\n      tag_257\n        /* \"#utility.yul\":13099:13115   */\n      dup3\n        /* \"#utility.yul\":13075:13116   */\n      tag_114\n      jump\t// in\n    tag_257:\n        /* \"#utility.yul\":13067:13073   */\n      dup5\n        /* \"#utility.yul\":13060:13064   */\n      dup5\n        /* \"#utility.yul\":13054:13065   */\n      sload\n        /* \"#utility.yul\":13026:13117   */\n      tag_110\n      jump\t// in\n    tag_256:\n        /* \"#utility.yul\":13020:13024   */\n      dup3\n        /* \"#utility.yul\":13013:13118   */\n      sstore\n        /* \"#utility.yul\":12931:13124   */\n      pop\n        /* \"#utility.yul\":12855:13124   */\n      pop\n      pop\n      pop\n      jump\t// out\n        /* \"#utility.yul\":13130:13203   */\n    tag_116:\n        /* \"#utility.yul\":13175:13178   */\n      0x00\n        /* \"#utility.yul\":13130:13203   */\n      swap1\n      jump\t// out\n        /* \"#utility.yul\":13209:13398   */\n    tag_117:\n        /* \"#utility.yul\":13286:13318   */\n      tag_260\n      tag_116\n      jump\t// in\n    tag_260:\n        /* \"#utility.yul\":13327:13392   */\n      tag_261\n        /* \"#utility.yul\":13385:13391   */\n      dup2\n        /* \"#utility.yul\":13377:13383   */\n      dup5\n        /* \"#utility.yul\":13371:13375   */\n      dup5\n        /* \"#utility.yul\":13327:13392   */\n      tag_115\n      jump\t// in\n    tag_261:\n        /* \"#utility.yul\":13262:13398   */\n      pop\n        /* \"#utility.yul\":13209:13398   */\n      pop\n      pop\n      jump\t// out\n        /* \"#utility.yul\":13404:13590   */\n    tag_118:\n        /* \"#utility.yul\":13464:13584   */\n    tag_263:\n        /* \"#utility.yul\":13481:13484   */\n      dup2\n        /* \"#utility.yul\":13474:13479   */\n      dup2\n        /* \"#utility.yul\":13471:13485   */\n      lt\n        /* \"#utility.yul\":13464:13584   */\n      iszero\n      tag_265\n      jumpi\n        /* \"#utility.yul\":13535:13574   */\n      tag_266\n        /* \"#utility.yul\":13572:13573   */\n      0x00\n        /* \"#utility.yul\":13565:13570   */\n      dup3\n        /* \"#utility.yul\":13535:13574   */\n      tag_117\n      jump\t// in\n    tag_266:\n        /* \"#utility.yul\":13508:13509   */\n      0x01\n        /* \"#utility.yul\":13501:13506   */\n      dup2\n        /* \"#utility.yul\":13497:13510   */\n      add\n        /* \"#utility.yul\":13488:13510   */\n      swap1\n      pop\n        /* \"#utility.yul\":13464:13584   */\n      jump(tag_263)\n    tag_265:\n        /* \"#utility.yul\":13404:13590   */\n      pop\n      pop\n      jump\t// out\n        /* \"#utility.yul\":13596:14139   */\n    tag_119:\n        /* \"#utility.yul\":13697:13699   */\n      0x1f\n        /* \"#utility.yul\":13692:13695   */\n      dup3\n        /* \"#utility.yul\":13689:13700   */\n      gt\n        /* \"#utility.yul\":13686:14132   */\n      iszero\n      tag_268\n      jumpi\n        /* \"#utility.yul\":13731:13769   */\n      tag_269\n        /* \"#utility.yul\":13763:13768   */\n      dup2\n        /* \"#utility.yul\":13731:13769   */\n      tag_107\n      jump\t// in\n    tag_269:\n        /* \"#utility.yul\":13815:13844   */\n      tag_270\n        /* \"#utility.yul\":13833:13843   */\n      dup5\n        /* \"#utility.yul\":13815:13844   */\n      tag_108\n      jump\t// in\n    tag_270:\n        /* \"#utility.yul\":13805:13813   */\n      dup2\n        /* \"#utility.yul\":13801:13845   */\n      add\n        /* \"#utility.yul\":13998:14000   */\n      0x20\n        /* \"#utility.yul\":13986:13996   */\n      dup6\n        /* \"#utility.yul\":13983:14001   */\n      lt\n        /* \"#utility.yul\":13980:14029   */\n      iszero\n      tag_271\n      jumpi\n        /* \"#utility.yul\":14019:14027   */\n      dup2\n        /* \"#utility.yul\":14004:14027   */\n      swap1\n      pop\n        /* \"#utility.yul\":13980:14029   */\n    tag_271:\n        /* \"#utility.yul\":14042:14122   */\n      tag_272\n        /* \"#utility.yul\":14098:14120   */\n      tag_273\n        /* \"#utility.yul\":14116:14119   */\n      dup6\n        /* \"#utility.yul\":14098:14120   */\n      tag_108\n      jump\t// in\n    tag_273:\n        /* \"#utility.yul\":14088:14096   */\n      dup4\n        /* \"#utility.yul\":14084:14121   */\n      add\n        /* \"#utility.yul\":14071:14082   */\n      dup3\n        /* \"#utility.yul\":14042:14122   */\n      tag_118\n      jump\t// in\n    tag_272:\n        /* \"#utility.yul\":13701:14132   */\n      pop\n      pop\n        /* \"#utility.yul\":13686:14132   */\n    tag_268:\n        /* \"#utility.yul\":13596:14139   */\n      pop\n      pop\n      pop\n      jump\t// out\n        /* \"#utility.yul\":14145:14262   */\n    tag_120:\n        /* \"#utility.yul\":14199:14207   */\n      0x00\n        /* \"#utility.yul\":14249:14254   */\n      dup3\n        /* \"#utility.yul\":14243:14247   */\n      dup3\n        /* \"#utility.yul\":14239:14255   */\n      shr\n        /* \"#utility.yul\":14218:14255   */\n      swap1\n      pop\n        /* \"#utility.yul\":14145:14262   */\n      swap3\n      swap2\n      pop\n      pop\n      jump\t// out\n        /* \"#utility.yul\":14268:14437   */\n    tag_121:\n        /* \"#utility.yul\":14312:14318   */\n      0x00\n        /* \"#utility.yul\":14345:14396   */\n      tag_276\n        /* \"#utility.yul\":14393:14394   */\n      0x00\n        /* \"#utility.yul\":14389:14395   */\n      not\n        /* \"#utility.yul\":14381:14386   */\n      dup5\n        /* \"#utility.yul\":14378:14379   */\n      0x08\n        /* \"#utility.yul\":14374:14387   */\n      mul\n        /* \"#utility.yul\":14345:14396   */\n      tag_120\n      jump\t// in\n    tag_276:\n        /* \"#utility.yul\":14341:14397   */\n      not\n        /* \"#utility.yul\":14426:14430   */\n      dup1\n        /* \"#utility.yul\":14420:14424   */\n      dup4\n        /* \"#utility.yul\":14416:14431   */\n      and\n        /* \"#utility.yul\":14406:14431   */\n      swap2\n      pop\n        /* \"#utility.yul\":14319:14437   */\n      pop\n        /* \"#utility.yul\":14268:14437   */\n      swap3\n      swap2\n      pop\n      pop\n      jump\t// out\n        /* \"#utility.yul\":14442:14737   */\n    tag_122:\n        /* \"#utility.yul\":14518:14522   */\n      0x00\n        /* \"#utility.yul\":14664:14693   */\n      tag_278\n        /* \"#utility.yul\":14689:14692   */\n      dup4\n        /* \"#utility.yul\":14683:14687   */\n      dup4\n        /* \"#utility.yul\":14664:14693   */\n      tag_121\n      jump\t// in\n    tag_278:\n        /* \"#utility.yul\":14656:14693   */\n      swap2\n      pop\n        /* \"#utility.yul\":14726:14729   */\n      dup3\n        /* \"#utility.yul\":14723:14724   */\n      0x02\n        /* \"#utility.yul\":14719:14730   */\n      mul\n        /* \"#utility.yul\":14713:14717   */\n      dup3\n        /* \"#utility.yul\":14710:14731   */\n      or\n        /* \"#utility.yul\":14702:14731   */\n      swap1\n      pop\n        /* \"#utility.yul\":14442:14737   */\n      swap3\n      swap2\n      pop\n      pop\n      jump\t// out\n        /* \"#utility.yul\":14742:16137   */\n    tag_48:\n        /* \"#utility.yul\":14859:14896   */\n      tag_280\n        /* \"#utility.yul\":14892:14895   */\n      dup3\n        /* \"#utility.yul\":14859:14896   */\n      tag_92\n      jump\t// in\n    tag_280:\n        /* \"#utility.yul\":14961:14979   */\n      0xffffffffffffffff\n        /* \"#utility.yul\":14953:14959   */\n      dup2\n        /* \"#utility.yul\":14950:14980   */\n      gt\n        /* \"#utility.yul\":14947:15003   */\n      iszero\n      tag_281\n      jumpi\n        /* \"#utility.yul\":14983:15001   */\n      tag_282\n      tag_82\n      jump\t// in\n    tag_282:\n        /* \"#utility.yul\":14947:15003   */\n    tag_281:\n        /* \"#utility.yul\":15027:15065   */\n      tag_283\n        /* \"#utility.yul\":15059:15063   */\n      dup3\n        /* \"#utility.yul\":15053:15064   */\n      sload\n        /* \"#utility.yul\":15027:15065   */\n      tag_55\n      jump\t// in\n    tag_283:\n        /* \"#utility.yul\":15112:15179   */\n      tag_284\n        /* \"#utility.yul\":15172:15178   */\n      dup3\n        /* \"#utility.yul\":15164:15170   */\n      dup3\n        /* \"#utility.yul\":15158:15162   */\n      dup6\n        /* \"#utility.yul\":15112:15179   */\n      tag_119\n      jump\t// in\n    tag_284:\n        /* \"#utility.yul\":15206:15207   */\n      0x00\n        /* \"#utility.yul\":15230:15234   */\n      0x20\n        /* \"#utility.yul\":15217:15234   */\n      swap1\n      pop\n        /* \"#utility.yul\":15262:15264   */\n      0x1f\n        /* \"#utility.yul\":15254:15260   */\n      dup4\n        /* \"#utility.yul\":15251:15265   */\n      gt\n        /* \"#utility.yul\":15279:15280   */\n      0x01\n        /* \"#utility.yul\":15274:15892   */\n      dup2\n      eq\n      tag_286\n      jumpi\n        /* \"#utility.yul\":15936:15937   */\n      0x00\n        /* \"#utility.yul\":15953:15959   */\n      dup5\n        /* \"#utility.yul\":15950:16027   */\n      iszero\n      tag_287\n      jumpi\n        /* \"#utility.yul\":16002:16011   */\n      dup3\n        /* \"#utility.yul\":15997:16000   */\n      dup8\n        /* \"#utility.yul\":15993:16012   */\n      add\n        /* \"#utility.yul\":15987:16013   */\n      mload\n        /* \"#utility.yul\":15978:16013   */\n      swap1\n      pop\n        /* \"#utility.yul\":15950:16027   */\n    tag_287:\n        /* \"#utility.yul\":16053:16120   */\n      tag_288\n        /* \"#utility.yul\":16113:16119   */\n      dup6\n        /* \"#utility.yul\":16106:16111   */\n      dup3\n        /* \"#utility.yul\":16053:16120   */\n      tag_122\n      jump\t// in\n    tag_288:\n        /* \"#utility.yul\":16047:16051   */\n      dup7\n        /* \"#utility.yul\":16040:16121   */\n      sstore\n        /* \"#utility.yul\":15909:16131   */\n      pop\n        /* \"#utility.yul\":15244:16131   */\n      jump(tag_285)\n        /* \"#utility.yul\":15274:15892   */\n    tag_286:\n        /* \"#utility.yul\":15326:15330   */\n      0x1f\n        /* \"#utility.yul\":15322:15331   */\n      not\n        /* \"#utility.yul\":15314:15320   */\n      dup5\n        /* \"#utility.yul\":15310:15332   */\n      and\n        /* \"#utility.yul\":15360:15397   */\n      tag_289\n        /* \"#utility.yul\":15392:15396   */\n      dup7\n        /* \"#utility.yul\":15360:15397   */\n      tag_107\n      jump\t// in\n    tag_289:\n        /* \"#utility.yul\":15419:15420   */\n      0x00\n        /* \"#utility.yul\":15433:15641   */\n    tag_290:\n        /* \"#utility.yul\":15447:15454   */\n      dup3\n        /* \"#utility.yul\":15444:15445   */\n      dup2\n        /* \"#utility.yul\":15441:15455   */\n      lt\n        /* \"#utility.yul\":15433:15641   */\n      iszero\n      tag_292\n      jumpi\n        /* \"#utility.yul\":15526:15535   */\n      dup5\n        /* \"#utility.yul\":15521:15524   */\n      dup10\n        /* \"#utility.yul\":15517:15536   */\n      add\n        /* \"#utility.yul\":15511:15537   */\n      mload\n        /* \"#utility.yul\":15503:15509   */\n      dup3\n        /* \"#utility.yul\":15496:15538   */\n      sstore\n        /* \"#utility.yul\":15577:15578   */\n      0x01\n        /* \"#utility.yul\":15569:15575   */\n      dup3\n        /* \"#utility.yul\":15565:15579   */\n      add\n        /* \"#utility.yul\":15555:15579   */\n      swap2\n      pop\n        /* \"#utility.yul\":15624:15626   */\n      0x20\n        /* \"#utility.yul\":15613:15622   */\n      dup6\n        /* \"#utility.yul\":15609:15627   */\n      add\n        /* \"#utility.yul\":15596:15627   */\n      swap5\n      pop\n        /* \"#utility.yul\":15470:15474   */\n      0x20\n        /* \"#utility.yul\":15467:15468   */\n      dup2\n        /* \"#utility.yul\":15463:15475   */\n      add\n        /* \"#utility.yul\":15458:15475   */\n      swap1\n      pop\n        /* \"#utility.yul\":15433:15641   */\n      jump(tag_290)\n    tag_292:\n        /* \"#utility.yul\":15669:15675   */\n      dup7\n        /* \"#utility.yul\":15660:15667   */\n      dup4\n        /* \"#utility.yul\":15657:15676   */\n      lt\n        /* \"#utility.yul\":15654:15833   */\n      iszero\n      tag_293\n      jumpi\n        /* \"#utility.yul\":15727:15736   */\n      dup5\n        /* \"#utility.yul\":15722:15725   */\n      dup10\n        /* \"#utility.yul\":15718:15737   */\n      add\n        /* \"#utility.yul\":15712:15738   */\n      mload\n        /* \"#utility.yul\":15770:15818   */\n      tag_294\n        /* \"#utility.yul\":15812:15816   */\n      0x1f\n        /* \"#utility.yul\":15804:15810   */\n      dup10\n        /* \"#utility.yul\":15800:15817   */\n      and\n        /* \"#utility.yul\":15789:15798   */\n      dup3\n        /* \"#utility.yul\":15770:15818   */\n      tag_121\n      jump\t// in\n    tag_294:\n        /* \"#utility.yul\":15762:15768   */\n      dup4\n        /* \"#utility.yul\":15755:15819   */\n      sstore\n        /* \"#utility.yul\":15677:15833   */\n      pop\n        /* \"#utility.yul\":15654:15833   */\n    tag_293:\n        /* \"#utility.yul\":15879:15880   */\n      0x01\n        /* \"#utility.yul\":15875:15876   */\n      0x02\n        /* \"#utility.yul\":15867:15873   */\n      dup9\n        /* \"#utility.yul\":15863:15877   */\n      mul\n        /* \"#utility.yul\":15859:15881   */\n      add\n        /* \"#utility.yul\":15853:15857   */\n      dup9\n        /* \"#utility.yul\":15846:15882   */\n      sstore\n        /* \"#utility.yul\":15281:15892   */\n      pop\n      pop\n      pop\n        /* \"#utility.yul\":15244:16131   */\n    tag_285:\n      pop\n        /* \"#utility.yul\":14834:16137   */\n      pop\n      pop\n      pop\n        /* \"#utility.yul\":14742:16137   */\n      pop\n      pop\n      jump\t// out\n        /* \"#utility.yul\":16143:16562   */\n    tag_51:\n        /* \"#utility.yul\":16282:16286   */\n      0x00\n        /* \"#utility.yul\":16320:16322   */\n      0x40\n        /* \"#utility.yul\":16309:16318   */\n      dup3\n        /* \"#utility.yul\":16305:16323   */\n      add\n        /* \"#utility.yul\":16297:16323   */\n      swap1\n      pop\n        /* \"#utility.yul\":16369:16378   */\n      dup2\n        /* \"#utility.yul\":16363:16367   */\n      dup2\n        /* \"#utility.yul\":16359:16379   */\n      sub\n        /* \"#utility.yul\":16355:16356   */\n      0x00\n        /* \"#utility.yul\":16344:16353   */\n      dup4\n        /* \"#utility.yul\":16340:16357   */\n      add\n        /* \"#utility.yul\":16333:16380   */\n      mstore\n        /* \"#utility.yul\":16397:16475   */\n      tag_296\n        /* \"#utility.yul\":16470:16474   */\n      dup2\n        /* \"#utility.yul\":16461:16467   */\n      dup6\n        /* \"#utility.yul\":16397:16475   */\n      tag_95\n      jump\t// in\n    tag_296:\n        /* \"#utility.yul\":16389:16475   */\n      swap1\n      pop\n        /* \"#utility.yul\":16485:16555   */\n      tag_297\n        /* \"#utility.yul\":16551:16553   */\n      0x20\n        /* \"#utility.yul\":16540:16549   */\n      dup4\n        /* \"#utility.yul\":16536:16554   */\n      add\n        /* \"#utility.yul\":16527:16533   */\n      dup5\n        /* \"#utility.yul\":16485:16555   */\n      tag_97\n      jump\t// in\n    tag_297:\n        /* \"#utility.yul\":16143:16562   */\n      swap4\n      swap3\n      pop\n      pop\n      pop\n      jump\t// out\n        /* \"#utility.yul\":16568:16736   */\n    tag_123:\n        /* \"#utility.yul\":16708:16728   */\n      0x436f6e7472616374206e6f7420666f756e640000000000000000000000000000\n        /* \"#utility.yul\":16704:16705   */\n      0x00\n        /* \"#utility.yul\":16696:16702   */\n      dup3\n        /* \"#utility.yul\":16692:16706   */\n      add\n        /* \"#utility.yul\":16685:16729   */\n      mstore\n        /* \"#utility.yul\":16568:16736   */\n      pop\n      jump\t// out\n        /* \"#utility.yul\":16742:17108   */\n    tag_124:\n        /* \"#utility.yul\":16884:16887   */\n      0x00\n        /* \"#utility.yul\":16905:16972   */\n      tag_300\n        /* \"#utility.yul\":16969:16971   */\n      0x12\n        /* \"#utility.yul\":16964:16967   */\n      dup4\n        /* \"#utility.yul\":16905:16972   */\n      tag_93\n      jump\t// in\n    tag_300:\n        /* \"#utility.yul\":16898:16972   */\n      swap2\n      pop\n        /* \"#utility.yul\":16981:17074   */\n      tag_301\n        /* \"#utility.yul\":17070:17073   */\n      dup3\n        /* \"#utility.yul\":16981:17074   */\n      tag_123\n      jump\t// in\n    tag_301:\n        /* \"#utility.yul\":17099:17101   */\n      0x20\n        /* \"#utility.yul\":17094:17097   */\n      dup3\n        /* \"#utility.yul\":17090:17102   */\n      add\n        /* \"#utility.yul\":17083:17102   */\n      swap1\n      pop\n        /* \"#utility.yul\":16742:17108   */\n      swap2\n      swap1\n      pop\n      jump\t// out\n        /* \"#utility.yul\":17114:17533   */\n    tag_62:\n        /* \"#utility.yul\":17280:17284   */\n      0x00\n        /* \"#utility.yul\":17318:17320   */\n      0x20\n        /* \"#utility.yul\":17307:17316   */\n      dup3\n        /* \"#utility.yul\":17303:17321   */\n      add\n        /* \"#utility.yul\":17295:17321   */\n      swap1\n      pop\n        /* \"#utility.yul\":17367:17376   */\n      dup2\n        /* \"#utility.yul\":17361:17365   */\n      dup2\n        /* \"#utility.yul\":17357:17377   */\n      sub\n        /* \"#utility.yul\":17353:17354   */\n      0x00\n        /* \"#utility.yul\":17342:17351   */\n      dup4\n        /* \"#utility.yul\":17338:17355   */\n      add\n        /* \"#utility.yul\":17331:17378   */\n      mstore\n        /* \"#utility.yul\":17395:17526   */\n      tag_303\n        /* \"#utility.yul\":17521:17525   */\n      dup2\n        /* \"#utility.yul\":17395:17526   */\n      tag_124\n      jump\t// in\n    tag_303:\n        /* \"#utility.yul\":17387:17526   */\n      swap1\n      pop\n        /* \"#utility.yul\":17114:17533   */\n      swap2\n      swap1\n      pop\n      jump\t// out\n\n    auxdata: 0xa2646970667358221220e4fa11d3aba9ffb24de3764bc91dc07e0e953ba140a2b9a22402a6362624c94964736f6c634300081a0033\n}\n",
				"bytecode": {
					"linkReferences": {},
					"object": "6080604052348015600e575f80fd5b50610ff38061001c5f395ff3fe608060405234801561000f575f80fd5b5060043610610055575f3560e01c806316279055146100595780631fea226e14610089578063252941cd146100a55780633896f226146100d7578063b66fb09014610107575b5f80fd5b610073600480360381019061006e919061073d565b610139565b6040516100809190610782565b60405180910390f35b6100a3600480360381019061009e919061090a565b61014a565b005b6100bf60048036038101906100ba91906109a6565b6103ce565b6040516100ce93929190610a6b565b60405180910390f35b6100f160048036038101906100ec91906109a6565b610579565b6040516100fe9190610782565b60405180910390f35b610121600480360381019061011c91906109a6565b6105f0565b60405161013093929190610a6b565b60405180910390f35b5f80823b90505f8111915050919050565b5f73ffffffffffffffffffffffffffffffffffffffff168273ffffffffffffffffffffffffffffffffffffffff16036101b8576040517f08c379a00000000000000000000000000000000000000000000000000000000081526004016101af90610af1565b60405180910390fd5b5f73ffffffffffffffffffffffffffffffffffffffff165f856040516101de9190610b49565b90815260200160405180910390206001015f9054906101000a900473ffffffffffffffffffffffffffffffffffffffff1673ffffffffffffffffffffffffffffffffffffffff1614610265576040517f08c379a000000000000000000000000000000000000000000000000000000000815260040161025c90610ba9565b60405180910390fd5b61026e82610139565b6102ad576040517f08c379a00000000000000000000000000000000000000000000000000000000081526004016102a490610c37565b60405180910390fd5b60405180606001604052808481526020018373ffffffffffffffffffffffffffffffffffffffff168152602001828152505f856040516102ed9190610b49565b90815260200160405180910390205f820151815f01908161030e9190610e58565b506020820151816001015f6101000a81548173ffffffffffffffffffffffffffffffffffffffff021916908373ffffffffffffffffffffffffffffffffffffffff160217905550604082015181600201559050508173ffffffffffffffffffffffffffffffffffffffff16846040516103879190610b49565b60405180910390207f750fef9cbabba37dba3294530e977dfe7dcc452afe9ea7bb7f119416b1cf0f0185846040516103c0929190610f27565b60405180910390a350505050565b60605f805f80856040516103e29190610b49565b90815260200160405180910390206040518060600160405290815f8201805461040a90610c82565b80601f016020809104026020016040519081016040528092919081815260200182805461043690610c82565b80156104815780601f1061045857610100808354040283529160200191610481565b820191905f5260205f20905b81548152906001019060200180831161046457829003601f168201915b50505050508152602001600182015f9054906101000a900473ffffffffffffffffffffffffffffffffffffffff1673ffffffffffffffffffffffffffffffffffffffff1673ffffffffffffffffffffffffffffffffffffffff16815260200160028201548152505090505f73ffffffffffffffffffffffffffffffffffffffff16816020015173ffffffffffffffffffffffffffffffffffffffff160361055d576040517f08c379a000000000000000000000000000000000000000000000000000000000815260040161055490610f9f565b60405180910390fd5b805f015181602001518260400151935093509350509193909250565b5f8073ffffffffffffffffffffffffffffffffffffffff165f836040516105a09190610b49565b90815260200160405180910390206001015f9054906101000a900473ffffffffffffffffffffffffffffffffffffffff1673ffffffffffffffffffffffffffffffffffffffff1614159050919050565b5f818051602081018201805184825260208301602085012081835280955050505050505f91509050805f01805461062690610c82565b80601f016020809104026020016040519081016040528092919081815260200182805461065290610c82565b801561069d5780601f106106745761010080835404028352916020019161069d565b820191905f5260205f20905b81548152906001019060200180831161068057829003601f168201915b505050505090806001015f9054906101000a900473ffffffffffffffffffffffffffffffffffffffff16908060020154905083565b5f604051905090565b5f80fd5b5f80fd5b5f73ffffffffffffffffffffffffffffffffffffffff82169050919050565b5f61070c826106e3565b9050919050565b61071c81610702565b8114610726575f80fd5b50565b5f8135905061073781610713565b92915050565b5f60208284031215610752576107516106db565b5b5f61075f84828501610729565b91505092915050565b5f8115159050919050565b61077c81610768565b82525050565b5f6020820190506107955f830184610773565b92915050565b5f80fd5b5f80fd5b5f601f19601f8301169050919050565b7f4e487b71000000000000000000000000000000000000000000000000000000005f52604160045260245ffd5b6107e9826107a3565b810181811067ffffffffffffffff82111715610808576108076107b3565b5b80604052505050565b5f61081a6106d2565b905061082682826107e0565b919050565b5f67ffffffffffffffff821115610845576108446107b3565b5b61084e826107a3565b9050602081019050919050565b828183375f83830152505050565b5f61087b6108768461082b565b610811565b9050828152602081018484840111156108975761089661079f565b5b6108a284828561085b565b509392505050565b5f82601f8301126108be576108bd61079b565b5b81356108ce848260208601610869565b91505092915050565b5f819050919050565b6108e9816108d7565b81146108f3575f80fd5b50565b5f81359050610904816108e0565b92915050565b5f805f8060808587031215610922576109216106db565b5b5f85013567ffffffffffffffff81111561093f5761093e6106df565b5b61094b878288016108aa565b945050602085013567ffffffffffffffff81111561096c5761096b6106df565b5b610978878288016108aa565b935050604061098987828801610729565b925050606061099a878288016108f6565b91505092959194509250565b5f602082840312156109bb576109ba6106db565b5b5f82013567ffffffffffffffff8111156109d8576109d76106df565b5b6109e4848285016108aa565b91505092915050565b5f81519050919050565b5f82825260208201905092915050565b8281835e5f83830152505050565b5f610a1f826109ed565b610a2981856109f7565b9350610a39818560208601610a07565b610a42816107a3565b840191505092915050565b610a5681610702565b82525050565b610a65816108d7565b82525050565b5f6060820190508181035f830152610a838186610a15565b9050610a926020830185610a4d565b610a9f6040830184610a5c565b949350505050565b7f496e76616c696420636f6e7472616374206164647265737300000000000000005f82015250565b5f610adb6018836109f7565b9150610ae682610aa7565b602082019050919050565b5f6020820190508181035f830152610b0881610acf565b9050919050565b5f81905092915050565b5f610b23826109ed565b610b2d8185610b0f565b9350610b3d818560208601610a07565b80840191505092915050565b5f610b548284610b19565b915081905092915050565b7f494420616c7265616479207573656400000000000000000000000000000000005f82015250565b5f610b93600f836109f7565b9150610b9e82610b5f565b602082019050919050565b5f6020820190508181035f830152610bc081610b87565b9050919050565b7f41646472657373206973206e6f742061206465706c6f79656420636f6e7472615f8201527f6374000000000000000000000000000000000000000000000000000000000000602082015250565b5f610c216022836109f7565b9150610c2c82610bc7565b604082019050919050565b5f6020820190508181035f830152610c4e81610c15565b9050919050565b7f4e487b71000000000000000000000000000000000000000000000000000000005f52602260045260245ffd5b5f6002820490506001821680610c9957607f821691505b602082108103610cac57610cab610c55565b5b50919050565b5f819050815f5260205f209050919050565b5f6020601f8301049050919050565b5f82821b905092915050565b5f60088302610d0e7fffffffffffffffffffffffffffffffffffffffffffffffffffffffffffffffff82610cd3565b610d188683610cd3565b95508019841693508086168417925050509392505050565b5f819050919050565b5f819050919050565b5f610d5c610d57610d5284610d30565b610d39565b610d30565b9050919050565b5f819050919050565b610d7583610d42565b610d89610d8182610d63565b848454610cdf565b825550505050565b5f90565b610d9d610d91565b610da8818484610d6c565b505050565b5b81811015610dcb57610dc05f82610d95565b600181019050610dae565b5050565b601f821115610e1057610de181610cb2565b610dea84610cc4565b81016020851015610df9578190505b610e0d610e0585610cc4565b830182610dad565b50505b505050565b5f82821c905092915050565b5f610e305f1984600802610e15565b1980831691505092915050565b5f610e488383610e21565b9150826002028217905092915050565b610e61826109ed565b67ffffffffffffffff811115610e7a57610e796107b3565b5b610e848254610c82565b610e8f828285610dcf565b5f60209050601f831160018114610ec0575f8415610eae578287015190505b610eb88582610e3d565b865550610f1f565b601f198416610ece86610cb2565b5f5b82811015610ef557848901518255600182019150602085019450602081019050610ed0565b86831015610f125784890151610f0e601f891682610e21565b8355505b6001600288020188555050505b505050505050565b5f6040820190508181035f830152610f3f8185610a15565b9050610f4e6020830184610a5c565b9392505050565b7f436f6e7472616374206e6f7420666f756e6400000000000000000000000000005f82015250565b5f610f896012836109f7565b9150610f9482610f55565b602082019050919050565b5f6020820190508181035f830152610fb681610f7d565b905091905056fea2646970667358221220e4fa11d3aba9ffb24de3764bc91dc07e0e953ba140a2b9a22402a6362624c94964736f6c634300081a0033",
					"opcodes": "PUSH1 0x80 PUSH1 0x40 MSTORE CALLVALUE DUP1 ISZERO PUSH1 0xE JUMPI PUSH0 DUP1 REVERT JUMPDEST POP PUSH2 0xFF3 DUP1 PUSH2 0x1C PUSH0 CODECOPY PUSH0 RETURN INVALID PUSH1 0x80 PUSH1 0x40 MSTORE CALLVALUE DUP1 ISZERO PUSH2 0xF JUMPI PUSH0 DUP1 REVERT JUMPDEST POP PUSH1 0x4 CALLDATASIZE LT PUSH2 0x55 JUMPI PUSH0 CALLDATALOAD PUSH1 0xE0 SHR DUP1 PUSH4 0x16279055 EQ PUSH2 0x59 JUMPI DUP1 PUSH4 0x1FEA226E EQ PUSH2 0x89 JUMPI DUP1 PUSH4 0x252941CD EQ PUSH2 0xA5 JUMPI DUP1 PUSH4 0x3896F226 EQ PUSH2 0xD7 JUMPI DUP1 PUSH4 0xB66FB090 EQ PUSH2 0x107 JUMPI JUMPDEST PUSH0 DUP1 REVERT JUMPDEST PUSH2 0x73 PUSH1 0x4 DUP1 CALLDATASIZE SUB DUP2 ADD SWAP1 PUSH2 0x6E SWAP2 SWAP1 PUSH2 0x73D JUMP JUMPDEST PUSH2 0x139 JUMP JUMPDEST PUSH1 0x40 MLOAD PUSH2 0x80 SWAP2 SWAP1 PUSH2 0x782 JUMP JUMPDEST PUSH1 0x40 MLOAD DUP1 SWAP2 SUB SWAP1 RETURN JUMPDEST PUSH2 0xA3 PUSH1 0x4 DUP1 CALLDATASIZE SUB DUP2 ADD SWAP1 PUSH2 0x9E SWAP2 SWAP1 PUSH2 0x90A JUMP JUMPDEST PUSH2 0x14A JUMP JUMPDEST STOP JUMPDEST PUSH2 0xBF PUSH1 0x4 DUP1 CALLDATASIZE SUB DUP2 ADD SWAP1 PUSH2 0xBA SWAP2 SWAP1 PUSH2 0x9A6 JUMP JUMPDEST PUSH2 0x3CE JUMP JUMPDEST PUSH1 0x40 MLOAD PUSH2 0xCE SWAP4 SWAP3 SWAP2 SWAP1 PUSH2 0xA6B JUMP JUMPDEST PUSH1 0x40 MLOAD DUP1 SWAP2 SUB SWAP1 RETURN JUMPDEST PUSH2 0xF1 PUSH1 0x4 DUP1 CALLDATASIZE SUB DUP2 ADD SWAP1 PUSH2 0xEC SWAP2 SWAP1 PUSH2 0x9A6 JUMP JUMPDEST PUSH2 0x579 JUMP JUMPDEST PUSH1 0x40 MLOAD PUSH2 0xFE SWAP2 SWAP1 PUSH2 0x782 JUMP JUMPDEST PUSH1 0x40 MLOAD DUP1 SWAP2 SUB SWAP1 RETURN JUMPDEST PUSH2 0x121 PUSH1 0x4 DUP1 CALLDATASIZE SUB DUP2 ADD SWAP1 PUSH2 0x11C SWAP2 SWAP1 PUSH2 0x9A6 JUMP JUMPDEST PUSH2 0x5F0 JUMP JUMPDEST PUSH1 0x40 MLOAD PUSH2 0x130 SWAP4 SWAP3 SWAP2 SWAP1 PUSH2 0xA6B JUMP JUMPDEST PUSH1 0x40 MLOAD DUP1 SWAP2 SUB SWAP1 RETURN JUMPDEST PUSH0 DUP1 DUP3 EXTCODESIZE SWAP1 POP PUSH0 DUP2 GT SWAP2 POP POP SWAP2 SWAP1 POP JUMP JUMPDEST PUSH0 PUSH20 0xFFFFFFFFFFFFFFFFFFFFFFFFFFFFFFFFFFFFFFFF AND DUP3 PUSH20 0xFFFFFFFFFFFFFFFFFFFFFFFFFFFFFFFFFFFFFFFF AND SUB PUSH2 0x1B8 JUMPI PUSH1 0x40 MLOAD PUSH32 0x8C379A000000000000000000000000000000000000000000000000000000000 DUP2 MSTORE PUSH1 0x4 ADD PUSH2 0x1AF SWAP1 PUSH2 0xAF1 JUMP JUMPDEST PUSH1 0x40 MLOAD DUP1 SWAP2 SUB SWAP1 REVERT JUMPDEST PUSH0 PUSH20 0xFFFFFFFFFFFFFFFFFFFFFFFFFFFFFFFFFFFFFFFF AND PUSH0 DUP6 PUSH1 0x40 MLOAD PUSH2 0x1DE SWAP2 SWAP1 PUSH2 0xB49 JUMP JUMPDEST SWAP1 DUP2 MSTORE PUSH1 0x20 ADD PUSH1 0x40 MLOAD DUP1 SWAP2 SUB SWAP1 KECCAK256 PUSH1 0x1 ADD PUSH0 SWAP1 SLOAD SWAP1 PUSH2 0x100 EXP SWAP1 DIV PUSH20 0xFFFFFFFFFFFFFFFFFFFFFFFFFFFFFFFFFFFFFFFF AND PUSH20 0xFFFFFFFFFFFFFFFFFFFFFFFFFFFFFFFFFFFFFFFF AND EQ PUSH2 0x265 JUMPI PUSH1 0x40 MLOAD PUSH32 0x8C379A000000000000000000000000000000000000000000000000000000000 DUP2 MSTORE PUSH1 0x4 ADD PUSH2 0x25C SWAP1 PUSH2 0xBA9 JUMP JUMPDEST PUSH1 0x40 MLOAD DUP1 SWAP2 SUB SWAP1 REVERT JUMPDEST PUSH2 0x26E DUP3 PUSH2 0x139 JUMP JUMPDEST PUSH2 0x2AD JUMPI PUSH1 0x40 MLOAD PUSH32 0x8C379A000000000000000000000000000000000000000000000000000000000 DUP2 MSTORE PUSH1 0x4 ADD PUSH2 0x2A4 SWAP1 PUSH2 0xC37 JUMP JUMPDEST PUSH1 0x40 MLOAD DUP1 SWAP2 SUB SWAP1 REVERT JUMPDEST PUSH1 0x40 MLOAD DUP1 PUSH1 0x60 ADD PUSH1 0x40 MSTORE DUP1 DUP5 DUP2 MSTORE PUSH1 0x20 ADD DUP4 PUSH20 0xFFFFFFFFFFFFFFFFFFFFFFFFFFFFFFFFFFFFFFFF AND DUP2 MSTORE PUSH1 0x20 ADD DUP3 DUP2 MSTORE POP PUSH0 DUP6 PUSH1 0x40 MLOAD PUSH2 0x2ED SWAP2 SWAP1 PUSH2 0xB49 JUMP JUMPDEST SWAP1 DUP2 MSTORE PUSH1 0x20 ADD PUSH1 0x40 MLOAD DUP1 SWAP2 SUB SWAP1 KECCAK256 PUSH0 DUP3 ADD MLOAD DUP2 PUSH0 ADD SWAP1 DUP2 PUSH2 0x30E SWAP2 SWAP1 PUSH2 0xE58 JUMP JUMPDEST POP PUSH1 0x20 DUP3 ADD MLOAD DUP2 PUSH1 0x1 ADD PUSH0 PUSH2 0x100 EXP DUP2 SLOAD DUP2 PUSH20 0xFFFFFFFFFFFFFFFFFFFFFFFFFFFFFFFFFFFFFFFF MUL NOT AND SWAP1 DUP4 PUSH20 0xFFFFFFFFFFFFFFFFFFFFFFFFFFFFFFFFFFFFFFFF AND MUL OR SWAP1 SSTORE POP PUSH1 0x40 DUP3 ADD MLOAD DUP2 PUSH1 0x2 ADD SSTORE SWAP1 POP POP DUP2 PUSH20 0xFFFFFFFFFFFFFFFFFFFFFFFFFFFFFFFFFFFFFFFF AND DUP5 PUSH1 0x40 MLOAD PUSH2 0x387 SWAP2 SWAP1 PUSH2 0xB49 JUMP JUMPDEST PUSH1 0x40 MLOAD DUP1 SWAP2 SUB SWAP1 KECCAK256 PUSH32 0x750FEF9CBABBA37DBA3294530E977DFE7DCC452AFE9EA7BB7F119416B1CF0F01 DUP6 DUP5 PUSH1 0x40 MLOAD PUSH2 0x3C0 SWAP3 SWAP2 SWAP1 PUSH2 0xF27 JUMP JUMPDEST PUSH1 0x40 MLOAD DUP1 SWAP2 SUB SWAP1 LOG3 POP POP POP POP JUMP JUMPDEST PUSH1 0x60 PUSH0 DUP1 PUSH0 DUP1 DUP6 PUSH1 0x40 MLOAD PUSH2 0x3E2 SWAP2 SWAP1 PUSH2 0xB49 JUMP JUMPDEST SWAP1 DUP2 MSTORE PUSH1 0x20 ADD PUSH1 0x40 MLOAD DUP1 SWAP2 SUB SWAP1 KECCAK256 PUSH1 0x40 MLOAD DUP1 PUSH1 0x60 ADD PUSH1 0x40 MSTORE SWAP1 DUP2 PUSH0 DUP3 ADD DUP1 SLOAD PUSH2 0x40A SWAP1 PUSH2 0xC82 JUMP JUMPDEST DUP1 PUSH1 0x1F ADD PUSH1 0x20 DUP1 SWAP2 DIV MUL PUSH1 0x20 ADD PUSH1 0x40 MLOAD SWAP1 DUP2 ADD PUSH1 0x40 MSTORE DUP1 SWAP3 SWAP2 SWAP1 DUP2 DUP2 MSTORE PUSH1 0x20 ADD DUP3 DUP1 SLOAD PUSH2 0x436 SWAP1 PUSH2 0xC82 JUMP JUMPDEST DUP1 ISZERO PUSH2 0x481 JUMPI DUP1 PUSH1 0x1F LT PUSH2 0x458 JUMPI PUSH2 0x100 DUP1 DUP4 SLOAD DIV MUL DUP4 MSTORE SWAP2 PUSH1 0x20 ADD SWAP2 PUSH2 0x481 JUMP JUMPDEST DUP3 ADD SWAP2 SWAP1 PUSH0 MSTORE PUSH1 0x20 PUSH0 KECCAK256 SWAP1 JUMPDEST DUP2 SLOAD DUP2 MSTORE SWAP1 PUSH1 0x1 ADD SWAP1 PUSH1 0x20 ADD DUP1 DUP4 GT PUSH2 0x464 JUMPI DUP3 SWAP1 SUB PUSH1 0x1F AND DUP3 ADD SWAP2 JUMPDEST POP POP POP POP POP DUP2 MSTORE PUSH1 0x20 ADD PUSH1 0x1 DUP3 ADD PUSH0 SWAP1 SLOAD SWAP1 PUSH2 0x100 EXP SWAP1 DIV PUSH20 0xFFFFFFFFFFFFFFFFFFFFFFFFFFFFFFFFFFFFFFFF AND PUSH20 0xFFFFFFFFFFFFFFFFFFFFFFFFFFFFFFFFFFFFFFFF AND PUSH20 0xFFFFFFFFFFFFFFFFFFFFFFFFFFFFFFFFFFFFFFFF AND DUP2 MSTORE PUSH1 0x20 ADD PUSH1 0x2 DUP3 ADD SLOAD DUP2 MSTORE POP POP SWAP1 POP PUSH0 PUSH20 0xFFFFFFFFFFFFFFFFFFFFFFFFFFFFFFFFFFFFFFFF AND DUP2 PUSH1 0x20 ADD MLOAD PUSH20 0xFFFFFFFFFFFFFFFFFFFFFFFFFFFFFFFFFFFFFFFF AND SUB PUSH2 0x55D JUMPI PUSH1 0x40 MLOAD PUSH32 0x8C379A000000000000000000000000000000000000000000000000000000000 DUP2 MSTORE PUSH1 0x4 ADD PUSH2 0x554 SWAP1 PUSH2 0xF9F JUMP JUMPDEST PUSH1 0x40 MLOAD DUP1 SWAP2 SUB SWAP1 REVERT JUMPDEST DUP1 PUSH0 ADD MLOAD DUP2 PUSH1 0x20 ADD MLOAD DUP3 PUSH1 0x40 ADD MLOAD SWAP4 POP SWAP4 POP SWAP4 POP POP SWAP2 SWAP4 SWAP1 SWAP3 POP JUMP JUMPDEST PUSH0 DUP1 PUSH20 0xFFFFFFFFFFFFFFFFFFFFFFFFFFFFFFFFFFFFFFFF AND PUSH0 DUP4 PUSH1 0x40 MLOAD PUSH2 0x5A0 SWAP2 SWAP1 PUSH2 0xB49 JUMP JUMPDEST SWAP1 DUP2 MSTORE PUSH1 0x20 ADD PUSH1 0x40 MLOAD DUP1 SWAP2 SUB SWAP1 KECCAK256 PUSH1 0x1 ADD PUSH0 SWAP1 SLOAD SWAP1 PUSH2 0x100 EXP SWAP1 DIV PUSH20 0xFFFFFFFFFFFFFFFFFFFFFFFFFFFFFFFFFFFFFFFF AND PUSH20 0xFFFFFFFFFFFFFFFFFFFFFFFFFFFFFFFFFFFFFFFF AND EQ ISZERO SWAP1 POP SWAP2 SWAP1 POP JUMP JUMPDEST PUSH0 DUP2 DUP1 MLOAD PUSH1 0x20 DUP2 ADD DUP3 ADD DUP1 MLOAD DUP5 DUP3 MSTORE PUSH1 0x20 DUP4 ADD PUSH1 0x20 DUP6 ADD KECCAK256 DUP2 DUP4 MSTORE DUP1 SWAP6 POP POP POP POP POP POP PUSH0 SWAP2 POP SWAP1 POP DUP1 PUSH0 ADD DUP1 SLOAD PUSH2 0x626 SWAP1 PUSH2 0xC82 JUMP JUMPDEST DUP1 PUSH1 0x1F ADD PUSH1 0x20 DUP1 SWAP2 DIV MUL PUSH1 0x20 ADD PUSH1 0x40 MLOAD SWAP1 DUP2 ADD PUSH1 0x40 MSTORE DUP1 SWAP3 SWAP2 SWAP1 DUP2 DUP2 MSTORE PUSH1 0x20 ADD DUP3 DUP1 SLOAD PUSH2 0x652 SWAP1 PUSH2 0xC82 JUMP JUMPDEST DUP1 ISZERO PUSH2 0x69D JUMPI DUP1 PUSH1 0x1F LT PUSH2 0x674 JUMPI PUSH2 0x100 DUP1 DUP4 SLOAD DIV MUL DUP4 MSTORE SWAP2 PUSH1 0x20 ADD SWAP2 PUSH2 0x69D JUMP JUMPDEST DUP3 ADD SWAP2 SWAP1 PUSH0 MSTORE PUSH1 0x20 PUSH0 KECCAK256 SWAP1 JUMPDEST DUP2 SLOAD DUP2 MSTORE SWAP1 PUSH1 0x1 ADD SWAP1 PUSH1 0x20 ADD DUP1 DUP4 GT PUSH2 0x680 JUMPI DUP3 SWAP1 SUB PUSH1 0x1F AND DUP3 ADD SWAP2 JUMPDEST POP POP POP POP POP SWAP1 DUP1 PUSH1 0x1 ADD PUSH0 SWAP1 SLOAD SWAP1 PUSH2 0x100 EXP SWAP1 DIV PUSH20 0xFFFFFFFFFFFFFFFFFFFFFFFFFFFFFFFFFFFFFFFF AND SWAP1 DUP1 PUSH1 0x2 ADD SLOAD SWAP1 POP DUP4 JUMP JUMPDEST PUSH0 PUSH1 0x40 MLOAD SWAP1 POP SWAP1 JUMP JUMPDEST PUSH0 DUP1 REVERT JUMPDEST PUSH0 DUP1 REVERT JUMPDEST PUSH0 PUSH20 0xFFFFFFFFFFFFFFFFFFFFFFFFFFFFFFFFFFFFFFFF DUP3 AND SWAP1 POP SWAP2 SWAP1 POP JUMP JUMPDEST PUSH0 PUSH2 0x70C DUP3 PUSH2 0x6E3 JUMP JUMPDEST SWAP1 POP SWAP2 SWAP1 POP JUMP JUMPDEST PUSH2 0x71C DUP2 PUSH2 0x702 JUMP JUMPDEST DUP2 EQ PUSH2 0x726 JUMPI PUSH0 DUP1 REVERT JUMPDEST POP JUMP JUMPDEST PUSH0 DUP2 CALLDATALOAD SWAP1 POP PUSH2 0x737 DUP2 PUSH2 0x713 JUMP JUMPDEST SWAP3 SWAP2 POP POP JUMP JUMPDEST PUSH0 PUSH1 0x20 DUP3 DUP5 SUB SLT ISZERO PUSH2 0x752 JUMPI PUSH2 0x751 PUSH2 0x6DB JUMP JUMPDEST JUMPDEST PUSH0 PUSH2 0x75F DUP5 DUP3 DUP6 ADD PUSH2 0x729 JUMP JUMPDEST SWAP2 POP POP SWAP3 SWAP2 POP POP JUMP JUMPDEST PUSH0 DUP2 ISZERO ISZERO SWAP1 POP SWAP2 SWAP1 POP JUMP JUMPDEST PUSH2 0x77C DUP2 PUSH2 0x768 JUMP JUMPDEST DUP3 MSTORE POP POP JUMP JUMPDEST PUSH0 PUSH1 0x20 DUP3 ADD SWAP1 POP PUSH2 0x795 PUSH0 DUP4 ADD DUP5 PUSH2 0x773 JUMP JUMPDEST SWAP3 SWAP2 POP POP JUMP JUMPDEST PUSH0 DUP1 REVERT JUMPDEST PUSH0 DUP1 REVERT JUMPDEST PUSH0 PUSH1 0x1F NOT PUSH1 0x1F DUP4 ADD AND SWAP1 POP SWAP2 SWAP1 POP JUMP JUMPDEST PUSH32 0x4E487B7100000000000000000000000000000000000000000000000000000000 PUSH0 MSTORE PUSH1 0x41 PUSH1 0x4 MSTORE PUSH1 0x24 PUSH0 REVERT JUMPDEST PUSH2 0x7E9 DUP3 PUSH2 0x7A3 JUMP JUMPDEST DUP2 ADD DUP2 DUP2 LT PUSH8 0xFFFFFFFFFFFFFFFF DUP3 GT OR ISZERO PUSH2 0x808 JUMPI PUSH2 0x807 PUSH2 0x7B3 JUMP JUMPDEST JUMPDEST DUP1 PUSH1 0x40 MSTORE POP POP POP JUMP JUMPDEST PUSH0 PUSH2 0x81A PUSH2 0x6D2 JUMP JUMPDEST SWAP1 POP PUSH2 0x826 DUP3 DUP3 PUSH2 0x7E0 JUMP JUMPDEST SWAP2 SWAP1 POP JUMP JUMPDEST PUSH0 PUSH8 0xFFFFFFFFFFFFFFFF DUP3 GT ISZERO PUSH2 0x845 JUMPI PUSH2 0x844 PUSH2 0x7B3 JUMP JUMPDEST JUMPDEST PUSH2 0x84E DUP3 PUSH2 0x7A3 JUMP JUMPDEST SWAP1 POP PUSH1 0x20 DUP2 ADD SWAP1 POP SWAP2 SWAP1 POP JUMP JUMPDEST DUP3 DUP2 DUP4 CALLDATACOPY PUSH0 DUP4 DUP4 ADD MSTORE POP POP POP JUMP JUMPDEST PUSH0 PUSH2 0x87B PUSH2 0x876 DUP5 PUSH2 0x82B JUMP JUMPDEST PUSH2 0x811 JUMP JUMPDEST SWAP1 POP DUP3 DUP2 MSTORE PUSH1 0x20 DUP2 ADD DUP5 DUP5 DUP5 ADD GT ISZERO PUSH2 0x897 JUMPI PUSH2 0x896 PUSH2 0x79F JUMP JUMPDEST JUMPDEST PUSH2 0x8A2 DUP5 DUP3 DUP6 PUSH2 0x85B JUMP JUMPDEST POP SWAP4 SWAP3 POP POP POP JUMP JUMPDEST PUSH0 DUP3 PUSH1 0x1F DUP4 ADD SLT PUSH2 0x8BE JUMPI PUSH2 0x8BD PUSH2 0x79B JUMP JUMPDEST JUMPDEST DUP2 CALLDATALOAD PUSH2 0x8CE DUP5 DUP3 PUSH1 0x20 DUP7 ADD PUSH2 0x869 JUMP JUMPDEST SWAP2 POP POP SWAP3 SWAP2 POP POP JUMP JUMPDEST PUSH0 DUP2 SWAP1 POP SWAP2 SWAP1 POP JUMP JUMPDEST PUSH2 0x8E9 DUP2 PUSH2 0x8D7 JUMP JUMPDEST DUP2 EQ PUSH2 0x8F3 JUMPI PUSH0 DUP1 REVERT JUMPDEST POP JUMP JUMPDEST PUSH0 DUP2 CALLDATALOAD SWAP1 POP PUSH2 0x904 DUP2 PUSH2 0x8E0 JUMP JUMPDEST SWAP3 SWAP2 POP POP JUMP JUMPDEST PUSH0 DUP1 PUSH0 DUP1 PUSH1 0x80 DUP6 DUP8 SUB SLT ISZERO PUSH2 0x922 JUMPI PUSH2 0x921 PUSH2 0x6DB JUMP JUMPDEST JUMPDEST PUSH0 DUP6 ADD CALLDATALOAD PUSH8 0xFFFFFFFFFFFFFFFF DUP2 GT ISZERO PUSH2 0x93F JUMPI PUSH2 0x93E PUSH2 0x6DF JUMP JUMPDEST JUMPDEST PUSH2 0x94B DUP8 DUP3 DUP9 ADD PUSH2 0x8AA JUMP JUMPDEST SWAP5 POP POP PUSH1 0x20 DUP6 ADD CALLDATALOAD PUSH8 0xFFFFFFFFFFFFFFFF DUP2 GT ISZERO PUSH2 0x96C JUMPI PUSH2 0x96B PUSH2 0x6DF JUMP JUMPDEST JUMPDEST PUSH2 0x978 DUP8 DUP3 DUP9 ADD PUSH2 0x8AA JUMP JUMPDEST SWAP4 POP POP PUSH1 0x40 PUSH2 0x989 DUP8 DUP3 DUP9 ADD PUSH2 0x729 JUMP JUMPDEST SWAP3 POP POP PUSH1 0x60 PUSH2 0x99A DUP8 DUP3 DUP9 ADD PUSH2 0x8F6 JUMP JUMPDEST SWAP2 POP POP SWAP3 SWAP6 SWAP2 SWAP5 POP SWAP3 POP JUMP JUMPDEST PUSH0 PUSH1 0x20 DUP3 DUP5 SUB SLT ISZERO PUSH2 0x9BB JUMPI PUSH2 0x9BA PUSH2 0x6DB JUMP JUMPDEST JUMPDEST PUSH0 DUP3 ADD CALLDATALOAD PUSH8 0xFFFFFFFFFFFFFFFF DUP2 GT ISZERO PUSH2 0x9D8 JUMPI PUSH2 0x9D7 PUSH2 0x6DF JUMP JUMPDEST JUMPDEST PUSH2 0x9E4 DUP5 DUP3 DUP6 ADD PUSH2 0x8AA JUMP JUMPDEST SWAP2 POP POP SWAP3 SWAP2 POP POP JUMP JUMPDEST PUSH0 DUP2 MLOAD SWAP1 POP SWAP2 SWAP1 POP JUMP JUMPDEST PUSH0 DUP3 DUP3 MSTORE PUSH1 0x20 DUP3 ADD SWAP1 POP SWAP3 SWAP2 POP POP JUMP JUMPDEST DUP3 DUP2 DUP4 MCOPY PUSH0 DUP4 DUP4 ADD MSTORE POP POP POP JUMP JUMPDEST PUSH0 PUSH2 0xA1F DUP3 PUSH2 0x9ED JUMP JUMPDEST PUSH2 0xA29 DUP2 DUP6 PUSH2 0x9F7 JUMP JUMPDEST SWAP4 POP PUSH2 0xA39 DUP2 DUP6 PUSH1 0x20 DUP7 ADD PUSH2 0xA07 JUMP JUMPDEST PUSH2 0xA42 DUP2 PUSH2 0x7A3 JUMP JUMPDEST DUP5 ADD SWAP2 POP POP SWAP3 SWAP2 POP POP JUMP JUMPDEST PUSH2 0xA56 DUP2 PUSH2 0x702 JUMP JUMPDEST DUP3 MSTORE POP POP JUMP JUMPDEST PUSH2 0xA65 DUP2 PUSH2 0x8D7 JUMP JUMPDEST DUP3 MSTORE POP POP JUMP JUMPDEST PUSH0 PUSH1 0x60 DUP3 ADD SWAP1 POP DUP2 DUP2 SUB PUSH0 DUP4 ADD MSTORE PUSH2 0xA83 DUP2 DUP7 PUSH2 0xA15 JUMP JUMPDEST SWAP1 POP PUSH2 0xA92 PUSH1 0x20 DUP4 ADD DUP6 PUSH2 0xA4D JUMP JUMPDEST PUSH2 0xA9F PUSH1 0x40 DUP4 ADD DUP5 PUSH2 0xA5C JUMP JUMPDEST SWAP5 SWAP4 POP POP POP POP JUMP JUMPDEST PUSH32 0x496E76616C696420636F6E747261637420616464726573730000000000000000 PUSH0 DUP3 ADD MSTORE POP JUMP JUMPDEST PUSH0 PUSH2 0xADB PUSH1 0x18 DUP4 PUSH2 0x9F7 JUMP JUMPDEST SWAP2 POP PUSH2 0xAE6 DUP3 PUSH2 0xAA7 JUMP JUMPDEST PUSH1 0x20 DUP3 ADD SWAP1 POP SWAP2 SWAP1 POP JUMP JUMPDEST PUSH0 PUSH1 0x20 DUP3 ADD SWAP1 POP DUP2 DUP2 SUB PUSH0 DUP4 ADD MSTORE PUSH2 0xB08 DUP2 PUSH2 0xACF JUMP JUMPDEST SWAP1 POP SWAP2 SWAP1 POP JUMP JUMPDEST PUSH0 DUP2 SWAP1 POP SWAP3 SWAP2 POP POP JUMP JUMPDEST PUSH0 PUSH2 0xB23 DUP3 PUSH2 0x9ED JUMP JUMPDEST PUSH2 0xB2D DUP2 DUP6 PUSH2 0xB0F JUMP JUMPDEST SWAP4 POP PUSH2 0xB3D DUP2 DUP6 PUSH1 0x20 DUP7 ADD PUSH2 0xA07 JUMP JUMPDEST DUP1 DUP5 ADD SWAP2 POP POP SWAP3 SWAP2 POP POP JUMP JUMPDEST PUSH0 PUSH2 0xB54 DUP3 DUP5 PUSH2 0xB19 JUMP JUMPDEST SWAP2 POP DUP2 SWAP1 POP SWAP3 SWAP2 POP POP JUMP JUMPDEST PUSH32 0x494420616C726561647920757365640000000000000000000000000000000000 PUSH0 DUP3 ADD MSTORE POP JUMP JUMPDEST PUSH0 PUSH2 0xB93 PUSH1 0xF DUP4 PUSH2 0x9F7 JUMP JUMPDEST SWAP2 POP PUSH2 0xB9E DUP3 PUSH2 0xB5F JUMP JUMPDEST PUSH1 0x20 DUP3 ADD SWAP1 POP SWAP2 SWAP1 POP JUMP JUMPDEST PUSH0 PUSH1 0x20 DUP3 ADD SWAP1 POP DUP2 DUP2 SUB PUSH0 DUP4 ADD MSTORE PUSH2 0xBC0 DUP2 PUSH2 0xB87 JUMP JUMPDEST SWAP1 POP SWAP2 SWAP1 POP JUMP JUMPDEST PUSH32 0x41646472657373206973206E6F742061206465706C6F79656420636F6E747261 PUSH0 DUP3 ADD MSTORE PUSH32 0x6374000000000000000000000000000000000000000000000000000000000000 PUSH1 0x20 DUP3 ADD MSTORE POP JUMP JUMPDEST PUSH0 PUSH2 0xC21 PUSH1 0x22 DUP4 PUSH2 0x9F7 JUMP JUMPDEST SWAP2 POP PUSH2 0xC2C DUP3 PUSH2 0xBC7 JUMP JUMPDEST PUSH1 0x40 DUP3 ADD SWAP1 POP SWAP2 SWAP1 POP JUMP JUMPDEST PUSH0 PUSH1 0x20 DUP3 ADD SWAP1 POP DUP2 DUP2 SUB PUSH0 DUP4 ADD MSTORE PUSH2 0xC4E DUP2 PUSH2 0xC15 JUMP JUMPDEST SWAP1 POP SWAP2 SWAP1 POP JUMP JUMPDEST PUSH32 0x4E487B7100000000000000000000000000000000000000000000000000000000 PUSH0 MSTORE PUSH1 0x22 PUSH1 0x4 MSTORE PUSH1 0x24 PUSH0 REVERT JUMPDEST PUSH0 PUSH1 0x2 DUP3 DIV SWAP1 POP PUSH1 0x1 DUP3 AND DUP1 PUSH2 0xC99 JUMPI PUSH1 0x7F DUP3 AND SWAP2 POP JUMPDEST PUSH1 0x20 DUP3 LT DUP2 SUB PUSH2 0xCAC JUMPI PUSH2 0xCAB PUSH2 0xC55 JUMP JUMPDEST JUMPDEST POP SWAP2 SWAP1 POP JUMP JUMPDEST PUSH0 DUP2 SWAP1 POP DUP2 PUSH0 MSTORE PUSH1 0x20 PUSH0 KECCAK256 SWAP1 POP SWAP2 SWAP1 POP JUMP JUMPDEST PUSH0 PUSH1 0x20 PUSH1 0x1F DUP4 ADD DIV SWAP1 POP SWAP2 SWAP1 POP JUMP JUMPDEST PUSH0 DUP3 DUP3 SHL SWAP1 POP SWAP3 SWAP2 POP POP JUMP JUMPDEST PUSH0 PUSH1 0x8 DUP4 MUL PUSH2 0xD0E PUSH32 0xFFFFFFFFFFFFFFFFFFFFFFFFFFFFFFFFFFFFFFFFFFFFFFFFFFFFFFFFFFFFFFFF DUP3 PUSH2 0xCD3 JUMP JUMPDEST PUSH2 0xD18 DUP7 DUP4 PUSH2 0xCD3 JUMP JUMPDEST SWAP6 POP DUP1 NOT DUP5 AND SWAP4 POP DUP1 DUP7 AND DUP5 OR SWAP3 POP POP POP SWAP4 SWAP3 POP POP POP JUMP JUMPDEST PUSH0 DUP2 SWAP1 POP SWAP2 SWAP1 POP JUMP JUMPDEST PUSH0 DUP2 SWAP1 POP SWAP2 SWAP1 POP JUMP JUMPDEST PUSH0 PUSH2 0xD5C PUSH2 0xD57 PUSH2 0xD52 DUP5 PUSH2 0xD30 JUMP JUMPDEST PUSH2 0xD39 JUMP JUMPDEST PUSH2 0xD30 JUMP JUMPDEST SWAP1 POP SWAP2 SWAP1 POP JUMP JUMPDEST PUSH0 DUP2 SWAP1 POP SWAP2 SWAP1 POP JUMP JUMPDEST PUSH2 0xD75 DUP4 PUSH2 0xD42 JUMP JUMPDEST PUSH2 0xD89 PUSH2 0xD81 DUP3 PUSH2 0xD63 JUMP JUMPDEST DUP5 DUP5 SLOAD PUSH2 0xCDF JUMP JUMPDEST DUP3 SSTORE POP POP POP POP JUMP JUMPDEST PUSH0 SWAP1 JUMP JUMPDEST PUSH2 0xD9D PUSH2 0xD91 JUMP JUMPDEST PUSH2 0xDA8 DUP2 DUP5 DUP5 PUSH2 0xD6C JUMP JUMPDEST POP POP POP JUMP JUMPDEST JUMPDEST DUP2 DUP2 LT ISZERO PUSH2 0xDCB JUMPI PUSH2 0xDC0 PUSH0 DUP3 PUSH2 0xD95 JUMP JUMPDEST PUSH1 0x1 DUP2 ADD SWAP1 POP PUSH2 0xDAE JUMP JUMPDEST POP POP JUMP JUMPDEST PUSH1 0x1F DUP3 GT ISZERO PUSH2 0xE10 JUMPI PUSH2 0xDE1 DUP2 PUSH2 0xCB2 JUMP JUMPDEST PUSH2 0xDEA DUP5 PUSH2 0xCC4 JUMP JUMPDEST DUP2 ADD PUSH1 0x20 DUP6 LT ISZERO PUSH2 0xDF9 JUMPI DUP2 SWAP1 POP JUMPDEST PUSH2 0xE0D PUSH2 0xE05 DUP6 PUSH2 0xCC4 JUMP JUMPDEST DUP4 ADD DUP3 PUSH2 0xDAD JUMP JUMPDEST POP POP JUMPDEST POP POP POP JUMP JUMPDEST PUSH0 DUP3 DUP3 SHR SWAP1 POP SWAP3 SWAP2 POP POP JUMP JUMPDEST PUSH0 PUSH2 0xE30 PUSH0 NOT DUP5 PUSH1 0x8 MUL PUSH2 0xE15 JUMP JUMPDEST NOT DUP1 DUP4 AND SWAP2 POP POP SWAP3 SWAP2 POP POP JUMP JUMPDEST PUSH0 PUSH2 0xE48 DUP4 DUP4 PUSH2 0xE21 JUMP JUMPDEST SWAP2 POP DUP3 PUSH1 0x2 MUL DUP3 OR SWAP1 POP SWAP3 SWAP2 POP POP JUMP JUMPDEST PUSH2 0xE61 DUP3 PUSH2 0x9ED JUMP JUMPDEST PUSH8 0xFFFFFFFFFFFFFFFF DUP2 GT ISZERO PUSH2 0xE7A JUMPI PUSH2 0xE79 PUSH2 0x7B3 JUMP JUMPDEST JUMPDEST PUSH2 0xE84 DUP3 SLOAD PUSH2 0xC82 JUMP JUMPDEST PUSH2 0xE8F DUP3 DUP3 DUP6 PUSH2 0xDCF JUMP JUMPDEST PUSH0 PUSH1 0x20 SWAP1 POP PUSH1 0x1F DUP4 GT PUSH1 0x1 DUP2 EQ PUSH2 0xEC0 JUMPI PUSH0 DUP5 ISZERO PUSH2 0xEAE JUMPI DUP3 DUP8 ADD MLOAD SWAP1 POP JUMPDEST PUSH2 0xEB8 DUP6 DUP3 PUSH2 0xE3D JUMP JUMPDEST DUP7 SSTORE POP PUSH2 0xF1F JUMP JUMPDEST PUSH1 0x1F NOT DUP5 AND PUSH2 0xECE DUP7 PUSH2 0xCB2 JUMP JUMPDEST PUSH0 JUMPDEST DUP3 DUP2 LT ISZERO PUSH2 0xEF5 JUMPI DUP5 DUP10 ADD MLOAD DUP3 SSTORE PUSH1 0x1 DUP3 ADD SWAP2 POP PUSH1 0x20 DUP6 ADD SWAP5 POP PUSH1 0x20 DUP2 ADD SWAP1 POP PUSH2 0xED0 JUMP JUMPDEST DUP7 DUP4 LT ISZERO PUSH2 0xF12 JUMPI DUP5 DUP10 ADD MLOAD PUSH2 0xF0E PUSH1 0x1F DUP10 AND DUP3 PUSH2 0xE21 JUMP JUMPDEST DUP4 SSTORE POP JUMPDEST PUSH1 0x1 PUSH1 0x2 DUP9 MUL ADD DUP9 SSTORE POP POP POP JUMPDEST POP POP POP POP POP POP JUMP JUMPDEST PUSH0 PUSH1 0x40 DUP3 ADD SWAP1 POP DUP2 DUP2 SUB PUSH0 DUP4 ADD MSTORE PUSH2 0xF3F DUP2 DUP6 PUSH2 0xA15 JUMP JUMPDEST SWAP1 POP PUSH2 0xF4E PUSH1 0x20 DUP4 ADD DUP5 PUSH2 0xA5C JUMP JUMPDEST SWAP4 SWAP3 POP POP POP JUMP JUMPDEST PUSH32 0x436F6E7472616374206E6F7420666F756E640000000000000000000000000000 PUSH0 DUP3 ADD MSTORE POP JUMP JUMPDEST PUSH0 PUSH2 0xF89 PUSH1 0x12 DUP4 PUSH2 0x9F7 JUMP JUMPDEST SWAP2 POP PUSH2 0xF94 DUP3 PUSH2 0xF55 JUMP JUMPDEST PUSH1 0x20 DUP3 ADD SWAP1 POP SWAP2 SWAP1 POP JUMP JUMPDEST PUSH0 PUSH1 0x20 DUP3 ADD SWAP1 POP DUP2 DUP2 SUB PUSH0 DUP4 ADD MSTORE PUSH2 0xFB6 DUP2 PUSH2 0xF7D JUMP JUMPDEST SWAP1 POP SWAP2 SWAP1 POP JUMP INVALID LOG2 PUSH5 0x6970667358 0x22 SLT KECCAK256 0xE4 STATICCALL GT 0xD3 0xAB 0xA9 SELFDESTRUCT 0xB2 0x4D 0xE3 PUSH23 0x4BC91DC07E0E953BA140A2B9A22402A6362624C9496473 PUSH16 0x6C634300081A00330000000000000000 "
				},
				"gasEstimates": {
					"creation": {
						"codeDepositCost": "816600",
						"executionCost": "849",
						"totalCost": "817449"
					},
					"external": {
						"getNFTInfo(string)": "infinite",
						"isContract(address)": "3243",
						"isContractRegistered(string)": "infinite",
						"nfts(string)": "infinite",
						"registerNFT(string,string,address,int256)": "infinite"
					}
				},
				"methodIdentifiers": {
					"getNFTInfo(string)": "252941cd",
					"isContract(address)": "16279055",
					"isContractRegistered(string)": "3896f226",
					"nfts(string)": "b66fb090",
					"registerNFT(string,string,address,int256)": "1fea226e"
				}
			},
			"storageLayout": {
				"storage": [
					{
						"astId": 13,
						"contract": "test.sol:NFTregistry",
						"label": "nfts",
						"offset": 0,
						"slot": "0",
						"type": "t_mapping(t_string_memory_ptr,t_struct(NFTInfo)8_storage)"
					}
				],
				"types": {
					"t_address": {
						"encoding": "inplace",
						"label": "address",
						"numberOfBytes": "20"
					},
					"t_int256": {
						"encoding": "inplace",
						"label": "int256",
						"numberOfBytes": "32"
					},
					"t_mapping(t_string_memory_ptr,t_struct(NFTInfo)8_storage)": {
						"encoding": "mapping",
						"key": "t_string_memory_ptr",
						"label": "mapping(string => struct NFTregistry.NFTInfo)",
						"numberOfBytes": "32",
						"value": "t_struct(NFTInfo)8_storage"
					},
					"t_string_memory_ptr": {
						"encoding": "bytes",
						"label": "string",
						"numberOfBytes": "32"
					},
					"t_string_storage": {
						"encoding": "bytes",
						"label": "string",
						"numberOfBytes": "32"
					},
					"t_struct(NFTInfo)8_storage": {
						"encoding": "inplace",
						"label": "struct NFTregistry.NFTInfo",
						"members": [
							{
								"astId": 3,
								"contract": "test.sol:NFTregistry",
								"label": "chainid",
								"offset": 0,
								"slot": "0",
								"type": "t_string_storage"
							},
							{
								"astId": 5,
								"contract": "test.sol:NFTregistry",
								"label": "contractaddress",
								"offset": 0,
								"slot": "1",
								"type": "t_address"
							},
							{
								"astId": 7,
								"contract": "test.sol:NFTregistry",
								"label": "tokenid",
								"offset": 0,
								"slot": "2",
								"type": "t_int256"
							}
						],
						"numberOfBytes": "96"
					}
				}
			},
			"userdoc": {
				"kind": "user",
				"methods": {},
				"version": 1
			}
		}
	}
}