{
	"test.sol": {
		"NFTregistry": {
			"abi": [
				{
					"anonymous": false,
					"inputs": [
						{
							"indexed": true,
							"internalType": "string",
							"name": "filehash",
							"type": "string"
						},
						{
							"indexed": false,
							"internalType": "uint256",
							"name": "chainid",
							"type": "uint256"
						},
						{
							"indexed": true,
							"internalType": "address",
							"name": "contractAddress",
							"type": "address"
						},
						{
							"indexed": false,
							"internalType": "uint256",
							"name": "tokenid",
							"type": "uint256"
						}
					],
					"name": "NFTRegistered",
					"type": "event"
				},
				{
					"inputs": [
						{
							"internalType": "string",
							"name": "filehash",
							"type": "string"
						}
					],
					"name": "getNFTInfo",
					"outputs": [
						{
							"internalType": "uint256",
							"name": "",
							"type": "uint256"
						},
						{
							"internalType": "address",
							"name": "",
							"type": "address"
						},
						{
							"internalType": "uint256",
							"name": "",
							"type": "uint256"
						}
					],
					"stateMutability": "view",
					"type": "function"
				},
				{
					"inputs": [
						{
							"internalType": "string",
							"name": "filehash",
							"type": "string"
						}
					],
					"name": "isContractRegistered",
					"outputs": [
						{
							"internalType": "bool",
							"name": "",
							"type": "bool"
						}
					],
					"stateMutability": "view",
					"type": "function"
				},
				{
					"inputs": [
						{
							"internalType": "string",
							"name": "",
							"type": "string"
						}
					],
					"name": "nfts",
					"outputs": [
						{
							"internalType": "uint256",
							"name": "chainid",
							"type": "uint256"
						},
						{
							"internalType": "address",
							"name": "contractaddress",
							"type": "address"
						},
						{
							"internalType": "uint256",
							"name": "tokenid",
							"type": "uint256"
						}
					],
					"stateMutability": "view",
					"type": "function"
				},
				{
					"inputs": [
						{
							"internalType": "string",
							"name": "filehash",
							"type": "string"
						},
						{
							"internalType": "uint256",
							"name": "chain",
							"type": "uint256"
						},
						{
							"internalType": "address",
							"name": "contractAddress",
							"type": "address"
						},
						{
							"internalType": "uint256",
							"name": "tokenid",
							"type": "uint256"
						}
					],
					"name": "registerNFT",
					"outputs": [],
					"stateMutability": "nonpayable",
					"type": "function"
				}
			],
			"devdoc": {
				"kind": "dev",
				"methods": {},
				"version": 1
			},
			"evm": {
				"assembly": "    /* \"test.sol\":106:1439  contract NFTregistry{... */\n  mstore(0x40, 0x80)\n  callvalue\n  dup1\n  iszero\n  tag_1\n  jumpi\n  0x00\n  dup1\n  revert\ntag_1:\n  pop\n  dataSize(sub_0)\n  dup1\n  dataOffset(sub_0)\n  0x00\n  codecopy\n  0x00\n  return\nstop\n\nsub_0: assembly {\n        /* \"test.sol\":106:1439  contract NFTregistry{... */\n      mstore(0x40, 0x80)\n      callvalue\n      dup1\n      iszero\n      tag_1\n      jumpi\n      0x00\n      dup1\n      revert\n    tag_1:\n      pop\n      jumpi(tag_2, lt(calldatasize, 0x04))\n      shr(0xe0, calldataload(0x00))\n      dup1\n      0x252941cd\n      eq\n      tag_3\n      jumpi\n      dup1\n      0x3896f226\n      eq\n      tag_4\n      jumpi\n      dup1\n      0x882815d3\n      eq\n      tag_5\n      jumpi\n      dup1\n      0xb66fb090\n      eq\n      tag_6\n      jumpi\n    tag_2:\n      0x00\n      dup1\n      revert\n        /* \"test.sol\":983:1274  function getNFTInfo(string memory filehash) public view returns (uint256, address, uint256) {... */\n    tag_3:\n      tag_7\n      0x04\n      dup1\n      calldatasize\n      sub\n      dup2\n      add\n      swap1\n      tag_8\n      swap2\n      swap1\n      tag_9\n      jump\t// in\n    tag_8:\n      tag_10\n      jump\t// in\n    tag_7:\n      mload(0x40)\n      tag_11\n      swap4\n      swap3\n      swap2\n      swap1\n      tag_12\n      jump\t// in\n    tag_11:\n      mload(0x40)\n      dup1\n      swap2\n      sub\n      swap1\n      return\n        /* \"test.sol\":1283:1434  function isContractRegistered(string memory filehash) public view returns (bool) {... */\n    tag_4:\n      tag_13\n      0x04\n      dup1\n      calldatasize\n      sub\n      dup2\n      add\n      swap1\n      tag_14\n      swap2\n      swap1\n      tag_9\n      jump\t// in\n    tag_14:\n      tag_15\n      jump\t// in\n    tag_13:\n      mload(0x40)\n      tag_16\n      swap2\n      swap1\n      tag_17\n      jump\t// in\n    tag_16:\n      mload(0x40)\n      dup1\n      swap2\n      sub\n      swap1\n      return\n        /* \"test.sol\":418:975  function registerNFT(string memory filehash,  uint256 chain, address contractAddress, uint256 tokenid) public {... */\n    tag_5:\n      tag_18\n      0x04\n      dup1\n      calldatasize\n      sub\n      dup2\n      add\n      swap1\n      tag_19\n      swap2\n      swap1\n      tag_20\n      jump\t// in\n    tag_19:\n      tag_21\n      jump\t// in\n    tag_18:\n      stop\n        /* \"test.sol\":249:287  mapping(string => NFTInfo) public nfts */\n    tag_6:\n      tag_22\n      0x04\n      dup1\n      calldatasize\n      sub\n      dup2\n      add\n      swap1\n      tag_23\n      swap2\n      swap1\n      tag_9\n      jump\t// in\n    tag_23:\n      tag_24\n      jump\t// in\n    tag_22:\n      mload(0x40)\n      tag_25\n      swap4\n      swap3\n      swap2\n      swap1\n      tag_12\n      jump\t// in\n    tag_25:\n      mload(0x40)\n      dup1\n      swap2\n      sub\n      swap1\n      return\n        /* \"test.sol\":983:1274  function getNFTInfo(string memory filehash) public view returns (uint256, address, uint256) {... */\n    tag_10:\n        /* \"test.sol\":1048:1055  uint256 */\n      0x00\n        /* \"test.sol\":1057:1064  address */\n      dup1\n        /* \"test.sol\":1066:1073  uint256 */\n      0x00\n        /* \"test.sol\":1086:1105  NFTInfo memory info */\n      dup1\n        /* \"test.sol\":1108:1112  nfts */\n      0x00\n        /* \"test.sol\":1113:1121  filehash */\n      dup6\n        /* \"test.sol\":1108:1122  nfts[filehash] */\n      mload(0x40)\n      tag_27\n      swap2\n      swap1\n      tag_28\n      jump\t// in\n    tag_27:\n      swap1\n      dup2\n      mstore\n      0x20\n      add\n      mload(0x40)\n      dup1\n      swap2\n      sub\n      swap1\n      keccak256\n        /* \"test.sol\":1086:1122  NFTInfo memory info = nfts[filehash] */\n      mload(0x40)\n      dup1\n      0x60\n      add\n      0x40\n      mstore\n      swap1\n      dup2\n      0x00\n      dup3\n      add\n      sload\n      dup2\n      mstore\n      0x20\n      add\n      0x01\n      dup3\n      add\n      0x00\n      swap1\n      sload\n      swap1\n      0x0100\n      exp\n      swap1\n      div\n      0xffffffffffffffffffffffffffffffffffffffff\n      and\n      0xffffffffffffffffffffffffffffffffffffffff\n      and\n      0xffffffffffffffffffffffffffffffffffffffff\n      and\n      dup2\n      mstore\n      0x20\n      add\n      0x02\n      dup3\n      add\n      sload\n      dup2\n      mstore\n      pop\n      pop\n      swap1\n      pop\n        /* \"test.sol\":1173:1174  0 */\n      0x00\n        /* \"test.sol\":1141:1175  info.contractaddress != address(0) */\n      0xffffffffffffffffffffffffffffffffffffffff\n      and\n        /* \"test.sol\":1141:1145  info */\n      dup2\n        /* \"test.sol\":1141:1161  info.contractaddress */\n      0x20\n      add\n      mload\n        /* \"test.sol\":1141:1175  info.contractaddress != address(0) */\n      0xffffffffffffffffffffffffffffffffffffffff\n      and\n      sub\n        /* \"test.sol\":1133:1198  require(info.contractaddress != address(0), \"Contract not found\") */\n      tag_29\n      jumpi\n      mload(0x40)\n      0x08c379a000000000000000000000000000000000000000000000000000000000\n      dup2\n      mstore\n      0x04\n      add\n      tag_30\n      swap1\n      tag_31\n      jump\t// in\n    tag_30:\n      mload(0x40)\n      dup1\n      swap2\n      sub\n      swap1\n      revert\n    tag_29:\n        /* \"test.sol\":1217:1221  info */\n      dup1\n        /* \"test.sol\":1217:1229  info.chainid */\n      0x00\n      add\n      mload\n        /* \"test.sol\":1231:1235  info */\n      dup2\n        /* \"test.sol\":1231:1251  info.contractaddress */\n      0x20\n      add\n      mload\n        /* \"test.sol\":1253:1257  info */\n      dup3\n        /* \"test.sol\":1253:1265  info.tokenid */\n      0x40\n      add\n      mload\n        /* \"test.sol\":1209:1266  return (info.chainid, info.contractaddress, info.tokenid) */\n      swap4\n      pop\n      swap4\n      pop\n      swap4\n      pop\n      pop\n        /* \"test.sol\":983:1274  function getNFTInfo(string memory filehash) public view returns (uint256, address, uint256) {... */\n      swap2\n      swap4\n      swap1\n      swap3\n      pop\n      jump\t// out\n        /* \"test.sol\":1283:1434  function isContractRegistered(string memory filehash) public view returns (bool) {... */\n    tag_15:\n        /* \"test.sol\":1358:1362  bool */\n      0x00\n        /* \"test.sol\":1424:1425  0 */\n      dup1\n        /* \"test.sol\":1382:1426  nfts[filehash].contractaddress != address(0) */\n      0xffffffffffffffffffffffffffffffffffffffff\n      and\n        /* \"test.sol\":1382:1386  nfts */\n      0x00\n        /* \"test.sol\":1387:1395  filehash */\n      dup4\n        /* \"test.sol\":1382:1396  nfts[filehash] */\n      mload(0x40)\n      tag_33\n      swap2\n      swap1\n      tag_28\n      jump\t// in\n    tag_33:\n      swap1\n      dup2\n      mstore\n      0x20\n      add\n      mload(0x40)\n      dup1\n      swap2\n      sub\n      swap1\n      keccak256\n        /* \"test.sol\":1382:1412  nfts[filehash].contractaddress */\n      0x01\n      add\n      0x00\n      swap1\n      sload\n      swap1\n      0x0100\n      exp\n      swap1\n      div\n      0xffffffffffffffffffffffffffffffffffffffff\n      and\n        /* \"test.sol\":1382:1426  nfts[filehash].contractaddress != address(0) */\n      0xffffffffffffffffffffffffffffffffffffffff\n      and\n      eq\n      iszero\n        /* \"test.sol\":1375:1426  return nfts[filehash].contractaddress != address(0) */\n      swap1\n      pop\n        /* \"test.sol\":1283:1434  function isContractRegistered(string memory filehash) public view returns (bool) {... */\n      swap2\n      swap1\n      pop\n      jump\t// out\n        /* \"test.sol\":418:975  function registerNFT(string memory filehash,  uint256 chain, address contractAddress, uint256 tokenid) public {... */\n    tag_21:\n        /* \"test.sol\":574:575  0 */\n      0x00\n        /* \"test.sol\":547:576  contractAddress != address(0) */\n      0xffffffffffffffffffffffffffffffffffffffff\n      and\n        /* \"test.sol\":547:562  contractAddress */\n      dup3\n        /* \"test.sol\":547:576  contractAddress != address(0) */\n      0xffffffffffffffffffffffffffffffffffffffff\n      and\n      sub\n        /* \"test.sol\":539:605  require(contractAddress != address(0), \"Invalid contract address\") */\n      tag_35\n      jumpi\n      mload(0x40)\n      0x08c379a000000000000000000000000000000000000000000000000000000000\n      dup2\n      mstore\n      0x04\n      add\n      tag_36\n      swap1\n      tag_37\n      jump\t// in\n    tag_36:\n      mload(0x40)\n      dup1\n      swap2\n      sub\n      swap1\n      revert\n    tag_35:\n        /* \"test.sol\":666:667  0 */\n      0x00\n        /* \"test.sol\":624:668  nfts[filehash].contractaddress == address(0) */\n      0xffffffffffffffffffffffffffffffffffffffff\n      and\n        /* \"test.sol\":624:628  nfts */\n      0x00\n        /* \"test.sol\":629:637  filehash */\n      dup6\n        /* \"test.sol\":624:638  nfts[filehash] */\n      mload(0x40)\n      tag_38\n      swap2\n      swap1\n      tag_28\n      jump\t// in\n    tag_38:\n      swap1\n      dup2\n      mstore\n      0x20\n      add\n      mload(0x40)\n      dup1\n      swap2\n      sub\n      swap1\n      keccak256\n        /* \"test.sol\":624:654  nfts[filehash].contractaddress */\n      0x01\n      add\n      0x00\n      swap1\n      sload\n      swap1\n      0x0100\n      exp\n      swap1\n      div\n      0xffffffffffffffffffffffffffffffffffffffff\n      and\n        /* \"test.sol\":624:668  nfts[filehash].contractaddress == address(0) */\n      0xffffffffffffffffffffffffffffffffffffffff\n      and\n      eq\n        /* \"test.sol\":616:688  require(nfts[filehash].contractaddress == address(0), \"ID already used\") */\n      tag_39\n      jumpi\n      mload(0x40)\n      0x08c379a000000000000000000000000000000000000000000000000000000000\n      dup2\n      mstore\n      0x04\n      add\n      tag_40\n      swap1\n      tag_41\n      jump\t// in\n    tag_40:\n      mload(0x40)\n      dup1\n      swap2\n      sub\n      swap1\n      revert\n    tag_39:\n        /* \"test.sol\":699:724  bytes memory decodedBytes */\n      0x00\n        /* \"test.sol\":727:733  Base58 */\n      linkerSymbol(\"c1f41c38c5bb8d46254f8fa0ed3f45e207ad002b1010b2fefda5f0f37dca90b9\")\n        /* \"test.sol\":727:750  Base58.decodeFromString */\n      0x046a466a\n        /* \"test.sol\":751:759  filehash */\n      dup7\n        /* \"test.sol\":727:760  Base58.decodeFromString(filehash) */\n      mload(0x40)\n      dup3\n      0xffffffff\n      and\n      0xe0\n      shl\n      dup2\n      mstore\n      0x04\n      add\n      tag_42\n      swap2\n      swap1\n      tag_43\n      jump\t// in\n    tag_42:\n      0x00\n      mload(0x40)\n      dup1\n      dup4\n      sub\n      dup2\n      dup7\n      gas\n      delegatecall\n      iszero\n      dup1\n      iszero\n      tag_45\n      jumpi\n      returndatasize\n      0x00\n      dup1\n      returndatacopy\n      revert(0x00, returndatasize)\n    tag_45:\n      pop\n      pop\n      pop\n      pop\n      mload(0x40)\n      returndatasize\n      0x00\n      dup3\n      returndatacopy\n      returndatasize\n      not(0x1f)\n      0x1f\n      dup3\n      add\n      and\n      dup3\n      add\n      dup1\n      0x40\n      mstore\n      pop\n      dup2\n      add\n      swap1\n      tag_46\n      swap2\n      swap1\n      tag_47\n      jump\t// in\n    tag_46:\n        /* \"test.sol\":699:760  bytes memory decodedBytes = Base58.decodeFromString(filehash) */\n      swap1\n      pop\n        /* \"test.sol\":802:804  32 */\n      0x20\n        /* \"test.sol\":779:791  decodedBytes */\n      dup2\n        /* \"test.sol\":779:798  decodedBytes.length */\n      mload\n        /* \"test.sol\":779:804  decodedBytes.length == 32 */\n      eq\n        /* \"test.sol\":771:829  require(decodedBytes.length == 32, \"File Hash is invalid\") */\n      tag_48\n      jumpi\n      mload(0x40)\n      0x08c379a000000000000000000000000000000000000000000000000000000000\n      dup2\n      mstore\n      0x04\n      add\n      tag_49\n      swap1\n      tag_50\n      jump\t// in\n    tag_49:\n      mload(0x40)\n      dup1\n      swap2\n      sub\n      swap1\n      revert\n    tag_48:\n        /* \"test.sol\":857:895  NFTInfo(chain,contractAddress,tokenid) */\n      mload(0x40)\n      dup1\n      0x60\n      add\n      0x40\n      mstore\n      dup1\n        /* \"test.sol\":865:870  chain */\n      dup6\n        /* \"test.sol\":857:895  NFTInfo(chain,contractAddress,tokenid) */\n      dup2\n      mstore\n      0x20\n      add\n        /* \"test.sol\":871:886  contractAddress */\n      dup5\n        /* \"test.sol\":857:895  NFTInfo(chain,contractAddress,tokenid) */\n      0xffffffffffffffffffffffffffffffffffffffff\n      and\n      dup2\n      mstore\n      0x20\n      add\n        /* \"test.sol\":887:894  tokenid */\n      dup4\n        /* \"test.sol\":857:895  NFTInfo(chain,contractAddress,tokenid) */\n      dup2\n      mstore\n      pop\n        /* \"test.sol\":840:844  nfts */\n      0x00\n        /* \"test.sol\":845:853  filehash */\n      dup7\n        /* \"test.sol\":840:854  nfts[filehash] */\n      mload(0x40)\n      tag_51\n      swap2\n      swap1\n      tag_28\n      jump\t// in\n    tag_51:\n      swap1\n      dup2\n      mstore\n      0x20\n      add\n      mload(0x40)\n      dup1\n      swap2\n      sub\n      swap1\n      keccak256\n        /* \"test.sol\":840:895  nfts[filehash] = NFTInfo(chain,contractAddress,tokenid) */\n      0x00\n      dup3\n      add\n      mload\n      dup2\n      0x00\n      add\n      sstore\n      0x20\n      dup3\n      add\n      mload\n      dup2\n      0x01\n      add\n      exp(0x0100, 0x00)\n      dup2\n      sload\n      dup2\n      0xffffffffffffffffffffffffffffffffffffffff\n      mul\n      not\n      and\n      swap1\n      dup4\n      0xffffffffffffffffffffffffffffffffffffffff\n      and\n      mul\n      or\n      swap1\n      sstore\n      pop\n      0x40\n      dup3\n      add\n      mload\n      dup2\n      0x02\n      add\n      sstore\n      swap1\n      pop\n      pop\n        /* \"test.sol\":942:957  contractAddress */\n      dup3\n        /* \"test.sol\":911:967  NFTRegistered(filehash, chain ,contractAddress, tokenid) */\n      0xffffffffffffffffffffffffffffffffffffffff\n      and\n        /* \"test.sol\":925:933  filehash */\n      dup6\n        /* \"test.sol\":911:967  NFTRegistered(filehash, chain ,contractAddress, tokenid) */\n      mload(0x40)\n      tag_52\n      swap2\n      swap1\n      tag_28\n      jump\t// in\n    tag_52:\n      mload(0x40)\n      dup1\n      swap2\n      sub\n      swap1\n      keccak256\n      0x3f26224239cbd6e2819edf731dae47c620b9e580cb5ccb02ad5a5b7c7cd6aa9b\n        /* \"test.sol\":935:940  chain */\n      dup7\n        /* \"test.sol\":959:966  tokenid */\n      dup6\n        /* \"test.sol\":911:967  NFTRegistered(filehash, chain ,contractAddress, tokenid) */\n      mload(0x40)\n      tag_53\n      swap3\n      swap2\n      swap1\n      tag_54\n      jump\t// in\n    tag_53:\n      mload(0x40)\n      dup1\n      swap2\n      sub\n      swap1\n      log3\n        /* \"test.sol\":528:975  {... */\n      pop\n        /* \"test.sol\":418:975  function registerNFT(string memory filehash,  uint256 chain, address contractAddress, uint256 tokenid) public {... */\n      pop\n      pop\n      pop\n      pop\n      jump\t// out\n        /* \"test.sol\":249:287  mapping(string => NFTInfo) public nfts */\n    tag_24:\n      0x00\n      dup2\n      dup1\n      mload\n      0x20\n      dup2\n      add\n      dup3\n      add\n      dup1\n      mload\n      dup5\n      dup3\n      mstore\n      0x20\n      dup4\n      add\n      0x20\n      dup6\n      add\n      keccak256\n      dup2\n      dup4\n      mstore\n      dup1\n      swap6\n      pop\n      pop\n      pop\n      pop\n      pop\n      pop\n      0x00\n      swap2\n      pop\n      swap1\n      pop\n      dup1\n      0x00\n      add\n      sload\n      swap1\n      dup1\n      0x01\n      add\n      0x00\n      swap1\n      sload\n      swap1\n      0x0100\n      exp\n      swap1\n      div\n      0xffffffffffffffffffffffffffffffffffffffff\n      and\n      swap1\n      dup1\n      0x02\n      add\n      sload\n      swap1\n      pop\n      dup4\n      jump\t// out\n        /* \"#utility.yul\":7:82   */\n    tag_55:\n        /* \"#utility.yul\":40:46   */\n      0x00\n        /* \"#utility.yul\":73:75   */\n      0x40\n        /* \"#utility.yul\":67:76   */\n      mload\n        /* \"#utility.yul\":57:76   */\n      swap1\n      pop\n        /* \"#utility.yul\":7:82   */\n      swap1\n      jump\t// out\n        /* \"#utility.yul\":88:205   */\n    tag_56:\n        /* \"#utility.yul\":197:198   */\n      0x00\n        /* \"#utility.yul\":194:195   */\n      dup1\n        /* \"#utility.yul\":187:199   */\n      revert\n        /* \"#utility.yul\":211:328   */\n    tag_57:\n        /* \"#utility.yul\":320:321   */\n      0x00\n        /* \"#utility.yul\":317:318   */\n      dup1\n        /* \"#utility.yul\":310:322   */\n      revert\n        /* \"#utility.yul\":334:451   */\n    tag_58:\n        /* \"#utility.yul\":443:444   */\n      0x00\n        /* \"#utility.yul\":440:441   */\n      dup1\n        /* \"#utility.yul\":433:445   */\n      revert\n        /* \"#utility.yul\":457:574   */\n    tag_59:\n        /* \"#utility.yul\":566:567   */\n      0x00\n        /* \"#utility.yul\":563:564   */\n      dup1\n        /* \"#utility.yul\":556:568   */\n      revert\n        /* \"#utility.yul\":580:682   */\n    tag_60:\n        /* \"#utility.yul\":621:627   */\n      0x00\n        /* \"#utility.yul\":672:674   */\n      0x1f\n        /* \"#utility.yul\":668:675   */\n      not\n        /* \"#utility.yul\":663:665   */\n      0x1f\n        /* \"#utility.yul\":656:661   */\n      dup4\n        /* \"#utility.yul\":652:666   */\n      add\n        /* \"#utility.yul\":648:676   */\n      and\n        /* \"#utility.yul\":638:676   */\n      swap1\n      pop\n        /* \"#utility.yul\":580:682   */\n      swap2\n      swap1\n      pop\n      jump\t// out\n        /* \"#utility.yul\":688:868   */\n    tag_61:\n        /* \"#utility.yul\":736:813   */\n      0x4e487b7100000000000000000000000000000000000000000000000000000000\n        /* \"#utility.yul\":733:734   */\n      0x00\n        /* \"#utility.yul\":726:814   */\n      mstore\n        /* \"#utility.yul\":833:837   */\n      0x41\n        /* \"#utility.yul\":830:831   */\n      0x04\n        /* \"#utility.yul\":823:838   */\n      mstore\n        /* \"#utility.yul\":857:861   */\n      0x24\n        /* \"#utility.yul\":854:855   */\n      0x00\n        /* \"#utility.yul\":847:862   */\n      revert\n        /* \"#utility.yul\":874:1155   */\n    tag_62:\n        /* \"#utility.yul\":957:984   */\n      tag_106\n        /* \"#utility.yul\":979:983   */\n      dup3\n        /* \"#utility.yul\":957:984   */\n      tag_60\n      jump\t// in\n    tag_106:\n        /* \"#utility.yul\":949:955   */\n      dup2\n        /* \"#utility.yul\":945:985   */\n      add\n        /* \"#utility.yul\":1087:1093   */\n      dup2\n        /* \"#utility.yul\":1075:1085   */\n      dup2\n        /* \"#utility.yul\":1072:1094   */\n      lt\n        /* \"#utility.yul\":1051:1069   */\n      0xffffffffffffffff\n        /* \"#utility.yul\":1039:1049   */\n      dup3\n        /* \"#utility.yul\":1036:1070   */\n      gt\n        /* \"#utility.yul\":1033:1095   */\n      or\n        /* \"#utility.yul\":1030:1118   */\n      iszero\n      tag_107\n      jumpi\n        /* \"#utility.yul\":1098:1116   */\n      tag_108\n      tag_61\n      jump\t// in\n    tag_108:\n        /* \"#utility.yul\":1030:1118   */\n    tag_107:\n        /* \"#utility.yul\":1138:1148   */\n      dup1\n        /* \"#utility.yul\":1134:1136   */\n      0x40\n        /* \"#utility.yul\":1127:1149   */\n      mstore\n        /* \"#utility.yul\":917:1155   */\n      pop\n        /* \"#utility.yul\":874:1155   */\n      pop\n      pop\n      jump\t// out\n        /* \"#utility.yul\":1161:1290   */\n    tag_63:\n        /* \"#utility.yul\":1195:1201   */\n      0x00\n        /* \"#utility.yul\":1222:1242   */\n      tag_110\n      tag_55\n      jump\t// in\n    tag_110:\n        /* \"#utility.yul\":1212:1242   */\n      swap1\n      pop\n        /* \"#utility.yul\":1251:1284   */\n      tag_111\n        /* \"#utility.yul\":1279:1283   */\n      dup3\n        /* \"#utility.yul\":1271:1277   */\n      dup3\n        /* \"#utility.yul\":1251:1284   */\n      tag_62\n      jump\t// in\n    tag_111:\n        /* \"#utility.yul\":1161:1290   */\n      swap2\n      swap1\n      pop\n      jump\t// out\n        /* \"#utility.yul\":1296:1604   */\n    tag_64:\n        /* \"#utility.yul\":1358:1362   */\n      0x00\n        /* \"#utility.yul\":1448:1466   */\n      0xffffffffffffffff\n        /* \"#utility.yul\":1440:1446   */\n      dup3\n        /* \"#utility.yul\":1437:1467   */\n      gt\n        /* \"#utility.yul\":1434:1490   */\n      iszero\n      tag_113\n      jumpi\n        /* \"#utility.yul\":1470:1488   */\n      tag_114\n      tag_61\n      jump\t// in\n    tag_114:\n        /* \"#utility.yul\":1434:1490   */\n    tag_113:\n        /* \"#utility.yul\":1508:1537   */\n      tag_115\n        /* \"#utility.yul\":1530:1536   */\n      dup3\n        /* \"#utility.yul\":1508:1537   */\n      tag_60\n      jump\t// in\n    tag_115:\n        /* \"#utility.yul\":1500:1537   */\n      swap1\n      pop\n        /* \"#utility.yul\":1592:1596   */\n      0x20\n        /* \"#utility.yul\":1586:1590   */\n      dup2\n        /* \"#utility.yul\":1582:1597   */\n      add\n        /* \"#utility.yul\":1574:1597   */\n      swap1\n      pop\n        /* \"#utility.yul\":1296:1604   */\n      swap2\n      swap1\n      pop\n      jump\t// out\n        /* \"#utility.yul\":1610:1758   */\n    tag_65:\n        /* \"#utility.yul\":1708:1714   */\n      dup3\n        /* \"#utility.yul\":1703:1706   */\n      dup2\n        /* \"#utility.yul\":1698:1701   */\n      dup4\n        /* \"#utility.yul\":1685:1715   */\n      calldatacopy\n        /* \"#utility.yul\":1749:1750   */\n      0x00\n        /* \"#utility.yul\":1740:1746   */\n      dup4\n        /* \"#utility.yul\":1735:1738   */\n      dup4\n        /* \"#utility.yul\":1731:1747   */\n      add\n        /* \"#utility.yul\":1724:1751   */\n      mstore\n        /* \"#utility.yul\":1610:1758   */\n      pop\n      pop\n      pop\n      jump\t// out\n        /* \"#utility.yul\":1764:2189   */\n    tag_66:\n        /* \"#utility.yul\":1842:1847   */\n      0x00\n        /* \"#utility.yul\":1867:1933   */\n      tag_118\n        /* \"#utility.yul\":1883:1932   */\n      tag_119\n        /* \"#utility.yul\":1925:1931   */\n      dup5\n        /* \"#utility.yul\":1883:1932   */\n      tag_64\n      jump\t// in\n    tag_119:\n        /* \"#utility.yul\":1867:1933   */\n      tag_63\n      jump\t// in\n    tag_118:\n        /* \"#utility.yul\":1858:1933   */\n      swap1\n      pop\n        /* \"#utility.yul\":1956:1962   */\n      dup3\n        /* \"#utility.yul\":1949:1954   */\n      dup2\n        /* \"#utility.yul\":1942:1963   */\n      mstore\n        /* \"#utility.yul\":1994:1998   */\n      0x20\n        /* \"#utility.yul\":1987:1992   */\n      dup2\n        /* \"#utility.yul\":1983:1999   */\n      add\n        /* \"#utility.yul\":2032:2035   */\n      dup5\n        /* \"#utility.yul\":2023:2029   */\n      dup5\n        /* \"#utility.yul\":2018:2021   */\n      dup5\n        /* \"#utility.yul\":2014:2030   */\n      add\n        /* \"#utility.yul\":2011:2036   */\n      gt\n        /* \"#utility.yul\":2008:2120   */\n      iszero\n      tag_120\n      jumpi\n        /* \"#utility.yul\":2039:2118   */\n      tag_121\n      tag_59\n      jump\t// in\n    tag_121:\n        /* \"#utility.yul\":2008:2120   */\n    tag_120:\n        /* \"#utility.yul\":2129:2183   */\n      tag_122\n        /* \"#utility.yul\":2176:2182   */\n      dup5\n        /* \"#utility.yul\":2171:2174   */\n      dup3\n        /* \"#utility.yul\":2166:2169   */\n      dup6\n        /* \"#utility.yul\":2129:2183   */\n      tag_65\n      jump\t// in\n    tag_122:\n        /* \"#utility.yul\":1848:2189   */\n      pop\n        /* \"#utility.yul\":1764:2189   */\n      swap4\n      swap3\n      pop\n      pop\n      pop\n      jump\t// out\n        /* \"#utility.yul\":2209:2549   */\n    tag_67:\n        /* \"#utility.yul\":2265:2270   */\n      0x00\n        /* \"#utility.yul\":2314:2317   */\n      dup3\n        /* \"#utility.yul\":2307:2311   */\n      0x1f\n        /* \"#utility.yul\":2299:2305   */\n      dup4\n        /* \"#utility.yul\":2295:2312   */\n      add\n        /* \"#utility.yul\":2291:2318   */\n      slt\n        /* \"#utility.yul\":2281:2403   */\n      tag_124\n      jumpi\n        /* \"#utility.yul\":2322:2401   */\n      tag_125\n      tag_58\n      jump\t// in\n    tag_125:\n        /* \"#utility.yul\":2281:2403   */\n    tag_124:\n        /* \"#utility.yul\":2439:2445   */\n      dup2\n        /* \"#utility.yul\":2426:2446   */\n      calldataload\n        /* \"#utility.yul\":2464:2543   */\n      tag_126\n        /* \"#utility.yul\":2539:2542   */\n      dup5\n        /* \"#utility.yul\":2531:2537   */\n      dup3\n        /* \"#utility.yul\":2524:2528   */\n      0x20\n        /* \"#utility.yul\":2516:2522   */\n      dup7\n        /* \"#utility.yul\":2512:2529   */\n      add\n        /* \"#utility.yul\":2464:2543   */\n      tag_66\n      jump\t// in\n    tag_126:\n        /* \"#utility.yul\":2455:2543   */\n      swap2\n      pop\n        /* \"#utility.yul\":2271:2549   */\n      pop\n        /* \"#utility.yul\":2209:2549   */\n      swap3\n      swap2\n      pop\n      pop\n      jump\t// out\n        /* \"#utility.yul\":2555:3064   */\n    tag_9:\n        /* \"#utility.yul\":2624:2630   */\n      0x00\n        /* \"#utility.yul\":2673:2675   */\n      0x20\n        /* \"#utility.yul\":2661:2670   */\n      dup3\n        /* \"#utility.yul\":2652:2659   */\n      dup5\n        /* \"#utility.yul\":2648:2671   */\n      sub\n        /* \"#utility.yul\":2644:2676   */\n      slt\n        /* \"#utility.yul\":2641:2760   */\n      iszero\n      tag_128\n      jumpi\n        /* \"#utility.yul\":2679:2758   */\n      tag_129\n      tag_56\n      jump\t// in\n    tag_129:\n        /* \"#utility.yul\":2641:2760   */\n    tag_128:\n        /* \"#utility.yul\":2827:2828   */\n      0x00\n        /* \"#utility.yul\":2816:2825   */\n      dup3\n        /* \"#utility.yul\":2812:2829   */\n      add\n        /* \"#utility.yul\":2799:2830   */\n      calldataload\n        /* \"#utility.yul\":2857:2875   */\n      0xffffffffffffffff\n        /* \"#utility.yul\":2849:2855   */\n      dup2\n        /* \"#utility.yul\":2846:2876   */\n      gt\n        /* \"#utility.yul\":2843:2960   */\n      iszero\n      tag_130\n      jumpi\n        /* \"#utility.yul\":2879:2958   */\n      tag_131\n      tag_57\n      jump\t// in\n    tag_131:\n        /* \"#utility.yul\":2843:2960   */\n    tag_130:\n        /* \"#utility.yul\":2984:3047   */\n      tag_132\n        /* \"#utility.yul\":3039:3046   */\n      dup5\n        /* \"#utility.yul\":3030:3036   */\n      dup3\n        /* \"#utility.yul\":3019:3028   */\n      dup6\n        /* \"#utility.yul\":3015:3037   */\n      add\n        /* \"#utility.yul\":2984:3047   */\n      tag_67\n      jump\t// in\n    tag_132:\n        /* \"#utility.yul\":2974:3047   */\n      swap2\n      pop\n        /* \"#utility.yul\":2770:3057   */\n      pop\n        /* \"#utility.yul\":2555:3064   */\n      swap3\n      swap2\n      pop\n      pop\n      jump\t// out\n        /* \"#utility.yul\":3070:3147   */\n    tag_68:\n        /* \"#utility.yul\":3107:3114   */\n      0x00\n        /* \"#utility.yul\":3136:3141   */\n      dup2\n        /* \"#utility.yul\":3125:3141   */\n      swap1\n      pop\n        /* \"#utility.yul\":3070:3147   */\n      swap2\n      swap1\n      pop\n      jump\t// out\n        /* \"#utility.yul\":3153:3271   */\n    tag_69:\n        /* \"#utility.yul\":3240:3264   */\n      tag_135\n        /* \"#utility.yul\":3258:3263   */\n      dup2\n        /* \"#utility.yul\":3240:3264   */\n      tag_68\n      jump\t// in\n    tag_135:\n        /* \"#utility.yul\":3235:3238   */\n      dup3\n        /* \"#utility.yul\":3228:3265   */\n      mstore\n        /* \"#utility.yul\":3153:3271   */\n      pop\n      pop\n      jump\t// out\n        /* \"#utility.yul\":3277:3403   */\n    tag_70:\n        /* \"#utility.yul\":3314:3321   */\n      0x00\n        /* \"#utility.yul\":3354:3396   */\n      0xffffffffffffffffffffffffffffffffffffffff\n        /* \"#utility.yul\":3347:3352   */\n      dup3\n        /* \"#utility.yul\":3343:3397   */\n      and\n        /* \"#utility.yul\":3332:3397   */\n      swap1\n      pop\n        /* \"#utility.yul\":3277:3403   */\n      swap2\n      swap1\n      pop\n      jump\t// out\n        /* \"#utility.yul\":3409:3505   */\n    tag_71:\n        /* \"#utility.yul\":3446:3453   */\n      0x00\n        /* \"#utility.yul\":3475:3499   */\n      tag_138\n        /* \"#utility.yul\":3493:3498   */\n      dup3\n        /* \"#utility.yul\":3475:3499   */\n      tag_70\n      jump\t// in\n    tag_138:\n        /* \"#utility.yul\":3464:3499   */\n      swap1\n      pop\n        /* \"#utility.yul\":3409:3505   */\n      swap2\n      swap1\n      pop\n      jump\t// out\n        /* \"#utility.yul\":3511:3629   */\n    tag_72:\n        /* \"#utility.yul\":3598:3622   */\n      tag_140\n        /* \"#utility.yul\":3616:3621   */\n      dup2\n        /* \"#utility.yul\":3598:3622   */\n      tag_71\n      jump\t// in\n    tag_140:\n        /* \"#utility.yul\":3593:3596   */\n      dup3\n        /* \"#utility.yul\":3586:3623   */\n      mstore\n        /* \"#utility.yul\":3511:3629   */\n      pop\n      pop\n      jump\t// out\n        /* \"#utility.yul\":3635:4077   */\n    tag_12:\n        /* \"#utility.yul\":3784:3788   */\n      0x00\n        /* \"#utility.yul\":3822:3824   */\n      0x60\n        /* \"#utility.yul\":3811:3820   */\n      dup3\n        /* \"#utility.yul\":3807:3825   */\n      add\n        /* \"#utility.yul\":3799:3825   */\n      swap1\n      pop\n        /* \"#utility.yul\":3835:3906   */\n      tag_142\n        /* \"#utility.yul\":3903:3904   */\n      0x00\n        /* \"#utility.yul\":3892:3901   */\n      dup4\n        /* \"#utility.yul\":3888:3905   */\n      add\n        /* \"#utility.yul\":3879:3885   */\n      dup7\n        /* \"#utility.yul\":3835:3906   */\n      tag_69\n      jump\t// in\n    tag_142:\n        /* \"#utility.yul\":3916:3988   */\n      tag_143\n        /* \"#utility.yul\":3984:3986   */\n      0x20\n        /* \"#utility.yul\":3973:3982   */\n      dup4\n        /* \"#utility.yul\":3969:3987   */\n      add\n        /* \"#utility.yul\":3960:3966   */\n      dup6\n        /* \"#utility.yul\":3916:3988   */\n      tag_72\n      jump\t// in\n    tag_143:\n        /* \"#utility.yul\":3998:4070   */\n      tag_144\n        /* \"#utility.yul\":4066:4068   */\n      0x40\n        /* \"#utility.yul\":4055:4064   */\n      dup4\n        /* \"#utility.yul\":4051:4069   */\n      add\n        /* \"#utility.yul\":4042:4048   */\n      dup5\n        /* \"#utility.yul\":3998:4070   */\n      tag_69\n      jump\t// in\n    tag_144:\n        /* \"#utility.yul\":3635:4077   */\n      swap5\n      swap4\n      pop\n      pop\n      pop\n      pop\n      jump\t// out\n        /* \"#utility.yul\":4083:4173   */\n    tag_73:\n        /* \"#utility.yul\":4117:4124   */\n      0x00\n        /* \"#utility.yul\":4160:4165   */\n      dup2\n        /* \"#utility.yul\":4153:4166   */\n      iszero\n        /* \"#utility.yul\":4146:4167   */\n      iszero\n        /* \"#utility.yul\":4135:4167   */\n      swap1\n      pop\n        /* \"#utility.yul\":4083:4173   */\n      swap2\n      swap1\n      pop\n      jump\t// out\n        /* \"#utility.yul\":4179:4288   */\n    tag_74:\n        /* \"#utility.yul\":4260:4281   */\n      tag_147\n        /* \"#utility.yul\":4275:4280   */\n      dup2\n        /* \"#utility.yul\":4260:4281   */\n      tag_73\n      jump\t// in\n    tag_147:\n        /* \"#utility.yul\":4255:4258   */\n      dup3\n        /* \"#utility.yul\":4248:4282   */\n      mstore\n        /* \"#utility.yul\":4179:4288   */\n      pop\n      pop\n      jump\t// out\n        /* \"#utility.yul\":4294:4504   */\n    tag_17:\n        /* \"#utility.yul\":4381:4385   */\n      0x00\n        /* \"#utility.yul\":4419:4421   */\n      0x20\n        /* \"#utility.yul\":4408:4417   */\n      dup3\n        /* \"#utility.yul\":4404:4422   */\n      add\n        /* \"#utility.yul\":4396:4422   */\n      swap1\n      pop\n        /* \"#utility.yul\":4432:4497   */\n      tag_149\n        /* \"#utility.yul\":4494:4495   */\n      0x00\n        /* \"#utility.yul\":4483:4492   */\n      dup4\n        /* \"#utility.yul\":4479:4496   */\n      add\n        /* \"#utility.yul\":4470:4476   */\n      dup5\n        /* \"#utility.yul\":4432:4497   */\n      tag_74\n      jump\t// in\n    tag_149:\n        /* \"#utility.yul\":4294:4504   */\n      swap3\n      swap2\n      pop\n      pop\n      jump\t// out\n        /* \"#utility.yul\":4510:4632   */\n    tag_75:\n        /* \"#utility.yul\":4583:4607   */\n      tag_151\n        /* \"#utility.yul\":4601:4606   */\n      dup2\n        /* \"#utility.yul\":4583:4607   */\n      tag_68\n      jump\t// in\n    tag_151:\n        /* \"#utility.yul\":4576:4581   */\n      dup2\n        /* \"#utility.yul\":4573:4608   */\n      eq\n        /* \"#utility.yul\":4563:4626   */\n      tag_152\n      jumpi\n        /* \"#utility.yul\":4622:4623   */\n      0x00\n        /* \"#utility.yul\":4619:4620   */\n      dup1\n        /* \"#utility.yul\":4612:4624   */\n      revert\n        /* \"#utility.yul\":4563:4626   */\n    tag_152:\n        /* \"#utility.yul\":4510:4632   */\n      pop\n      jump\t// out\n        /* \"#utility.yul\":4638:4777   */\n    tag_76:\n        /* \"#utility.yul\":4684:4689   */\n      0x00\n        /* \"#utility.yul\":4722:4728   */\n      dup2\n        /* \"#utility.yul\":4709:4729   */\n      calldataload\n        /* \"#utility.yul\":4700:4729   */\n      swap1\n      pop\n        /* \"#utility.yul\":4738:4771   */\n      tag_154\n        /* \"#utility.yul\":4765:4770   */\n      dup2\n        /* \"#utility.yul\":4738:4771   */\n      tag_75\n      jump\t// in\n    tag_154:\n        /* \"#utility.yul\":4638:4777   */\n      swap3\n      swap2\n      pop\n      pop\n      jump\t// out\n        /* \"#utility.yul\":4783:4905   */\n    tag_77:\n        /* \"#utility.yul\":4856:4880   */\n      tag_156\n        /* \"#utility.yul\":4874:4879   */\n      dup2\n        /* \"#utility.yul\":4856:4880   */\n      tag_71\n      jump\t// in\n    tag_156:\n        /* \"#utility.yul\":4849:4854   */\n      dup2\n        /* \"#utility.yul\":4846:4881   */\n      eq\n        /* \"#utility.yul\":4836:4899   */\n      tag_157\n      jumpi\n        /* \"#utility.yul\":4895:4896   */\n      0x00\n        /* \"#utility.yul\":4892:4893   */\n      dup1\n        /* \"#utility.yul\":4885:4897   */\n      revert\n        /* \"#utility.yul\":4836:4899   */\n    tag_157:\n        /* \"#utility.yul\":4783:4905   */\n      pop\n      jump\t// out\n        /* \"#utility.yul\":4911:5050   */\n    tag_78:\n        /* \"#utility.yul\":4957:4962   */\n      0x00\n        /* \"#utility.yul\":4995:5001   */\n      dup2\n        /* \"#utility.yul\":4982:5002   */\n      calldataload\n        /* \"#utility.yul\":4973:5002   */\n      swap1\n      pop\n        /* \"#utility.yul\":5011:5044   */\n      tag_159\n        /* \"#utility.yul\":5038:5043   */\n      dup2\n        /* \"#utility.yul\":5011:5044   */\n      tag_77\n      jump\t// in\n    tag_159:\n        /* \"#utility.yul\":4911:5050   */\n      swap3\n      swap2\n      pop\n      pop\n      jump\t// out\n        /* \"#utility.yul\":5056:6001   */\n    tag_20:\n        /* \"#utility.yul\":5152:5158   */\n      0x00\n        /* \"#utility.yul\":5160:5166   */\n      dup1\n        /* \"#utility.yul\":5168:5174   */\n      0x00\n        /* \"#utility.yul\":5176:5182   */\n      dup1\n        /* \"#utility.yul\":5225:5228   */\n      0x80\n        /* \"#utility.yul\":5213:5222   */\n      dup6\n        /* \"#utility.yul\":5204:5211   */\n      dup8\n        /* \"#utility.yul\":5200:5223   */\n      sub\n        /* \"#utility.yul\":5196:5229   */\n      slt\n        /* \"#utility.yul\":5193:5313   */\n      iszero\n      tag_161\n      jumpi\n        /* \"#utility.yul\":5232:5311   */\n      tag_162\n      tag_56\n      jump\t// in\n    tag_162:\n        /* \"#utility.yul\":5193:5313   */\n    tag_161:\n        /* \"#utility.yul\":5380:5381   */\n      0x00\n        /* \"#utility.yul\":5369:5378   */\n      dup6\n        /* \"#utility.yul\":5365:5382   */\n      add\n        /* \"#utility.yul\":5352:5383   */\n      calldataload\n        /* \"#utility.yul\":5410:5428   */\n      0xffffffffffffffff\n        /* \"#utility.yul\":5402:5408   */\n      dup2\n        /* \"#utility.yul\":5399:5429   */\n      gt\n        /* \"#utility.yul\":5396:5513   */\n      iszero\n      tag_163\n      jumpi\n        /* \"#utility.yul\":5432:5511   */\n      tag_164\n      tag_57\n      jump\t// in\n    tag_164:\n        /* \"#utility.yul\":5396:5513   */\n    tag_163:\n        /* \"#utility.yul\":5537:5600   */\n      tag_165\n        /* \"#utility.yul\":5592:5599   */\n      dup8\n        /* \"#utility.yul\":5583:5589   */\n      dup3\n        /* \"#utility.yul\":5572:5581   */\n      dup9\n        /* \"#utility.yul\":5568:5590   */\n      add\n        /* \"#utility.yul\":5537:5600   */\n      tag_67\n      jump\t// in\n    tag_165:\n        /* \"#utility.yul\":5527:5600   */\n      swap5\n      pop\n        /* \"#utility.yul\":5323:5610   */\n      pop\n        /* \"#utility.yul\":5649:5651   */\n      0x20\n        /* \"#utility.yul\":5675:5728   */\n      tag_166\n        /* \"#utility.yul\":5720:5727   */\n      dup8\n        /* \"#utility.yul\":5711:5717   */\n      dup3\n        /* \"#utility.yul\":5700:5709   */\n      dup9\n        /* \"#utility.yul\":5696:5718   */\n      add\n        /* \"#utility.yul\":5675:5728   */\n      tag_76\n      jump\t// in\n    tag_166:\n        /* \"#utility.yul\":5665:5728   */\n      swap4\n      pop\n        /* \"#utility.yul\":5620:5738   */\n      pop\n        /* \"#utility.yul\":5777:5779   */\n      0x40\n        /* \"#utility.yul\":5803:5856   */\n      tag_167\n        /* \"#utility.yul\":5848:5855   */\n      dup8\n        /* \"#utility.yul\":5839:5845   */\n      dup3\n        /* \"#utility.yul\":5828:5837   */\n      dup9\n        /* \"#utility.yul\":5824:5846   */\n      add\n        /* \"#utility.yul\":5803:5856   */\n      tag_78\n      jump\t// in\n    tag_167:\n        /* \"#utility.yul\":5793:5856   */\n      swap3\n      pop\n        /* \"#utility.yul\":5748:5866   */\n      pop\n        /* \"#utility.yul\":5905:5907   */\n      0x60\n        /* \"#utility.yul\":5931:5984   */\n      tag_168\n        /* \"#utility.yul\":5976:5983   */\n      dup8\n        /* \"#utility.yul\":5967:5973   */\n      dup3\n        /* \"#utility.yul\":5956:5965   */\n      dup9\n        /* \"#utility.yul\":5952:5974   */\n      add\n        /* \"#utility.yul\":5931:5984   */\n      tag_76\n      jump\t// in\n    tag_168:\n        /* \"#utility.yul\":5921:5984   */\n      swap2\n      pop\n        /* \"#utility.yul\":5876:5994   */\n      pop\n        /* \"#utility.yul\":5056:6001   */\n      swap3\n      swap6\n      swap2\n      swap5\n      pop\n      swap3\n      pop\n      jump\t// out\n        /* \"#utility.yul\":6007:6106   */\n    tag_79:\n        /* \"#utility.yul\":6059:6065   */\n      0x00\n        /* \"#utility.yul\":6093:6098   */\n      dup2\n        /* \"#utility.yul\":6087:6099   */\n      mload\n        /* \"#utility.yul\":6077:6099   */\n      swap1\n      pop\n        /* \"#utility.yul\":6007:6106   */\n      swap2\n      swap1\n      pop\n      jump\t// out\n        /* \"#utility.yul\":6112:6260   */\n    tag_80:\n        /* \"#utility.yul\":6214:6225   */\n      0x00\n        /* \"#utility.yul\":6251:6254   */\n      dup2\n        /* \"#utility.yul\":6236:6254   */\n      swap1\n      pop\n        /* \"#utility.yul\":6112:6260   */\n      swap3\n      swap2\n      pop\n      pop\n      jump\t// out\n        /* \"#utility.yul\":6266:6405   */\n    tag_81:\n        /* \"#utility.yul\":6355:6361   */\n      dup3\n        /* \"#utility.yul\":6350:6353   */\n      dup2\n        /* \"#utility.yul\":6345:6348   */\n      dup4\n        /* \"#utility.yul\":6339:6362   */\n      mcopy\n        /* \"#utility.yul\":6396:6397   */\n      0x00\n        /* \"#utility.yul\":6387:6393   */\n      dup4\n        /* \"#utility.yul\":6382:6385   */\n      dup4\n        /* \"#utility.yul\":6378:6394   */\n      add\n        /* \"#utility.yul\":6371:6398   */\n      mstore\n        /* \"#utility.yul\":6266:6405   */\n      pop\n      pop\n      pop\n      jump\t// out\n        /* \"#utility.yul\":6411:6801   */\n    tag_82:\n        /* \"#utility.yul\":6517:6520   */\n      0x00\n        /* \"#utility.yul\":6545:6584   */\n      tag_173\n        /* \"#utility.yul\":6578:6583   */\n      dup3\n        /* \"#utility.yul\":6545:6584   */\n      tag_79\n      jump\t// in\n    tag_173:\n        /* \"#utility.yul\":6600:6689   */\n      tag_174\n        /* \"#utility.yul\":6682:6688   */\n      dup2\n        /* \"#utility.yul\":6677:6680   */\n      dup6\n        /* \"#utility.yul\":6600:6689   */\n      tag_80\n      jump\t// in\n    tag_174:\n        /* \"#utility.yul\":6593:6689   */\n      swap4\n      pop\n        /* \"#utility.yul\":6698:6763   */\n      tag_175\n        /* \"#utility.yul\":6756:6762   */\n      dup2\n        /* \"#utility.yul\":6751:6754   */\n      dup6\n        /* \"#utility.yul\":6744:6748   */\n      0x20\n        /* \"#utility.yul\":6737:6742   */\n      dup7\n        /* \"#utility.yul\":6733:6749   */\n      add\n        /* \"#utility.yul\":6698:6763   */\n      tag_81\n      jump\t// in\n    tag_175:\n        /* \"#utility.yul\":6788:6794   */\n      dup1\n        /* \"#utility.yul\":6783:6786   */\n      dup5\n        /* \"#utility.yul\":6779:6795   */\n      add\n        /* \"#utility.yul\":6772:6795   */\n      swap2\n      pop\n        /* \"#utility.yul\":6521:6801   */\n      pop\n        /* \"#utility.yul\":6411:6801   */\n      swap3\n      swap2\n      pop\n      pop\n      jump\t// out\n        /* \"#utility.yul\":6807:7082   */\n    tag_28:\n        /* \"#utility.yul\":6939:6942   */\n      0x00\n        /* \"#utility.yul\":6961:7056   */\n      tag_177\n        /* \"#utility.yul\":7052:7055   */\n      dup3\n        /* \"#utility.yul\":7043:7049   */\n      dup5\n        /* \"#utility.yul\":6961:7056   */\n      tag_82\n      jump\t// in\n    tag_177:\n        /* \"#utility.yul\":6954:7056   */\n      swap2\n      pop\n        /* \"#utility.yul\":7073:7076   */\n      dup2\n        /* \"#utility.yul\":7066:7076   */\n      swap1\n      pop\n        /* \"#utility.yul\":6807:7082   */\n      swap3\n      swap2\n      pop\n      pop\n      jump\t// out\n        /* \"#utility.yul\":7088:7257   */\n    tag_83:\n        /* \"#utility.yul\":7172:7183   */\n      0x00\n        /* \"#utility.yul\":7206:7212   */\n      dup3\n        /* \"#utility.yul\":7201:7204   */\n      dup3\n        /* \"#utility.yul\":7194:7213   */\n      mstore\n        /* \"#utility.yul\":7246:7250   */\n      0x20\n        /* \"#utility.yul\":7241:7244   */\n      dup3\n        /* \"#utility.yul\":7237:7251   */\n      add\n        /* \"#utility.yul\":7222:7251   */\n      swap1\n      pop\n        /* \"#utility.yul\":7088:7257   */\n      swap3\n      swap2\n      pop\n      pop\n      jump\t// out\n        /* \"#utility.yul\":7263:7431   */\n    tag_84:\n        /* \"#utility.yul\":7403:7423   */\n      0x436f6e7472616374206e6f7420666f756e640000000000000000000000000000\n        /* \"#utility.yul\":7399:7400   */\n      0x00\n        /* \"#utility.yul\":7391:7397   */\n      dup3\n        /* \"#utility.yul\":7387:7401   */\n      add\n        /* \"#utility.yul\":7380:7424   */\n      mstore\n        /* \"#utility.yul\":7263:7431   */\n      pop\n      jump\t// out\n        /* \"#utility.yul\":7437:7803   */\n    tag_85:\n        /* \"#utility.yul\":7579:7582   */\n      0x00\n        /* \"#utility.yul\":7600:7667   */\n      tag_181\n        /* \"#utility.yul\":7664:7666   */\n      0x12\n        /* \"#utility.yul\":7659:7662   */\n      dup4\n        /* \"#utility.yul\":7600:7667   */\n      tag_83\n      jump\t// in\n    tag_181:\n        /* \"#utility.yul\":7593:7667   */\n      swap2\n      pop\n        /* \"#utility.yul\":7676:7769   */\n      tag_182\n        /* \"#utility.yul\":7765:7768   */\n      dup3\n        /* \"#utility.yul\":7676:7769   */\n      tag_84\n      jump\t// in\n    tag_182:\n        /* \"#utility.yul\":7794:7796   */\n      0x20\n        /* \"#utility.yul\":7789:7792   */\n      dup3\n        /* \"#utility.yul\":7785:7797   */\n      add\n        /* \"#utility.yul\":7778:7797   */\n      swap1\n      pop\n        /* \"#utility.yul\":7437:7803   */\n      swap2\n      swap1\n      pop\n      jump\t// out\n        /* \"#utility.yul\":7809:8228   */\n    tag_31:\n        /* \"#utility.yul\":7975:7979   */\n      0x00\n        /* \"#utility.yul\":8013:8015   */\n      0x20\n        /* \"#utility.yul\":8002:8011   */\n      dup3\n        /* \"#utility.yul\":7998:8016   */\n      add\n        /* \"#utility.yul\":7990:8016   */\n      swap1\n      pop\n        /* \"#utility.yul\":8062:8071   */\n      dup2\n        /* \"#utility.yul\":8056:8060   */\n      dup2\n        /* \"#utility.yul\":8052:8072   */\n      sub\n        /* \"#utility.yul\":8048:8049   */\n      0x00\n        /* \"#utility.yul\":8037:8046   */\n      dup4\n        /* \"#utility.yul\":8033:8050   */\n      add\n        /* \"#utility.yul\":8026:8073   */\n      mstore\n        /* \"#utility.yul\":8090:8221   */\n      tag_184\n        /* \"#utility.yul\":8216:8220   */\n      dup2\n        /* \"#utility.yul\":8090:8221   */\n      tag_85\n      jump\t// in\n    tag_184:\n        /* \"#utility.yul\":8082:8221   */\n      swap1\n      pop\n        /* \"#utility.yul\":7809:8228   */\n      swap2\n      swap1\n      pop\n      jump\t// out\n        /* \"#utility.yul\":8234:8408   */\n    tag_86:\n        /* \"#utility.yul\":8374:8400   */\n      0x496e76616c696420636f6e747261637420616464726573730000000000000000\n        /* \"#utility.yul\":8370:8371   */\n      0x00\n        /* \"#utility.yul\":8362:8368   */\n      dup3\n        /* \"#utility.yul\":8358:8372   */\n      add\n        /* \"#utility.yul\":8351:8401   */\n      mstore\n        /* \"#utility.yul\":8234:8408   */\n      pop\n      jump\t// out\n        /* \"#utility.yul\":8414:8780   */\n    tag_87:\n        /* \"#utility.yul\":8556:8559   */\n      0x00\n        /* \"#utility.yul\":8577:8644   */\n      tag_187\n        /* \"#utility.yul\":8641:8643   */\n      0x18\n        /* \"#utility.yul\":8636:8639   */\n      dup4\n        /* \"#utility.yul\":8577:8644   */\n      tag_83\n      jump\t// in\n    tag_187:\n        /* \"#utility.yul\":8570:8644   */\n      swap2\n      pop\n        /* \"#utility.yul\":8653:8746   */\n      tag_188\n        /* \"#utility.yul\":8742:8745   */\n      dup3\n        /* \"#utility.yul\":8653:8746   */\n      tag_86\n      jump\t// in\n    tag_188:\n        /* \"#utility.yul\":8771:8773   */\n      0x20\n        /* \"#utility.yul\":8766:8769   */\n      dup3\n        /* \"#utility.yul\":8762:8774   */\n      add\n        /* \"#utility.yul\":8755:8774   */\n      swap1\n      pop\n        /* \"#utility.yul\":8414:8780   */\n      swap2\n      swap1\n      pop\n      jump\t// out\n        /* \"#utility.yul\":8786:9205   */\n    tag_37:\n        /* \"#utility.yul\":8952:8956   */\n      0x00\n        /* \"#utility.yul\":8990:8992   */\n      0x20\n        /* \"#utility.yul\":8979:8988   */\n      dup3\n        /* \"#utility.yul\":8975:8993   */\n      add\n        /* \"#utility.yul\":8967:8993   */\n      swap1\n      pop\n        /* \"#utility.yul\":9039:9048   */\n      dup2\n        /* \"#utility.yul\":9033:9037   */\n      dup2\n        /* \"#utility.yul\":9029:9049   */\n      sub\n        /* \"#utility.yul\":9025:9026   */\n      0x00\n        /* \"#utility.yul\":9014:9023   */\n      dup4\n        /* \"#utility.yul\":9010:9027   */\n      add\n        /* \"#utility.yul\":9003:9050   */\n      mstore\n        /* \"#utility.yul\":9067:9198   */\n      tag_190\n        /* \"#utility.yul\":9193:9197   */\n      dup2\n        /* \"#utility.yul\":9067:9198   */\n      tag_87\n      jump\t// in\n    tag_190:\n        /* \"#utility.yul\":9059:9198   */\n      swap1\n      pop\n        /* \"#utility.yul\":8786:9205   */\n      swap2\n      swap1\n      pop\n      jump\t// out\n        /* \"#utility.yul\":9211:9376   */\n    tag_88:\n        /* \"#utility.yul\":9351:9368   */\n      0x494420616c726561647920757365640000000000000000000000000000000000\n        /* \"#utility.yul\":9347:9348   */\n      0x00\n        /* \"#utility.yul\":9339:9345   */\n      dup3\n        /* \"#utility.yul\":9335:9349   */\n      add\n        /* \"#utility.yul\":9328:9369   */\n      mstore\n        /* \"#utility.yul\":9211:9376   */\n      pop\n      jump\t// out\n        /* \"#utility.yul\":9382:9748   */\n    tag_89:\n        /* \"#utility.yul\":9524:9527   */\n      0x00\n        /* \"#utility.yul\":9545:9612   */\n      tag_193\n        /* \"#utility.yul\":9609:9611   */\n      0x0f\n        /* \"#utility.yul\":9604:9607   */\n      dup4\n        /* \"#utility.yul\":9545:9612   */\n      tag_83\n      jump\t// in\n    tag_193:\n        /* \"#utility.yul\":9538:9612   */\n      swap2\n      pop\n        /* \"#utility.yul\":9621:9714   */\n      tag_194\n        /* \"#utility.yul\":9710:9713   */\n      dup3\n        /* \"#utility.yul\":9621:9714   */\n      tag_88\n      jump\t// in\n    tag_194:\n        /* \"#utility.yul\":9739:9741   */\n      0x20\n        /* \"#utility.yul\":9734:9737   */\n      dup3\n        /* \"#utility.yul\":9730:9742   */\n      add\n        /* \"#utility.yul\":9723:9742   */\n      swap1\n      pop\n        /* \"#utility.yul\":9382:9748   */\n      swap2\n      swap1\n      pop\n      jump\t// out\n        /* \"#utility.yul\":9754:10173   */\n    tag_41:\n        /* \"#utility.yul\":9920:9924   */\n      0x00\n        /* \"#utility.yul\":9958:9960   */\n      0x20\n        /* \"#utility.yul\":9947:9956   */\n      dup3\n        /* \"#utility.yul\":9943:9961   */\n      add\n        /* \"#utility.yul\":9935:9961   */\n      swap1\n      pop\n        /* \"#utility.yul\":10007:10016   */\n      dup2\n        /* \"#utility.yul\":10001:10005   */\n      dup2\n        /* \"#utility.yul\":9997:10017   */\n      sub\n        /* \"#utility.yul\":9993:9994   */\n      0x00\n        /* \"#utility.yul\":9982:9991   */\n      dup4\n        /* \"#utility.yul\":9978:9995   */\n      add\n        /* \"#utility.yul\":9971:10018   */\n      mstore\n        /* \"#utility.yul\":10035:10166   */\n      tag_196\n        /* \"#utility.yul\":10161:10165   */\n      dup2\n        /* \"#utility.yul\":10035:10166   */\n      tag_89\n      jump\t// in\n    tag_196:\n        /* \"#utility.yul\":10027:10166   */\n      swap1\n      pop\n        /* \"#utility.yul\":9754:10173   */\n      swap2\n      swap1\n      pop\n      jump\t// out\n        /* \"#utility.yul\":10179:10356   */\n    tag_90:\n        /* \"#utility.yul\":10271:10282   */\n      0x00\n        /* \"#utility.yul\":10305:10311   */\n      dup3\n        /* \"#utility.yul\":10300:10303   */\n      dup3\n        /* \"#utility.yul\":10293:10312   */\n      mstore\n        /* \"#utility.yul\":10345:10349   */\n      0x20\n        /* \"#utility.yul\":10340:10343   */\n      dup3\n        /* \"#utility.yul\":10336:10350   */\n      add\n        /* \"#utility.yul\":10321:10350   */\n      swap1\n      pop\n        /* \"#utility.yul\":10179:10356   */\n      swap3\n      swap2\n      pop\n      pop\n      jump\t// out\n        /* \"#utility.yul\":10362:10755   */\n    tag_91:\n        /* \"#utility.yul\":10458:10461   */\n      0x00\n        /* \"#utility.yul\":10486:10525   */\n      tag_199\n        /* \"#utility.yul\":10519:10524   */\n      dup3\n        /* \"#utility.yul\":10486:10525   */\n      tag_79\n      jump\t// in\n    tag_199:\n        /* \"#utility.yul\":10541:10620   */\n      tag_200\n        /* \"#utility.yul\":10613:10619   */\n      dup2\n        /* \"#utility.yul\":10608:10611   */\n      dup6\n        /* \"#utility.yul\":10541:10620   */\n      tag_90\n      jump\t// in\n    tag_200:\n        /* \"#utility.yul\":10534:10620   */\n      swap4\n      pop\n        /* \"#utility.yul\":10629:10694   */\n      tag_201\n        /* \"#utility.yul\":10687:10693   */\n      dup2\n        /* \"#utility.yul\":10682:10685   */\n      dup6\n        /* \"#utility.yul\":10675:10679   */\n      0x20\n        /* \"#utility.yul\":10668:10673   */\n      dup7\n        /* \"#utility.yul\":10664:10680   */\n      add\n        /* \"#utility.yul\":10629:10694   */\n      tag_81\n      jump\t// in\n    tag_201:\n        /* \"#utility.yul\":10719:10748   */\n      tag_202\n        /* \"#utility.yul\":10741:10747   */\n      dup2\n        /* \"#utility.yul\":10719:10748   */\n      tag_60\n      jump\t// in\n    tag_202:\n        /* \"#utility.yul\":10714:10717   */\n      dup5\n        /* \"#utility.yul\":10710:10749   */\n      add\n        /* \"#utility.yul\":10703:10749   */\n      swap2\n      pop\n        /* \"#utility.yul\":10462:10755   */\n      pop\n        /* \"#utility.yul\":10362:10755   */\n      swap3\n      swap2\n      pop\n      pop\n      jump\t// out\n        /* \"#utility.yul\":10761:11090   */\n    tag_43:\n        /* \"#utility.yul\":10882:10886   */\n      0x00\n        /* \"#utility.yul\":10920:10922   */\n      0x20\n        /* \"#utility.yul\":10909:10918   */\n      dup3\n        /* \"#utility.yul\":10905:10923   */\n      add\n        /* \"#utility.yul\":10897:10923   */\n      swap1\n      pop\n        /* \"#utility.yul\":10969:10978   */\n      dup2\n        /* \"#utility.yul\":10963:10967   */\n      dup2\n        /* \"#utility.yul\":10959:10979   */\n      sub\n        /* \"#utility.yul\":10955:10956   */\n      0x00\n        /* \"#utility.yul\":10944:10953   */\n      dup4\n        /* \"#utility.yul\":10940:10957   */\n      add\n        /* \"#utility.yul\":10933:10980   */\n      mstore\n        /* \"#utility.yul\":10997:11083   */\n      tag_204\n        /* \"#utility.yul\":11078:11082   */\n      dup2\n        /* \"#utility.yul\":11069:11075   */\n      dup5\n        /* \"#utility.yul\":10997:11083   */\n      tag_91\n      jump\t// in\n    tag_204:\n        /* \"#utility.yul\":10989:11083   */\n      swap1\n      pop\n        /* \"#utility.yul\":10761:11090   */\n      swap3\n      swap2\n      pop\n      pop\n      jump\t// out\n        /* \"#utility.yul\":11096:11403   */\n    tag_92:\n        /* \"#utility.yul\":11157:11161   */\n      0x00\n        /* \"#utility.yul\":11247:11265   */\n      0xffffffffffffffff\n        /* \"#utility.yul\":11239:11245   */\n      dup3\n        /* \"#utility.yul\":11236:11266   */\n      gt\n        /* \"#utility.yul\":11233:11289   */\n      iszero\n      tag_206\n      jumpi\n        /* \"#utility.yul\":11269:11287   */\n      tag_207\n      tag_61\n      jump\t// in\n    tag_207:\n        /* \"#utility.yul\":11233:11289   */\n    tag_206:\n        /* \"#utility.yul\":11307:11336   */\n      tag_208\n        /* \"#utility.yul\":11329:11335   */\n      dup3\n        /* \"#utility.yul\":11307:11336   */\n      tag_60\n      jump\t// in\n    tag_208:\n        /* \"#utility.yul\":11299:11336   */\n      swap1\n      pop\n        /* \"#utility.yul\":11391:11395   */\n      0x20\n        /* \"#utility.yul\":11385:11389   */\n      dup2\n        /* \"#utility.yul\":11381:11396   */\n      add\n        /* \"#utility.yul\":11373:11396   */\n      swap1\n      pop\n        /* \"#utility.yul\":11096:11403   */\n      swap2\n      swap1\n      pop\n      jump\t// out\n        /* \"#utility.yul\":11409:11841   */\n    tag_93:\n        /* \"#utility.yul\":11497:11502   */\n      0x00\n        /* \"#utility.yul\":11522:11587   */\n      tag_210\n        /* \"#utility.yul\":11538:11586   */\n      tag_211\n        /* \"#utility.yul\":11579:11585   */\n      dup5\n        /* \"#utility.yul\":11538:11586   */\n      tag_92\n      jump\t// in\n    tag_211:\n        /* \"#utility.yul\":11522:11587   */\n      tag_63\n      jump\t// in\n    tag_210:\n        /* \"#utility.yul\":11513:11587   */\n      swap1\n      pop\n        /* \"#utility.yul\":11610:11616   */\n      dup3\n        /* \"#utility.yul\":11603:11608   */\n      dup2\n        /* \"#utility.yul\":11596:11617   */\n      mstore\n        /* \"#utility.yul\":11648:11652   */\n      0x20\n        /* \"#utility.yul\":11641:11646   */\n      dup2\n        /* \"#utility.yul\":11637:11653   */\n      add\n        /* \"#utility.yul\":11686:11689   */\n      dup5\n        /* \"#utility.yul\":11677:11683   */\n      dup5\n        /* \"#utility.yul\":11672:11675   */\n      dup5\n        /* \"#utility.yul\":11668:11684   */\n      add\n        /* \"#utility.yul\":11665:11690   */\n      gt\n        /* \"#utility.yul\":11662:11774   */\n      iszero\n      tag_212\n      jumpi\n        /* \"#utility.yul\":11693:11772   */\n      tag_213\n      tag_59\n      jump\t// in\n    tag_213:\n        /* \"#utility.yul\":11662:11774   */\n    tag_212:\n        /* \"#utility.yul\":11783:11835   */\n      tag_214\n        /* \"#utility.yul\":11828:11834   */\n      dup5\n        /* \"#utility.yul\":11823:11826   */\n      dup3\n        /* \"#utility.yul\":11818:11821   */\n      dup6\n        /* \"#utility.yul\":11783:11835   */\n      tag_81\n      jump\t// in\n    tag_214:\n        /* \"#utility.yul\":11503:11841   */\n      pop\n        /* \"#utility.yul\":11409:11841   */\n      swap4\n      swap3\n      pop\n      pop\n      pop\n      jump\t// out\n        /* \"#utility.yul\":11860:12213   */\n    tag_94:\n        /* \"#utility.yul\":11926:11931   */\n      0x00\n        /* \"#utility.yul\":11975:11978   */\n      dup3\n        /* \"#utility.yul\":11968:11972   */\n      0x1f\n        /* \"#utility.yul\":11960:11966   */\n      dup4\n        /* \"#utility.yul\":11956:11973   */\n      add\n        /* \"#utility.yul\":11952:11979   */\n      slt\n        /* \"#utility.yul\":11942:12064   */\n      tag_216\n      jumpi\n        /* \"#utility.yul\":11983:12062   */\n      tag_217\n      tag_58\n      jump\t// in\n    tag_217:\n        /* \"#utility.yul\":11942:12064   */\n    tag_216:\n        /* \"#utility.yul\":12093:12099   */\n      dup2\n        /* \"#utility.yul\":12087:12100   */\n      mload\n        /* \"#utility.yul\":12118:12207   */\n      tag_218\n        /* \"#utility.yul\":12203:12206   */\n      dup5\n        /* \"#utility.yul\":12195:12201   */\n      dup3\n        /* \"#utility.yul\":12188:12192   */\n      0x20\n        /* \"#utility.yul\":12180:12186   */\n      dup7\n        /* \"#utility.yul\":12176:12193   */\n      add\n        /* \"#utility.yul\":12118:12207   */\n      tag_93\n      jump\t// in\n    tag_218:\n        /* \"#utility.yul\":12109:12207   */\n      swap2\n      pop\n        /* \"#utility.yul\":11932:12213   */\n      pop\n        /* \"#utility.yul\":11860:12213   */\n      swap3\n      swap2\n      pop\n      pop\n      jump\t// out\n        /* \"#utility.yul\":12219:12741   */\n    tag_47:\n        /* \"#utility.yul\":12298:12304   */\n      0x00\n        /* \"#utility.yul\":12347:12349   */\n      0x20\n        /* \"#utility.yul\":12335:12344   */\n      dup3\n        /* \"#utility.yul\":12326:12333   */\n      dup5\n        /* \"#utility.yul\":12322:12345   */\n      sub\n        /* \"#utility.yul\":12318:12350   */\n      slt\n        /* \"#utility.yul\":12315:12434   */\n      iszero\n      tag_220\n      jumpi\n        /* \"#utility.yul\":12353:12432   */\n      tag_221\n      tag_56\n      jump\t// in\n    tag_221:\n        /* \"#utility.yul\":12315:12434   */\n    tag_220:\n        /* \"#utility.yul\":12494:12495   */\n      0x00\n        /* \"#utility.yul\":12483:12492   */\n      dup3\n        /* \"#utility.yul\":12479:12496   */\n      add\n        /* \"#utility.yul\":12473:12497   */\n      mload\n        /* \"#utility.yul\":12524:12542   */\n      0xffffffffffffffff\n        /* \"#utility.yul\":12516:12522   */\n      dup2\n        /* \"#utility.yul\":12513:12543   */\n      gt\n        /* \"#utility.yul\":12510:12627   */\n      iszero\n      tag_222\n      jumpi\n        /* \"#utility.yul\":12546:12625   */\n      tag_223\n      tag_57\n      jump\t// in\n    tag_223:\n        /* \"#utility.yul\":12510:12627   */\n    tag_222:\n        /* \"#utility.yul\":12651:12724   */\n      tag_224\n        /* \"#utility.yul\":12716:12723   */\n      dup5\n        /* \"#utility.yul\":12707:12713   */\n      dup3\n        /* \"#utility.yul\":12696:12705   */\n      dup6\n        /* \"#utility.yul\":12692:12714   */\n      add\n        /* \"#utility.yul\":12651:12724   */\n      tag_94\n      jump\t// in\n    tag_224:\n        /* \"#utility.yul\":12641:12724   */\n      swap2\n      pop\n        /* \"#utility.yul\":12444:12734   */\n      pop\n        /* \"#utility.yul\":12219:12741   */\n      swap3\n      swap2\n      pop\n      pop\n      jump\t// out\n        /* \"#utility.yul\":12747:12917   */\n    tag_95:\n        /* \"#utility.yul\":12887:12909   */\n      0x46696c65204861736820697320696e76616c6964000000000000000000000000\n        /* \"#utility.yul\":12883:12884   */\n      0x00\n        /* \"#utility.yul\":12875:12881   */\n      dup3\n        /* \"#utility.yul\":12871:12885   */\n      add\n        /* \"#utility.yul\":12864:12910   */\n      mstore\n        /* \"#utility.yul\":12747:12917   */\n      pop\n      jump\t// out\n        /* \"#utility.yul\":12923:13289   */\n    tag_96:\n        /* \"#utility.yul\":13065:13068   */\n      0x00\n        /* \"#utility.yul\":13086:13153   */\n      tag_227\n        /* \"#utility.yul\":13150:13152   */\n      0x14\n        /* \"#utility.yul\":13145:13148   */\n      dup4\n        /* \"#utility.yul\":13086:13153   */\n      tag_83\n      jump\t// in\n    tag_227:\n        /* \"#utility.yul\":13079:13153   */\n      swap2\n      pop\n        /* \"#utility.yul\":13162:13255   */\n      tag_228\n        /* \"#utility.yul\":13251:13254   */\n      dup3\n        /* \"#utility.yul\":13162:13255   */\n      tag_95\n      jump\t// in\n    tag_228:\n        /* \"#utility.yul\":13280:13282   */\n      0x20\n        /* \"#utility.yul\":13275:13278   */\n      dup3\n        /* \"#utility.yul\":13271:13283   */\n      add\n        /* \"#utility.yul\":13264:13283   */\n      swap1\n      pop\n        /* \"#utility.yul\":12923:13289   */\n      swap2\n      swap1\n      pop\n      jump\t// out\n        /* \"#utility.yul\":13295:13714   */\n    tag_50:\n        /* \"#utility.yul\":13461:13465   */\n      0x00\n        /* \"#utility.yul\":13499:13501   */\n      0x20\n        /* \"#utility.yul\":13488:13497   */\n      dup3\n        /* \"#utility.yul\":13484:13502   */\n      add\n        /* \"#utility.yul\":13476:13502   */\n      swap1\n      pop\n        /* \"#utility.yul\":13548:13557   */\n      dup2\n        /* \"#utility.yul\":13542:13546   */\n      dup2\n        /* \"#utility.yul\":13538:13558   */\n      sub\n        /* \"#utility.yul\":13534:13535   */\n      0x00\n        /* \"#utility.yul\":13523:13532   */\n      dup4\n        /* \"#utility.yul\":13519:13536   */\n      add\n        /* \"#utility.yul\":13512:13559   */\n      mstore\n        /* \"#utility.yul\":13576:13707   */\n      tag_230\n        /* \"#utility.yul\":13702:13706   */\n      dup2\n        /* \"#utility.yul\":13576:13707   */\n      tag_96\n      jump\t// in\n    tag_230:\n        /* \"#utility.yul\":13568:13707   */\n      swap1\n      pop\n        /* \"#utility.yul\":13295:13714   */\n      swap2\n      swap1\n      pop\n      jump\t// out\n        /* \"#utility.yul\":13720:14052   */\n    tag_54:\n        /* \"#utility.yul\":13841:13845   */\n      0x00\n        /* \"#utility.yul\":13879:13881   */\n      0x40\n        /* \"#utility.yul\":13868:13877   */\n      dup3\n        /* \"#utility.yul\":13864:13882   */\n      add\n        /* \"#utility.yul\":13856:13882   */\n      swap1\n      pop\n        /* \"#utility.yul\":13892:13963   */\n      tag_232\n        /* \"#utility.yul\":13960:13961   */\n      0x00\n        /* \"#utility.yul\":13949:13958   */\n      dup4\n        /* \"#utility.yul\":13945:13962   */\n      add\n        /* \"#utility.yul\":13936:13942   */\n      dup6\n        /* \"#utility.yul\":13892:13963   */\n      tag_69\n      jump\t// in\n    tag_232:\n        /* \"#utility.yul\":13973:14045   */\n      tag_233\n        /* \"#utility.yul\":14041:14043   */\n      0x20\n        /* \"#utility.yul\":14030:14039   */\n      dup4\n        /* \"#utility.yul\":14026:14044   */\n      add\n        /* \"#utility.yul\":14017:14023   */\n      dup5\n        /* \"#utility.yul\":13973:14045   */\n      tag_69\n      jump\t// in\n    tag_233:\n        /* \"#utility.yul\":13720:14052   */\n      swap4\n      swap3\n      pop\n      pop\n      pop\n      jump\t// out\n\n    auxdata: 0xa2646970667358221220995c50f17ba59c18c9e35e8624eec9d9a10d9cf2a249fda134c0cd3c8af9aa3164736f6c634300081a0033\n}\n",
				"bytecode": {
					"linkReferences": {
						"base58-solidity/contracts/Base58.sol": {
							"Base58": [
								{
									"length": 20,
									"start": 979
								}
							]
						}
					},
					"object": "6080604052348015600e575f80fd5b50610ccf8061001c5f395ff3fe608060405234801561000f575f80fd5b506004361061004a575f3560e01c8063252941cd1461004e5780633896f22614610080578063882815d3146100b0578063b66fb090146100cc575b5f80fd5b61006860048036038101906100639190610733565b6100fe565b604051610077939291906107d1565b60405180910390f35b61009a60048036038101906100959190610733565b610222565b6040516100a79190610820565b60405180910390f35b6100ca60048036038101906100c5919061088d565b610299565b005b6100e660048036038101906100e19190610733565b61058a565b6040516100f5939291906107d1565b60405180910390f35b5f805f805f85604051610111919061095f565b90815260200160405180910390206040518060600160405290815f8201548152602001600182015f9054906101000a900473ffffffffffffffffffffffffffffffffffffffff1673ffffffffffffffffffffffffffffffffffffffff1673ffffffffffffffffffffffffffffffffffffffff16815260200160028201548152505090505f73ffffffffffffffffffffffffffffffffffffffff16816020015173ffffffffffffffffffffffffffffffffffffffff1603610206576040517f08c379a00000000000000000000000000000000000000000000000000000000081526004016101fd906109cf565b60405180910390fd5b805f015181602001518260400151935093509350509193909250565b5f8073ffffffffffffffffffffffffffffffffffffffff165f83604051610249919061095f565b90815260200160405180910390206001015f9054906101000a900473ffffffffffffffffffffffffffffffffffffffff1673ffffffffffffffffffffffffffffffffffffffff1614159050919050565b5f73ffffffffffffffffffffffffffffffffffffffff168273ffffffffffffffffffffffffffffffffffffffff1603610307576040517f08c379a00000000000000000000000000000000000000000000000000000000081526004016102fe90610a37565b60405180910390fd5b5f73ffffffffffffffffffffffffffffffffffffffff165f8560405161032d919061095f565b90815260200160405180910390206001015f9054906101000a900473ffffffffffffffffffffffffffffffffffffffff1673ffffffffffffffffffffffffffffffffffffffff16146103b4576040517f08c379a00000000000000000000000000000000000000000000000000000000081526004016103ab90610a9f565b60405180910390fd5b5f73__$c1f41c38c5bb8d46254f8fa0ed3f45e207$__63046a466a866040518263ffffffff1660e01b81526004016103ec9190610b05565b5f60405180830381865af4158015610406573d5f803e3d5ffd5b505050506040513d5f823e3d601f19601f8201168201806040525081019061042e9190610bc3565b90506020815114610474576040517f08c379a000000000000000000000000000000000000000000000000000000000815260040161046b90610c54565b60405180910390fd5b60405180606001604052808581526020018473ffffffffffffffffffffffffffffffffffffffff168152602001838152505f866040516104b4919061095f565b90815260200160405180910390205f820151815f01556020820151816001015f6101000a81548173ffffffffffffffffffffffffffffffffffffffff021916908373ffffffffffffffffffffffffffffffffffffffff160217905550604082015181600201559050508273ffffffffffffffffffffffffffffffffffffffff1685604051610542919061095f565b60405180910390207f3f26224239cbd6e2819edf731dae47c620b9e580cb5ccb02ad5a5b7c7cd6aa9b868560405161057b929190610c72565b60405180910390a35050505050565b5f818051602081018201805184825260208301602085012081835280955050505050505f91509050805f015490806001015f9054906101000a900473ffffffffffffffffffffffffffffffffffffffff16908060020154905083565b5f604051905090565b5f80fd5b5f80fd5b5f80fd5b5f80fd5b5f601f19601f8301169050919050565b7f4e487b71000000000000000000000000000000000000000000000000000000005f52604160045260245ffd5b610645826105ff565b810181811067ffffffffffffffff821117156106645761066361060f565b5b80604052505050565b5f6106766105e6565b9050610682828261063c565b919050565b5f67ffffffffffffffff8211156106a1576106a061060f565b5b6106aa826105ff565b9050602081019050919050565b828183375f83830152505050565b5f6106d76106d284610687565b61066d565b9050828152602081018484840111156106f3576106f26105fb565b5b6106fe8482856106b7565b509392505050565b5f82601f83011261071a576107196105f7565b5b813561072a8482602086016106c5565b91505092915050565b5f60208284031215610748576107476105ef565b5b5f82013567ffffffffffffffff811115610765576107646105f3565b5b61077184828501610706565b91505092915050565b5f819050919050565b61078c8161077a565b82525050565b5f73ffffffffffffffffffffffffffffffffffffffff82169050919050565b5f6107bb82610792565b9050919050565b6107cb816107b1565b82525050565b5f6060820190506107e45f830186610783565b6107f160208301856107c2565b6107fe6040830184610783565b949350505050565b5f8115159050919050565b61081a81610806565b82525050565b5f6020820190506108335f830184610811565b92915050565b6108428161077a565b811461084c575f80fd5b50565b5f8135905061085d81610839565b92915050565b61086c816107b1565b8114610876575f80fd5b50565b5f8135905061088781610863565b92915050565b5f805f80608085870312156108a5576108a46105ef565b5b5f85013567ffffffffffffffff8111156108c2576108c16105f3565b5b6108ce87828801610706565b94505060206108df8782880161084f565b93505060406108f087828801610879565b92505060606109018782880161084f565b91505092959194509250565b5f81519050919050565b5f81905092915050565b8281835e5f83830152505050565b5f6109398261090d565b6109438185610917565b9350610953818560208601610921565b80840191505092915050565b5f61096a828461092f565b915081905092915050565b5f82825260208201905092915050565b7f436f6e7472616374206e6f7420666f756e6400000000000000000000000000005f82015250565b5f6109b9601283610975565b91506109c482610985565b602082019050919050565b5f6020820190508181035f8301526109e6816109ad565b9050919050565b7f496e76616c696420636f6e7472616374206164647265737300000000000000005f82015250565b5f610a21601883610975565b9150610a2c826109ed565b602082019050919050565b5f6020820190508181035f830152610a4e81610a15565b9050919050565b7f494420616c7265616479207573656400000000000000000000000000000000005f82015250565b5f610a89600f83610975565b9150610a9482610a55565b602082019050919050565b5f6020820190508181035f830152610ab681610a7d565b9050919050565b5f82825260208201905092915050565b5f610ad78261090d565b610ae18185610abd565b9350610af1818560208601610921565b610afa816105ff565b840191505092915050565b5f6020820190508181035f830152610b1d8184610acd565b905092915050565b5f67ffffffffffffffff821115610b3f57610b3e61060f565b5b610b48826105ff565b9050602081019050919050565b5f610b67610b6284610b25565b61066d565b905082815260208101848484011115610b8357610b826105fb565b5b610b8e848285610921565b509392505050565b5f82601f830112610baa57610ba96105f7565b5b8151610bba848260208601610b55565b91505092915050565b5f60208284031215610bd857610bd76105ef565b5b5f82015167ffffffffffffffff811115610bf557610bf46105f3565b5b610c0184828501610b96565b91505092915050565b7f46696c65204861736820697320696e76616c69640000000000000000000000005f82015250565b5f610c3e601483610975565b9150610c4982610c0a565b602082019050919050565b5f6020820190508181035f830152610c6b81610c32565b9050919050565b5f604082019050610c855f830185610783565b610c926020830184610783565b939250505056fea2646970667358221220995c50f17ba59c18c9e35e8624eec9d9a10d9cf2a249fda134c0cd3c8af9aa3164736f6c634300081a0033",
					"opcodes": "PUSH1 0x80 PUSH1 0x40 MSTORE CALLVALUE DUP1 ISZERO PUSH1 0xE JUMPI PUSH0 DUP1 REVERT JUMPDEST POP PUSH2 0xCCF DUP1 PUSH2 0x1C PUSH0 CODECOPY PUSH0 RETURN INVALID PUSH1 0x80 PUSH1 0x40 MSTORE CALLVALUE DUP1 ISZERO PUSH2 0xF JUMPI PUSH0 DUP1 REVERT JUMPDEST POP PUSH1 0x4 CALLDATASIZE LT PUSH2 0x4A JUMPI PUSH0 CALLDATALOAD PUSH1 0xE0 SHR DUP1 PUSH4 0x252941CD EQ PUSH2 0x4E JUMPI DUP1 PUSH4 0x3896F226 EQ PUSH2 0x80 JUMPI DUP1 PUSH4 0x882815D3 EQ PUSH2 0xB0 JUMPI DUP1 PUSH4 0xB66FB090 EQ PUSH2 0xCC JUMPI JUMPDEST PUSH0 DUP1 REVERT JUMPDEST PUSH2 0x68 PUSH1 0x4 DUP1 CALLDATASIZE SUB DUP2 ADD SWAP1 PUSH2 0x63 SWAP2 SWAP1 PUSH2 0x733 JUMP JUMPDEST PUSH2 0xFE JUMP JUMPDEST PUSH1 0x40 MLOAD PUSH2 0x77 SWAP4 SWAP3 SWAP2 SWAP1 PUSH2 0x7D1 JUMP JUMPDEST PUSH1 0x40 MLOAD DUP1 SWAP2 SUB SWAP1 RETURN JUMPDEST PUSH2 0x9A PUSH1 0x4 DUP1 CALLDATASIZE SUB DUP2 ADD SWAP1 PUSH2 0x95 SWAP2 SWAP1 PUSH2 0x733 JUMP JUMPDEST PUSH2 0x222 JUMP JUMPDEST PUSH1 0x40 MLOAD PUSH2 0xA7 SWAP2 SWAP1 PUSH2 0x820 JUMP JUMPDEST PUSH1 0x40 MLOAD DUP1 SWAP2 SUB SWAP1 RETURN JUMPDEST PUSH2 0xCA PUSH1 0x4 DUP1 CALLDATASIZE SUB DUP2 ADD SWAP1 PUSH2 0xC5 SWAP2 SWAP1 PUSH2 0x88D JUMP JUMPDEST PUSH2 0x299 JUMP JUMPDEST STOP JUMPDEST PUSH2 0xE6 PUSH1 0x4 DUP1 CALLDATASIZE SUB DUP2 ADD SWAP1 PUSH2 0xE1 SWAP2 SWAP1 PUSH2 0x733 JUMP JUMPDEST PUSH2 0x58A JUMP JUMPDEST PUSH1 0x40 MLOAD PUSH2 0xF5 SWAP4 SWAP3 SWAP2 SWAP1 PUSH2 0x7D1 JUMP JUMPDEST PUSH1 0x40 MLOAD DUP1 SWAP2 SUB SWAP1 RETURN JUMPDEST PUSH0 DUP1 PUSH0 DUP1 PUSH0 DUP6 PUSH1 0x40 MLOAD PUSH2 0x111 SWAP2 SWAP1 PUSH2 0x95F JUMP JUMPDEST SWAP1 DUP2 MSTORE PUSH1 0x20 ADD PUSH1 0x40 MLOAD DUP1 SWAP2 SUB SWAP1 KECCAK256 PUSH1 0x40 MLOAD DUP1 PUSH1 0x60 ADD PUSH1 0x40 MSTORE SWAP1 DUP2 PUSH0 DUP3 ADD SLOAD DUP2 MSTORE PUSH1 0x20 ADD PUSH1 0x1 DUP3 ADD PUSH0 SWAP1 SLOAD SWAP1 PUSH2 0x100 EXP SWAP1 DIV PUSH20 0xFFFFFFFFFFFFFFFFFFFFFFFFFFFFFFFFFFFFFFFF AND PUSH20 0xFFFFFFFFFFFFFFFFFFFFFFFFFFFFFFFFFFFFFFFF AND PUSH20 0xFFFFFFFFFFFFFFFFFFFFFFFFFFFFFFFFFFFFFFFF AND DUP2 MSTORE PUSH1 0x20 ADD PUSH1 0x2 DUP3 ADD SLOAD DUP2 MSTORE POP POP SWAP1 POP PUSH0 PUSH20 0xFFFFFFFFFFFFFFFFFFFFFFFFFFFFFFFFFFFFFFFF AND DUP2 PUSH1 0x20 ADD MLOAD PUSH20 0xFFFFFFFFFFFFFFFFFFFFFFFFFFFFFFFFFFFFFFFF AND SUB PUSH2 0x206 JUMPI PUSH1 0x40 MLOAD PUSH32 0x8C379A000000000000000000000000000000000000000000000000000000000 DUP2 MSTORE PUSH1 0x4 ADD PUSH2 0x1FD SWAP1 PUSH2 0x9CF JUMP JUMPDEST PUSH1 0x40 MLOAD DUP1 SWAP2 SUB SWAP1 REVERT JUMPDEST DUP1 PUSH0 ADD MLOAD DUP2 PUSH1 0x20 ADD MLOAD DUP3 PUSH1 0x40 ADD MLOAD SWAP4 POP SWAP4 POP SWAP4 POP POP SWAP2 SWAP4 SWAP1 SWAP3 POP JUMP JUMPDEST PUSH0 DUP1 PUSH20 0xFFFFFFFFFFFFFFFFFFFFFFFFFFFFFFFFFFFFFFFF AND PUSH0 DUP4 PUSH1 0x40 MLOAD PUSH2 0x249 SWAP2 SWAP1 PUSH2 0x95F JUMP JUMPDEST SWAP1 DUP2 MSTORE PUSH1 0x20 ADD PUSH1 0x40 MLOAD DUP1 SWAP2 SUB SWAP1 KECCAK256 PUSH1 0x1 ADD PUSH0 SWAP1 SLOAD SWAP1 PUSH2 0x100 EXP SWAP1 DIV PUSH20 0xFFFFFFFFFFFFFFFFFFFFFFFFFFFFFFFFFFFFFFFF AND PUSH20 0xFFFFFFFFFFFFFFFFFFFFFFFFFFFFFFFFFFFFFFFF AND EQ ISZERO SWAP1 POP SWAP2 SWAP1 POP JUMP JUMPDEST PUSH0 PUSH20 0xFFFFFFFFFFFFFFFFFFFFFFFFFFFFFFFFFFFFFFFF AND DUP3 PUSH20 0xFFFFFFFFFFFFFFFFFFFFFFFFFFFFFFFFFFFFFFFF AND SUB PUSH2 0x307 JUMPI PUSH1 0x40 MLOAD PUSH32 0x8C379A000000000000000000000000000000000000000000000000000000000 DUP2 MSTORE PUSH1 0x4 ADD PUSH2 0x2FE SWAP1 PUSH2 0xA37 JUMP JUMPDEST PUSH1 0x40 MLOAD DUP1 SWAP2 SUB SWAP1 REVERT JUMPDEST PUSH0 PUSH20 0xFFFFFFFFFFFFFFFFFFFFFFFFFFFFFFFFFFFFFFFF AND PUSH0 DUP6 PUSH1 0x40 MLOAD PUSH2 0x32D SWAP2 SWAP1 PUSH2 0x95F JUMP JUMPDEST SWAP1 DUP2 MSTORE PUSH1 0x20 ADD PUSH1 0x40 MLOAD DUP1 SWAP2 SUB SWAP1 KECCAK256 PUSH1 0x1 ADD PUSH0 SWAP1 SLOAD SWAP1 PUSH2 0x100 EXP SWAP1 DIV PUSH20 0xFFFFFFFFFFFFFFFFFFFFFFFFFFFFFFFFFFFFFFFF AND PUSH20 0xFFFFFFFFFFFFFFFFFFFFFFFFFFFFFFFFFFFFFFFF AND EQ PUSH2 0x3B4 JUMPI PUSH1 0x40 MLOAD PUSH32 0x8C379A000000000000000000000000000000000000000000000000000000000 DUP2 MSTORE PUSH1 0x4 ADD PUSH2 0x3AB SWAP1 PUSH2 0xA9F JUMP JUMPDEST PUSH1 0x40 MLOAD DUP1 SWAP2 SUB SWAP1 REVERT JUMPDEST PUSH0 PUSH20 0x0 PUSH4 0x46A466A DUP7 PUSH1 0x40 MLOAD DUP3 PUSH4 0xFFFFFFFF AND PUSH1 0xE0 SHL DUP2 MSTORE PUSH1 0x4 ADD PUSH2 0x3EC SWAP2 SWAP1 PUSH2 0xB05 JUMP JUMPDEST PUSH0 PUSH1 0x40 MLOAD DUP1 DUP4 SUB DUP2 DUP7 GAS DELEGATECALL ISZERO DUP1 ISZERO PUSH2 0x406 JUMPI RETURNDATASIZE PUSH0 DUP1 RETURNDATACOPY RETURNDATASIZE PUSH0 REVERT JUMPDEST POP POP POP POP PUSH1 0x40 MLOAD RETURNDATASIZE PUSH0 DUP3 RETURNDATACOPY RETURNDATASIZE PUSH1 0x1F NOT PUSH1 0x1F DUP3 ADD AND DUP3 ADD DUP1 PUSH1 0x40 MSTORE POP DUP2 ADD SWAP1 PUSH2 0x42E SWAP2 SWAP1 PUSH2 0xBC3 JUMP JUMPDEST SWAP1 POP PUSH1 0x20 DUP2 MLOAD EQ PUSH2 0x474 JUMPI PUSH1 0x40 MLOAD PUSH32 0x8C379A000000000000000000000000000000000000000000000000000000000 DUP2 MSTORE PUSH1 0x4 ADD PUSH2 0x46B SWAP1 PUSH2 0xC54 JUMP JUMPDEST PUSH1 0x40 MLOAD DUP1 SWAP2 SUB SWAP1 REVERT JUMPDEST PUSH1 0x40 MLOAD DUP1 PUSH1 0x60 ADD PUSH1 0x40 MSTORE DUP1 DUP6 DUP2 MSTORE PUSH1 0x20 ADD DUP5 PUSH20 0xFFFFFFFFFFFFFFFFFFFFFFFFFFFFFFFFFFFFFFFF AND DUP2 MSTORE PUSH1 0x20 ADD DUP4 DUP2 MSTORE POP PUSH0 DUP7 PUSH1 0x40 MLOAD PUSH2 0x4B4 SWAP2 SWAP1 PUSH2 0x95F JUMP JUMPDEST SWAP1 DUP2 MSTORE PUSH1 0x20 ADD PUSH1 0x40 MLOAD DUP1 SWAP2 SUB SWAP1 KECCAK256 PUSH0 DUP3 ADD MLOAD DUP2 PUSH0 ADD SSTORE PUSH1 0x20 DUP3 ADD MLOAD DUP2 PUSH1 0x1 ADD PUSH0 PUSH2 0x100 EXP DUP2 SLOAD DUP2 PUSH20 0xFFFFFFFFFFFFFFFFFFFFFFFFFFFFFFFFFFFFFFFF MUL NOT AND SWAP1 DUP4 PUSH20 0xFFFFFFFFFFFFFFFFFFFFFFFFFFFFFFFFFFFFFFFF AND MUL OR SWAP1 SSTORE POP PUSH1 0x40 DUP3 ADD MLOAD DUP2 PUSH1 0x2 ADD SSTORE SWAP1 POP POP DUP3 PUSH20 0xFFFFFFFFFFFFFFFFFFFFFFFFFFFFFFFFFFFFFFFF AND DUP6 PUSH1 0x40 MLOAD PUSH2 0x542 SWAP2 SWAP1 PUSH2 0x95F JUMP JUMPDEST PUSH1 0x40 MLOAD DUP1 SWAP2 SUB SWAP1 KECCAK256 PUSH32 0x3F26224239CBD6E2819EDF731DAE47C620B9E580CB5CCB02AD5A5B7C7CD6AA9B DUP7 DUP6 PUSH1 0x40 MLOAD PUSH2 0x57B SWAP3 SWAP2 SWAP1 PUSH2 0xC72 JUMP JUMPDEST PUSH1 0x40 MLOAD DUP1 SWAP2 SUB SWAP1 LOG3 POP POP POP POP POP JUMP JUMPDEST PUSH0 DUP2 DUP1 MLOAD PUSH1 0x20 DUP2 ADD DUP3 ADD DUP1 MLOAD DUP5 DUP3 MSTORE PUSH1 0x20 DUP4 ADD PUSH1 0x20 DUP6 ADD KECCAK256 DUP2 DUP4 MSTORE DUP1 SWAP6 POP POP POP POP POP POP PUSH0 SWAP2 POP SWAP1 POP DUP1 PUSH0 ADD SLOAD SWAP1 DUP1 PUSH1 0x1 ADD PUSH0 SWAP1 SLOAD SWAP1 PUSH2 0x100 EXP SWAP1 DIV PUSH20 0xFFFFFFFFFFFFFFFFFFFFFFFFFFFFFFFFFFFFFFFF AND SWAP1 DUP1 PUSH1 0x2 ADD SLOAD SWAP1 POP DUP4 JUMP JUMPDEST PUSH0 PUSH1 0x40 MLOAD SWAP1 POP SWAP1 JUMP JUMPDEST PUSH0 DUP1 REVERT JUMPDEST PUSH0 DUP1 REVERT JUMPDEST PUSH0 DUP1 REVERT JUMPDEST PUSH0 DUP1 REVERT JUMPDEST PUSH0 PUSH1 0x1F NOT PUSH1 0x1F DUP4 ADD AND SWAP1 POP SWAP2 SWAP1 POP JUMP JUMPDEST PUSH32 0x4E487B7100000000000000000000000000000000000000000000000000000000 PUSH0 MSTORE PUSH1 0x41 PUSH1 0x4 MSTORE PUSH1 0x24 PUSH0 REVERT JUMPDEST PUSH2 0x645 DUP3 PUSH2 0x5FF JUMP JUMPDEST DUP2 ADD DUP2 DUP2 LT PUSH8 0xFFFFFFFFFFFFFFFF DUP3 GT OR ISZERO PUSH2 0x664 JUMPI PUSH2 0x663 PUSH2 0x60F JUMP JUMPDEST JUMPDEST DUP1 PUSH1 0x40 MSTORE POP POP POP JUMP JUMPDEST PUSH0 PUSH2 0x676 PUSH2 0x5E6 JUMP JUMPDEST SWAP1 POP PUSH2 0x682 DUP3 DUP3 PUSH2 0x63C JUMP JUMPDEST SWAP2 SWAP1 POP JUMP JUMPDEST PUSH0 PUSH8 0xFFFFFFFFFFFFFFFF DUP3 GT ISZERO PUSH2 0x6A1 JUMPI PUSH2 0x6A0 PUSH2 0x60F JUMP JUMPDEST JUMPDEST PUSH2 0x6AA DUP3 PUSH2 0x5FF JUMP JUMPDEST SWAP1 POP PUSH1 0x20 DUP2 ADD SWAP1 POP SWAP2 SWAP1 POP JUMP JUMPDEST DUP3 DUP2 DUP4 CALLDATACOPY PUSH0 DUP4 DUP4 ADD MSTORE POP POP POP JUMP JUMPDEST PUSH0 PUSH2 0x6D7 PUSH2 0x6D2 DUP5 PUSH2 0x687 JUMP JUMPDEST PUSH2 0x66D JUMP JUMPDEST SWAP1 POP DUP3 DUP2 MSTORE PUSH1 0x20 DUP2 ADD DUP5 DUP5 DUP5 ADD GT ISZERO PUSH2 0x6F3 JUMPI PUSH2 0x6F2 PUSH2 0x5FB JUMP JUMPDEST JUMPDEST PUSH2 0x6FE DUP5 DUP3 DUP6 PUSH2 0x6B7 JUMP JUMPDEST POP SWAP4 SWAP3 POP POP POP JUMP JUMPDEST PUSH0 DUP3 PUSH1 0x1F DUP4 ADD SLT PUSH2 0x71A JUMPI PUSH2 0x719 PUSH2 0x5F7 JUMP JUMPDEST JUMPDEST DUP2 CALLDATALOAD PUSH2 0x72A DUP5 DUP3 PUSH1 0x20 DUP7 ADD PUSH2 0x6C5 JUMP JUMPDEST SWAP2 POP POP SWAP3 SWAP2 POP POP JUMP JUMPDEST PUSH0 PUSH1 0x20 DUP3 DUP5 SUB SLT ISZERO PUSH2 0x748 JUMPI PUSH2 0x747 PUSH2 0x5EF JUMP JUMPDEST JUMPDEST PUSH0 DUP3 ADD CALLDATALOAD PUSH8 0xFFFFFFFFFFFFFFFF DUP2 GT ISZERO PUSH2 0x765 JUMPI PUSH2 0x764 PUSH2 0x5F3 JUMP JUMPDEST JUMPDEST PUSH2 0x771 DUP5 DUP3 DUP6 ADD PUSH2 0x706 JUMP JUMPDEST SWAP2 POP POP SWAP3 SWAP2 POP POP JUMP JUMPDEST PUSH0 DUP2 SWAP1 POP SWAP2 SWAP1 POP JUMP JUMPDEST PUSH2 0x78C DUP2 PUSH2 0x77A JUMP JUMPDEST DUP3 MSTORE POP POP JUMP JUMPDEST PUSH0 PUSH20 0xFFFFFFFFFFFFFFFFFFFFFFFFFFFFFFFFFFFFFFFF DUP3 AND SWAP1 POP SWAP2 SWAP1 POP JUMP JUMPDEST PUSH0 PUSH2 0x7BB DUP3 PUSH2 0x792 JUMP JUMPDEST SWAP1 POP SWAP2 SWAP1 POP JUMP JUMPDEST PUSH2 0x7CB DUP2 PUSH2 0x7B1 JUMP JUMPDEST DUP3 MSTORE POP POP JUMP JUMPDEST PUSH0 PUSH1 0x60 DUP3 ADD SWAP1 POP PUSH2 0x7E4 PUSH0 DUP4 ADD DUP7 PUSH2 0x783 JUMP JUMPDEST PUSH2 0x7F1 PUSH1 0x20 DUP4 ADD DUP6 PUSH2 0x7C2 JUMP JUMPDEST PUSH2 0x7FE PUSH1 0x40 DUP4 ADD DUP5 PUSH2 0x783 JUMP JUMPDEST SWAP5 SWAP4 POP POP POP POP JUMP JUMPDEST PUSH0 DUP2 ISZERO ISZERO SWAP1 POP SWAP2 SWAP1 POP JUMP JUMPDEST PUSH2 0x81A DUP2 PUSH2 0x806 JUMP JUMPDEST DUP3 MSTORE POP POP JUMP JUMPDEST PUSH0 PUSH1 0x20 DUP3 ADD SWAP1 POP PUSH2 0x833 PUSH0 DUP4 ADD DUP5 PUSH2 0x811 JUMP JUMPDEST SWAP3 SWAP2 POP POP JUMP JUMPDEST PUSH2 0x842 DUP2 PUSH2 0x77A JUMP JUMPDEST DUP2 EQ PUSH2 0x84C JUMPI PUSH0 DUP1 REVERT JUMPDEST POP JUMP JUMPDEST PUSH0 DUP2 CALLDATALOAD SWAP1 POP PUSH2 0x85D DUP2 PUSH2 0x839 JUMP JUMPDEST SWAP3 SWAP2 POP POP JUMP JUMPDEST PUSH2 0x86C DUP2 PUSH2 0x7B1 JUMP JUMPDEST DUP2 EQ PUSH2 0x876 JUMPI PUSH0 DUP1 REVERT JUMPDEST POP JUMP JUMPDEST PUSH0 DUP2 CALLDATALOAD SWAP1 POP PUSH2 0x887 DUP2 PUSH2 0x863 JUMP JUMPDEST SWAP3 SWAP2 POP POP JUMP JUMPDEST PUSH0 DUP1 PUSH0 DUP1 PUSH1 0x80 DUP6 DUP8 SUB SLT ISZERO PUSH2 0x8A5 JUMPI PUSH2 0x8A4 PUSH2 0x5EF JUMP JUMPDEST JUMPDEST PUSH0 DUP6 ADD CALLDATALOAD PUSH8 0xFFFFFFFFFFFFFFFF DUP2 GT ISZERO PUSH2 0x8C2 JUMPI PUSH2 0x8C1 PUSH2 0x5F3 JUMP JUMPDEST JUMPDEST PUSH2 0x8CE DUP8 DUP3 DUP9 ADD PUSH2 0x706 JUMP JUMPDEST SWAP5 POP POP PUSH1 0x20 PUSH2 0x8DF DUP8 DUP3 DUP9 ADD PUSH2 0x84F JUMP JUMPDEST SWAP4 POP POP PUSH1 0x40 PUSH2 0x8F0 DUP8 DUP3 DUP9 ADD PUSH2 0x879 JUMP JUMPDEST SWAP3 POP POP PUSH1 0x60 PUSH2 0x901 DUP8 DUP3 DUP9 ADD PUSH2 0x84F JUMP JUMPDEST SWAP2 POP POP SWAP3 SWAP6 SWAP2 SWAP5 POP SWAP3 POP JUMP JUMPDEST PUSH0 DUP2 MLOAD SWAP1 POP SWAP2 SWAP1 POP JUMP JUMPDEST PUSH0 DUP2 SWAP1 POP SWAP3 SWAP2 POP POP JUMP JUMPDEST DUP3 DUP2 DUP4 MCOPY PUSH0 DUP4 DUP4 ADD MSTORE POP POP POP JUMP JUMPDEST PUSH0 PUSH2 0x939 DUP3 PUSH2 0x90D JUMP JUMPDEST PUSH2 0x943 DUP2 DUP6 PUSH2 0x917 JUMP JUMPDEST SWAP4 POP PUSH2 0x953 DUP2 DUP6 PUSH1 0x20 DUP7 ADD PUSH2 0x921 JUMP JUMPDEST DUP1 DUP5 ADD SWAP2 POP POP SWAP3 SWAP2 POP POP JUMP JUMPDEST PUSH0 PUSH2 0x96A DUP3 DUP5 PUSH2 0x92F JUMP JUMPDEST SWAP2 POP DUP2 SWAP1 POP SWAP3 SWAP2 POP POP JUMP JUMPDEST PUSH0 DUP3 DUP3 MSTORE PUSH1 0x20 DUP3 ADD SWAP1 POP SWAP3 SWAP2 POP POP JUMP JUMPDEST PUSH32 0x436F6E7472616374206E6F7420666F756E640000000000000000000000000000 PUSH0 DUP3 ADD MSTORE POP JUMP JUMPDEST PUSH0 PUSH2 0x9B9 PUSH1 0x12 DUP4 PUSH2 0x975 JUMP JUMPDEST SWAP2 POP PUSH2 0x9C4 DUP3 PUSH2 0x985 JUMP JUMPDEST PUSH1 0x20 DUP3 ADD SWAP1 POP SWAP2 SWAP1 POP JUMP JUMPDEST PUSH0 PUSH1 0x20 DUP3 ADD SWAP1 POP DUP2 DUP2 SUB PUSH0 DUP4 ADD MSTORE PUSH2 0x9E6 DUP2 PUSH2 0x9AD JUMP JUMPDEST SWAP1 POP SWAP2 SWAP1 POP JUMP JUMPDEST PUSH32 0x496E76616C696420636F6E747261637420616464726573730000000000000000 PUSH0 DUP3 ADD MSTORE POP JUMP JUMPDEST PUSH0 PUSH2 0xA21 PUSH1 0x18 DUP4 PUSH2 0x975 JUMP JUMPDEST SWAP2 POP PUSH2 0xA2C DUP3 PUSH2 0x9ED JUMP JUMPDEST PUSH1 0x20 DUP3 ADD SWAP1 POP SWAP2 SWAP1 POP JUMP JUMPDEST PUSH0 PUSH1 0x20 DUP3 ADD SWAP1 POP DUP2 DUP2 SUB PUSH0 DUP4 ADD MSTORE PUSH2 0xA4E DUP2 PUSH2 0xA15 JUMP JUMPDEST SWAP1 POP SWAP2 SWAP1 POP JUMP JUMPDEST PUSH32 0x494420616C726561647920757365640000000000000000000000000000000000 PUSH0 DUP3 ADD MSTORE POP JUMP JUMPDEST PUSH0 PUSH2 0xA89 PUSH1 0xF DUP4 PUSH2 0x975 JUMP JUMPDEST SWAP2 POP PUSH2 0xA94 DUP3 PUSH2 0xA55 JUMP JUMPDEST PUSH1 0x20 DUP3 ADD SWAP1 POP SWAP2 SWAP1 POP JUMP JUMPDEST PUSH0 PUSH1 0x20 DUP3 ADD SWAP1 POP DUP2 DUP2 SUB PUSH0 DUP4 ADD MSTORE PUSH2 0xAB6 DUP2 PUSH2 0xA7D JUMP JUMPDEST SWAP1 POP SWAP2 SWAP1 POP JUMP JUMPDEST PUSH0 DUP3 DUP3 MSTORE PUSH1 0x20 DUP3 ADD SWAP1 POP SWAP3 SWAP2 POP POP JUMP JUMPDEST PUSH0 PUSH2 0xAD7 DUP3 PUSH2 0x90D JUMP JUMPDEST PUSH2 0xAE1 DUP2 DUP6 PUSH2 0xABD JUMP JUMPDEST SWAP4 POP PUSH2 0xAF1 DUP2 DUP6 PUSH1 0x20 DUP7 ADD PUSH2 0x921 JUMP JUMPDEST PUSH2 0xAFA DUP2 PUSH2 0x5FF JUMP JUMPDEST DUP5 ADD SWAP2 POP POP SWAP3 SWAP2 POP POP JUMP JUMPDEST PUSH0 PUSH1 0x20 DUP3 ADD SWAP1 POP DUP2 DUP2 SUB PUSH0 DUP4 ADD MSTORE PUSH2 0xB1D DUP2 DUP5 PUSH2 0xACD JUMP JUMPDEST SWAP1 POP SWAP3 SWAP2 POP POP JUMP JUMPDEST PUSH0 PUSH8 0xFFFFFFFFFFFFFFFF DUP3 GT ISZERO PUSH2 0xB3F JUMPI PUSH2 0xB3E PUSH2 0x60F JUMP JUMPDEST JUMPDEST PUSH2 0xB48 DUP3 PUSH2 0x5FF JUMP JUMPDEST SWAP1 POP PUSH1 0x20 DUP2 ADD SWAP1 POP SWAP2 SWAP1 POP JUMP JUMPDEST PUSH0 PUSH2 0xB67 PUSH2 0xB62 DUP5 PUSH2 0xB25 JUMP JUMPDEST PUSH2 0x66D JUMP JUMPDEST SWAP1 POP DUP3 DUP2 MSTORE PUSH1 0x20 DUP2 ADD DUP5 DUP5 DUP5 ADD GT ISZERO PUSH2 0xB83 JUMPI PUSH2 0xB82 PUSH2 0x5FB JUMP JUMPDEST JUMPDEST PUSH2 0xB8E DUP5 DUP3 DUP6 PUSH2 0x921 JUMP JUMPDEST POP SWAP4 SWAP3 POP POP POP JUMP JUMPDEST PUSH0 DUP3 PUSH1 0x1F DUP4 ADD SLT PUSH2 0xBAA JUMPI PUSH2 0xBA9 PUSH2 0x5F7 JUMP JUMPDEST JUMPDEST DUP2 MLOAD PUSH2 0xBBA DUP5 DUP3 PUSH1 0x20 DUP7 ADD PUSH2 0xB55 JUMP JUMPDEST SWAP2 POP POP SWAP3 SWAP2 POP POP JUMP JUMPDEST PUSH0 PUSH1 0x20 DUP3 DUP5 SUB SLT ISZERO PUSH2 0xBD8 JUMPI PUSH2 0xBD7 PUSH2 0x5EF JUMP JUMPDEST JUMPDEST PUSH0 DUP3 ADD MLOAD PUSH8 0xFFFFFFFFFFFFFFFF DUP2 GT ISZERO PUSH2 0xBF5 JUMPI PUSH2 0xBF4 PUSH2 0x5F3 JUMP JUMPDEST JUMPDEST PUSH2 0xC01 DUP5 DUP3 DUP6 ADD PUSH2 0xB96 JUMP JUMPDEST SWAP2 POP POP SWAP3 SWAP2 POP POP JUMP JUMPDEST PUSH32 0x46696C65204861736820697320696E76616C6964000000000000000000000000 PUSH0 DUP3 ADD MSTORE POP JUMP JUMPDEST PUSH0 PUSH2 0xC3E PUSH1 0x14 DUP4 PUSH2 0x975 JUMP JUMPDEST SWAP2 POP PUSH2 0xC49 DUP3 PUSH2 0xC0A JUMP JUMPDEST PUSH1 0x20 DUP3 ADD SWAP1 POP SWAP2 SWAP1 POP JUMP JUMPDEST PUSH0 PUSH1 0x20 DUP3 ADD SWAP1 POP DUP2 DUP2 SUB PUSH0 DUP4 ADD MSTORE PUSH2 0xC6B DUP2 PUSH2 0xC32 JUMP JUMPDEST SWAP1 POP SWAP2 SWAP1 POP JUMP JUMPDEST PUSH0 PUSH1 0x40 DUP3 ADD SWAP1 POP PUSH2 0xC85 PUSH0 DUP4 ADD DUP6 PUSH2 0x783 JUMP JUMPDEST PUSH2 0xC92 PUSH1 0x20 DUP4 ADD DUP5 PUSH2 0x783 JUMP JUMPDEST SWAP4 SWAP3 POP POP POP JUMP INVALID LOG2 PUSH5 0x6970667358 0x22 SLT KECCAK256 SWAP10 TLOAD POP CALL PUSH28 0xA59C18C9E35E8624EEC9D9A10D9CF2A249FDA134C0CD3C8AF9AA3164 PUSH20 0x6F6C634300081A00330000000000000000000000 "
				},
				"gasEstimates": {
					"creation": {
						"codeDepositCost": "655800",
						"executionCost": "687",
						"totalCost": "656487"
					},
					"external": {
						"getNFTInfo(string)": "infinite",
						"isContractRegistered(string)": "infinite",
						"nfts(string)": "infinite",
						"registerNFT(string,uint256,address,uint256)": "infinite"
					}
				},
				"methodIdentifiers": {
					"getNFTInfo(string)": "252941cd",
					"isContractRegistered(string)": "3896f226",
					"nfts(string)": "b66fb090",
					"registerNFT(string,uint256,address,uint256)": "882815d3"
				}
			},
			"storageLayout": {
				"storage": [
					{
						"astId": 677,
						"contract": "test.sol:NFTregistry",
						"label": "nfts",
						"offset": 0,
						"slot": "0",
						"type": "t_mapping(t_string_memory_ptr,t_struct(NFTInfo)672_storage)"
					}
				],
				"types": {
					"t_address": {
						"encoding": "inplace",
						"label": "address",
						"numberOfBytes": "20"
					},
					"t_mapping(t_string_memory_ptr,t_struct(NFTInfo)672_storage)": {
						"encoding": "mapping",
						"key": "t_string_memory_ptr",
						"label": "mapping(string => struct NFTregistry.NFTInfo)",
						"numberOfBytes": "32",
						"value": "t_struct(NFTInfo)672_storage"
					},
					"t_string_memory_ptr": {
						"encoding": "bytes",
						"label": "string",
						"numberOfBytes": "32"
					},
					"t_struct(NFTInfo)672_storage": {
						"encoding": "inplace",
						"label": "struct NFTregistry.NFTInfo",
						"members": [
							{
								"astId": 667,
								"contract": "test.sol:NFTregistry",
								"label": "chainid",
								"offset": 0,
								"slot": "0",
								"type": "t_uint256"
							},
							{
								"astId": 669,
								"contract": "test.sol:NFTregistry",
								"label": "contractaddress",
								"offset": 0,
								"slot": "1",
								"type": "t_address"
							},
							{
								"astId": 671,
								"contract": "test.sol:NFTregistry",
								"label": "tokenid",
								"offset": 0,
								"slot": "2",
								"type": "t_uint256"
							}
						],
						"numberOfBytes": "96"
					},
					"t_uint256": {
						"encoding": "inplace",
						"label": "uint256",
						"numberOfBytes": "32"
					}
				}
			},
			"userdoc": {
				"kind": "user",
				"methods": {},
				"version": 1
			}
		}
	}
}