{
	"base58-solidity/contracts/Base58.sol": {
		"Base58": {
			"abi": [
				{
					"inputs": [
						{
							"internalType": "bytes",
							"name": "data_",
							"type": "bytes"
						}
					],
					"name": "decode",
					"outputs": [
						{
							"internalType": "bytes",
							"name": "",
							"type": "bytes"
						}
					],
					"stateMutability": "pure",
					"type": "function"
				},
				{
					"inputs": [
						{
							"internalType": "string",
							"name": "data_",
							"type": "string"
						}
					],
					"name": "decodeFromString",
					"outputs": [
						{
							"internalType": "bytes",
							"name": "",
							"type": "bytes"
						}
					],
					"stateMutability": "pure",
					"type": "function"
				},
				{
					"inputs": [
						{
							"internalType": "bytes",
							"name": "data_",
							"type": "bytes"
						}
					],
					"name": "encode",
					"outputs": [
						{
							"internalType": "bytes",
							"name": "",
							"type": "bytes"
						}
					],
					"stateMutability": "pure",
					"type": "function"
				},
				{
					"inputs": [
						{
							"internalType": "string",
							"name": "data_",
							"type": "string"
						}
					],
					"name": "encodeFromString",
					"outputs": [
						{
							"internalType": "bytes",
							"name": "",
							"type": "bytes"
						}
					],
					"stateMutability": "pure",
					"type": "function"
				},
				{
					"inputs": [
						{
							"internalType": "bytes",
							"name": "data_",
							"type": "bytes"
						}
					],
					"name": "encodeToString",
					"outputs": [
						{
							"internalType": "string",
							"name": "",
							"type": "string"
						}
					],
					"stateMutability": "pure",
					"type": "function"
				},
				{
					"inputs": [
						{
							"internalType": "bytes",
							"name": "data_",
							"type": "bytes"
						},
						{
							"internalType": "bytes1",
							"name": "char_",
							"type": "bytes1"
						}
					],
					"name": "indexOf",
					"outputs": [
						{
							"internalType": "uint256",
							"name": "",
							"type": "uint256"
						},
						{
							"internalType": "bool",
							"name": "",
							"type": "bool"
						}
					],
					"stateMutability": "pure",
					"type": "function"
				},
				{
					"inputs": [
						{
							"internalType": "bytes",
							"name": "data_",
							"type": "bytes"
						},
						{
							"internalType": "uint256",
							"name": "start_",
							"type": "uint256"
						},
						{
							"internalType": "uint256",
							"name": "end_",
							"type": "uint256"
						}
					],
					"name": "slice",
					"outputs": [
						{
							"internalType": "bytes",
							"name": "",
							"type": "bytes"
						}
					],
					"stateMutability": "pure",
					"type": "function"
				}
			],
			"devdoc": {
				"author": "storyicon@foxmail.com",
				"kind": "dev",
				"methods": {
					"decode(bytes)": {
						"params": {
							"data_": "data encoded with base58, passed in as bytes."
						},
						"returns": {
							"_0": "raw data, returned as bytes."
						}
					},
					"decodeFromString(string)": {
						"params": {
							"data_": "data encoded with base58, passed in as string."
						},
						"returns": {
							"_0": "raw data, returned as bytes."
						}
					},
					"encode(bytes)": {
						"params": {
							"data_": "raw data, passed in as bytes."
						},
						"returns": {
							"_0": "base58 encoded data_, returned as bytes."
						}
					},
					"encodeFromString(string)": {
						"params": {
							"data_": "raw data, passed in as a string."
						},
						"returns": {
							"_0": "base58 encoded data_, returned as bytes."
						}
					},
					"encodeToString(bytes)": {
						"params": {
							"data_": "raw data, passed in as bytes."
						},
						"returns": {
							"_0": "base58 encoded data_, returned as a string."
						}
					},
					"indexOf(bytes,bytes1)": {
						"params": {
							"char_": "target byte.",
							"data_": "raw data, passed in as bytes."
						},
						"returns": {
							"_0": "index, and whether the search was successful."
						}
					},
					"slice(bytes,uint256,uint256)": {
						"params": {
							"data_": "raw data, passed in as bytes.",
							"end_": "end index.",
							"start_": "start index."
						},
						"returns": {
							"_0": "slice data"
						}
					}
				},
				"title": "Base58",
				"version": 1
			},
			"evm": {
				"assembly": "    /* \"base58-solidity/contracts/Base58.sol\":307:6170  library Base58 {... */\n  dataSize(sub_0)\n  dataOffset(sub_0)\n  0x0b\n  dup3\n  dup3\n  dup3\n  codecopy\n  dup1\n  mload\n  0x00\n  byte\n  0x73\n  eq\n  tag_1\n  jumpi\n  mstore(0x00, 0x4e487b7100000000000000000000000000000000000000000000000000000000)\n  mstore(0x04, 0x00)\n  revert(0x00, 0x24)\ntag_1:\n  mstore(0x00, address)\n  0x73\n  dup2\n  mstore8\n  dup3\n  dup2\n  return\nstop\n\nsub_0: assembly {\n        /* \"base58-solidity/contracts/Base58.sol\":307:6170  library Base58 {... */\n      eq(address, deployTimeAddress())\n      mstore(0x40, 0x80)\n      jumpi(tag_1, lt(calldatasize, 0x04))\n      shr(0xe0, calldataload(0x00))\n      dup1\n      0x529d1bb7\n      gt\n      tag_9\n      jumpi\n      dup1\n      0x529d1bb7\n      eq\n      tag_5\n      jumpi\n      dup1\n      0x8178ff43\n      eq\n      tag_6\n      jumpi\n      dup1\n      0xe0041396\n      eq\n      tag_7\n      jumpi\n      dup1\n      0xe5c5e9a3\n      eq\n      tag_8\n      jumpi\n      jump(tag_1)\n    tag_9:\n      dup1\n      0x046a466a\n      eq\n      tag_2\n      jumpi\n      dup1\n      0x12496a1b\n      eq\n      tag_3\n      jumpi\n      dup1\n      0x51c3463c\n      eq\n      tag_4\n      jumpi\n    tag_1:\n      0x00\n      dup1\n      revert\n        /* \"base58-solidity/contracts/Base58.sol\":4799:4953  function decodeFromString(string memory data_)... */\n    tag_2:\n      tag_10\n      0x04\n      dup1\n      calldatasize\n      sub\n      dup2\n      add\n      swap1\n      tag_11\n      swap2\n      swap1\n      tag_12\n      jump\t// in\n    tag_11:\n      tag_13\n      jump\t// in\n    tag_10:\n      mload(0x40)\n      tag_14\n      swap2\n      swap1\n      tag_15\n      jump\t// in\n    tag_14:\n      mload(0x40)\n      dup1\n      swap2\n      sub\n      swap1\n      return\n        /* \"base58-solidity/contracts/Base58.sol\":627:1894  function encode(bytes memory data_) public pure returns (bytes memory) {... */\n    tag_3:\n      tag_16\n      0x04\n      dup1\n      calldatasize\n      sub\n      dup2\n      add\n      swap1\n      tag_17\n      swap2\n      swap1\n      tag_18\n      jump\t// in\n    tag_17:\n      tag_19\n      jump\t// in\n    tag_16:\n      mload(0x40)\n      tag_20\n      swap2\n      swap1\n      tag_15\n      jump\t// in\n    tag_20:\n      mload(0x40)\n      dup1\n      swap2\n      sub\n      swap1\n      return\n        /* \"base58-solidity/contracts/Base58.sol\":4092:4217  function encodeToString(bytes memory data_) public pure returns (string memory) {... */\n    tag_4:\n      tag_21\n      0x04\n      dup1\n      calldatasize\n      sub\n      dup2\n      add\n      swap1\n      tag_22\n      swap2\n      swap1\n      tag_18\n      jump\t// in\n    tag_22:\n      tag_23\n      jump\t// in\n    tag_21:\n      mload(0x40)\n      tag_24\n      swap2\n      swap1\n      tag_25\n      jump\t// in\n    tag_24:\n      mload(0x40)\n      dup1\n      swap2\n      sub\n      swap1\n      return\n        /* \"base58-solidity/contracts/Base58.sol\":4435:4589  function encodeFromString(string memory data_)... */\n    tag_5:\n      tag_26\n      0x04\n      dup1\n      calldatasize\n      sub\n      dup2\n      add\n      swap1\n      tag_27\n      swap2\n      swap1\n      tag_12\n      jump\t// in\n    tag_27:\n      tag_28\n      jump\t// in\n    tag_26:\n      mload(0x40)\n      tag_29\n      swap2\n      swap1\n      tag_15\n      jump\t// in\n    tag_29:\n      mload(0x40)\n      dup1\n      swap2\n      sub\n      swap1\n      return\n        /* \"base58-solidity/contracts/Base58.sol\":5817:6168  function indexOf(bytes memory data_, bytes1 char_)... */\n    tag_6:\n      tag_30\n      0x04\n      dup1\n      calldatasize\n      sub\n      dup2\n      add\n      swap1\n      tag_31\n      swap2\n      swap1\n      tag_32\n      jump\t// in\n    tag_31:\n      tag_33\n      jump\t// in\n    tag_30:\n      mload(0x40)\n      tag_34\n      swap3\n      swap2\n      swap1\n      tag_35\n      jump\t// in\n    tag_34:\n      mload(0x40)\n      dup1\n      swap2\n      sub\n      swap1\n      return\n        /* \"base58-solidity/contracts/Base58.sol\":5218:5582  function slice(... */\n    tag_7:\n      tag_36\n      0x04\n      dup1\n      calldatasize\n      sub\n      dup2\n      add\n      swap1\n      tag_37\n      swap2\n      swap1\n      tag_38\n      jump\t// in\n    tag_37:\n      tag_39\n      jump\t// in\n    tag_36:\n      mload(0x40)\n      tag_40\n      swap2\n      swap1\n      tag_15\n      jump\t// in\n    tag_40:\n      mload(0x40)\n      dup1\n      swap2\n      sub\n      swap1\n      return\n        /* \"base58-solidity/contracts/Base58.sol\":2103:3878  function decode(bytes memory data_) public pure returns (bytes memory) {... */\n    tag_8:\n      tag_41\n      0x04\n      dup1\n      calldatasize\n      sub\n      dup2\n      add\n      swap1\n      tag_42\n      swap2\n      swap1\n      tag_18\n      jump\t// in\n    tag_42:\n      tag_43\n      jump\t// in\n    tag_41:\n      mload(0x40)\n      tag_44\n      swap2\n      swap1\n      tag_15\n      jump\t// in\n    tag_44:\n      mload(0x40)\n      dup1\n      swap2\n      sub\n      swap1\n      return\n        /* \"base58-solidity/contracts/Base58.sol\":4799:4953  function decodeFromString(string memory data_)... */\n    tag_13:\n        /* \"base58-solidity/contracts/Base58.sol\":4891:4903  bytes memory */\n      0x60\n        /* \"base58-solidity/contracts/Base58.sol\":4926:4946  decode(bytes(data_)) */\n      tag_46\n        /* \"base58-solidity/contracts/Base58.sol\":4939:4944  data_ */\n      dup3\n        /* \"base58-solidity/contracts/Base58.sol\":4926:4932  decode */\n      tag_43\n        /* \"base58-solidity/contracts/Base58.sol\":4926:4946  decode(bytes(data_)) */\n      jump\t// in\n    tag_46:\n        /* \"base58-solidity/contracts/Base58.sol\":4919:4946  return decode(bytes(data_)) */\n      swap1\n      pop\n        /* \"base58-solidity/contracts/Base58.sol\":4799:4953  function decodeFromString(string memory data_)... */\n      swap2\n      swap1\n      pop\n      jump\t// out\n        /* \"base58-solidity/contracts/Base58.sol\":627:1894  function encode(bytes memory data_) public pure returns (bytes memory) {... */\n    tag_19:\n        /* \"base58-solidity/contracts/Base58.sol\":684:696  bytes memory */\n      0x60\n        /* \"base58-solidity/contracts/Base58.sol\":732:744  uint256 size */\n      0x00\n        /* \"base58-solidity/contracts/Base58.sol\":747:752  data_ */\n      dup3\n        /* \"base58-solidity/contracts/Base58.sol\":747:759  data_.length */\n      mload\n        /* \"base58-solidity/contracts/Base58.sol\":732:759  uint256 size = data_.length */\n      swap1\n      pop\n        /* \"base58-solidity/contracts/Base58.sol\":773:790  uint256 zeroCount */\n      0x00\n        /* \"base58-solidity/contracts/Base58.sol\":804:898  while (zeroCount < size && data_[zeroCount] == 0) {... */\n    tag_48:\n        /* \"base58-solidity/contracts/Base58.sol\":823:827  size */\n      dup2\n        /* \"base58-solidity/contracts/Base58.sol\":811:820  zeroCount */\n      dup2\n        /* \"base58-solidity/contracts/Base58.sol\":811:827  zeroCount < size */\n      lt\n        /* \"base58-solidity/contracts/Base58.sol\":811:852  zeroCount < size && data_[zeroCount] == 0 */\n      dup1\n      iszero\n      tag_50\n      jumpi\n      pop\n        /* \"base58-solidity/contracts/Base58.sol\":851:852  0 */\n      0x00\n        /* \"base58-solidity/contracts/Base58.sol\":831:852  data_[zeroCount] == 0 */\n      0xf8\n      shl\n        /* \"base58-solidity/contracts/Base58.sol\":831:836  data_ */\n      dup5\n        /* \"base58-solidity/contracts/Base58.sol\":837:846  zeroCount */\n      dup3\n        /* \"base58-solidity/contracts/Base58.sol\":831:847  data_[zeroCount] */\n      dup2\n      mload\n      dup2\n      lt\n      tag_51\n      jumpi\n      tag_52\n      tag_53\n      jump\t// in\n    tag_52:\n    tag_51:\n      0x20\n      add\n      add\n      mload\n      0xf8\n      shr\n      0xf8\n      shl\n        /* \"base58-solidity/contracts/Base58.sol\":831:852  data_[zeroCount] == 0 */\n      not(0xffffffffffffffffffffffffffffffffffffffffffffffffffffffffffffff)\n      and\n      eq\n        /* \"base58-solidity/contracts/Base58.sol\":811:852  zeroCount < size && data_[zeroCount] == 0 */\n    tag_50:\n        /* \"base58-solidity/contracts/Base58.sol\":804:898  while (zeroCount < size && data_[zeroCount] == 0) {... */\n      iszero\n      tag_49\n      jumpi\n        /* \"base58-solidity/contracts/Base58.sol\":872:883  zeroCount++ */\n      dup1\n      dup1\n      0x01\n      add\n      swap2\n      pop\n      pop\n        /* \"base58-solidity/contracts/Base58.sol\":804:898  while (zeroCount < size && data_[zeroCount] == 0) {... */\n      jump(tag_48)\n    tag_49:\n        /* \"base58-solidity/contracts/Base58.sol\":967:968  1 */\n      0x01\n        /* \"base58-solidity/contracts/Base58.sol\":960:964  6115 */\n      0x17e3\n        /* \"base58-solidity/contracts/Base58.sol\":952:956  8351 */\n      0x209f\n        /* \"base58-solidity/contracts/Base58.sol\":939:948  zeroCount */\n      dup4\n        /* \"base58-solidity/contracts/Base58.sol\":932:936  size */\n      dup6\n        /* \"base58-solidity/contracts/Base58.sol\":932:948  size - zeroCount */\n      sub\n        /* \"base58-solidity/contracts/Base58.sol\":931:956  (size - zeroCount) * 8351 */\n      mul\n        /* \"base58-solidity/contracts/Base58.sol\":930:964  ((size - zeroCount) * 8351) / 6115 */\n      dup2\n      tag_54\n      jumpi\n      tag_55\n      tag_56\n      jump\t// in\n    tag_55:\n    tag_54:\n      div\n        /* \"base58-solidity/contracts/Base58.sol\":918:927  zeroCount */\n      dup3\n        /* \"base58-solidity/contracts/Base58.sol\":918:964  zeroCount + ((size - zeroCount) * 8351) / 6115 */\n      add\n        /* \"base58-solidity/contracts/Base58.sol\":918:968  zeroCount + ((size - zeroCount) * 8351) / 6115 + 1 */\n      add\n        /* \"base58-solidity/contracts/Base58.sol\":911:968  size = zeroCount + ((size - zeroCount) * 8351) / 6115 + 1 */\n      swap2\n      pop\n        /* \"base58-solidity/contracts/Base58.sol\":982:999  bytes memory slot */\n      0x00\n        /* \"base58-solidity/contracts/Base58.sol\":1012:1016  size */\n      dup3\n        /* \"base58-solidity/contracts/Base58.sol\":1002:1017  new bytes(size) */\n      0xffffffffffffffff\n      dup2\n      gt\n      iszero\n      tag_57\n      jumpi\n      tag_58\n      tag_59\n      jump\t// in\n    tag_58:\n    tag_57:\n      mload(0x40)\n      swap1\n      dup1\n      dup3\n      mstore\n      dup1\n      0x1f\n      add\n      not(0x1f)\n      and\n      0x20\n      add\n      dup3\n      add\n      0x40\n      mstore\n      dup1\n      iszero\n      tag_60\n      jumpi\n      dup2\n      0x20\n      add\n      0x01\n      dup3\n      mul\n      dup1\n      calldatasize\n      dup4\n      calldatacopy\n      dup1\n      dup3\n      add\n      swap2\n      pop\n      pop\n      swap1\n      pop\n    tag_60:\n      pop\n        /* \"base58-solidity/contracts/Base58.sol\":982:1017  bytes memory slot = new bytes(size) */\n      swap1\n      pop\n        /* \"base58-solidity/contracts/Base58.sol\":1031:1043  uint32 carry */\n      0x00\n        /* \"base58-solidity/contracts/Base58.sol\":1057:1065  int256 m */\n      dup1\n        /* \"base58-solidity/contracts/Base58.sol\":1079:1090  int256 high */\n      0x00\n        /* \"base58-solidity/contracts/Base58.sol\":1108:1109  1 */\n      0x01\n        /* \"base58-solidity/contracts/Base58.sol\":1100:1104  size */\n      dup7\n        /* \"base58-solidity/contracts/Base58.sol\":1093:1109  int256(size) - 1 */\n      sub\n        /* \"base58-solidity/contracts/Base58.sol\":1079:1109  int256 high = int256(size) - 1 */\n      swap1\n      pop\n        /* \"base58-solidity/contracts/Base58.sol\":1128:1137  uint256 i */\n      0x00\n        /* \"base58-solidity/contracts/Base58.sol\":1123:1506  for (uint256 i = 0; i < data_.length; i++) {... */\n    tag_61:\n        /* \"base58-solidity/contracts/Base58.sol\":1147:1152  data_ */\n      dup9\n        /* \"base58-solidity/contracts/Base58.sol\":1147:1159  data_.length */\n      mload\n        /* \"base58-solidity/contracts/Base58.sol\":1143:1144  i */\n      dup2\n        /* \"base58-solidity/contracts/Base58.sol\":1143:1159  i < data_.length */\n      lt\n        /* \"base58-solidity/contracts/Base58.sol\":1123:1506  for (uint256 i = 0; i < data_.length; i++) {... */\n      iszero\n      tag_62\n      jumpi\n        /* \"base58-solidity/contracts/Base58.sol\":1202:1203  1 */\n      0x01\n        /* \"base58-solidity/contracts/Base58.sol\":1195:1199  size */\n      dup8\n        /* \"base58-solidity/contracts/Base58.sol\":1195:1203  size - 1 */\n      sub\n        /* \"base58-solidity/contracts/Base58.sol\":1184:1204  m = int256(size - 1) */\n      swap3\n      pop\n        /* \"base58-solidity/contracts/Base58.sol\":1241:1246  data_ */\n      dup9\n        /* \"base58-solidity/contracts/Base58.sol\":1247:1248  i */\n      dup2\n        /* \"base58-solidity/contracts/Base58.sol\":1241:1249  data_[i] */\n      dup2\n      mload\n      dup2\n      lt\n      tag_67\n      jumpi\n      tag_68\n      tag_53\n      jump\t// in\n    tag_68:\n    tag_67:\n      0x20\n      add\n      add\n      mload\n      0xf8\n      shr\n      0xf8\n      shl\n        /* \"base58-solidity/contracts/Base58.sol\":1235:1250  uint8(data_[i]) */\n      0xf8\n      shr\n        /* \"base58-solidity/contracts/Base58.sol\":1227:1250  carry = uint8(data_[i]) */\n      0xff\n      and\n      swap4\n      pop\n        /* \"base58-solidity/contracts/Base58.sol\":1222:1466  for (carry = uint8(data_[i]); m > high || carry != 0; m--) {... */\n    tag_64:\n        /* \"base58-solidity/contracts/Base58.sol\":1256:1260  high */\n      dup2\n        /* \"base58-solidity/contracts/Base58.sol\":1252:1253  m */\n      dup4\n        /* \"base58-solidity/contracts/Base58.sol\":1252:1260  m > high */\n      sgt\n        /* \"base58-solidity/contracts/Base58.sol\":1252:1274  m > high || carry != 0 */\n      dup1\n      tag_69\n      jumpi\n      pop\n        /* \"base58-solidity/contracts/Base58.sol\":1273:1274  0 */\n      0x00\n        /* \"base58-solidity/contracts/Base58.sol\":1264:1269  carry */\n      dup5\n        /* \"base58-solidity/contracts/Base58.sol\":1264:1274  carry != 0 */\n      0xffffffff\n      and\n      eq\n      iszero\n        /* \"base58-solidity/contracts/Base58.sol\":1252:1274  m > high || carry != 0 */\n    tag_69:\n        /* \"base58-solidity/contracts/Base58.sol\":1222:1466  for (carry = uint8(data_[i]); m > high || carry != 0; m--) {... */\n      iszero\n      tag_65\n      jumpi\n        /* \"base58-solidity/contracts/Base58.sol\":1331:1335  slot */\n      dup5\n        /* \"base58-solidity/contracts/Base58.sol\":1344:1345  m */\n      dup4\n        /* \"base58-solidity/contracts/Base58.sol\":1331:1347  slot[uint256(m)] */\n      dup2\n      mload\n      dup2\n      lt\n      tag_70\n      jumpi\n      tag_71\n      tag_53\n      jump\t// in\n    tag_71:\n    tag_70:\n      0x20\n      add\n      add\n      mload\n      0xf8\n      shr\n      0xf8\n      shl\n        /* \"base58-solidity/contracts/Base58.sol\":1325:1348  uint8(slot[uint256(m)]) */\n      0xf8\n      shr\n        /* \"base58-solidity/contracts/Base58.sol\":1319:1348  256 * uint8(slot[uint256(m)]) */\n      0xff\n      and\n        /* \"base58-solidity/contracts/Base58.sol\":1319:1322  256 */\n      0x0100\n        /* \"base58-solidity/contracts/Base58.sol\":1319:1348  256 * uint8(slot[uint256(m)]) */\n      mul\n        /* \"base58-solidity/contracts/Base58.sol\":1311:1348  carry + 256 * uint8(slot[uint256(m)]) */\n      0xffff\n      and\n        /* \"base58-solidity/contracts/Base58.sol\":1311:1316  carry */\n      dup5\n        /* \"base58-solidity/contracts/Base58.sol\":1311:1348  carry + 256 * uint8(slot[uint256(m)]) */\n      add\n        /* \"base58-solidity/contracts/Base58.sol\":1303:1348  carry = carry + 256 * uint8(slot[uint256(m)]) */\n      swap4\n      pop\n        /* \"base58-solidity/contracts/Base58.sol\":1410:1412  58 */\n      0x3a\n        /* \"base58-solidity/contracts/Base58.sol\":1402:1407  carry */\n      dup5\n        /* \"base58-solidity/contracts/Base58.sol\":1402:1412  carry % 58 */\n      0xffffffff\n      and\n      dup2\n      tag_72\n      jumpi\n      tag_73\n      tag_56\n      jump\t// in\n    tag_73:\n    tag_72:\n      mod\n        /* \"base58-solidity/contracts/Base58.sol\":1389:1414  bytes1(uint8(carry % 58)) */\n      0xf8\n      shl\n        /* \"base58-solidity/contracts/Base58.sol\":1370:1374  slot */\n      dup6\n        /* \"base58-solidity/contracts/Base58.sol\":1383:1384  m */\n      dup5\n        /* \"base58-solidity/contracts/Base58.sol\":1370:1386  slot[uint256(m)] */\n      dup2\n      mload\n      dup2\n      lt\n      tag_74\n      jumpi\n      tag_75\n      tag_53\n      jump\t// in\n    tag_75:\n    tag_74:\n      0x20\n      add\n      add\n        /* \"base58-solidity/contracts/Base58.sol\":1370:1414  slot[uint256(m)] = bytes1(uint8(carry % 58)) */\n      swap1\n      not(0xffffffffffffffffffffffffffffffffffffffffffffffffffffffffffffff)\n      and\n      swap1\n      dup2\n      0x00\n      byte\n      swap1\n      mstore8\n      pop\n        /* \"base58-solidity/contracts/Base58.sol\":1445:1447  58 */\n      0x3a\n        /* \"base58-solidity/contracts/Base58.sol\":1436:1447  carry /= 58 */\n      dup5\n      0xffffffff\n      and\n      dup2\n      tag_76\n      jumpi\n      tag_77\n      tag_56\n      jump\t// in\n    tag_77:\n    tag_76:\n      div\n      swap4\n      pop\n        /* \"base58-solidity/contracts/Base58.sol\":1276:1279  m-- */\n      dup3\n      dup1\n      0x01\n      swap1\n      sub\n      swap4\n      pop\n      pop\n        /* \"base58-solidity/contracts/Base58.sol\":1222:1466  for (carry = uint8(data_[i]); m > high || carry != 0; m--) {... */\n      jump(tag_64)\n    tag_65:\n        /* \"base58-solidity/contracts/Base58.sol\":1490:1491  m */\n      dup3\n        /* \"base58-solidity/contracts/Base58.sol\":1483:1491  high = m */\n      swap2\n      pop\n        /* \"base58-solidity/contracts/Base58.sol\":1161:1164  i++ */\n      dup1\n      dup1\n      0x01\n      add\n      swap2\n      pop\n      pop\n        /* \"base58-solidity/contracts/Base58.sol\":1123:1506  for (uint256 i = 0; i < data_.length; i++) {... */\n      jump(tag_61)\n    tag_62:\n      pop\n        /* \"base58-solidity/contracts/Base58.sol\":1519:1528  uint256 n */\n      0x00\n        /* \"base58-solidity/contracts/Base58.sol\":1551:1560  zeroCount */\n      dup6\n        /* \"base58-solidity/contracts/Base58.sol\":1547:1560  n = zeroCount */\n      swap1\n      pop\n        /* \"base58-solidity/contracts/Base58.sol\":1542:1595  for (n = zeroCount; n < size && slot[n] == 0; n++) {} */\n    tag_78:\n        /* \"base58-solidity/contracts/Base58.sol\":1566:1570  size */\n      dup7\n        /* \"base58-solidity/contracts/Base58.sol\":1562:1563  n */\n      dup2\n        /* \"base58-solidity/contracts/Base58.sol\":1562:1570  n < size */\n      lt\n        /* \"base58-solidity/contracts/Base58.sol\":1562:1586  n < size && slot[n] == 0 */\n      dup1\n      iszero\n      tag_81\n      jumpi\n      pop\n        /* \"base58-solidity/contracts/Base58.sol\":1585:1586  0 */\n      0x00\n        /* \"base58-solidity/contracts/Base58.sol\":1574:1586  slot[n] == 0 */\n      0xf8\n      shl\n        /* \"base58-solidity/contracts/Base58.sol\":1574:1578  slot */\n      dup6\n        /* \"base58-solidity/contracts/Base58.sol\":1579:1580  n */\n      dup3\n        /* \"base58-solidity/contracts/Base58.sol\":1574:1581  slot[n] */\n      dup2\n      mload\n      dup2\n      lt\n      tag_82\n      jumpi\n      tag_83\n      tag_53\n      jump\t// in\n    tag_83:\n    tag_82:\n      0x20\n      add\n      add\n      mload\n      0xf8\n      shr\n      0xf8\n      shl\n        /* \"base58-solidity/contracts/Base58.sol\":1574:1586  slot[n] == 0 */\n      not(0xffffffffffffffffffffffffffffffffffffffffffffffffffffffffffffff)\n      and\n      eq\n        /* \"base58-solidity/contracts/Base58.sol\":1562:1586  n < size && slot[n] == 0 */\n    tag_81:\n        /* \"base58-solidity/contracts/Base58.sol\":1542:1595  for (n = zeroCount; n < size && slot[n] == 0; n++) {} */\n      iszero\n      tag_79\n      jumpi\n        /* \"base58-solidity/contracts/Base58.sol\":1588:1591  n++ */\n      dup1\n      dup1\n      0x01\n      add\n      swap2\n      pop\n      pop\n        /* \"base58-solidity/contracts/Base58.sol\":1542:1595  for (n = zeroCount; n < size && slot[n] == 0; n++) {} */\n      jump(tag_78)\n    tag_79:\n        /* \"base58-solidity/contracts/Base58.sol\":1634:1643  zeroCount */\n      dup6\n        /* \"base58-solidity/contracts/Base58.sol\":1630:1631  n */\n      dup2\n        /* \"base58-solidity/contracts/Base58.sol\":1630:1643  n - zeroCount */\n      sub\n        /* \"base58-solidity/contracts/Base58.sol\":1615:1619  slot */\n      dup6\n        /* \"base58-solidity/contracts/Base58.sol\":1615:1626  slot.length */\n      mload\n        /* \"base58-solidity/contracts/Base58.sol\":1615:1644  slot.length - (n - zeroCount) */\n      sub\n        /* \"base58-solidity/contracts/Base58.sol\":1608:1644  size = slot.length - (n - zeroCount) */\n      swap7\n      pop\n        /* \"base58-solidity/contracts/Base58.sol\":1658:1674  bytes memory out */\n      0x00\n        /* \"base58-solidity/contracts/Base58.sol\":1687:1691  size */\n      dup8\n        /* \"base58-solidity/contracts/Base58.sol\":1677:1692  new bytes(size) */\n      0xffffffffffffffff\n      dup2\n      gt\n      iszero\n      tag_84\n      jumpi\n      tag_85\n      tag_59\n      jump\t// in\n    tag_85:\n    tag_84:\n      mload(0x40)\n      swap1\n      dup1\n      dup3\n      mstore\n      dup1\n      0x1f\n      add\n      not(0x1f)\n      and\n      0x20\n      add\n      dup3\n      add\n      0x40\n      mstore\n      dup1\n      iszero\n      tag_86\n      jumpi\n      dup2\n      0x20\n      add\n      0x01\n      dup3\n      mul\n      dup1\n      calldatasize\n      dup4\n      calldatacopy\n      dup1\n      dup3\n      add\n      swap2\n      pop\n      pop\n      swap1\n      pop\n    tag_86:\n      pop\n        /* \"base58-solidity/contracts/Base58.sol\":1658:1692  bytes memory out = new bytes(size) */\n      swap1\n      pop\n        /* \"base58-solidity/contracts/Base58.sol\":1711:1720  uint256 i */\n      0x00\n        /* \"base58-solidity/contracts/Base58.sol\":1706:1854  for (uint256 i = 0; i < size; i++) {... */\n    tag_87:\n        /* \"base58-solidity/contracts/Base58.sol\":1730:1734  size */\n      dup9\n        /* \"base58-solidity/contracts/Base58.sol\":1726:1727  i */\n      dup2\n        /* \"base58-solidity/contracts/Base58.sol\":1726:1734  i < size */\n      lt\n        /* \"base58-solidity/contracts/Base58.sol\":1706:1854  for (uint256 i = 0; i < size; i++) {... */\n      iszero\n      tag_88\n      jumpi\n        /* \"base58-solidity/contracts/Base58.sol\":1759:1768  uint256 j */\n      0x00\n        /* \"base58-solidity/contracts/Base58.sol\":1779:1788  zeroCount */\n      dup9\n        /* \"base58-solidity/contracts/Base58.sol\":1775:1776  n */\n      dup5\n        /* \"base58-solidity/contracts/Base58.sol\":1771:1772  i */\n      dup4\n        /* \"base58-solidity/contracts/Base58.sol\":1771:1776  i + n */\n      add\n        /* \"base58-solidity/contracts/Base58.sol\":1771:1788  i + n - zeroCount */\n      sub\n        /* \"base58-solidity/contracts/Base58.sol\":1759:1788  uint256 j = i + n - zeroCount */\n      swap1\n      pop\n        /* \"base58-solidity/contracts/Base58.sol\":1815:1823  ALPHABET */\n      mload(0x40)\n      dup1\n      0x60\n      add\n      0x40\n      mstore\n      dup1\n      0x3a\n      dup2\n      mstore\n      0x20\n      add\n      data_e72daf94b45f828c6e9fb35ca4f157bc4eef8ccec3cc5bc840ee513b6ee42a62\n      0x3a\n      swap2\n      codecopy\n        /* \"base58-solidity/contracts/Base58.sol\":1830:1834  slot */\n      dup9\n        /* \"base58-solidity/contracts/Base58.sol\":1835:1836  j */\n      dup3\n        /* \"base58-solidity/contracts/Base58.sol\":1830:1837  slot[j] */\n      dup2\n      mload\n      dup2\n      lt\n      tag_90\n      jumpi\n      tag_91\n      tag_53\n      jump\t// in\n    tag_91:\n    tag_90:\n      0x20\n      add\n      add\n      mload\n      0xf8\n      shr\n      0xf8\n      shl\n        /* \"base58-solidity/contracts/Base58.sol\":1824:1838  uint8(slot[j]) */\n      0xf8\n      shr\n        /* \"base58-solidity/contracts/Base58.sol\":1815:1839  ALPHABET[uint8(slot[j])] */\n      0xff\n      and\n      dup2\n      mload\n      dup2\n      lt\n      tag_92\n      jumpi\n      tag_93\n      tag_53\n      jump\t// in\n    tag_93:\n    tag_92:\n      0x20\n      add\n      add\n      mload\n      0xf8\n      shr\n      0xf8\n      shl\n        /* \"base58-solidity/contracts/Base58.sol\":1806:1809  out */\n      dup4\n        /* \"base58-solidity/contracts/Base58.sol\":1810:1811  i */\n      dup4\n        /* \"base58-solidity/contracts/Base58.sol\":1806:1812  out[i] */\n      dup2\n      mload\n      dup2\n      lt\n      tag_94\n      jumpi\n      tag_95\n      tag_53\n      jump\t// in\n    tag_95:\n    tag_94:\n      0x20\n      add\n      add\n        /* \"base58-solidity/contracts/Base58.sol\":1806:1839  out[i] = ALPHABET[uint8(slot[j])] */\n      swap1\n      not(0xffffffffffffffffffffffffffffffffffffffffffffffffffffffffffffff)\n      and\n      swap1\n      dup2\n      0x00\n      byte\n      swap1\n      mstore8\n      pop\n        /* \"base58-solidity/contracts/Base58.sol\":1741:1854  {... */\n      pop\n        /* \"base58-solidity/contracts/Base58.sol\":1736:1739  i++ */\n      dup1\n      dup1\n      0x01\n      add\n      swap2\n      pop\n      pop\n        /* \"base58-solidity/contracts/Base58.sol\":1706:1854  for (uint256 i = 0; i < size; i++) {... */\n      jump(tag_87)\n    tag_88:\n      pop\n        /* \"base58-solidity/contracts/Base58.sol\":1874:1877  out */\n      dup1\n        /* \"base58-solidity/contracts/Base58.sol\":1867:1877  return out */\n      swap9\n      pop\n      pop\n      pop\n      pop\n      pop\n      pop\n      pop\n      pop\n      pop\n        /* \"base58-solidity/contracts/Base58.sol\":627:1894  function encode(bytes memory data_) public pure returns (bytes memory) {... */\n      swap2\n      swap1\n      pop\n      jump\t// out\n        /* \"base58-solidity/contracts/Base58.sol\":4092:4217  function encodeToString(bytes memory data_) public pure returns (string memory) {... */\n    tag_23:\n        /* \"base58-solidity/contracts/Base58.sol\":4157:4170  string memory */\n      0x60\n        /* \"base58-solidity/contracts/Base58.sol\":4196:4209  encode(data_) */\n      tag_97\n        /* \"base58-solidity/contracts/Base58.sol\":4203:4208  data_ */\n      dup3\n        /* \"base58-solidity/contracts/Base58.sol\":4196:4202  encode */\n      tag_19\n        /* \"base58-solidity/contracts/Base58.sol\":4196:4209  encode(data_) */\n      jump\t// in\n    tag_97:\n        /* \"base58-solidity/contracts/Base58.sol\":4182:4210  return string(encode(data_)) */\n      swap1\n      pop\n        /* \"base58-solidity/contracts/Base58.sol\":4092:4217  function encodeToString(bytes memory data_) public pure returns (string memory) {... */\n      swap2\n      swap1\n      pop\n      jump\t// out\n        /* \"base58-solidity/contracts/Base58.sol\":4435:4589  function encodeFromString(string memory data_)... */\n    tag_28:\n        /* \"base58-solidity/contracts/Base58.sol\":4527:4539  bytes memory */\n      0x60\n        /* \"base58-solidity/contracts/Base58.sol\":4562:4582  encode(bytes(data_)) */\n      tag_99\n        /* \"base58-solidity/contracts/Base58.sol\":4575:4580  data_ */\n      dup3\n        /* \"base58-solidity/contracts/Base58.sol\":4562:4568  encode */\n      tag_19\n        /* \"base58-solidity/contracts/Base58.sol\":4562:4582  encode(bytes(data_)) */\n      jump\t// in\n    tag_99:\n        /* \"base58-solidity/contracts/Base58.sol\":4555:4582  return encode(bytes(data_)) */\n      swap1\n      pop\n        /* \"base58-solidity/contracts/Base58.sol\":4435:4589  function encodeFromString(string memory data_)... */\n      swap2\n      swap1\n      pop\n      jump\t// out\n        /* \"base58-solidity/contracts/Base58.sol\":5817:6168  function indexOf(bytes memory data_, bytes1 char_)... */\n    tag_33:\n        /* \"base58-solidity/contracts/Base58.sol\":5913:5920  uint256 */\n      0x00\n        /* \"base58-solidity/contracts/Base58.sol\":5922:5926  bool */\n      dup1\n        /* \"base58-solidity/contracts/Base58.sol\":5971:5980  uint256 i */\n      0x00\n        /* \"base58-solidity/contracts/Base58.sol\":5966:6121  for (uint256 i = 0; i < data_.length; i++) {... */\n    tag_101:\n        /* \"base58-solidity/contracts/Base58.sol\":5990:5995  data_ */\n      dup5\n        /* \"base58-solidity/contracts/Base58.sol\":5990:6002  data_.length */\n      mload\n        /* \"base58-solidity/contracts/Base58.sol\":5986:5987  i */\n      dup2\n        /* \"base58-solidity/contracts/Base58.sol\":5986:6002  i < data_.length */\n      lt\n        /* \"base58-solidity/contracts/Base58.sol\":5966:6121  for (uint256 i = 0; i < data_.length; i++) {... */\n      iszero\n      tag_102\n      jumpi\n        /* \"base58-solidity/contracts/Base58.sol\":6043:6048  char_ */\n      dup4\n        /* \"base58-solidity/contracts/Base58.sol\":6031:6048  data_[i] == char_ */\n      not(0xffffffffffffffffffffffffffffffffffffffffffffffffffffffffffffff)\n      and\n        /* \"base58-solidity/contracts/Base58.sol\":6031:6036  data_ */\n      dup6\n        /* \"base58-solidity/contracts/Base58.sol\":6037:6038  i */\n      dup3\n        /* \"base58-solidity/contracts/Base58.sol\":6031:6039  data_[i] */\n      dup2\n      mload\n      dup2\n      lt\n      tag_104\n      jumpi\n      tag_105\n      tag_53\n      jump\t// in\n    tag_105:\n    tag_104:\n      0x20\n      add\n      add\n      mload\n      0xf8\n      shr\n      0xf8\n      shl\n        /* \"base58-solidity/contracts/Base58.sol\":6031:6048  data_[i] == char_ */\n      not(0xffffffffffffffffffffffffffffffffffffffffffffffffffffffffffffff)\n      and\n      sub\n        /* \"base58-solidity/contracts/Base58.sol\":6027:6107  if (data_[i] == char_) {... */\n      tag_106\n      jumpi\n        /* \"base58-solidity/contracts/Base58.sol\":6080:6081  i */\n      dup1\n        /* \"base58-solidity/contracts/Base58.sol\":6083:6087  true */\n      0x01\n        /* \"base58-solidity/contracts/Base58.sol\":6072:6088  return (i, true) */\n      swap3\n      pop\n      swap3\n      pop\n      pop\n      jump(tag_100)\n        /* \"base58-solidity/contracts/Base58.sol\":6027:6107  if (data_[i] == char_) {... */\n    tag_106:\n        /* \"base58-solidity/contracts/Base58.sol\":6004:6007  i++ */\n      dup1\n      dup1\n      0x01\n      add\n      swap2\n      pop\n      pop\n        /* \"base58-solidity/contracts/Base58.sol\":5966:6121  for (uint256 i = 0; i < data_.length; i++) {... */\n      jump(tag_101)\n    tag_102:\n      pop\n        /* \"base58-solidity/contracts/Base58.sol\":6142:6143  0 */\n      0x00\n        /* \"base58-solidity/contracts/Base58.sol\":6145:6150  false */\n      dup1\n        /* \"base58-solidity/contracts/Base58.sol\":6134:6151  return (0, false) */\n      swap2\n      pop\n      swap2\n      pop\n        /* \"base58-solidity/contracts/Base58.sol\":5817:6168  function indexOf(bytes memory data_, bytes1 char_)... */\n    tag_100:\n      swap3\n      pop\n      swap3\n      swap1\n      pop\n      jump\t// out\n        /* \"base58-solidity/contracts/Base58.sol\":5218:5582  function slice(... */\n    tag_39:\n        /* \"base58-solidity/contracts/Base58.sol\":5334:5346  bytes memory */\n      0x60\n        /* \"base58-solidity/contracts/Base58.sol\":5382:5398  bytes memory ret */\n      0x00\n        /* \"base58-solidity/contracts/Base58.sol\":5418:5424  start_ */\n      dup4\n        /* \"base58-solidity/contracts/Base58.sol\":5411:5415  end_ */\n      dup4\n        /* \"base58-solidity/contracts/Base58.sol\":5411:5424  end_ - start_ */\n      sub\n        /* \"base58-solidity/contracts/Base58.sol\":5401:5425  new bytes(end_ - start_) */\n      0xffffffffffffffff\n      dup2\n      gt\n      iszero\n      tag_108\n      jumpi\n      tag_109\n      tag_59\n      jump\t// in\n    tag_109:\n    tag_108:\n      mload(0x40)\n      swap1\n      dup1\n      dup3\n      mstore\n      dup1\n      0x1f\n      add\n      not(0x1f)\n      and\n      0x20\n      add\n      dup3\n      add\n      0x40\n      mstore\n      dup1\n      iszero\n      tag_110\n      jumpi\n      dup2\n      0x20\n      add\n      0x01\n      dup3\n      mul\n      dup1\n      calldatasize\n      dup4\n      calldatacopy\n      dup1\n      dup3\n      add\n      swap2\n      pop\n      pop\n      swap1\n      pop\n    tag_110:\n      pop\n        /* \"base58-solidity/contracts/Base58.sol\":5382:5425  bytes memory ret = new bytes(end_ - start_) */\n      swap1\n      pop\n        /* \"base58-solidity/contracts/Base58.sol\":5444:5453  uint256 i */\n      0x00\n        /* \"base58-solidity/contracts/Base58.sol\":5439:5542  for (uint256 i = 0; i < end_ - start_; i++) {... */\n    tag_111:\n        /* \"base58-solidity/contracts/Base58.sol\":5470:5476  start_ */\n      dup5\n        /* \"base58-solidity/contracts/Base58.sol\":5463:5467  end_ */\n      dup5\n        /* \"base58-solidity/contracts/Base58.sol\":5463:5476  end_ - start_ */\n      sub\n        /* \"base58-solidity/contracts/Base58.sol\":5459:5460  i */\n      dup2\n        /* \"base58-solidity/contracts/Base58.sol\":5459:5476  i < end_ - start_ */\n      lt\n        /* \"base58-solidity/contracts/Base58.sol\":5439:5542  for (uint256 i = 0; i < end_ - start_; i++) {... */\n      iszero\n      tag_112\n      jumpi\n        /* \"base58-solidity/contracts/Base58.sol\":5510:5515  data_ */\n      dup6\n        /* \"base58-solidity/contracts/Base58.sol\":5520:5526  start_ */\n      dup6\n        /* \"base58-solidity/contracts/Base58.sol\":5516:5517  i */\n      dup3\n        /* \"base58-solidity/contracts/Base58.sol\":5516:5526  i + start_ */\n      add\n        /* \"base58-solidity/contracts/Base58.sol\":5510:5527  data_[i + start_] */\n      dup2\n      mload\n      dup2\n      lt\n      tag_114\n      jumpi\n      tag_115\n      tag_53\n      jump\t// in\n    tag_115:\n    tag_114:\n      0x20\n      add\n      add\n      mload\n      0xf8\n      shr\n      0xf8\n      shl\n        /* \"base58-solidity/contracts/Base58.sol\":5501:5504  ret */\n      dup3\n        /* \"base58-solidity/contracts/Base58.sol\":5505:5506  i */\n      dup3\n        /* \"base58-solidity/contracts/Base58.sol\":5501:5507  ret[i] */\n      dup2\n      mload\n      dup2\n      lt\n      tag_116\n      jumpi\n      tag_117\n      tag_53\n      jump\t// in\n    tag_117:\n    tag_116:\n      0x20\n      add\n      add\n        /* \"base58-solidity/contracts/Base58.sol\":5501:5527  ret[i] = data_[i + start_] */\n      swap1\n      not(0xffffffffffffffffffffffffffffffffffffffffffffffffffffffffffffff)\n      and\n      swap1\n      dup2\n      0x00\n      byte\n      swap1\n      mstore8\n      pop\n        /* \"base58-solidity/contracts/Base58.sol\":5478:5481  i++ */\n      dup1\n      dup1\n      0x01\n      add\n      swap2\n      pop\n      pop\n        /* \"base58-solidity/contracts/Base58.sol\":5439:5542  for (uint256 i = 0; i < end_ - start_; i++) {... */\n      jump(tag_111)\n    tag_112:\n      pop\n        /* \"base58-solidity/contracts/Base58.sol\":5562:5565  ret */\n      dup1\n        /* \"base58-solidity/contracts/Base58.sol\":5555:5565  return ret */\n      swap2\n      pop\n      pop\n        /* \"base58-solidity/contracts/Base58.sol\":5218:5582  function slice(... */\n      swap4\n      swap3\n      pop\n      pop\n      pop\n      jump\t// out\n        /* \"base58-solidity/contracts/Base58.sol\":2103:3878  function decode(bytes memory data_) public pure returns (bytes memory) {... */\n    tag_43:\n        /* \"base58-solidity/contracts/Base58.sol\":2160:2172  bytes memory */\n      0x60\n        /* \"base58-solidity/contracts/Base58.sol\":2208:2220  uint256 zero */\n      0x00\n        /* \"base58-solidity/contracts/Base58.sol\":2223:2225  49 */\n      0x31\n        /* \"base58-solidity/contracts/Base58.sol\":2208:2225  uint256 zero = 49 */\n      swap1\n      pop\n        /* \"base58-solidity/contracts/Base58.sol\":2239:2252  uint256 b58sz */\n      0x00\n        /* \"base58-solidity/contracts/Base58.sol\":2255:2260  data_ */\n      dup4\n        /* \"base58-solidity/contracts/Base58.sol\":2255:2267  data_.length */\n      mload\n        /* \"base58-solidity/contracts/Base58.sol\":2239:2267  uint256 b58sz = data_.length */\n      swap1\n      pop\n        /* \"base58-solidity/contracts/Base58.sol\":2281:2295  uint256 zcount */\n      0x00\n        /* \"base58-solidity/contracts/Base58.sol\":2318:2327  uint256 i */\n      dup1\n        /* \"base58-solidity/contracts/Base58.sol\":2313:2417  for (uint256 i = 0; i < b58sz && uint8(data_[i]) == zero; i++) {... */\n    tag_119:\n        /* \"base58-solidity/contracts/Base58.sol\":2337:2342  b58sz */\n      dup3\n        /* \"base58-solidity/contracts/Base58.sol\":2333:2334  i */\n      dup2\n        /* \"base58-solidity/contracts/Base58.sol\":2333:2342  i < b58sz */\n      lt\n        /* \"base58-solidity/contracts/Base58.sol\":2333:2369  i < b58sz && uint8(data_[i]) == zero */\n      dup1\n      iszero\n      tag_122\n      jumpi\n      pop\n        /* \"base58-solidity/contracts/Base58.sol\":2365:2369  zero */\n      dup4\n        /* \"base58-solidity/contracts/Base58.sol\":2352:2357  data_ */\n      dup7\n        /* \"base58-solidity/contracts/Base58.sol\":2358:2359  i */\n      dup3\n        /* \"base58-solidity/contracts/Base58.sol\":2352:2360  data_[i] */\n      dup2\n      mload\n      dup2\n      lt\n      tag_123\n      jumpi\n      tag_124\n      tag_53\n      jump\t// in\n    tag_124:\n    tag_123:\n      0x20\n      add\n      add\n      mload\n      0xf8\n      shr\n      0xf8\n      shl\n        /* \"base58-solidity/contracts/Base58.sol\":2346:2361  uint8(data_[i]) */\n      0xf8\n      shr\n        /* \"base58-solidity/contracts/Base58.sol\":2346:2369  uint8(data_[i]) == zero */\n      0xff\n      and\n      eq\n        /* \"base58-solidity/contracts/Base58.sol\":2333:2369  i < b58sz && uint8(data_[i]) == zero */\n    tag_122:\n        /* \"base58-solidity/contracts/Base58.sol\":2313:2417  for (uint256 i = 0; i < b58sz && uint8(data_[i]) == zero; i++) {... */\n      iszero\n      tag_120\n      jumpi\n        /* \"base58-solidity/contracts/Base58.sol\":2394:2402  zcount++ */\n      dup2\n      dup1\n      0x01\n      add\n      swap3\n      pop\n      pop\n        /* \"base58-solidity/contracts/Base58.sol\":2371:2374  i++ */\n      dup1\n      dup1\n      0x01\n      add\n      swap2\n      pop\n      pop\n        /* \"base58-solidity/contracts/Base58.sol\":2313:2417  for (uint256 i = 0; i < b58sz && uint8(data_[i]) == zero; i++) {... */\n      jump(tag_119)\n    tag_120:\n      pop\n        /* \"base58-solidity/contracts/Base58.sol\":2430:2439  uint256 t */\n      0x00\n        /* \"base58-solidity/contracts/Base58.sol\":2453:2462  uint256 c */\n      dup1\n        /* \"base58-solidity/contracts/Base58.sol\":2476:2482  bool f */\n      0x00\n        /* \"base58-solidity/contracts/Base58.sol\":2496:2513  bytes memory binu */\n      dup1\n        /* \"base58-solidity/contracts/Base58.sol\":2557:2558  1 */\n      0x01\n        /* \"base58-solidity/contracts/Base58.sol\":2549:2553  6115 */\n      0x17e3\n        /* \"base58-solidity/contracts/Base58.sol\":2541:2545  8351 */\n      0x209f\n        /* \"base58-solidity/contracts/Base58.sol\":2533:2538  b58sz */\n      dup9\n        /* \"base58-solidity/contracts/Base58.sol\":2533:2545  b58sz * 8351 */\n      mul\n        /* \"base58-solidity/contracts/Base58.sol\":2532:2553  (b58sz * 8351) / 6115 */\n      dup2\n      tag_125\n      jumpi\n      tag_126\n      tag_56\n      jump\t// in\n    tag_126:\n    tag_125:\n      div\n        /* \"base58-solidity/contracts/Base58.sol\":2531:2558  ((b58sz * 8351) / 6115) + 1 */\n      add\n        /* \"base58-solidity/contracts/Base58.sol\":2526:2527  2 */\n      0x02\n        /* \"base58-solidity/contracts/Base58.sol\":2526:2559  2 * (((b58sz * 8351) / 6115) + 1) */\n      mul\n        /* \"base58-solidity/contracts/Base58.sol\":2516:2560  new bytes(2 * (((b58sz * 8351) / 6115) + 1)) */\n      0xffffffffffffffff\n      dup2\n      gt\n      iszero\n      tag_127\n      jumpi\n      tag_128\n      tag_59\n      jump\t// in\n    tag_128:\n    tag_127:\n      mload(0x40)\n      swap1\n      dup1\n      dup3\n      mstore\n      dup1\n      0x1f\n      add\n      not(0x1f)\n      and\n      0x20\n      add\n      dup3\n      add\n      0x40\n      mstore\n      dup1\n      iszero\n      tag_129\n      jumpi\n      dup2\n      0x20\n      add\n      0x01\n      dup3\n      mul\n      dup1\n      calldatasize\n      dup4\n      calldatacopy\n      dup1\n      dup3\n      add\n      swap2\n      pop\n      pop\n      swap1\n      pop\n    tag_129:\n      pop\n        /* \"base58-solidity/contracts/Base58.sol\":2496:2560  bytes memory binu = new bytes(2 * (((b58sz * 8351) / 6115) + 1)) */\n      swap1\n      pop\n        /* \"base58-solidity/contracts/Base58.sol\":2574:2594  uint32[] memory outi */\n      0x00\n        /* \"base58-solidity/contracts/Base58.sol\":2624:2625  4 */\n      0x04\n        /* \"base58-solidity/contracts/Base58.sol\":2619:2620  3 */\n      0x03\n        /* \"base58-solidity/contracts/Base58.sol\":2611:2616  b58sz */\n      dup9\n        /* \"base58-solidity/contracts/Base58.sol\":2611:2620  b58sz + 3 */\n      add\n        /* \"base58-solidity/contracts/Base58.sol\":2610:2625  (b58sz + 3) / 4 */\n      dup2\n      tag_130\n      jumpi\n      tag_131\n      tag_56\n      jump\t// in\n    tag_131:\n    tag_130:\n      div\n        /* \"base58-solidity/contracts/Base58.sol\":2597:2626  new uint32[]((b58sz + 3) / 4) */\n      0xffffffffffffffff\n      dup2\n      gt\n      iszero\n      tag_132\n      jumpi\n      tag_133\n      tag_59\n      jump\t// in\n    tag_133:\n    tag_132:\n      mload(0x40)\n      swap1\n      dup1\n      dup3\n      mstore\n      dup1\n      0x20\n      mul\n      0x20\n      add\n      dup3\n      add\n      0x40\n      mstore\n      dup1\n      iszero\n      tag_134\n      jumpi\n      dup2\n      0x20\n      add\n      0x20\n      dup3\n      mul\n      dup1\n      calldatasize\n      dup4\n      calldatacopy\n      dup1\n      dup3\n      add\n      swap2\n      pop\n      pop\n      swap1\n      pop\n    tag_134:\n      pop\n        /* \"base58-solidity/contracts/Base58.sol\":2574:2626  uint32[] memory outi = new uint32[]((b58sz + 3) / 4) */\n      swap1\n      pop\n        /* \"base58-solidity/contracts/Base58.sol\":2645:2654  uint256 i */\n      0x00\n        /* \"base58-solidity/contracts/Base58.sol\":2640:3079  for (uint256 i = 0; i < data_.length; i++) {... */\n    tag_135:\n        /* \"base58-solidity/contracts/Base58.sol\":2664:2669  data_ */\n      dup11\n        /* \"base58-solidity/contracts/Base58.sol\":2664:2676  data_.length */\n      mload\n        /* \"base58-solidity/contracts/Base58.sol\":2660:2661  i */\n      dup2\n        /* \"base58-solidity/contracts/Base58.sol\":2660:2676  i < data_.length */\n      lt\n        /* \"base58-solidity/contracts/Base58.sol\":2640:3079  for (uint256 i = 0; i < data_.length; i++) {... */\n      iszero\n      tag_136\n      jumpi\n        /* \"base58-solidity/contracts/Base58.sol\":2701:2709  bytes1 r */\n      0x00\n        /* \"base58-solidity/contracts/Base58.sol\":2712:2717  data_ */\n      dup12\n        /* \"base58-solidity/contracts/Base58.sol\":2718:2719  i */\n      dup3\n        /* \"base58-solidity/contracts/Base58.sol\":2712:2720  data_[i] */\n      dup2\n      mload\n      dup2\n      lt\n      tag_138\n      jumpi\n      tag_139\n      tag_53\n      jump\t// in\n    tag_139:\n    tag_138:\n      0x20\n      add\n      add\n      mload\n      0xf8\n      shr\n      0xf8\n      shl\n        /* \"base58-solidity/contracts/Base58.sol\":2701:2720  bytes1 r = data_[i] */\n      swap1\n      pop\n        /* \"base58-solidity/contracts/Base58.sol\":2747:2767  indexOf(ALPHABET, r) */\n      tag_140\n        /* \"base58-solidity/contracts/Base58.sol\":2755:2763  ALPHABET */\n      mload(0x40)\n      dup1\n      0x60\n      add\n      0x40\n      mstore\n      dup1\n      0x3a\n      dup2\n      mstore\n      0x20\n      add\n      data_e72daf94b45f828c6e9fb35ca4f157bc4eef8ccec3cc5bc840ee513b6ee42a62\n      0x3a\n      swap2\n      codecopy\n        /* \"base58-solidity/contracts/Base58.sol\":2765:2766  r */\n      dup3\n        /* \"base58-solidity/contracts/Base58.sol\":2747:2754  indexOf */\n      tag_33\n        /* \"base58-solidity/contracts/Base58.sol\":2747:2767  indexOf(ALPHABET, r) */\n      jump\t// in\n    tag_140:\n        /* \"base58-solidity/contracts/Base58.sol\":2738:2767  (c, f) = indexOf(ALPHABET, r) */\n      dup1\n      swap7\n      pop\n      dup2\n      swap8\n      pop\n      pop\n      pop\n        /* \"base58-solidity/contracts/Base58.sol\":2793:2794  f */\n      dup5\n        /* \"base58-solidity/contracts/Base58.sol\":2785:2819  require(f, \"invalid base58 digit\") */\n      tag_141\n      jumpi\n      mload(0x40)\n      0x08c379a000000000000000000000000000000000000000000000000000000000\n      dup2\n      mstore\n      0x04\n      add\n      tag_142\n      swap1\n      tag_143\n      jump\t// in\n    tag_142:\n      mload(0x40)\n      dup1\n      swap2\n      sub\n      swap1\n      revert\n    tag_141:\n        /* \"base58-solidity/contracts/Base58.sol\":2842:2850  int256 k */\n      0x00\n        /* \"base58-solidity/contracts/Base58.sol\":2875:2876  1 */\n      0x01\n        /* \"base58-solidity/contracts/Base58.sol\":2860:2864  outi */\n      dup5\n        /* \"base58-solidity/contracts/Base58.sol\":2860:2871  outi.length */\n      mload\n        /* \"base58-solidity/contracts/Base58.sol\":2853:2876  int256(outi.length) - 1 */\n      sub\n        /* \"base58-solidity/contracts/Base58.sol\":2842:2876  int256 k = int256(outi.length) - 1 */\n      swap1\n      pop\n        /* \"base58-solidity/contracts/Base58.sol\":2837:3065  for (int256 k = int256(outi.length) - 1; k >= 0; k--) {... */\n    tag_144:\n        /* \"base58-solidity/contracts/Base58.sol\":2883:2884  0 */\n      0x00\n        /* \"base58-solidity/contracts/Base58.sol\":2878:2879  k */\n      dup2\n        /* \"base58-solidity/contracts/Base58.sol\":2878:2884  k >= 0 */\n      slt\n        /* \"base58-solidity/contracts/Base58.sol\":2837:3065  for (int256 k = int256(outi.length) - 1; k >= 0; k--) {... */\n      tag_145\n      jumpi\n        /* \"base58-solidity/contracts/Base58.sol\":2949:2950  c */\n      dup7\n        /* \"base58-solidity/contracts/Base58.sol\":2944:2946  58 */\n      0x3a\n        /* \"base58-solidity/contracts/Base58.sol\":2924:2928  outi */\n      dup6\n        /* \"base58-solidity/contracts/Base58.sol\":2937:2938  k */\n      dup4\n        /* \"base58-solidity/contracts/Base58.sol\":2924:2940  outi[uint256(k)] */\n      dup2\n      mload\n      dup2\n      lt\n      tag_147\n      jumpi\n      tag_148\n      tag_53\n      jump\t// in\n    tag_148:\n    tag_147:\n      0x20\n      mul\n      0x20\n      add\n      add\n      mload\n        /* \"base58-solidity/contracts/Base58.sol\":2917:2941  uint64(outi[uint256(k)]) */\n      0xffffffff\n      and\n        /* \"base58-solidity/contracts/Base58.sol\":2917:2946  uint64(outi[uint256(k)]) * 58 */\n      mul\n        /* \"base58-solidity/contracts/Base58.sol\":2917:2950  uint64(outi[uint256(k)]) * 58 + c */\n      0xffffffffffffffff\n      and\n      add\n        /* \"base58-solidity/contracts/Base58.sol\":2913:2950  t = uint64(outi[uint256(k)]) * 58 + c */\n      swap8\n      pop\n        /* \"base58-solidity/contracts/Base58.sol\":2981:2983  32 */\n      0x20\n        /* \"base58-solidity/contracts/Base58.sol\":2976:2977  t */\n      dup9\n        /* \"base58-solidity/contracts/Base58.sol\":2976:2983  t >> 32 */\n      swap1\n      shr\n        /* \"base58-solidity/contracts/Base58.sol\":2972:2983  c = t >> 32 */\n      swap7\n      pop\n        /* \"base58-solidity/contracts/Base58.sol\":3035:3045  0xffffffff */\n      0xffffffff\n        /* \"base58-solidity/contracts/Base58.sol\":3031:3032  t */\n      dup9\n        /* \"base58-solidity/contracts/Base58.sol\":3031:3045  t & 0xffffffff */\n      and\n        /* \"base58-solidity/contracts/Base58.sol\":3005:3009  outi */\n      dup5\n        /* \"base58-solidity/contracts/Base58.sol\":3018:3019  k */\n      dup3\n        /* \"base58-solidity/contracts/Base58.sol\":3005:3021  outi[uint256(k)] */\n      dup2\n      mload\n      dup2\n      lt\n      tag_149\n      jumpi\n      tag_150\n      tag_53\n      jump\t// in\n    tag_150:\n    tag_149:\n      0x20\n      mul\n      0x20\n      add\n      add\n        /* \"base58-solidity/contracts/Base58.sol\":3005:3046  outi[uint256(k)] = uint32(t & 0xffffffff) */\n      swap1\n      0xffffffff\n      and\n      swap1\n      dup2\n      0xffffffff\n      and\n      dup2\n      mstore\n      pop\n      pop\n        /* \"base58-solidity/contracts/Base58.sol\":2886:2889  k-- */\n      dup1\n      dup1\n      0x01\n      swap1\n      sub\n      swap2\n      pop\n      pop\n        /* \"base58-solidity/contracts/Base58.sol\":2837:3065  for (int256 k = int256(outi.length) - 1; k >= 0; k--) {... */\n      jump(tag_144)\n    tag_145:\n      pop\n        /* \"base58-solidity/contracts/Base58.sol\":2683:3079  {... */\n      pop\n        /* \"base58-solidity/contracts/Base58.sol\":2678:2681  i++ */\n      dup1\n      dup1\n      0x01\n      add\n      swap2\n      pop\n      pop\n        /* \"base58-solidity/contracts/Base58.sol\":2640:3079  for (uint256 i = 0; i < data_.length; i++) {... */\n      jump(tag_135)\n    tag_136:\n      pop\n        /* \"base58-solidity/contracts/Base58.sol\":3092:3103  uint64 mask */\n      0x00\n        /* \"base58-solidity/contracts/Base58.sol\":3126:3127  8 */\n      0x08\n        /* \"base58-solidity/contracts/Base58.sol\":3121:3122  4 */\n      0x04\n        /* \"base58-solidity/contracts/Base58.sol\":3113:3118  b58sz */\n      dup10\n        /* \"base58-solidity/contracts/Base58.sol\":3113:3122  b58sz % 4 */\n      dup2\n      tag_151\n      jumpi\n      tag_152\n      tag_56\n      jump\t// in\n    tag_152:\n    tag_151:\n      mod\n        /* \"base58-solidity/contracts/Base58.sol\":3106:3127  uint64(b58sz % 4) * 8 */\n      mul\n        /* \"base58-solidity/contracts/Base58.sol\":3092:3127  uint64 mask = uint64(b58sz % 4) * 8 */\n      swap1\n      pop\n        /* \"base58-solidity/contracts/Base58.sol\":3153:3154  0 */\n      0x00\n        /* \"base58-solidity/contracts/Base58.sol\":3145:3149  mask */\n      dup2\n        /* \"base58-solidity/contracts/Base58.sol\":3145:3154  mask == 0 */\n      0xffffffffffffffff\n      and\n      sub\n        /* \"base58-solidity/contracts/Base58.sol\":3141:3198  if (mask == 0) {... */\n      tag_153\n      jumpi\n        /* \"base58-solidity/contracts/Base58.sol\":3181:3183  32 */\n      0x20\n        /* \"base58-solidity/contracts/Base58.sol\":3174:3183  mask = 32 */\n      swap1\n      pop\n        /* \"base58-solidity/contracts/Base58.sol\":3141:3198  if (mask == 0) {... */\n    tag_153:\n        /* \"base58-solidity/contracts/Base58.sol\":3219:3220  8 */\n      0x08\n        /* \"base58-solidity/contracts/Base58.sol\":3211:3220  mask -= 8 */\n      dup2\n      sub\n      swap1\n      pop\n        /* \"base58-solidity/contracts/Base58.sol\":3234:3248  uint256 outLen */\n      0x00\n        /* \"base58-solidity/contracts/Base58.sol\":3271:3280  uint256 j */\n      dup1\n        /* \"base58-solidity/contracts/Base58.sol\":3266:3621  for (uint256 j = 0; j < outi.length; j++) {... */\n    tag_154:\n        /* \"base58-solidity/contracts/Base58.sol\":3290:3294  outi */\n      dup4\n        /* \"base58-solidity/contracts/Base58.sol\":3290:3301  outi.length */\n      mload\n        /* \"base58-solidity/contracts/Base58.sol\":3286:3287  j */\n      dup2\n        /* \"base58-solidity/contracts/Base58.sol\":3286:3301  j < outi.length */\n      lt\n        /* \"base58-solidity/contracts/Base58.sol\":3266:3621  for (uint256 j = 0; j < outi.length; j++) {... */\n      iszero\n      tag_155\n      jumpi\n        /* \"base58-solidity/contracts/Base58.sol\":3326:3580  while (mask < 32) {... */\n    tag_157:\n        /* \"base58-solidity/contracts/Base58.sol\":3340:3342  32 */\n      0x20\n        /* \"base58-solidity/contracts/Base58.sol\":3333:3337  mask */\n      dup4\n        /* \"base58-solidity/contracts/Base58.sol\":3333:3342  mask < 32 */\n      0xffffffffffffffff\n      and\n      lt\n        /* \"base58-solidity/contracts/Base58.sol\":3326:3580  while (mask < 32) {... */\n      iszero\n      tag_158\n      jumpi\n        /* \"base58-solidity/contracts/Base58.sol\":3405:3409  mask */\n      dup3\n        /* \"base58-solidity/contracts/Base58.sol\":3394:3409  outi[j] >> mask */\n      0xffffffffffffffff\n      and\n        /* \"base58-solidity/contracts/Base58.sol\":3394:3398  outi */\n      dup5\n        /* \"base58-solidity/contracts/Base58.sol\":3399:3400  j */\n      dup3\n        /* \"base58-solidity/contracts/Base58.sol\":3394:3401  outi[j] */\n      dup2\n      mload\n      dup2\n      lt\n      tag_159\n      jumpi\n      tag_160\n      tag_53\n      jump\t// in\n    tag_160:\n    tag_159:\n      0x20\n      mul\n      0x20\n      add\n      add\n      mload\n        /* \"base58-solidity/contracts/Base58.sol\":3394:3409  outi[j] >> mask */\n      0xffffffff\n      and\n      swap1\n      shr\n        /* \"base58-solidity/contracts/Base58.sol\":3381:3411  bytes1(uint8(outi[j] >> mask)) */\n      0xf8\n      shl\n        /* \"base58-solidity/contracts/Base58.sol\":3366:3370  binu */\n      dup6\n        /* \"base58-solidity/contracts/Base58.sol\":3371:3377  outLen */\n      dup4\n        /* \"base58-solidity/contracts/Base58.sol\":3366:3378  binu[outLen] */\n      dup2\n      mload\n      dup2\n      lt\n      tag_161\n      jumpi\n      tag_162\n      tag_53\n      jump\t// in\n    tag_162:\n    tag_161:\n      0x20\n      add\n      add\n        /* \"base58-solidity/contracts/Base58.sol\":3366:3411  binu[outLen] = bytes1(uint8(outi[j] >> mask)) */\n      swap1\n      not(0xffffffffffffffffffffffffffffffffffffffffffffffffffffffffffffff)\n      and\n      swap1\n      dup2\n      0x00\n      byte\n      swap1\n      mstore8\n      pop\n        /* \"base58-solidity/contracts/Base58.sol\":3433:3441  outLen++ */\n      dup2\n      dup1\n      0x01\n      add\n      swap3\n      pop\n      pop\n        /* \"base58-solidity/contracts/Base58.sol\":3474:3475  8 */\n      0x08\n        /* \"base58-solidity/contracts/Base58.sol\":3467:3471  mask */\n      dup4\n        /* \"base58-solidity/contracts/Base58.sol\":3467:3475  mask < 8 */\n      0xffffffffffffffff\n      and\n      lt\n        /* \"base58-solidity/contracts/Base58.sol\":3503:3508  break */\n      tag_158\n        /* \"base58-solidity/contracts/Base58.sol\":3463:3531  if (mask < 8) {... */\n      jumpi\n        /* \"base58-solidity/contracts/Base58.sol\":3560:3561  8 */\n      0x08\n        /* \"base58-solidity/contracts/Base58.sol\":3552:3561  mask -= 8 */\n      dup4\n      sub\n      swap3\n      pop\n        /* \"base58-solidity/contracts/Base58.sol\":3326:3580  while (mask < 32) {... */\n      jump(tag_157)\n    tag_158:\n        /* \"base58-solidity/contracts/Base58.sol\":3604:3606  24 */\n      0x18\n        /* \"base58-solidity/contracts/Base58.sol\":3597:3606  mask = 24 */\n      swap3\n      pop\n        /* \"base58-solidity/contracts/Base58.sol\":3303:3306  j++ */\n      dup1\n      dup1\n      0x01\n      add\n      swap2\n      pop\n      pop\n        /* \"base58-solidity/contracts/Base58.sol\":3266:3621  for (uint256 j = 0; j < outi.length; j++) {... */\n      jump(tag_154)\n    tag_155:\n      pop\n        /* \"base58-solidity/contracts/Base58.sol\":3639:3650  uint256 msb */\n      0x00\n        /* \"base58-solidity/contracts/Base58.sol\":3653:3659  zcount */\n      dup9\n        /* \"base58-solidity/contracts/Base58.sol\":3639:3659  uint256 msb = zcount */\n      swap1\n      pop\n        /* \"base58-solidity/contracts/Base58.sol\":3634:3819  for (uint256 msb = zcount; msb < binu.length; msb++) {... */\n    tag_164:\n        /* \"base58-solidity/contracts/Base58.sol\":3667:3671  binu */\n      dup5\n        /* \"base58-solidity/contracts/Base58.sol\":3667:3678  binu.length */\n      mload\n        /* \"base58-solidity/contracts/Base58.sol\":3661:3664  msb */\n      dup2\n        /* \"base58-solidity/contracts/Base58.sol\":3661:3678  msb < binu.length */\n      lt\n        /* \"base58-solidity/contracts/Base58.sol\":3634:3819  for (uint256 msb = zcount; msb < binu.length; msb++) {... */\n      iszero\n      tag_165\n      jumpi\n        /* \"base58-solidity/contracts/Base58.sol\":3721:3722  0 */\n      0x00\n        /* \"base58-solidity/contracts/Base58.sol\":3709:3722  binu[msb] > 0 */\n      0xf8\n      shl\n        /* \"base58-solidity/contracts/Base58.sol\":3709:3713  binu */\n      dup6\n        /* \"base58-solidity/contracts/Base58.sol\":3714:3717  msb */\n      dup3\n        /* \"base58-solidity/contracts/Base58.sol\":3709:3718  binu[msb] */\n      dup2\n      mload\n      dup2\n      lt\n      tag_167\n      jumpi\n      tag_168\n      tag_53\n      jump\t// in\n    tag_168:\n    tag_167:\n      0x20\n      add\n      add\n      mload\n      0xf8\n      shr\n      0xf8\n      shl\n        /* \"base58-solidity/contracts/Base58.sol\":3709:3722  binu[msb] > 0 */\n      not(0xffffffffffffffffffffffffffffffffffffffffffffffffffffffffffffff)\n      and\n      gt\n        /* \"base58-solidity/contracts/Base58.sol\":3705:3805  if (binu[msb] > 0) {... */\n      iszero\n      tag_169\n      jumpi\n        /* \"base58-solidity/contracts/Base58.sol\":3753:3786  slice(binu, msb - zcount, outLen) */\n      tag_170\n        /* \"base58-solidity/contracts/Base58.sol\":3759:3763  binu */\n      dup6\n        /* \"base58-solidity/contracts/Base58.sol\":3771:3777  zcount */\n      dup11\n        /* \"base58-solidity/contracts/Base58.sol\":3765:3768  msb */\n      dup4\n        /* \"base58-solidity/contracts/Base58.sol\":3765:3777  msb - zcount */\n      sub\n        /* \"base58-solidity/contracts/Base58.sol\":3779:3785  outLen */\n      dup5\n        /* \"base58-solidity/contracts/Base58.sol\":3753:3758  slice */\n      tag_39\n        /* \"base58-solidity/contracts/Base58.sol\":3753:3786  slice(binu, msb - zcount, outLen) */\n      jump\t// in\n    tag_170:\n        /* \"base58-solidity/contracts/Base58.sol\":3746:3786  return slice(binu, msb - zcount, outLen) */\n      swap12\n      pop\n      pop\n      pop\n      pop\n      pop\n      pop\n      pop\n      pop\n      pop\n      pop\n      pop\n      pop\n      jump(tag_118)\n        /* \"base58-solidity/contracts/Base58.sol\":3705:3805  if (binu[msb] > 0) {... */\n    tag_169:\n        /* \"base58-solidity/contracts/Base58.sol\":3680:3685  msb++ */\n      dup1\n      dup1\n      0x01\n      add\n      swap2\n      pop\n      pop\n        /* \"base58-solidity/contracts/Base58.sol\":3634:3819  for (uint256 msb = zcount; msb < binu.length; msb++) {... */\n      jump(tag_164)\n    tag_165:\n      pop\n        /* \"base58-solidity/contracts/Base58.sol\":3839:3861  slice(binu, 0, outLen) */\n      tag_171\n        /* \"base58-solidity/contracts/Base58.sol\":3845:3849  binu */\n      dup5\n        /* \"base58-solidity/contracts/Base58.sol\":3851:3852  0 */\n      0x00\n        /* \"base58-solidity/contracts/Base58.sol\":3854:3860  outLen */\n      dup4\n        /* \"base58-solidity/contracts/Base58.sol\":3839:3844  slice */\n      tag_39\n        /* \"base58-solidity/contracts/Base58.sol\":3839:3861  slice(binu, 0, outLen) */\n      jump\t// in\n    tag_171:\n        /* \"base58-solidity/contracts/Base58.sol\":3832:3861  return slice(binu, 0, outLen) */\n      swap11\n      pop\n      pop\n      pop\n      pop\n      pop\n      pop\n      pop\n      pop\n      pop\n      pop\n      pop\n        /* \"base58-solidity/contracts/Base58.sol\":2103:3878  function decode(bytes memory data_) public pure returns (bytes memory) {... */\n    tag_118:\n      swap2\n      swap1\n      pop\n      jump\t// out\n        /* \"#utility.yul\":7:82   */\n    tag_172:\n        /* \"#utility.yul\":40:46   */\n      0x00\n        /* \"#utility.yul\":73:75   */\n      0x40\n        /* \"#utility.yul\":67:76   */\n      mload\n        /* \"#utility.yul\":57:76   */\n      swap1\n      pop\n        /* \"#utility.yul\":7:82   */\n      swap1\n      jump\t// out\n        /* \"#utility.yul\":88:205   */\n    tag_173:\n        /* \"#utility.yul\":197:198   */\n      0x00\n        /* \"#utility.yul\":194:195   */\n      dup1\n        /* \"#utility.yul\":187:199   */\n      revert\n        /* \"#utility.yul\":211:328   */\n    tag_174:\n        /* \"#utility.yul\":320:321   */\n      0x00\n        /* \"#utility.yul\":317:318   */\n      dup1\n        /* \"#utility.yul\":310:322   */\n      revert\n        /* \"#utility.yul\":334:451   */\n    tag_175:\n        /* \"#utility.yul\":443:444   */\n      0x00\n        /* \"#utility.yul\":440:441   */\n      dup1\n        /* \"#utility.yul\":433:445   */\n      revert\n        /* \"#utility.yul\":457:574   */\n    tag_176:\n        /* \"#utility.yul\":566:567   */\n      0x00\n        /* \"#utility.yul\":563:564   */\n      dup1\n        /* \"#utility.yul\":556:568   */\n      revert\n        /* \"#utility.yul\":580:682   */\n    tag_177:\n        /* \"#utility.yul\":621:627   */\n      0x00\n        /* \"#utility.yul\":672:674   */\n      0x1f\n        /* \"#utility.yul\":668:675   */\n      not\n        /* \"#utility.yul\":663:665   */\n      0x1f\n        /* \"#utility.yul\":656:661   */\n      dup4\n        /* \"#utility.yul\":652:666   */\n      add\n        /* \"#utility.yul\":648:676   */\n      and\n        /* \"#utility.yul\":638:676   */\n      swap1\n      pop\n        /* \"#utility.yul\":580:682   */\n      swap2\n      swap1\n      pop\n      jump\t// out\n        /* \"#utility.yul\":688:868   */\n    tag_59:\n        /* \"#utility.yul\":736:813   */\n      0x4e487b7100000000000000000000000000000000000000000000000000000000\n        /* \"#utility.yul\":733:734   */\n      0x00\n        /* \"#utility.yul\":726:814   */\n      mstore\n        /* \"#utility.yul\":833:837   */\n      0x41\n        /* \"#utility.yul\":830:831   */\n      0x04\n        /* \"#utility.yul\":823:838   */\n      mstore\n        /* \"#utility.yul\":857:861   */\n      0x24\n        /* \"#utility.yul\":854:855   */\n      0x00\n        /* \"#utility.yul\":847:862   */\n      revert\n        /* \"#utility.yul\":874:1155   */\n    tag_178:\n        /* \"#utility.yul\":957:984   */\n      tag_215\n        /* \"#utility.yul\":979:983   */\n      dup3\n        /* \"#utility.yul\":957:984   */\n      tag_177\n      jump\t// in\n    tag_215:\n        /* \"#utility.yul\":949:955   */\n      dup2\n        /* \"#utility.yul\":945:985   */\n      add\n        /* \"#utility.yul\":1087:1093   */\n      dup2\n        /* \"#utility.yul\":1075:1085   */\n      dup2\n        /* \"#utility.yul\":1072:1094   */\n      lt\n        /* \"#utility.yul\":1051:1069   */\n      0xffffffffffffffff\n        /* \"#utility.yul\":1039:1049   */\n      dup3\n        /* \"#utility.yul\":1036:1070   */\n      gt\n        /* \"#utility.yul\":1033:1095   */\n      or\n        /* \"#utility.yul\":1030:1118   */\n      iszero\n      tag_216\n      jumpi\n        /* \"#utility.yul\":1098:1116   */\n      tag_217\n      tag_59\n      jump\t// in\n    tag_217:\n        /* \"#utility.yul\":1030:1118   */\n    tag_216:\n        /* \"#utility.yul\":1138:1148   */\n      dup1\n        /* \"#utility.yul\":1134:1136   */\n      0x40\n        /* \"#utility.yul\":1127:1149   */\n      mstore\n        /* \"#utility.yul\":917:1155   */\n      pop\n        /* \"#utility.yul\":874:1155   */\n      pop\n      pop\n      jump\t// out\n        /* \"#utility.yul\":1161:1290   */\n    tag_179:\n        /* \"#utility.yul\":1195:1201   */\n      0x00\n        /* \"#utility.yul\":1222:1242   */\n      tag_219\n      tag_172\n      jump\t// in\n    tag_219:\n        /* \"#utility.yul\":1212:1242   */\n      swap1\n      pop\n        /* \"#utility.yul\":1251:1284   */\n      tag_220\n        /* \"#utility.yul\":1279:1283   */\n      dup3\n        /* \"#utility.yul\":1271:1277   */\n      dup3\n        /* \"#utility.yul\":1251:1284   */\n      tag_178\n      jump\t// in\n    tag_220:\n        /* \"#utility.yul\":1161:1290   */\n      swap2\n      swap1\n      pop\n      jump\t// out\n        /* \"#utility.yul\":1296:1604   */\n    tag_180:\n        /* \"#utility.yul\":1358:1362   */\n      0x00\n        /* \"#utility.yul\":1448:1466   */\n      0xffffffffffffffff\n        /* \"#utility.yul\":1440:1446   */\n      dup3\n        /* \"#utility.yul\":1437:1467   */\n      gt\n        /* \"#utility.yul\":1434:1490   */\n      iszero\n      tag_222\n      jumpi\n        /* \"#utility.yul\":1470:1488   */\n      tag_223\n      tag_59\n      jump\t// in\n    tag_223:\n        /* \"#utility.yul\":1434:1490   */\n    tag_222:\n        /* \"#utility.yul\":1508:1537   */\n      tag_224\n        /* \"#utility.yul\":1530:1536   */\n      dup3\n        /* \"#utility.yul\":1508:1537   */\n      tag_177\n      jump\t// in\n    tag_224:\n        /* \"#utility.yul\":1500:1537   */\n      swap1\n      pop\n        /* \"#utility.yul\":1592:1596   */\n      0x20\n        /* \"#utility.yul\":1586:1590   */\n      dup2\n        /* \"#utility.yul\":1582:1597   */\n      add\n        /* \"#utility.yul\":1574:1597   */\n      swap1\n      pop\n        /* \"#utility.yul\":1296:1604   */\n      swap2\n      swap1\n      pop\n      jump\t// out\n        /* \"#utility.yul\":1610:1758   */\n    tag_181:\n        /* \"#utility.yul\":1708:1714   */\n      dup3\n        /* \"#utility.yul\":1703:1706   */\n      dup2\n        /* \"#utility.yul\":1698:1701   */\n      dup4\n        /* \"#utility.yul\":1685:1715   */\n      calldatacopy\n        /* \"#utility.yul\":1749:1750   */\n      0x00\n        /* \"#utility.yul\":1740:1746   */\n      dup4\n        /* \"#utility.yul\":1735:1738   */\n      dup4\n        /* \"#utility.yul\":1731:1747   */\n      add\n        /* \"#utility.yul\":1724:1751   */\n      mstore\n        /* \"#utility.yul\":1610:1758   */\n      pop\n      pop\n      pop\n      jump\t// out\n        /* \"#utility.yul\":1764:2189   */\n    tag_182:\n        /* \"#utility.yul\":1842:1847   */\n      0x00\n        /* \"#utility.yul\":1867:1933   */\n      tag_227\n        /* \"#utility.yul\":1883:1932   */\n      tag_228\n        /* \"#utility.yul\":1925:1931   */\n      dup5\n        /* \"#utility.yul\":1883:1932   */\n      tag_180\n      jump\t// in\n    tag_228:\n        /* \"#utility.yul\":1867:1933   */\n      tag_179\n      jump\t// in\n    tag_227:\n        /* \"#utility.yul\":1858:1933   */\n      swap1\n      pop\n        /* \"#utility.yul\":1956:1962   */\n      dup3\n        /* \"#utility.yul\":1949:1954   */\n      dup2\n        /* \"#utility.yul\":1942:1963   */\n      mstore\n        /* \"#utility.yul\":1994:1998   */\n      0x20\n        /* \"#utility.yul\":1987:1992   */\n      dup2\n        /* \"#utility.yul\":1983:1999   */\n      add\n        /* \"#utility.yul\":2032:2035   */\n      dup5\n        /* \"#utility.yul\":2023:2029   */\n      dup5\n        /* \"#utility.yul\":2018:2021   */\n      dup5\n        /* \"#utility.yul\":2014:2030   */\n      add\n        /* \"#utility.yul\":2011:2036   */\n      gt\n        /* \"#utility.yul\":2008:2120   */\n      iszero\n      tag_229\n      jumpi\n        /* \"#utility.yul\":2039:2118   */\n      tag_230\n      tag_176\n      jump\t// in\n    tag_230:\n        /* \"#utility.yul\":2008:2120   */\n    tag_229:\n        /* \"#utility.yul\":2129:2183   */\n      tag_231\n        /* \"#utility.yul\":2176:2182   */\n      dup5\n        /* \"#utility.yul\":2171:2174   */\n      dup3\n        /* \"#utility.yul\":2166:2169   */\n      dup6\n        /* \"#utility.yul\":2129:2183   */\n      tag_181\n      jump\t// in\n    tag_231:\n        /* \"#utility.yul\":1848:2189   */\n      pop\n        /* \"#utility.yul\":1764:2189   */\n      swap4\n      swap3\n      pop\n      pop\n      pop\n      jump\t// out\n        /* \"#utility.yul\":2209:2549   */\n    tag_183:\n        /* \"#utility.yul\":2265:2270   */\n      0x00\n        /* \"#utility.yul\":2314:2317   */\n      dup3\n        /* \"#utility.yul\":2307:2311   */\n      0x1f\n        /* \"#utility.yul\":2299:2305   */\n      dup4\n        /* \"#utility.yul\":2295:2312   */\n      add\n        /* \"#utility.yul\":2291:2318   */\n      slt\n        /* \"#utility.yul\":2281:2403   */\n      tag_233\n      jumpi\n        /* \"#utility.yul\":2322:2401   */\n      tag_234\n      tag_175\n      jump\t// in\n    tag_234:\n        /* \"#utility.yul\":2281:2403   */\n    tag_233:\n        /* \"#utility.yul\":2439:2445   */\n      dup2\n        /* \"#utility.yul\":2426:2446   */\n      calldataload\n        /* \"#utility.yul\":2464:2543   */\n      tag_235\n        /* \"#utility.yul\":2539:2542   */\n      dup5\n        /* \"#utility.yul\":2531:2537   */\n      dup3\n        /* \"#utility.yul\":2524:2528   */\n      0x20\n        /* \"#utility.yul\":2516:2522   */\n      dup7\n        /* \"#utility.yul\":2512:2529   */\n      add\n        /* \"#utility.yul\":2464:2543   */\n      tag_182\n      jump\t// in\n    tag_235:\n        /* \"#utility.yul\":2455:2543   */\n      swap2\n      pop\n        /* \"#utility.yul\":2271:2549   */\n      pop\n        /* \"#utility.yul\":2209:2549   */\n      swap3\n      swap2\n      pop\n      pop\n      jump\t// out\n        /* \"#utility.yul\":2555:3064   */\n    tag_12:\n        /* \"#utility.yul\":2624:2630   */\n      0x00\n        /* \"#utility.yul\":2673:2675   */\n      0x20\n        /* \"#utility.yul\":2661:2670   */\n      dup3\n        /* \"#utility.yul\":2652:2659   */\n      dup5\n        /* \"#utility.yul\":2648:2671   */\n      sub\n        /* \"#utility.yul\":2644:2676   */\n      slt\n        /* \"#utility.yul\":2641:2760   */\n      iszero\n      tag_237\n      jumpi\n        /* \"#utility.yul\":2679:2758   */\n      tag_238\n      tag_173\n      jump\t// in\n    tag_238:\n        /* \"#utility.yul\":2641:2760   */\n    tag_237:\n        /* \"#utility.yul\":2827:2828   */\n      0x00\n        /* \"#utility.yul\":2816:2825   */\n      dup3\n        /* \"#utility.yul\":2812:2829   */\n      add\n        /* \"#utility.yul\":2799:2830   */\n      calldataload\n        /* \"#utility.yul\":2857:2875   */\n      0xffffffffffffffff\n        /* \"#utility.yul\":2849:2855   */\n      dup2\n        /* \"#utility.yul\":2846:2876   */\n      gt\n        /* \"#utility.yul\":2843:2960   */\n      iszero\n      tag_239\n      jumpi\n        /* \"#utility.yul\":2879:2958   */\n      tag_240\n      tag_174\n      jump\t// in\n    tag_240:\n        /* \"#utility.yul\":2843:2960   */\n    tag_239:\n        /* \"#utility.yul\":2984:3047   */\n      tag_241\n        /* \"#utility.yul\":3039:3046   */\n      dup5\n        /* \"#utility.yul\":3030:3036   */\n      dup3\n        /* \"#utility.yul\":3019:3028   */\n      dup6\n        /* \"#utility.yul\":3015:3037   */\n      add\n        /* \"#utility.yul\":2984:3047   */\n      tag_183\n      jump\t// in\n    tag_241:\n        /* \"#utility.yul\":2974:3047   */\n      swap2\n      pop\n        /* \"#utility.yul\":2770:3057   */\n      pop\n        /* \"#utility.yul\":2555:3064   */\n      swap3\n      swap2\n      pop\n      pop\n      jump\t// out\n        /* \"#utility.yul\":3070:3168   */\n    tag_184:\n        /* \"#utility.yul\":3121:3127   */\n      0x00\n        /* \"#utility.yul\":3155:3160   */\n      dup2\n        /* \"#utility.yul\":3149:3161   */\n      mload\n        /* \"#utility.yul\":3139:3161   */\n      swap1\n      pop\n        /* \"#utility.yul\":3070:3168   */\n      swap2\n      swap1\n      pop\n      jump\t// out\n        /* \"#utility.yul\":3174:3350   */\n    tag_185:\n        /* \"#utility.yul\":3265:3276   */\n      0x00\n        /* \"#utility.yul\":3299:3305   */\n      dup3\n        /* \"#utility.yul\":3294:3297   */\n      dup3\n        /* \"#utility.yul\":3287:3306   */\n      mstore\n        /* \"#utility.yul\":3339:3343   */\n      0x20\n        /* \"#utility.yul\":3334:3337   */\n      dup3\n        /* \"#utility.yul\":3330:3344   */\n      add\n        /* \"#utility.yul\":3315:3344   */\n      swap1\n      pop\n        /* \"#utility.yul\":3174:3350   */\n      swap3\n      swap2\n      pop\n      pop\n      jump\t// out\n        /* \"#utility.yul\":3356:3495   */\n    tag_186:\n        /* \"#utility.yul\":3445:3451   */\n      dup3\n        /* \"#utility.yul\":3440:3443   */\n      dup2\n        /* \"#utility.yul\":3435:3438   */\n      dup4\n        /* \"#utility.yul\":3429:3452   */\n      mcopy\n        /* \"#utility.yul\":3486:3487   */\n      0x00\n        /* \"#utility.yul\":3477:3483   */\n      dup4\n        /* \"#utility.yul\":3472:3475   */\n      dup4\n        /* \"#utility.yul\":3468:3484   */\n      add\n        /* \"#utility.yul\":3461:3488   */\n      mstore\n        /* \"#utility.yul\":3356:3495   */\n      pop\n      pop\n      pop\n      jump\t// out\n        /* \"#utility.yul\":3501:3890   */\n    tag_187:\n        /* \"#utility.yul\":3595:3598   */\n      0x00\n        /* \"#utility.yul\":3623:3661   */\n      tag_246\n        /* \"#utility.yul\":3655:3660   */\n      dup3\n        /* \"#utility.yul\":3623:3661   */\n      tag_184\n      jump\t// in\n    tag_246:\n        /* \"#utility.yul\":3677:3755   */\n      tag_247\n        /* \"#utility.yul\":3748:3754   */\n      dup2\n        /* \"#utility.yul\":3743:3746   */\n      dup6\n        /* \"#utility.yul\":3677:3755   */\n      tag_185\n      jump\t// in\n    tag_247:\n        /* \"#utility.yul\":3670:3755   */\n      swap4\n      pop\n        /* \"#utility.yul\":3764:3829   */\n      tag_248\n        /* \"#utility.yul\":3822:3828   */\n      dup2\n        /* \"#utility.yul\":3817:3820   */\n      dup6\n        /* \"#utility.yul\":3810:3814   */\n      0x20\n        /* \"#utility.yul\":3803:3808   */\n      dup7\n        /* \"#utility.yul\":3799:3815   */\n      add\n        /* \"#utility.yul\":3764:3829   */\n      tag_186\n      jump\t// in\n    tag_248:\n        /* \"#utility.yul\":3854:3883   */\n      tag_249\n        /* \"#utility.yul\":3876:3882   */\n      dup2\n        /* \"#utility.yul\":3854:3883   */\n      tag_177\n      jump\t// in\n    tag_249:\n        /* \"#utility.yul\":3849:3852   */\n      dup5\n        /* \"#utility.yul\":3845:3884   */\n      add\n        /* \"#utility.yul\":3838:3884   */\n      swap2\n      pop\n        /* \"#utility.yul\":3599:3890   */\n      pop\n        /* \"#utility.yul\":3501:3890   */\n      swap3\n      swap2\n      pop\n      pop\n      jump\t// out\n        /* \"#utility.yul\":3896:4221   */\n    tag_15:\n        /* \"#utility.yul\":4015:4019   */\n      0x00\n        /* \"#utility.yul\":4053:4055   */\n      0x20\n        /* \"#utility.yul\":4042:4051   */\n      dup3\n        /* \"#utility.yul\":4038:4056   */\n      add\n        /* \"#utility.yul\":4030:4056   */\n      swap1\n      pop\n        /* \"#utility.yul\":4102:4111   */\n      dup2\n        /* \"#utility.yul\":4096:4100   */\n      dup2\n        /* \"#utility.yul\":4092:4112   */\n      sub\n        /* \"#utility.yul\":4088:4089   */\n      0x00\n        /* \"#utility.yul\":4077:4086   */\n      dup4\n        /* \"#utility.yul\":4073:4090   */\n      add\n        /* \"#utility.yul\":4066:4113   */\n      mstore\n        /* \"#utility.yul\":4130:4214   */\n      tag_251\n        /* \"#utility.yul\":4209:4213   */\n      dup2\n        /* \"#utility.yul\":4200:4206   */\n      dup5\n        /* \"#utility.yul\":4130:4214   */\n      tag_187\n      jump\t// in\n    tag_251:\n        /* \"#utility.yul\":4122:4214   */\n      swap1\n      pop\n        /* \"#utility.yul\":3896:4221   */\n      swap3\n      swap2\n      pop\n      pop\n      jump\t// out\n        /* \"#utility.yul\":4227:4534   */\n    tag_188:\n        /* \"#utility.yul\":4288:4292   */\n      0x00\n        /* \"#utility.yul\":4378:4396   */\n      0xffffffffffffffff\n        /* \"#utility.yul\":4370:4376   */\n      dup3\n        /* \"#utility.yul\":4367:4397   */\n      gt\n        /* \"#utility.yul\":4364:4420   */\n      iszero\n      tag_253\n      jumpi\n        /* \"#utility.yul\":4400:4418   */\n      tag_254\n      tag_59\n      jump\t// in\n    tag_254:\n        /* \"#utility.yul\":4364:4420   */\n    tag_253:\n        /* \"#utility.yul\":4438:4467   */\n      tag_255\n        /* \"#utility.yul\":4460:4466   */\n      dup3\n        /* \"#utility.yul\":4438:4467   */\n      tag_177\n      jump\t// in\n    tag_255:\n        /* \"#utility.yul\":4430:4467   */\n      swap1\n      pop\n        /* \"#utility.yul\":4522:4526   */\n      0x20\n        /* \"#utility.yul\":4516:4520   */\n      dup2\n        /* \"#utility.yul\":4512:4527   */\n      add\n        /* \"#utility.yul\":4504:4527   */\n      swap1\n      pop\n        /* \"#utility.yul\":4227:4534   */\n      swap2\n      swap1\n      pop\n      jump\t// out\n        /* \"#utility.yul\":4540:4963   */\n    tag_189:\n        /* \"#utility.yul\":4617:4622   */\n      0x00\n        /* \"#utility.yul\":4642:4707   */\n      tag_257\n        /* \"#utility.yul\":4658:4706   */\n      tag_258\n        /* \"#utility.yul\":4699:4705   */\n      dup5\n        /* \"#utility.yul\":4658:4706   */\n      tag_188\n      jump\t// in\n    tag_258:\n        /* \"#utility.yul\":4642:4707   */\n      tag_179\n      jump\t// in\n    tag_257:\n        /* \"#utility.yul\":4633:4707   */\n      swap1\n      pop\n        /* \"#utility.yul\":4730:4736   */\n      dup3\n        /* \"#utility.yul\":4723:4728   */\n      dup2\n        /* \"#utility.yul\":4716:4737   */\n      mstore\n        /* \"#utility.yul\":4768:4772   */\n      0x20\n        /* \"#utility.yul\":4761:4766   */\n      dup2\n        /* \"#utility.yul\":4757:4773   */\n      add\n        /* \"#utility.yul\":4806:4809   */\n      dup5\n        /* \"#utility.yul\":4797:4803   */\n      dup5\n        /* \"#utility.yul\":4792:4795   */\n      dup5\n        /* \"#utility.yul\":4788:4804   */\n      add\n        /* \"#utility.yul\":4785:4810   */\n      gt\n        /* \"#utility.yul\":4782:4894   */\n      iszero\n      tag_259\n      jumpi\n        /* \"#utility.yul\":4813:4892   */\n      tag_260\n      tag_176\n      jump\t// in\n    tag_260:\n        /* \"#utility.yul\":4782:4894   */\n    tag_259:\n        /* \"#utility.yul\":4903:4957   */\n      tag_261\n        /* \"#utility.yul\":4950:4956   */\n      dup5\n        /* \"#utility.yul\":4945:4948   */\n      dup3\n        /* \"#utility.yul\":4940:4943   */\n      dup6\n        /* \"#utility.yul\":4903:4957   */\n      tag_181\n      jump\t// in\n    tag_261:\n        /* \"#utility.yul\":4623:4963   */\n      pop\n        /* \"#utility.yul\":4540:4963   */\n      swap4\n      swap3\n      pop\n      pop\n      pop\n      jump\t// out\n        /* \"#utility.yul\":4982:5320   */\n    tag_190:\n        /* \"#utility.yul\":5037:5042   */\n      0x00\n        /* \"#utility.yul\":5086:5089   */\n      dup3\n        /* \"#utility.yul\":5079:5083   */\n      0x1f\n        /* \"#utility.yul\":5071:5077   */\n      dup4\n        /* \"#utility.yul\":5067:5084   */\n      add\n        /* \"#utility.yul\":5063:5090   */\n      slt\n        /* \"#utility.yul\":5053:5175   */\n      tag_263\n      jumpi\n        /* \"#utility.yul\":5094:5173   */\n      tag_264\n      tag_175\n      jump\t// in\n    tag_264:\n        /* \"#utility.yul\":5053:5175   */\n    tag_263:\n        /* \"#utility.yul\":5211:5217   */\n      dup2\n        /* \"#utility.yul\":5198:5218   */\n      calldataload\n        /* \"#utility.yul\":5236:5314   */\n      tag_265\n        /* \"#utility.yul\":5310:5313   */\n      dup5\n        /* \"#utility.yul\":5302:5308   */\n      dup3\n        /* \"#utility.yul\":5295:5299   */\n      0x20\n        /* \"#utility.yul\":5287:5293   */\n      dup7\n        /* \"#utility.yul\":5283:5300   */\n      add\n        /* \"#utility.yul\":5236:5314   */\n      tag_189\n      jump\t// in\n    tag_265:\n        /* \"#utility.yul\":5227:5314   */\n      swap2\n      pop\n        /* \"#utility.yul\":5043:5320   */\n      pop\n        /* \"#utility.yul\":4982:5320   */\n      swap3\n      swap2\n      pop\n      pop\n      jump\t// out\n        /* \"#utility.yul\":5326:5833   */\n    tag_18:\n        /* \"#utility.yul\":5394:5400   */\n      0x00\n        /* \"#utility.yul\":5443:5445   */\n      0x20\n        /* \"#utility.yul\":5431:5440   */\n      dup3\n        /* \"#utility.yul\":5422:5429   */\n      dup5\n        /* \"#utility.yul\":5418:5441   */\n      sub\n        /* \"#utility.yul\":5414:5446   */\n      slt\n        /* \"#utility.yul\":5411:5530   */\n      iszero\n      tag_267\n      jumpi\n        /* \"#utility.yul\":5449:5528   */\n      tag_268\n      tag_173\n      jump\t// in\n    tag_268:\n        /* \"#utility.yul\":5411:5530   */\n    tag_267:\n        /* \"#utility.yul\":5597:5598   */\n      0x00\n        /* \"#utility.yul\":5586:5595   */\n      dup3\n        /* \"#utility.yul\":5582:5599   */\n      add\n        /* \"#utility.yul\":5569:5600   */\n      calldataload\n        /* \"#utility.yul\":5627:5645   */\n      0xffffffffffffffff\n        /* \"#utility.yul\":5619:5625   */\n      dup2\n        /* \"#utility.yul\":5616:5646   */\n      gt\n        /* \"#utility.yul\":5613:5730   */\n      iszero\n      tag_269\n      jumpi\n        /* \"#utility.yul\":5649:5728   */\n      tag_270\n      tag_174\n      jump\t// in\n    tag_270:\n        /* \"#utility.yul\":5613:5730   */\n    tag_269:\n        /* \"#utility.yul\":5754:5816   */\n      tag_271\n        /* \"#utility.yul\":5808:5815   */\n      dup5\n        /* \"#utility.yul\":5799:5805   */\n      dup3\n        /* \"#utility.yul\":5788:5797   */\n      dup6\n        /* \"#utility.yul\":5784:5806   */\n      add\n        /* \"#utility.yul\":5754:5816   */\n      tag_190\n      jump\t// in\n    tag_271:\n        /* \"#utility.yul\":5744:5816   */\n      swap2\n      pop\n        /* \"#utility.yul\":5540:5826   */\n      pop\n        /* \"#utility.yul\":5326:5833   */\n      swap3\n      swap2\n      pop\n      pop\n      jump\t// out\n        /* \"#utility.yul\":5839:5938   */\n    tag_191:\n        /* \"#utility.yul\":5891:5897   */\n      0x00\n        /* \"#utility.yul\":5925:5930   */\n      dup2\n        /* \"#utility.yul\":5919:5931   */\n      mload\n        /* \"#utility.yul\":5909:5931   */\n      swap1\n      pop\n        /* \"#utility.yul\":5839:5938   */\n      swap2\n      swap1\n      pop\n      jump\t// out\n        /* \"#utility.yul\":5944:6121   */\n    tag_192:\n        /* \"#utility.yul\":6036:6047   */\n      0x00\n        /* \"#utility.yul\":6070:6076   */\n      dup3\n        /* \"#utility.yul\":6065:6068   */\n      dup3\n        /* \"#utility.yul\":6058:6077   */\n      mstore\n        /* \"#utility.yul\":6110:6114   */\n      0x20\n        /* \"#utility.yul\":6105:6108   */\n      dup3\n        /* \"#utility.yul\":6101:6115   */\n      add\n        /* \"#utility.yul\":6086:6115   */\n      swap1\n      pop\n        /* \"#utility.yul\":5944:6121   */\n      swap3\n      swap2\n      pop\n      pop\n      jump\t// out\n        /* \"#utility.yul\":6127:6520   */\n    tag_193:\n        /* \"#utility.yul\":6223:6226   */\n      0x00\n        /* \"#utility.yul\":6251:6290   */\n      tag_275\n        /* \"#utility.yul\":6284:6289   */\n      dup3\n        /* \"#utility.yul\":6251:6290   */\n      tag_191\n      jump\t// in\n    tag_275:\n        /* \"#utility.yul\":6306:6385   */\n      tag_276\n        /* \"#utility.yul\":6378:6384   */\n      dup2\n        /* \"#utility.yul\":6373:6376   */\n      dup6\n        /* \"#utility.yul\":6306:6385   */\n      tag_192\n      jump\t// in\n    tag_276:\n        /* \"#utility.yul\":6299:6385   */\n      swap4\n      pop\n        /* \"#utility.yul\":6394:6459   */\n      tag_277\n        /* \"#utility.yul\":6452:6458   */\n      dup2\n        /* \"#utility.yul\":6447:6450   */\n      dup6\n        /* \"#utility.yul\":6440:6444   */\n      0x20\n        /* \"#utility.yul\":6433:6438   */\n      dup7\n        /* \"#utility.yul\":6429:6445   */\n      add\n        /* \"#utility.yul\":6394:6459   */\n      tag_186\n      jump\t// in\n    tag_277:\n        /* \"#utility.yul\":6484:6513   */\n      tag_278\n        /* \"#utility.yul\":6506:6512   */\n      dup2\n        /* \"#utility.yul\":6484:6513   */\n      tag_177\n      jump\t// in\n    tag_278:\n        /* \"#utility.yul\":6479:6482   */\n      dup5\n        /* \"#utility.yul\":6475:6514   */\n      add\n        /* \"#utility.yul\":6468:6514   */\n      swap2\n      pop\n        /* \"#utility.yul\":6227:6520   */\n      pop\n        /* \"#utility.yul\":6127:6520   */\n      swap3\n      swap2\n      pop\n      pop\n      jump\t// out\n        /* \"#utility.yul\":6526:6855   */\n    tag_25:\n        /* \"#utility.yul\":6647:6651   */\n      0x00\n        /* \"#utility.yul\":6685:6687   */\n      0x20\n        /* \"#utility.yul\":6674:6683   */\n      dup3\n        /* \"#utility.yul\":6670:6688   */\n      add\n        /* \"#utility.yul\":6662:6688   */\n      swap1\n      pop\n        /* \"#utility.yul\":6734:6743   */\n      dup2\n        /* \"#utility.yul\":6728:6732   */\n      dup2\n        /* \"#utility.yul\":6724:6744   */\n      sub\n        /* \"#utility.yul\":6720:6721   */\n      0x00\n        /* \"#utility.yul\":6709:6718   */\n      dup4\n        /* \"#utility.yul\":6705:6722   */\n      add\n        /* \"#utility.yul\":6698:6745   */\n      mstore\n        /* \"#utility.yul\":6762:6848   */\n      tag_280\n        /* \"#utility.yul\":6843:6847   */\n      dup2\n        /* \"#utility.yul\":6834:6840   */\n      dup5\n        /* \"#utility.yul\":6762:6848   */\n      tag_193\n      jump\t// in\n    tag_280:\n        /* \"#utility.yul\":6754:6848   */\n      swap1\n      pop\n        /* \"#utility.yul\":6526:6855   */\n      swap3\n      swap2\n      pop\n      pop\n      jump\t// out\n        /* \"#utility.yul\":6861:7010   */\n    tag_194:\n        /* \"#utility.yul\":6897:6904   */\n      0x00\n        /* \"#utility.yul\":6937:7003   */\n      0xff00000000000000000000000000000000000000000000000000000000000000\n        /* \"#utility.yul\":6930:6935   */\n      dup3\n        /* \"#utility.yul\":6926:7004   */\n      and\n        /* \"#utility.yul\":6915:7004   */\n      swap1\n      pop\n        /* \"#utility.yul\":6861:7010   */\n      swap2\n      swap1\n      pop\n      jump\t// out\n        /* \"#utility.yul\":7016:7136   */\n    tag_195:\n        /* \"#utility.yul\":7088:7111   */\n      tag_283\n        /* \"#utility.yul\":7105:7110   */\n      dup2\n        /* \"#utility.yul\":7088:7111   */\n      tag_194\n      jump\t// in\n    tag_283:\n        /* \"#utility.yul\":7081:7086   */\n      dup2\n        /* \"#utility.yul\":7078:7112   */\n      eq\n        /* \"#utility.yul\":7068:7130   */\n      tag_284\n      jumpi\n        /* \"#utility.yul\":7126:7127   */\n      0x00\n        /* \"#utility.yul\":7123:7124   */\n      dup1\n        /* \"#utility.yul\":7116:7128   */\n      revert\n        /* \"#utility.yul\":7068:7130   */\n    tag_284:\n        /* \"#utility.yul\":7016:7136   */\n      pop\n      jump\t// out\n        /* \"#utility.yul\":7142:7279   */\n    tag_196:\n        /* \"#utility.yul\":7187:7192   */\n      0x00\n        /* \"#utility.yul\":7225:7231   */\n      dup2\n        /* \"#utility.yul\":7212:7232   */\n      calldataload\n        /* \"#utility.yul\":7203:7232   */\n      swap1\n      pop\n        /* \"#utility.yul\":7241:7273   */\n      tag_286\n        /* \"#utility.yul\":7267:7272   */\n      dup2\n        /* \"#utility.yul\":7241:7273   */\n      tag_195\n      jump\t// in\n    tag_286:\n        /* \"#utility.yul\":7142:7279   */\n      swap3\n      swap2\n      pop\n      pop\n      jump\t// out\n        /* \"#utility.yul\":7285:7935   */\n    tag_32:\n        /* \"#utility.yul\":7361:7367   */\n      0x00\n        /* \"#utility.yul\":7369:7375   */\n      dup1\n        /* \"#utility.yul\":7418:7420   */\n      0x40\n        /* \"#utility.yul\":7406:7415   */\n      dup4\n        /* \"#utility.yul\":7397:7404   */\n      dup6\n        /* \"#utility.yul\":7393:7416   */\n      sub\n        /* \"#utility.yul\":7389:7421   */\n      slt\n        /* \"#utility.yul\":7386:7505   */\n      iszero\n      tag_288\n      jumpi\n        /* \"#utility.yul\":7424:7503   */\n      tag_289\n      tag_173\n      jump\t// in\n    tag_289:\n        /* \"#utility.yul\":7386:7505   */\n    tag_288:\n        /* \"#utility.yul\":7572:7573   */\n      0x00\n        /* \"#utility.yul\":7561:7570   */\n      dup4\n        /* \"#utility.yul\":7557:7574   */\n      add\n        /* \"#utility.yul\":7544:7575   */\n      calldataload\n        /* \"#utility.yul\":7602:7620   */\n      0xffffffffffffffff\n        /* \"#utility.yul\":7594:7600   */\n      dup2\n        /* \"#utility.yul\":7591:7621   */\n      gt\n        /* \"#utility.yul\":7588:7705   */\n      iszero\n      tag_290\n      jumpi\n        /* \"#utility.yul\":7624:7703   */\n      tag_291\n      tag_174\n      jump\t// in\n    tag_291:\n        /* \"#utility.yul\":7588:7705   */\n    tag_290:\n        /* \"#utility.yul\":7729:7791   */\n      tag_292\n        /* \"#utility.yul\":7783:7790   */\n      dup6\n        /* \"#utility.yul\":7774:7780   */\n      dup3\n        /* \"#utility.yul\":7763:7772   */\n      dup7\n        /* \"#utility.yul\":7759:7781   */\n      add\n        /* \"#utility.yul\":7729:7791   */\n      tag_190\n      jump\t// in\n    tag_292:\n        /* \"#utility.yul\":7719:7791   */\n      swap3\n      pop\n        /* \"#utility.yul\":7515:7801   */\n      pop\n        /* \"#utility.yul\":7840:7842   */\n      0x20\n        /* \"#utility.yul\":7866:7918   */\n      tag_293\n        /* \"#utility.yul\":7910:7917   */\n      dup6\n        /* \"#utility.yul\":7901:7907   */\n      dup3\n        /* \"#utility.yul\":7890:7899   */\n      dup7\n        /* \"#utility.yul\":7886:7908   */\n      add\n        /* \"#utility.yul\":7866:7918   */\n      tag_196\n      jump\t// in\n    tag_293:\n        /* \"#utility.yul\":7856:7918   */\n      swap2\n      pop\n        /* \"#utility.yul\":7811:7928   */\n      pop\n        /* \"#utility.yul\":7285:7935   */\n      swap3\n      pop\n      swap3\n      swap1\n      pop\n      jump\t// out\n        /* \"#utility.yul\":7941:8018   */\n    tag_197:\n        /* \"#utility.yul\":7978:7985   */\n      0x00\n        /* \"#utility.yul\":8007:8012   */\n      dup2\n        /* \"#utility.yul\":7996:8012   */\n      swap1\n      pop\n        /* \"#utility.yul\":7941:8018   */\n      swap2\n      swap1\n      pop\n      jump\t// out\n        /* \"#utility.yul\":8024:8150   */\n    tag_198:\n        /* \"#utility.yul\":8119:8143   */\n      tag_296\n        /* \"#utility.yul\":8137:8142   */\n      dup2\n        /* \"#utility.yul\":8119:8143   */\n      tag_197\n      jump\t// in\n    tag_296:\n        /* \"#utility.yul\":8114:8117   */\n      dup3\n        /* \"#utility.yul\":8107:8144   */\n      mstore\n        /* \"#utility.yul\":8024:8150   */\n      pop\n      pop\n      jump\t// out\n        /* \"#utility.yul\":8156:8246   */\n    tag_199:\n        /* \"#utility.yul\":8190:8197   */\n      0x00\n        /* \"#utility.yul\":8233:8238   */\n      dup2\n        /* \"#utility.yul\":8226:8239   */\n      iszero\n        /* \"#utility.yul\":8219:8240   */\n      iszero\n        /* \"#utility.yul\":8208:8240   */\n      swap1\n      pop\n        /* \"#utility.yul\":8156:8246   */\n      swap2\n      swap1\n      pop\n      jump\t// out\n        /* \"#utility.yul\":8252:8369   */\n    tag_200:\n        /* \"#utility.yul\":8341:8362   */\n      tag_299\n        /* \"#utility.yul\":8356:8361   */\n      dup2\n        /* \"#utility.yul\":8341:8362   */\n      tag_199\n      jump\t// in\n    tag_299:\n        /* \"#utility.yul\":8336:8339   */\n      dup3\n        /* \"#utility.yul\":8329:8363   */\n      mstore\n        /* \"#utility.yul\":8252:8369   */\n      pop\n      pop\n      jump\t// out\n        /* \"#utility.yul\":8375:8719   */\n    tag_35:\n        /* \"#utility.yul\":8498:8502   */\n      0x00\n        /* \"#utility.yul\":8536:8538   */\n      0x40\n        /* \"#utility.yul\":8525:8534   */\n      dup3\n        /* \"#utility.yul\":8521:8539   */\n      add\n        /* \"#utility.yul\":8513:8539   */\n      swap1\n      pop\n        /* \"#utility.yul\":8549:8628   */\n      tag_301\n        /* \"#utility.yul\":8625:8626   */\n      0x00\n        /* \"#utility.yul\":8614:8623   */\n      dup4\n        /* \"#utility.yul\":8610:8627   */\n      add\n        /* \"#utility.yul\":8601:8607   */\n      dup6\n        /* \"#utility.yul\":8549:8628   */\n      tag_198\n      jump\t// in\n    tag_301:\n        /* \"#utility.yul\":8638:8712   */\n      tag_302\n        /* \"#utility.yul\":8708:8710   */\n      0x20\n        /* \"#utility.yul\":8697:8706   */\n      dup4\n        /* \"#utility.yul\":8693:8711   */\n      add\n        /* \"#utility.yul\":8684:8690   */\n      dup5\n        /* \"#utility.yul\":8638:8712   */\n      tag_200\n      jump\t// in\n    tag_302:\n        /* \"#utility.yul\":8375:8719   */\n      swap4\n      swap3\n      pop\n      pop\n      pop\n      jump\t// out\n        /* \"#utility.yul\":8725:8847   */\n    tag_201:\n        /* \"#utility.yul\":8798:8822   */\n      tag_304\n        /* \"#utility.yul\":8816:8821   */\n      dup2\n        /* \"#utility.yul\":8798:8822   */\n      tag_197\n      jump\t// in\n    tag_304:\n        /* \"#utility.yul\":8791:8796   */\n      dup2\n        /* \"#utility.yul\":8788:8823   */\n      eq\n        /* \"#utility.yul\":8778:8841   */\n      tag_305\n      jumpi\n        /* \"#utility.yul\":8837:8838   */\n      0x00\n        /* \"#utility.yul\":8834:8835   */\n      dup1\n        /* \"#utility.yul\":8827:8839   */\n      revert\n        /* \"#utility.yul\":8778:8841   */\n    tag_305:\n        /* \"#utility.yul\":8725:8847   */\n      pop\n      jump\t// out\n        /* \"#utility.yul\":8853:8992   */\n    tag_202:\n        /* \"#utility.yul\":8899:8904   */\n      0x00\n        /* \"#utility.yul\":8937:8943   */\n      dup2\n        /* \"#utility.yul\":8924:8944   */\n      calldataload\n        /* \"#utility.yul\":8915:8944   */\n      swap1\n      pop\n        /* \"#utility.yul\":8953:8986   */\n      tag_307\n        /* \"#utility.yul\":8980:8985   */\n      dup2\n        /* \"#utility.yul\":8953:8986   */\n      tag_201\n      jump\t// in\n    tag_307:\n        /* \"#utility.yul\":8853:8992   */\n      swap3\n      swap2\n      pop\n      pop\n      jump\t// out\n        /* \"#utility.yul\":8998:9795   */\n    tag_38:\n        /* \"#utility.yul\":9084:9090   */\n      0x00\n        /* \"#utility.yul\":9092:9098   */\n      dup1\n        /* \"#utility.yul\":9100:9106   */\n      0x00\n        /* \"#utility.yul\":9149:9151   */\n      0x60\n        /* \"#utility.yul\":9137:9146   */\n      dup5\n        /* \"#utility.yul\":9128:9135   */\n      dup7\n        /* \"#utility.yul\":9124:9147   */\n      sub\n        /* \"#utility.yul\":9120:9152   */\n      slt\n        /* \"#utility.yul\":9117:9236   */\n      iszero\n      tag_309\n      jumpi\n        /* \"#utility.yul\":9155:9234   */\n      tag_310\n      tag_173\n      jump\t// in\n    tag_310:\n        /* \"#utility.yul\":9117:9236   */\n    tag_309:\n        /* \"#utility.yul\":9303:9304   */\n      0x00\n        /* \"#utility.yul\":9292:9301   */\n      dup5\n        /* \"#utility.yul\":9288:9305   */\n      add\n        /* \"#utility.yul\":9275:9306   */\n      calldataload\n        /* \"#utility.yul\":9333:9351   */\n      0xffffffffffffffff\n        /* \"#utility.yul\":9325:9331   */\n      dup2\n        /* \"#utility.yul\":9322:9352   */\n      gt\n        /* \"#utility.yul\":9319:9436   */\n      iszero\n      tag_311\n      jumpi\n        /* \"#utility.yul\":9355:9434   */\n      tag_312\n      tag_174\n      jump\t// in\n    tag_312:\n        /* \"#utility.yul\":9319:9436   */\n    tag_311:\n        /* \"#utility.yul\":9460:9522   */\n      tag_313\n        /* \"#utility.yul\":9514:9521   */\n      dup7\n        /* \"#utility.yul\":9505:9511   */\n      dup3\n        /* \"#utility.yul\":9494:9503   */\n      dup8\n        /* \"#utility.yul\":9490:9512   */\n      add\n        /* \"#utility.yul\":9460:9522   */\n      tag_190\n      jump\t// in\n    tag_313:\n        /* \"#utility.yul\":9450:9522   */\n      swap4\n      pop\n        /* \"#utility.yul\":9246:9532   */\n      pop\n        /* \"#utility.yul\":9571:9573   */\n      0x20\n        /* \"#utility.yul\":9597:9650   */\n      tag_314\n        /* \"#utility.yul\":9642:9649   */\n      dup7\n        /* \"#utility.yul\":9633:9639   */\n      dup3\n        /* \"#utility.yul\":9622:9631   */\n      dup8\n        /* \"#utility.yul\":9618:9640   */\n      add\n        /* \"#utility.yul\":9597:9650   */\n      tag_202\n      jump\t// in\n    tag_314:\n        /* \"#utility.yul\":9587:9650   */\n      swap3\n      pop\n        /* \"#utility.yul\":9542:9660   */\n      pop\n        /* \"#utility.yul\":9699:9701   */\n      0x40\n        /* \"#utility.yul\":9725:9778   */\n      tag_315\n        /* \"#utility.yul\":9770:9777   */\n      dup7\n        /* \"#utility.yul\":9761:9767   */\n      dup3\n        /* \"#utility.yul\":9750:9759   */\n      dup8\n        /* \"#utility.yul\":9746:9768   */\n      add\n        /* \"#utility.yul\":9725:9778   */\n      tag_202\n      jump\t// in\n    tag_315:\n        /* \"#utility.yul\":9715:9778   */\n      swap2\n      pop\n        /* \"#utility.yul\":9670:9788   */\n      pop\n        /* \"#utility.yul\":8998:9795   */\n      swap3\n      pop\n      swap3\n      pop\n      swap3\n      jump\t// out\n        /* \"#utility.yul\":9801:9981   */\n    tag_53:\n        /* \"#utility.yul\":9849:9926   */\n      0x4e487b7100000000000000000000000000000000000000000000000000000000\n        /* \"#utility.yul\":9846:9847   */\n      0x00\n        /* \"#utility.yul\":9839:9927   */\n      mstore\n        /* \"#utility.yul\":9946:9950   */\n      0x32\n        /* \"#utility.yul\":9943:9944   */\n      0x04\n        /* \"#utility.yul\":9936:9951   */\n      mstore\n        /* \"#utility.yul\":9970:9974   */\n      0x24\n        /* \"#utility.yul\":9967:9968   */\n      0x00\n        /* \"#utility.yul\":9960:9975   */\n      revert\n        /* \"#utility.yul\":9987:10167   */\n    tag_56:\n        /* \"#utility.yul\":10035:10112   */\n      0x4e487b7100000000000000000000000000000000000000000000000000000000\n        /* \"#utility.yul\":10032:10033   */\n      0x00\n        /* \"#utility.yul\":10025:10113   */\n      mstore\n        /* \"#utility.yul\":10132:10136   */\n      0x12\n        /* \"#utility.yul\":10129:10130   */\n      0x04\n        /* \"#utility.yul\":10122:10137   */\n      mstore\n        /* \"#utility.yul\":10156:10160   */\n      0x24\n        /* \"#utility.yul\":10153:10154   */\n      0x00\n        /* \"#utility.yul\":10146:10161   */\n      revert\n        /* \"#utility.yul\":10173:10342   */\n    tag_203:\n        /* \"#utility.yul\":10257:10268   */\n      0x00\n        /* \"#utility.yul\":10291:10297   */\n      dup3\n        /* \"#utility.yul\":10286:10289   */\n      dup3\n        /* \"#utility.yul\":10279:10298   */\n      mstore\n        /* \"#utility.yul\":10331:10335   */\n      0x20\n        /* \"#utility.yul\":10326:10329   */\n      dup3\n        /* \"#utility.yul\":10322:10336   */\n      add\n        /* \"#utility.yul\":10307:10336   */\n      swap1\n      pop\n        /* \"#utility.yul\":10173:10342   */\n      swap3\n      swap2\n      pop\n      pop\n      jump\t// out\n        /* \"#utility.yul\":10348:10518   */\n    tag_204:\n        /* \"#utility.yul\":10488:10510   */\n      0x696e76616c696420626173653538206469676974000000000000000000000000\n        /* \"#utility.yul\":10484:10485   */\n      0x00\n        /* \"#utility.yul\":10476:10482   */\n      dup3\n        /* \"#utility.yul\":10472:10486   */\n      add\n        /* \"#utility.yul\":10465:10511   */\n      mstore\n        /* \"#utility.yul\":10348:10518   */\n      pop\n      jump\t// out\n        /* \"#utility.yul\":10524:10890   */\n    tag_205:\n        /* \"#utility.yul\":10666:10669   */\n      0x00\n        /* \"#utility.yul\":10687:10754   */\n      tag_321\n        /* \"#utility.yul\":10751:10753   */\n      0x14\n        /* \"#utility.yul\":10746:10749   */\n      dup4\n        /* \"#utility.yul\":10687:10754   */\n      tag_203\n      jump\t// in\n    tag_321:\n        /* \"#utility.yul\":10680:10754   */\n      swap2\n      pop\n        /* \"#utility.yul\":10763:10856   */\n      tag_322\n        /* \"#utility.yul\":10852:10855   */\n      dup3\n        /* \"#utility.yul\":10763:10856   */\n      tag_204\n      jump\t// in\n    tag_322:\n        /* \"#utility.yul\":10881:10883   */\n      0x20\n        /* \"#utility.yul\":10876:10879   */\n      dup3\n        /* \"#utility.yul\":10872:10884   */\n      add\n        /* \"#utility.yul\":10865:10884   */\n      swap1\n      pop\n        /* \"#utility.yul\":10524:10890   */\n      swap2\n      swap1\n      pop\n      jump\t// out\n        /* \"#utility.yul\":10896:11315   */\n    tag_143:\n        /* \"#utility.yul\":11062:11066   */\n      0x00\n        /* \"#utility.yul\":11100:11102   */\n      0x20\n        /* \"#utility.yul\":11089:11098   */\n      dup3\n        /* \"#utility.yul\":11085:11103   */\n      add\n        /* \"#utility.yul\":11077:11103   */\n      swap1\n      pop\n        /* \"#utility.yul\":11149:11158   */\n      dup2\n        /* \"#utility.yul\":11143:11147   */\n      dup2\n        /* \"#utility.yul\":11139:11159   */\n      sub\n        /* \"#utility.yul\":11135:11136   */\n      0x00\n        /* \"#utility.yul\":11124:11133   */\n      dup4\n        /* \"#utility.yul\":11120:11137   */\n      add\n        /* \"#utility.yul\":11113:11160   */\n      mstore\n        /* \"#utility.yul\":11177:11308   */\n      tag_324\n        /* \"#utility.yul\":11303:11307   */\n      dup2\n        /* \"#utility.yul\":11177:11308   */\n      tag_205\n      jump\t// in\n    tag_324:\n        /* \"#utility.yul\":11169:11308   */\n      swap1\n      pop\n        /* \"#utility.yul\":10896:11315   */\n      swap2\n      swap1\n      pop\n      jump\t// out\n    stop\n    data_e72daf94b45f828c6e9fb35ca4f157bc4eef8ccec3cc5bc840ee513b6ee42a62 31323334353637383941424344454647484a4b4c4d4e505152535455565758595a6162636465666768696a6b6d6e6f707172737475767778797a\n\n    auxdata: 0xa264697066735822122028a7c3670b2cbdf9d81b86561d1f959d912fd1282caa7691705bafeb3bd7fb6c64736f6c634300081a0033\n}\n",
				"bytecode": {
					"linkReferences": {},
					"object": "61115261004d600b8282823980515f1a6073146041577f4e487b71000000000000000000000000000000000000000000000000000000005f525f60045260245ffd5b305f52607381538281f3fe7300000000000000000000000000000000000000003014608060405260043610610086575f3560e01c8063529d1bb711610064578063529d1bb71461011a5780638178ff431461014a578063e00413961461017b578063e5c5e9a3146101ab57610086565b8063046a466a1461008a57806312496a1b146100ba57806351c3463c146100ea575b5f80fd5b6100a4600480360381019061009f9190610c54565b6101db565b6040516100b19190610cfb565b60405180910390f35b6100d460048036038101906100cf9190610db9565b6101ed565b6040516100e19190610cfb565b60405180910390f35b61010460048036038101906100ff9190610db9565b610571565b6040516101119190610e52565b60405180910390f35b610134600480360381019061012f9190610c54565b610583565b6040516101419190610cfb565b60405180910390f35b610164600480360381019061015f9190610ec7565b610595565b604051610172929190610f53565b60405180910390f35b61019560048036038101906101909190610fa4565b610633565b6040516101a29190610cfb565b60405180910390f35b6101c560048036038101906101c09190610db9565b61070d565b6040516101d29190610cfb565b60405180910390f35b60606101e68261070d565b9050919050565b60605f825190505f5b818110801561024657505f60f81b84828151811061021757610216611010565b5b602001015160f81c60f81b7effffffffffffffffffffffffffffffffffffffffffffffffffffffffffffff1916145b156102585780806001019150506101f6565b60016117e361209f83850302816102725761027161103d565b5b0482010191505f8267ffffffffffffffff81111561029357610292610b30565b5b6040519080825280601f01601f1916602001820160405280156102c55781602001600182028036833780820191505090505b5090505f805f6001860390505f5b88518110156103e6576001870392508881815181106102f5576102f4611010565b5b602001015160f81c60f81b60f81c60ff1693505b8183138061031d57505f8463ffffffff1614155b156103d65784838151811061033557610334611010565b5b602001015160f81c60f81b60f81c60ff166101000261ffff1684019350603a8463ffffffff16816103695761036861103d565b5b0660f81b8584815181106103805761037f611010565b5b60200101907effffffffffffffffffffffffffffffffffffffffffffffffffffffffffffff191690815f1a905350603a8463ffffffff16816103c5576103c461103d565b5b049350828060019003935050610309565b82915080806001019150506102d3565b505f8590505b868110801561043c57505f60f81b85828151811061040d5761040c611010565b5b602001015160f81c60f81b7effffffffffffffffffffffffffffffffffffffffffffffffffffffffffffff1916145b1561044e5780806001019150506103ec565b85810385510396505f8767ffffffffffffffff81111561047157610470610b30565b5b6040519080825280601f01601f1916602001820160405280156104a35781602001600182028036833780820191505090505b5090505f5b88811015610560575f888483010390506040518060600160405280603a81526020016110e3603a91398882815181106104e4576104e3611010565b5b602001015160f81c60f81b60f81c60ff168151811061050657610505611010565b5b602001015160f81c60f81b83838151811061052457610523611010565b5b60200101907effffffffffffffffffffffffffffffffffffffffffffffffffffffffffffff191690815f1a9053505080806001019150506104a8565b508098505050505050505050919050565b606061057c826101ed565b9050919050565b606061058e826101ed565b9050919050565b5f805f5b845181101561062457837effffffffffffffffffffffffffffffffffffffffffffffffffffffffffffff19168582815181106105d8576105d7611010565b5b602001015160f81c60f81b7effffffffffffffffffffffffffffffffffffffffffffffffffffffffffffff19160361061757806001925092505061062c565b8080600101915050610599565b505f80915091505b9250929050565b60605f83830367ffffffffffffffff81111561065257610651610b30565b5b6040519080825280601f01601f1916602001820160405280156106845781602001600182028036833780820191505090505b5090505f5b8484038110156107015785858201815181106106a8576106a7611010565b5b602001015160f81c60f81b8282815181106106c6576106c5611010565b5b60200101907effffffffffffffffffffffffffffffffffffffffffffffffffffffffffffff191690815f1a9053508080600101915050610689565b50809150509392505050565b60605f603190505f835190505f805b828110801561074d57508386828151811061073a57610739611010565b5b602001015160f81c60f81b60f81c60ff16145b15610767578180600101925050808060010191505061071c565b505f805f8060016117e361209f8802816107845761078361103d565b5b040160020267ffffffffffffffff8111156107a2576107a1610b30565b5b6040519080825280601f01601f1916602001820160405280156107d45781602001600182028036833780820191505090505b5090505f600460038801816107ec576107eb61103d565b5b0467ffffffffffffffff81111561080657610805610b30565b5b6040519080825280602002602001820160405280156108345781602001602082028036833780820191505090505b5090505f5b8a51811015610967575f8b828151811061085657610855611010565b5b602001015160f81c60f81b90506108856040518060600160405280603a81526020016110e3603a913982610595565b8096508197505050846108cd576040517f08c379a00000000000000000000000000000000000000000000000000000000081526004016108c4906110c4565b60405180910390fd5b5f600184510390505b5f81126109585786603a8583815181106108f3576108f2611010565b5b602002602001015163ffffffff160267ffffffffffffffff16019750602088901c965063ffffffff88168482815181106109305761092f611010565b5b602002602001019063ffffffff16908163ffffffff16815250508080600190039150506108d6565b50508080600101915050610839565b505f60086004898161097c5761097b61103d565b5b060290505f8167ffffffffffffffff160361099657602090505b6008810390505f805b8351811015610a64575b60208367ffffffffffffffff161015610a53578267ffffffffffffffff168482815181106109da576109d9611010565b5b602002602001015163ffffffff16901c60f81b858381518110610a00576109ff611010565b5b60200101907effffffffffffffffffffffffffffffffffffffffffffffffffffffffffffff191690815f1a905350818060010192505060088367ffffffffffffffff1610610a53576008830392506109a9565b60189250808060010191505061099f565b505f8890505b8451811015610ae9575f60f81b858281518110610a8a57610a89611010565b5b602001015160f81c60f81b7effffffffffffffffffffffffffffffffffffffffffffffffffffffffffffff19161115610adc57610aca858a830384610633565b9b505050505050505050505050610b02565b8080600101915050610a6a565b50610af5845f83610633565b9a50505050505050505050505b919050565b5f604051905090565b5f80fd5b5f80fd5b5f80fd5b5f80fd5b5f601f19601f8301169050919050565b7f4e487b71000000000000000000000000000000000000000000000000000000005f52604160045260245ffd5b610b6682610b20565b810181811067ffffffffffffffff82111715610b8557610b84610b30565b5b80604052505050565b5f610b97610b07565b9050610ba38282610b5d565b919050565b5f67ffffffffffffffff821115610bc257610bc1610b30565b5b610bcb82610b20565b9050602081019050919050565b828183375f83830152505050565b5f610bf8610bf384610ba8565b610b8e565b905082815260208101848484011115610c1457610c13610b1c565b5b610c1f848285610bd8565b509392505050565b5f82601f830112610c3b57610c3a610b18565b5b8135610c4b848260208601610be6565b91505092915050565b5f60208284031215610c6957610c68610b10565b5b5f82013567ffffffffffffffff811115610c8657610c85610b14565b5b610c9284828501610c27565b91505092915050565b5f81519050919050565b5f82825260208201905092915050565b8281835e5f83830152505050565b5f610ccd82610c9b565b610cd78185610ca5565b9350610ce7818560208601610cb5565b610cf081610b20565b840191505092915050565b5f6020820190508181035f830152610d138184610cc3565b905092915050565b5f67ffffffffffffffff821115610d3557610d34610b30565b5b610d3e82610b20565b9050602081019050919050565b5f610d5d610d5884610d1b565b610b8e565b905082815260208101848484011115610d7957610d78610b1c565b5b610d84848285610bd8565b509392505050565b5f82601f830112610da057610d9f610b18565b5b8135610db0848260208601610d4b565b91505092915050565b5f60208284031215610dce57610dcd610b10565b5b5f82013567ffffffffffffffff811115610deb57610dea610b14565b5b610df784828501610d8c565b91505092915050565b5f81519050919050565b5f82825260208201905092915050565b5f610e2482610e00565b610e2e8185610e0a565b9350610e3e818560208601610cb5565b610e4781610b20565b840191505092915050565b5f6020820190508181035f830152610e6a8184610e1a565b905092915050565b5f7fff0000000000000000000000000000000000000000000000000000000000000082169050919050565b610ea681610e72565b8114610eb0575f80fd5b50565b5f81359050610ec181610e9d565b92915050565b5f8060408385031215610edd57610edc610b10565b5b5f83013567ffffffffffffffff811115610efa57610ef9610b14565b5b610f0685828601610d8c565b9250506020610f1785828601610eb3565b9150509250929050565b5f819050919050565b610f3381610f21565b82525050565b5f8115159050919050565b610f4d81610f39565b82525050565b5f604082019050610f665f830185610f2a565b610f736020830184610f44565b9392505050565b610f8381610f21565b8114610f8d575f80fd5b50565b5f81359050610f9e81610f7a565b92915050565b5f805f60608486031215610fbb57610fba610b10565b5b5f84013567ffffffffffffffff811115610fd857610fd7610b14565b5b610fe486828701610d8c565b9350506020610ff586828701610f90565b925050604061100686828701610f90565b9150509250925092565b7f4e487b71000000000000000000000000000000000000000000000000000000005f52603260045260245ffd5b7f4e487b71000000000000000000000000000000000000000000000000000000005f52601260045260245ffd5b5f82825260208201905092915050565b7f696e76616c6964206261736535382064696769740000000000000000000000005f82015250565b5f6110ae60148361106a565b91506110b98261107a565b602082019050919050565b5f6020820190508181035f8301526110db816110a2565b905091905056fe31323334353637383941424344454647484a4b4c4d4e505152535455565758595a6162636465666768696a6b6d6e6f707172737475767778797aa264697066735822122028a7c3670b2cbdf9d81b86561d1f959d912fd1282caa7691705bafeb3bd7fb6c64736f6c634300081a0033",
					"opcodes": "PUSH2 0x1152 PUSH2 0x4D PUSH1 0xB DUP3 DUP3 DUP3 CODECOPY DUP1 MLOAD PUSH0 BYTE PUSH1 0x73 EQ PUSH1 0x41 JUMPI PUSH32 0x4E487B7100000000000000000000000000000000000000000000000000000000 PUSH0 MSTORE PUSH0 PUSH1 0x4 MSTORE PUSH1 0x24 PUSH0 REVERT JUMPDEST ADDRESS PUSH0 MSTORE PUSH1 0x73 DUP2 MSTORE8 DUP3 DUP2 RETURN INVALID PUSH20 0x0 ADDRESS EQ PUSH1 0x80 PUSH1 0x40 MSTORE PUSH1 0x4 CALLDATASIZE LT PUSH2 0x86 JUMPI PUSH0 CALLDATALOAD PUSH1 0xE0 SHR DUP1 PUSH4 0x529D1BB7 GT PUSH2 0x64 JUMPI DUP1 PUSH4 0x529D1BB7 EQ PUSH2 0x11A JUMPI DUP1 PUSH4 0x8178FF43 EQ PUSH2 0x14A JUMPI DUP1 PUSH4 0xE0041396 EQ PUSH2 0x17B JUMPI DUP1 PUSH4 0xE5C5E9A3 EQ PUSH2 0x1AB JUMPI PUSH2 0x86 JUMP JUMPDEST DUP1 PUSH4 0x46A466A EQ PUSH2 0x8A JUMPI DUP1 PUSH4 0x12496A1B EQ PUSH2 0xBA JUMPI DUP1 PUSH4 0x51C3463C EQ PUSH2 0xEA JUMPI JUMPDEST PUSH0 DUP1 REVERT JUMPDEST PUSH2 0xA4 PUSH1 0x4 DUP1 CALLDATASIZE SUB DUP2 ADD SWAP1 PUSH2 0x9F SWAP2 SWAP1 PUSH2 0xC54 JUMP JUMPDEST PUSH2 0x1DB JUMP JUMPDEST PUSH1 0x40 MLOAD PUSH2 0xB1 SWAP2 SWAP1 PUSH2 0xCFB JUMP JUMPDEST PUSH1 0x40 MLOAD DUP1 SWAP2 SUB SWAP1 RETURN JUMPDEST PUSH2 0xD4 PUSH1 0x4 DUP1 CALLDATASIZE SUB DUP2 ADD SWAP1 PUSH2 0xCF SWAP2 SWAP1 PUSH2 0xDB9 JUMP JUMPDEST PUSH2 0x1ED JUMP JUMPDEST PUSH1 0x40 MLOAD PUSH2 0xE1 SWAP2 SWAP1 PUSH2 0xCFB JUMP JUMPDEST PUSH1 0x40 MLOAD DUP1 SWAP2 SUB SWAP1 RETURN JUMPDEST PUSH2 0x104 PUSH1 0x4 DUP1 CALLDATASIZE SUB DUP2 ADD SWAP1 PUSH2 0xFF SWAP2 SWAP1 PUSH2 0xDB9 JUMP JUMPDEST PUSH2 0x571 JUMP JUMPDEST PUSH1 0x40 MLOAD PUSH2 0x111 SWAP2 SWAP1 PUSH2 0xE52 JUMP JUMPDEST PUSH1 0x40 MLOAD DUP1 SWAP2 SUB SWAP1 RETURN JUMPDEST PUSH2 0x134 PUSH1 0x4 DUP1 CALLDATASIZE SUB DUP2 ADD SWAP1 PUSH2 0x12F SWAP2 SWAP1 PUSH2 0xC54 JUMP JUMPDEST PUSH2 0x583 JUMP JUMPDEST PUSH1 0x40 MLOAD PUSH2 0x141 SWAP2 SWAP1 PUSH2 0xCFB JUMP JUMPDEST PUSH1 0x40 MLOAD DUP1 SWAP2 SUB SWAP1 RETURN JUMPDEST PUSH2 0x164 PUSH1 0x4 DUP1 CALLDATASIZE SUB DUP2 ADD SWAP1 PUSH2 0x15F SWAP2 SWAP1 PUSH2 0xEC7 JUMP JUMPDEST PUSH2 0x595 JUMP JUMPDEST PUSH1 0x40 MLOAD PUSH2 0x172 SWAP3 SWAP2 SWAP1 PUSH2 0xF53 JUMP JUMPDEST PUSH1 0x40 MLOAD DUP1 SWAP2 SUB SWAP1 RETURN JUMPDEST PUSH2 0x195 PUSH1 0x4 DUP1 CALLDATASIZE SUB DUP2 ADD SWAP1 PUSH2 0x190 SWAP2 SWAP1 PUSH2 0xFA4 JUMP JUMPDEST PUSH2 0x633 JUMP JUMPDEST PUSH1 0x40 MLOAD PUSH2 0x1A2 SWAP2 SWAP1 PUSH2 0xCFB JUMP JUMPDEST PUSH1 0x40 MLOAD DUP1 SWAP2 SUB SWAP1 RETURN JUMPDEST PUSH2 0x1C5 PUSH1 0x4 DUP1 CALLDATASIZE SUB DUP2 ADD SWAP1 PUSH2 0x1C0 SWAP2 SWAP1 PUSH2 0xDB9 JUMP JUMPDEST PUSH2 0x70D JUMP JUMPDEST PUSH1 0x40 MLOAD PUSH2 0x1D2 SWAP2 SWAP1 PUSH2 0xCFB JUMP JUMPDEST PUSH1 0x40 MLOAD DUP1 SWAP2 SUB SWAP1 RETURN JUMPDEST PUSH1 0x60 PUSH2 0x1E6 DUP3 PUSH2 0x70D JUMP JUMPDEST SWAP1 POP SWAP2 SWAP1 POP JUMP JUMPDEST PUSH1 0x60 PUSH0 DUP3 MLOAD SWAP1 POP PUSH0 JUMPDEST DUP2 DUP2 LT DUP1 ISZERO PUSH2 0x246 JUMPI POP PUSH0 PUSH1 0xF8 SHL DUP5 DUP3 DUP2 MLOAD DUP2 LT PUSH2 0x217 JUMPI PUSH2 0x216 PUSH2 0x1010 JUMP JUMPDEST JUMPDEST PUSH1 0x20 ADD ADD MLOAD PUSH1 0xF8 SHR PUSH1 0xF8 SHL PUSH31 0xFFFFFFFFFFFFFFFFFFFFFFFFFFFFFFFFFFFFFFFFFFFFFFFFFFFFFFFFFFFFFF NOT AND EQ JUMPDEST ISZERO PUSH2 0x258 JUMPI DUP1 DUP1 PUSH1 0x1 ADD SWAP2 POP POP PUSH2 0x1F6 JUMP JUMPDEST PUSH1 0x1 PUSH2 0x17E3 PUSH2 0x209F DUP4 DUP6 SUB MUL DUP2 PUSH2 0x272 JUMPI PUSH2 0x271 PUSH2 0x103D JUMP JUMPDEST JUMPDEST DIV DUP3 ADD ADD SWAP2 POP PUSH0 DUP3 PUSH8 0xFFFFFFFFFFFFFFFF DUP2 GT ISZERO PUSH2 0x293 JUMPI PUSH2 0x292 PUSH2 0xB30 JUMP JUMPDEST JUMPDEST PUSH1 0x40 MLOAD SWAP1 DUP1 DUP3 MSTORE DUP1 PUSH1 0x1F ADD PUSH1 0x1F NOT AND PUSH1 0x20 ADD DUP3 ADD PUSH1 0x40 MSTORE DUP1 ISZERO PUSH2 0x2C5 JUMPI DUP2 PUSH1 0x20 ADD PUSH1 0x1 DUP3 MUL DUP1 CALLDATASIZE DUP4 CALLDATACOPY DUP1 DUP3 ADD SWAP2 POP POP SWAP1 POP JUMPDEST POP SWAP1 POP PUSH0 DUP1 PUSH0 PUSH1 0x1 DUP7 SUB SWAP1 POP PUSH0 JUMPDEST DUP9 MLOAD DUP2 LT ISZERO PUSH2 0x3E6 JUMPI PUSH1 0x1 DUP8 SUB SWAP3 POP DUP9 DUP2 DUP2 MLOAD DUP2 LT PUSH2 0x2F5 JUMPI PUSH2 0x2F4 PUSH2 0x1010 JUMP JUMPDEST JUMPDEST PUSH1 0x20 ADD ADD MLOAD PUSH1 0xF8 SHR PUSH1 0xF8 SHL PUSH1 0xF8 SHR PUSH1 0xFF AND SWAP4 POP JUMPDEST DUP2 DUP4 SGT DUP1 PUSH2 0x31D JUMPI POP PUSH0 DUP5 PUSH4 0xFFFFFFFF AND EQ ISZERO JUMPDEST ISZERO PUSH2 0x3D6 JUMPI DUP5 DUP4 DUP2 MLOAD DUP2 LT PUSH2 0x335 JUMPI PUSH2 0x334 PUSH2 0x1010 JUMP JUMPDEST JUMPDEST PUSH1 0x20 ADD ADD MLOAD PUSH1 0xF8 SHR PUSH1 0xF8 SHL PUSH1 0xF8 SHR PUSH1 0xFF AND PUSH2 0x100 MUL PUSH2 0xFFFF AND DUP5 ADD SWAP4 POP PUSH1 0x3A DUP5 PUSH4 0xFFFFFFFF AND DUP2 PUSH2 0x369 JUMPI PUSH2 0x368 PUSH2 0x103D JUMP JUMPDEST JUMPDEST MOD PUSH1 0xF8 SHL DUP6 DUP5 DUP2 MLOAD DUP2 LT PUSH2 0x380 JUMPI PUSH2 0x37F PUSH2 0x1010 JUMP JUMPDEST JUMPDEST PUSH1 0x20 ADD ADD SWAP1 PUSH31 0xFFFFFFFFFFFFFFFFFFFFFFFFFFFFFFFFFFFFFFFFFFFFFFFFFFFFFFFFFFFFFF NOT AND SWAP1 DUP2 PUSH0 BYTE SWAP1 MSTORE8 POP PUSH1 0x3A DUP5 PUSH4 0xFFFFFFFF AND DUP2 PUSH2 0x3C5 JUMPI PUSH2 0x3C4 PUSH2 0x103D JUMP JUMPDEST JUMPDEST DIV SWAP4 POP DUP3 DUP1 PUSH1 0x1 SWAP1 SUB SWAP4 POP POP PUSH2 0x309 JUMP JUMPDEST DUP3 SWAP2 POP DUP1 DUP1 PUSH1 0x1 ADD SWAP2 POP POP PUSH2 0x2D3 JUMP JUMPDEST POP PUSH0 DUP6 SWAP1 POP JUMPDEST DUP7 DUP2 LT DUP1 ISZERO PUSH2 0x43C JUMPI POP PUSH0 PUSH1 0xF8 SHL DUP6 DUP3 DUP2 MLOAD DUP2 LT PUSH2 0x40D JUMPI PUSH2 0x40C PUSH2 0x1010 JUMP JUMPDEST JUMPDEST PUSH1 0x20 ADD ADD MLOAD PUSH1 0xF8 SHR PUSH1 0xF8 SHL PUSH31 0xFFFFFFFFFFFFFFFFFFFFFFFFFFFFFFFFFFFFFFFFFFFFFFFFFFFFFFFFFFFFFF NOT AND EQ JUMPDEST ISZERO PUSH2 0x44E JUMPI DUP1 DUP1 PUSH1 0x1 ADD SWAP2 POP POP PUSH2 0x3EC JUMP JUMPDEST DUP6 DUP2 SUB DUP6 MLOAD SUB SWAP7 POP PUSH0 DUP8 PUSH8 0xFFFFFFFFFFFFFFFF DUP2 GT ISZERO PUSH2 0x471 JUMPI PUSH2 0x470 PUSH2 0xB30 JUMP JUMPDEST JUMPDEST PUSH1 0x40 MLOAD SWAP1 DUP1 DUP3 MSTORE DUP1 PUSH1 0x1F ADD PUSH1 0x1F NOT AND PUSH1 0x20 ADD DUP3 ADD PUSH1 0x40 MSTORE DUP1 ISZERO PUSH2 0x4A3 JUMPI DUP2 PUSH1 0x20 ADD PUSH1 0x1 DUP3 MUL DUP1 CALLDATASIZE DUP4 CALLDATACOPY DUP1 DUP3 ADD SWAP2 POP POP SWAP1 POP JUMPDEST POP SWAP1 POP PUSH0 JUMPDEST DUP9 DUP2 LT ISZERO PUSH2 0x560 JUMPI PUSH0 DUP9 DUP5 DUP4 ADD SUB SWAP1 POP PUSH1 0x40 MLOAD DUP1 PUSH1 0x60 ADD PUSH1 0x40 MSTORE DUP1 PUSH1 0x3A DUP2 MSTORE PUSH1 0x20 ADD PUSH2 0x10E3 PUSH1 0x3A SWAP2 CODECOPY DUP9 DUP3 DUP2 MLOAD DUP2 LT PUSH2 0x4E4 JUMPI PUSH2 0x4E3 PUSH2 0x1010 JUMP JUMPDEST JUMPDEST PUSH1 0x20 ADD ADD MLOAD PUSH1 0xF8 SHR PUSH1 0xF8 SHL PUSH1 0xF8 SHR PUSH1 0xFF AND DUP2 MLOAD DUP2 LT PUSH2 0x506 JUMPI PUSH2 0x505 PUSH2 0x1010 JUMP JUMPDEST JUMPDEST PUSH1 0x20 ADD ADD MLOAD PUSH1 0xF8 SHR PUSH1 0xF8 SHL DUP4 DUP4 DUP2 MLOAD DUP2 LT PUSH2 0x524 JUMPI PUSH2 0x523 PUSH2 0x1010 JUMP JUMPDEST JUMPDEST PUSH1 0x20 ADD ADD SWAP1 PUSH31 0xFFFFFFFFFFFFFFFFFFFFFFFFFFFFFFFFFFFFFFFFFFFFFFFFFFFFFFFFFFFFFF NOT AND SWAP1 DUP2 PUSH0 BYTE SWAP1 MSTORE8 POP POP DUP1 DUP1 PUSH1 0x1 ADD SWAP2 POP POP PUSH2 0x4A8 JUMP JUMPDEST POP DUP1 SWAP9 POP POP POP POP POP POP POP POP POP SWAP2 SWAP1 POP JUMP JUMPDEST PUSH1 0x60 PUSH2 0x57C DUP3 PUSH2 0x1ED JUMP JUMPDEST SWAP1 POP SWAP2 SWAP1 POP JUMP JUMPDEST PUSH1 0x60 PUSH2 0x58E DUP3 PUSH2 0x1ED JUMP JUMPDEST SWAP1 POP SWAP2 SWAP1 POP JUMP JUMPDEST PUSH0 DUP1 PUSH0 JUMPDEST DUP5 MLOAD DUP2 LT ISZERO PUSH2 0x624 JUMPI DUP4 PUSH31 0xFFFFFFFFFFFFFFFFFFFFFFFFFFFFFFFFFFFFFFFFFFFFFFFFFFFFFFFFFFFFFF NOT AND DUP6 DUP3 DUP2 MLOAD DUP2 LT PUSH2 0x5D8 JUMPI PUSH2 0x5D7 PUSH2 0x1010 JUMP JUMPDEST JUMPDEST PUSH1 0x20 ADD ADD MLOAD PUSH1 0xF8 SHR PUSH1 0xF8 SHL PUSH31 0xFFFFFFFFFFFFFFFFFFFFFFFFFFFFFFFFFFFFFFFFFFFFFFFFFFFFFFFFFFFFFF NOT AND SUB PUSH2 0x617 JUMPI DUP1 PUSH1 0x1 SWAP3 POP SWAP3 POP POP PUSH2 0x62C JUMP JUMPDEST DUP1 DUP1 PUSH1 0x1 ADD SWAP2 POP POP PUSH2 0x599 JUMP JUMPDEST POP PUSH0 DUP1 SWAP2 POP SWAP2 POP JUMPDEST SWAP3 POP SWAP3 SWAP1 POP JUMP JUMPDEST PUSH1 0x60 PUSH0 DUP4 DUP4 SUB PUSH8 0xFFFFFFFFFFFFFFFF DUP2 GT ISZERO PUSH2 0x652 JUMPI PUSH2 0x651 PUSH2 0xB30 JUMP JUMPDEST JUMPDEST PUSH1 0x40 MLOAD SWAP1 DUP1 DUP3 MSTORE DUP1 PUSH1 0x1F ADD PUSH1 0x1F NOT AND PUSH1 0x20 ADD DUP3 ADD PUSH1 0x40 MSTORE DUP1 ISZERO PUSH2 0x684 JUMPI DUP2 PUSH1 0x20 ADD PUSH1 0x1 DUP3 MUL DUP1 CALLDATASIZE DUP4 CALLDATACOPY DUP1 DUP3 ADD SWAP2 POP POP SWAP1 POP JUMPDEST POP SWAP1 POP PUSH0 JUMPDEST DUP5 DUP5 SUB DUP2 LT ISZERO PUSH2 0x701 JUMPI DUP6 DUP6 DUP3 ADD DUP2 MLOAD DUP2 LT PUSH2 0x6A8 JUMPI PUSH2 0x6A7 PUSH2 0x1010 JUMP JUMPDEST JUMPDEST PUSH1 0x20 ADD ADD MLOAD PUSH1 0xF8 SHR PUSH1 0xF8 SHL DUP3 DUP3 DUP2 MLOAD DUP2 LT PUSH2 0x6C6 JUMPI PUSH2 0x6C5 PUSH2 0x1010 JUMP JUMPDEST JUMPDEST PUSH1 0x20 ADD ADD SWAP1 PUSH31 0xFFFFFFFFFFFFFFFFFFFFFFFFFFFFFFFFFFFFFFFFFFFFFFFFFFFFFFFFFFFFFF NOT AND SWAP1 DUP2 PUSH0 BYTE SWAP1 MSTORE8 POP DUP1 DUP1 PUSH1 0x1 ADD SWAP2 POP POP PUSH2 0x689 JUMP JUMPDEST POP DUP1 SWAP2 POP POP SWAP4 SWAP3 POP POP POP JUMP JUMPDEST PUSH1 0x60 PUSH0 PUSH1 0x31 SWAP1 POP PUSH0 DUP4 MLOAD SWAP1 POP PUSH0 DUP1 JUMPDEST DUP3 DUP2 LT DUP1 ISZERO PUSH2 0x74D JUMPI POP DUP4 DUP7 DUP3 DUP2 MLOAD DUP2 LT PUSH2 0x73A JUMPI PUSH2 0x739 PUSH2 0x1010 JUMP JUMPDEST JUMPDEST PUSH1 0x20 ADD ADD MLOAD PUSH1 0xF8 SHR PUSH1 0xF8 SHL PUSH1 0xF8 SHR PUSH1 0xFF AND EQ JUMPDEST ISZERO PUSH2 0x767 JUMPI DUP2 DUP1 PUSH1 0x1 ADD SWAP3 POP POP DUP1 DUP1 PUSH1 0x1 ADD SWAP2 POP POP PUSH2 0x71C JUMP JUMPDEST POP PUSH0 DUP1 PUSH0 DUP1 PUSH1 0x1 PUSH2 0x17E3 PUSH2 0x209F DUP9 MUL DUP2 PUSH2 0x784 JUMPI PUSH2 0x783 PUSH2 0x103D JUMP JUMPDEST JUMPDEST DIV ADD PUSH1 0x2 MUL PUSH8 0xFFFFFFFFFFFFFFFF DUP2 GT ISZERO PUSH2 0x7A2 JUMPI PUSH2 0x7A1 PUSH2 0xB30 JUMP JUMPDEST JUMPDEST PUSH1 0x40 MLOAD SWAP1 DUP1 DUP3 MSTORE DUP1 PUSH1 0x1F ADD PUSH1 0x1F NOT AND PUSH1 0x20 ADD DUP3 ADD PUSH1 0x40 MSTORE DUP1 ISZERO PUSH2 0x7D4 JUMPI DUP2 PUSH1 0x20 ADD PUSH1 0x1 DUP3 MUL DUP1 CALLDATASIZE DUP4 CALLDATACOPY DUP1 DUP3 ADD SWAP2 POP POP SWAP1 POP JUMPDEST POP SWAP1 POP PUSH0 PUSH1 0x4 PUSH1 0x3 DUP9 ADD DUP2 PUSH2 0x7EC JUMPI PUSH2 0x7EB PUSH2 0x103D JUMP JUMPDEST JUMPDEST DIV PUSH8 0xFFFFFFFFFFFFFFFF DUP2 GT ISZERO PUSH2 0x806 JUMPI PUSH2 0x805 PUSH2 0xB30 JUMP JUMPDEST JUMPDEST PUSH1 0x40 MLOAD SWAP1 DUP1 DUP3 MSTORE DUP1 PUSH1 0x20 MUL PUSH1 0x20 ADD DUP3 ADD PUSH1 0x40 MSTORE DUP1 ISZERO PUSH2 0x834 JUMPI DUP2 PUSH1 0x20 ADD PUSH1 0x20 DUP3 MUL DUP1 CALLDATASIZE DUP4 CALLDATACOPY DUP1 DUP3 ADD SWAP2 POP POP SWAP1 POP JUMPDEST POP SWAP1 POP PUSH0 JUMPDEST DUP11 MLOAD DUP2 LT ISZERO PUSH2 0x967 JUMPI PUSH0 DUP12 DUP3 DUP2 MLOAD DUP2 LT PUSH2 0x856 JUMPI PUSH2 0x855 PUSH2 0x1010 JUMP JUMPDEST JUMPDEST PUSH1 0x20 ADD ADD MLOAD PUSH1 0xF8 SHR PUSH1 0xF8 SHL SWAP1 POP PUSH2 0x885 PUSH1 0x40 MLOAD DUP1 PUSH1 0x60 ADD PUSH1 0x40 MSTORE DUP1 PUSH1 0x3A DUP2 MSTORE PUSH1 0x20 ADD PUSH2 0x10E3 PUSH1 0x3A SWAP2 CODECOPY DUP3 PUSH2 0x595 JUMP JUMPDEST DUP1 SWAP7 POP DUP2 SWAP8 POP POP POP DUP5 PUSH2 0x8CD JUMPI PUSH1 0x40 MLOAD PUSH32 0x8C379A000000000000000000000000000000000000000000000000000000000 DUP2 MSTORE PUSH1 0x4 ADD PUSH2 0x8C4 SWAP1 PUSH2 0x10C4 JUMP JUMPDEST PUSH1 0x40 MLOAD DUP1 SWAP2 SUB SWAP1 REVERT JUMPDEST PUSH0 PUSH1 0x1 DUP5 MLOAD SUB SWAP1 POP JUMPDEST PUSH0 DUP2 SLT PUSH2 0x958 JUMPI DUP7 PUSH1 0x3A DUP6 DUP4 DUP2 MLOAD DUP2 LT PUSH2 0x8F3 JUMPI PUSH2 0x8F2 PUSH2 0x1010 JUMP JUMPDEST JUMPDEST PUSH1 0x20 MUL PUSH1 0x20 ADD ADD MLOAD PUSH4 0xFFFFFFFF AND MUL PUSH8 0xFFFFFFFFFFFFFFFF AND ADD SWAP8 POP PUSH1 0x20 DUP9 SWAP1 SHR SWAP7 POP PUSH4 0xFFFFFFFF DUP9 AND DUP5 DUP3 DUP2 MLOAD DUP2 LT PUSH2 0x930 JUMPI PUSH2 0x92F PUSH2 0x1010 JUMP JUMPDEST JUMPDEST PUSH1 0x20 MUL PUSH1 0x20 ADD ADD SWAP1 PUSH4 0xFFFFFFFF AND SWAP1 DUP2 PUSH4 0xFFFFFFFF AND DUP2 MSTORE POP POP DUP1 DUP1 PUSH1 0x1 SWAP1 SUB SWAP2 POP POP PUSH2 0x8D6 JUMP JUMPDEST POP POP DUP1 DUP1 PUSH1 0x1 ADD SWAP2 POP POP PUSH2 0x839 JUMP JUMPDEST POP PUSH0 PUSH1 0x8 PUSH1 0x4 DUP10 DUP2 PUSH2 0x97C JUMPI PUSH2 0x97B PUSH2 0x103D JUMP JUMPDEST JUMPDEST MOD MUL SWAP1 POP PUSH0 DUP2 PUSH8 0xFFFFFFFFFFFFFFFF AND SUB PUSH2 0x996 JUMPI PUSH1 0x20 SWAP1 POP JUMPDEST PUSH1 0x8 DUP2 SUB SWAP1 POP PUSH0 DUP1 JUMPDEST DUP4 MLOAD DUP2 LT ISZERO PUSH2 0xA64 JUMPI JUMPDEST PUSH1 0x20 DUP4 PUSH8 0xFFFFFFFFFFFFFFFF AND LT ISZERO PUSH2 0xA53 JUMPI DUP3 PUSH8 0xFFFFFFFFFFFFFFFF AND DUP5 DUP3 DUP2 MLOAD DUP2 LT PUSH2 0x9DA JUMPI PUSH2 0x9D9 PUSH2 0x1010 JUMP JUMPDEST JUMPDEST PUSH1 0x20 MUL PUSH1 0x20 ADD ADD MLOAD PUSH4 0xFFFFFFFF AND SWAP1 SHR PUSH1 0xF8 SHL DUP6 DUP4 DUP2 MLOAD DUP2 LT PUSH2 0xA00 JUMPI PUSH2 0x9FF PUSH2 0x1010 JUMP JUMPDEST JUMPDEST PUSH1 0x20 ADD ADD SWAP1 PUSH31 0xFFFFFFFFFFFFFFFFFFFFFFFFFFFFFFFFFFFFFFFFFFFFFFFFFFFFFFFFFFFFFF NOT AND SWAP1 DUP2 PUSH0 BYTE SWAP1 MSTORE8 POP DUP2 DUP1 PUSH1 0x1 ADD SWAP3 POP POP PUSH1 0x8 DUP4 PUSH8 0xFFFFFFFFFFFFFFFF AND LT PUSH2 0xA53 JUMPI PUSH1 0x8 DUP4 SUB SWAP3 POP PUSH2 0x9A9 JUMP JUMPDEST PUSH1 0x18 SWAP3 POP DUP1 DUP1 PUSH1 0x1 ADD SWAP2 POP POP PUSH2 0x99F JUMP JUMPDEST POP PUSH0 DUP9 SWAP1 POP JUMPDEST DUP5 MLOAD DUP2 LT ISZERO PUSH2 0xAE9 JUMPI PUSH0 PUSH1 0xF8 SHL DUP6 DUP3 DUP2 MLOAD DUP2 LT PUSH2 0xA8A JUMPI PUSH2 0xA89 PUSH2 0x1010 JUMP JUMPDEST JUMPDEST PUSH1 0x20 ADD ADD MLOAD PUSH1 0xF8 SHR PUSH1 0xF8 SHL PUSH31 0xFFFFFFFFFFFFFFFFFFFFFFFFFFFFFFFFFFFFFFFFFFFFFFFFFFFFFFFFFFFFFF NOT AND GT ISZERO PUSH2 0xADC JUMPI PUSH2 0xACA DUP6 DUP11 DUP4 SUB DUP5 PUSH2 0x633 JUMP JUMPDEST SWAP12 POP POP POP POP POP POP POP POP POP POP POP POP PUSH2 0xB02 JUMP JUMPDEST DUP1 DUP1 PUSH1 0x1 ADD SWAP2 POP POP PUSH2 0xA6A JUMP JUMPDEST POP PUSH2 0xAF5 DUP5 PUSH0 DUP4 PUSH2 0x633 JUMP JUMPDEST SWAP11 POP POP POP POP POP POP POP POP POP POP POP JUMPDEST SWAP2 SWAP1 POP JUMP JUMPDEST PUSH0 PUSH1 0x40 MLOAD SWAP1 POP SWAP1 JUMP JUMPDEST PUSH0 DUP1 REVERT JUMPDEST PUSH0 DUP1 REVERT JUMPDEST PUSH0 DUP1 REVERT JUMPDEST PUSH0 DUP1 REVERT JUMPDEST PUSH0 PUSH1 0x1F NOT PUSH1 0x1F DUP4 ADD AND SWAP1 POP SWAP2 SWAP1 POP JUMP JUMPDEST PUSH32 0x4E487B7100000000000000000000000000000000000000000000000000000000 PUSH0 MSTORE PUSH1 0x41 PUSH1 0x4 MSTORE PUSH1 0x24 PUSH0 REVERT JUMPDEST PUSH2 0xB66 DUP3 PUSH2 0xB20 JUMP JUMPDEST DUP2 ADD DUP2 DUP2 LT PUSH8 0xFFFFFFFFFFFFFFFF DUP3 GT OR ISZERO PUSH2 0xB85 JUMPI PUSH2 0xB84 PUSH2 0xB30 JUMP JUMPDEST JUMPDEST DUP1 PUSH1 0x40 MSTORE POP POP POP JUMP JUMPDEST PUSH0 PUSH2 0xB97 PUSH2 0xB07 JUMP JUMPDEST SWAP1 POP PUSH2 0xBA3 DUP3 DUP3 PUSH2 0xB5D JUMP JUMPDEST SWAP2 SWAP1 POP JUMP JUMPDEST PUSH0 PUSH8 0xFFFFFFFFFFFFFFFF DUP3 GT ISZERO PUSH2 0xBC2 JUMPI PUSH2 0xBC1 PUSH2 0xB30 JUMP JUMPDEST JUMPDEST PUSH2 0xBCB DUP3 PUSH2 0xB20 JUMP JUMPDEST SWAP1 POP PUSH1 0x20 DUP2 ADD SWAP1 POP SWAP2 SWAP1 POP JUMP JUMPDEST DUP3 DUP2 DUP4 CALLDATACOPY PUSH0 DUP4 DUP4 ADD MSTORE POP POP POP JUMP JUMPDEST PUSH0 PUSH2 0xBF8 PUSH2 0xBF3 DUP5 PUSH2 0xBA8 JUMP JUMPDEST PUSH2 0xB8E JUMP JUMPDEST SWAP1 POP DUP3 DUP2 MSTORE PUSH1 0x20 DUP2 ADD DUP5 DUP5 DUP5 ADD GT ISZERO PUSH2 0xC14 JUMPI PUSH2 0xC13 PUSH2 0xB1C JUMP JUMPDEST JUMPDEST PUSH2 0xC1F DUP5 DUP3 DUP6 PUSH2 0xBD8 JUMP JUMPDEST POP SWAP4 SWAP3 POP POP POP JUMP JUMPDEST PUSH0 DUP3 PUSH1 0x1F DUP4 ADD SLT PUSH2 0xC3B JUMPI PUSH2 0xC3A PUSH2 0xB18 JUMP JUMPDEST JUMPDEST DUP2 CALLDATALOAD PUSH2 0xC4B DUP5 DUP3 PUSH1 0x20 DUP7 ADD PUSH2 0xBE6 JUMP JUMPDEST SWAP2 POP POP SWAP3 SWAP2 POP POP JUMP JUMPDEST PUSH0 PUSH1 0x20 DUP3 DUP5 SUB SLT ISZERO PUSH2 0xC69 JUMPI PUSH2 0xC68 PUSH2 0xB10 JUMP JUMPDEST JUMPDEST PUSH0 DUP3 ADD CALLDATALOAD PUSH8 0xFFFFFFFFFFFFFFFF DUP2 GT ISZERO PUSH2 0xC86 JUMPI PUSH2 0xC85 PUSH2 0xB14 JUMP JUMPDEST JUMPDEST PUSH2 0xC92 DUP5 DUP3 DUP6 ADD PUSH2 0xC27 JUMP JUMPDEST SWAP2 POP POP SWAP3 SWAP2 POP POP JUMP JUMPDEST PUSH0 DUP2 MLOAD SWAP1 POP SWAP2 SWAP1 POP JUMP JUMPDEST PUSH0 DUP3 DUP3 MSTORE PUSH1 0x20 DUP3 ADD SWAP1 POP SWAP3 SWAP2 POP POP JUMP JUMPDEST DUP3 DUP2 DUP4 MCOPY PUSH0 DUP4 DUP4 ADD MSTORE POP POP POP JUMP JUMPDEST PUSH0 PUSH2 0xCCD DUP3 PUSH2 0xC9B JUMP JUMPDEST PUSH2 0xCD7 DUP2 DUP6 PUSH2 0xCA5 JUMP JUMPDEST SWAP4 POP PUSH2 0xCE7 DUP2 DUP6 PUSH1 0x20 DUP7 ADD PUSH2 0xCB5 JUMP JUMPDEST PUSH2 0xCF0 DUP2 PUSH2 0xB20 JUMP JUMPDEST DUP5 ADD SWAP2 POP POP SWAP3 SWAP2 POP POP JUMP JUMPDEST PUSH0 PUSH1 0x20 DUP3 ADD SWAP1 POP DUP2 DUP2 SUB PUSH0 DUP4 ADD MSTORE PUSH2 0xD13 DUP2 DUP5 PUSH2 0xCC3 JUMP JUMPDEST SWAP1 POP SWAP3 SWAP2 POP POP JUMP JUMPDEST PUSH0 PUSH8 0xFFFFFFFFFFFFFFFF DUP3 GT ISZERO PUSH2 0xD35 JUMPI PUSH2 0xD34 PUSH2 0xB30 JUMP JUMPDEST JUMPDEST PUSH2 0xD3E DUP3 PUSH2 0xB20 JUMP JUMPDEST SWAP1 POP PUSH1 0x20 DUP2 ADD SWAP1 POP SWAP2 SWAP1 POP JUMP JUMPDEST PUSH0 PUSH2 0xD5D PUSH2 0xD58 DUP5 PUSH2 0xD1B JUMP JUMPDEST PUSH2 0xB8E JUMP JUMPDEST SWAP1 POP DUP3 DUP2 MSTORE PUSH1 0x20 DUP2 ADD DUP5 DUP5 DUP5 ADD GT ISZERO PUSH2 0xD79 JUMPI PUSH2 0xD78 PUSH2 0xB1C JUMP JUMPDEST JUMPDEST PUSH2 0xD84 DUP5 DUP3 DUP6 PUSH2 0xBD8 JUMP JUMPDEST POP SWAP4 SWAP3 POP POP POP JUMP JUMPDEST PUSH0 DUP3 PUSH1 0x1F DUP4 ADD SLT PUSH2 0xDA0 JUMPI PUSH2 0xD9F PUSH2 0xB18 JUMP JUMPDEST JUMPDEST DUP2 CALLDATALOAD PUSH2 0xDB0 DUP5 DUP3 PUSH1 0x20 DUP7 ADD PUSH2 0xD4B JUMP JUMPDEST SWAP2 POP POP SWAP3 SWAP2 POP POP JUMP JUMPDEST PUSH0 PUSH1 0x20 DUP3 DUP5 SUB SLT ISZERO PUSH2 0xDCE JUMPI PUSH2 0xDCD PUSH2 0xB10 JUMP JUMPDEST JUMPDEST PUSH0 DUP3 ADD CALLDATALOAD PUSH8 0xFFFFFFFFFFFFFFFF DUP2 GT ISZERO PUSH2 0xDEB JUMPI PUSH2 0xDEA PUSH2 0xB14 JUMP JUMPDEST JUMPDEST PUSH2 0xDF7 DUP5 DUP3 DUP6 ADD PUSH2 0xD8C JUMP JUMPDEST SWAP2 POP POP SWAP3 SWAP2 POP POP JUMP JUMPDEST PUSH0 DUP2 MLOAD SWAP1 POP SWAP2 SWAP1 POP JUMP JUMPDEST PUSH0 DUP3 DUP3 MSTORE PUSH1 0x20 DUP3 ADD SWAP1 POP SWAP3 SWAP2 POP POP JUMP JUMPDEST PUSH0 PUSH2 0xE24 DUP3 PUSH2 0xE00 JUMP JUMPDEST PUSH2 0xE2E DUP2 DUP6 PUSH2 0xE0A JUMP JUMPDEST SWAP4 POP PUSH2 0xE3E DUP2 DUP6 PUSH1 0x20 DUP7 ADD PUSH2 0xCB5 JUMP JUMPDEST PUSH2 0xE47 DUP2 PUSH2 0xB20 JUMP JUMPDEST DUP5 ADD SWAP2 POP POP SWAP3 SWAP2 POP POP JUMP JUMPDEST PUSH0 PUSH1 0x20 DUP3 ADD SWAP1 POP DUP2 DUP2 SUB PUSH0 DUP4 ADD MSTORE PUSH2 0xE6A DUP2 DUP5 PUSH2 0xE1A JUMP JUMPDEST SWAP1 POP SWAP3 SWAP2 POP POP JUMP JUMPDEST PUSH0 PUSH32 0xFF00000000000000000000000000000000000000000000000000000000000000 DUP3 AND SWAP1 POP SWAP2 SWAP1 POP JUMP JUMPDEST PUSH2 0xEA6 DUP2 PUSH2 0xE72 JUMP JUMPDEST DUP2 EQ PUSH2 0xEB0 JUMPI PUSH0 DUP1 REVERT JUMPDEST POP JUMP JUMPDEST PUSH0 DUP2 CALLDATALOAD SWAP1 POP PUSH2 0xEC1 DUP2 PUSH2 0xE9D JUMP JUMPDEST SWAP3 SWAP2 POP POP JUMP JUMPDEST PUSH0 DUP1 PUSH1 0x40 DUP4 DUP6 SUB SLT ISZERO PUSH2 0xEDD JUMPI PUSH2 0xEDC PUSH2 0xB10 JUMP JUMPDEST JUMPDEST PUSH0 DUP4 ADD CALLDATALOAD PUSH8 0xFFFFFFFFFFFFFFFF DUP2 GT ISZERO PUSH2 0xEFA JUMPI PUSH2 0xEF9 PUSH2 0xB14 JUMP JUMPDEST JUMPDEST PUSH2 0xF06 DUP6 DUP3 DUP7 ADD PUSH2 0xD8C JUMP JUMPDEST SWAP3 POP POP PUSH1 0x20 PUSH2 0xF17 DUP6 DUP3 DUP7 ADD PUSH2 0xEB3 JUMP JUMPDEST SWAP2 POP POP SWAP3 POP SWAP3 SWAP1 POP JUMP JUMPDEST PUSH0 DUP2 SWAP1 POP SWAP2 SWAP1 POP JUMP JUMPDEST PUSH2 0xF33 DUP2 PUSH2 0xF21 JUMP JUMPDEST DUP3 MSTORE POP POP JUMP JUMPDEST PUSH0 DUP2 ISZERO ISZERO SWAP1 POP SWAP2 SWAP1 POP JUMP JUMPDEST PUSH2 0xF4D DUP2 PUSH2 0xF39 JUMP JUMPDEST DUP3 MSTORE POP POP JUMP JUMPDEST PUSH0 PUSH1 0x40 DUP3 ADD SWAP1 POP PUSH2 0xF66 PUSH0 DUP4 ADD DUP6 PUSH2 0xF2A JUMP JUMPDEST PUSH2 0xF73 PUSH1 0x20 DUP4 ADD DUP5 PUSH2 0xF44 JUMP JUMPDEST SWAP4 SWAP3 POP POP POP JUMP JUMPDEST PUSH2 0xF83 DUP2 PUSH2 0xF21 JUMP JUMPDEST DUP2 EQ PUSH2 0xF8D JUMPI PUSH0 DUP1 REVERT JUMPDEST POP JUMP JUMPDEST PUSH0 DUP2 CALLDATALOAD SWAP1 POP PUSH2 0xF9E DUP2 PUSH2 0xF7A JUMP JUMPDEST SWAP3 SWAP2 POP POP JUMP JUMPDEST PUSH0 DUP1 PUSH0 PUSH1 0x60 DUP5 DUP7 SUB SLT ISZERO PUSH2 0xFBB JUMPI PUSH2 0xFBA PUSH2 0xB10 JUMP JUMPDEST JUMPDEST PUSH0 DUP5 ADD CALLDATALOAD PUSH8 0xFFFFFFFFFFFFFFFF DUP2 GT ISZERO PUSH2 0xFD8 JUMPI PUSH2 0xFD7 PUSH2 0xB14 JUMP JUMPDEST JUMPDEST PUSH2 0xFE4 DUP7 DUP3 DUP8 ADD PUSH2 0xD8C JUMP JUMPDEST SWAP4 POP POP PUSH1 0x20 PUSH2 0xFF5 DUP7 DUP3 DUP8 ADD PUSH2 0xF90 JUMP JUMPDEST SWAP3 POP POP PUSH1 0x40 PUSH2 0x1006 DUP7 DUP3 DUP8 ADD PUSH2 0xF90 JUMP JUMPDEST SWAP2 POP POP SWAP3 POP SWAP3 POP SWAP3 JUMP JUMPDEST PUSH32 0x4E487B7100000000000000000000000000000000000000000000000000000000 PUSH0 MSTORE PUSH1 0x32 PUSH1 0x4 MSTORE PUSH1 0x24 PUSH0 REVERT JUMPDEST PUSH32 0x4E487B7100000000000000000000000000000000000000000000000000000000 PUSH0 MSTORE PUSH1 0x12 PUSH1 0x4 MSTORE PUSH1 0x24 PUSH0 REVERT JUMPDEST PUSH0 DUP3 DUP3 MSTORE PUSH1 0x20 DUP3 ADD SWAP1 POP SWAP3 SWAP2 POP POP JUMP JUMPDEST PUSH32 0x696E76616C696420626173653538206469676974000000000000000000000000 PUSH0 DUP3 ADD MSTORE POP JUMP JUMPDEST PUSH0 PUSH2 0x10AE PUSH1 0x14 DUP4 PUSH2 0x106A JUMP JUMPDEST SWAP2 POP PUSH2 0x10B9 DUP3 PUSH2 0x107A JUMP JUMPDEST PUSH1 0x20 DUP3 ADD SWAP1 POP SWAP2 SWAP1 POP JUMP JUMPDEST PUSH0 PUSH1 0x20 DUP3 ADD SWAP1 POP DUP2 DUP2 SUB PUSH0 DUP4 ADD MSTORE PUSH2 0x10DB DUP2 PUSH2 0x10A2 JUMP JUMPDEST SWAP1 POP SWAP2 SWAP1 POP JUMP INVALID BALANCE ORIGIN CALLER CALLVALUE CALLDATALOAD CALLDATASIZE CALLDATACOPY CODESIZE CODECOPY COINBASE TIMESTAMP NUMBER PREVRANDAO GASLIMIT CHAINID SELFBALANCE BASEFEE BLOBBASEFEE 0x4B 0x4C 0x4D 0x4E POP MLOAD MSTORE MSTORE8 SLOAD SSTORE JUMP JUMPI PC MSIZE GAS PUSH2 0x6263 PUSH5 0x6566676869 PUSH11 0x6B6D6E6F70717273747576 PUSH24 0x78797AA264697066735822122028A7C3670B2CBDF9D81B86 JUMP SAR 0x1F SWAP6 SWAP14 SWAP2 0x2F 0xD1 0x28 0x2C 0xAA PUSH23 0x91705BAFEB3BD7FB6C64736F6C634300081A0033000000 "
				},
				"gasEstimates": {
					"creation": {
						"codeDepositCost": "886800",
						"executionCost": "945",
						"totalCost": "887745"
					},
					"external": {
						"decode(bytes)": "infinite",
						"decodeFromString(string)": "infinite",
						"encode(bytes)": "infinite",
						"encodeFromString(string)": "infinite",
						"encodeToString(bytes)": "infinite",
						"indexOf(bytes,bytes1)": "infinite",
						"slice(bytes,uint256,uint256)": "infinite"
					}
				},
				"methodIdentifiers": {
					"decode(bytes)": "e5c5e9a3",
					"decodeFromString(string)": "046a466a",
					"encode(bytes)": "12496a1b",
					"encodeFromString(string)": "529d1bb7",
					"encodeToString(bytes)": "51c3463c",
					"indexOf(bytes,bytes1)": "8178ff43",
					"slice(bytes,uint256,uint256)": "e0041396"
				}
			},
			"storageLayout": {
				"storage": [],
				"types": null
			},
			"userdoc": {
				"kind": "user",
				"methods": {
					"decode(bytes)": {
						"notice": "decode is used to decode the given string in base58 standard."
					},
					"decodeFromString(string)": {
						"notice": "decode is used to decode the given string in base58 standard."
					},
					"encode(bytes)": {
						"notice": "encode is used to encode the given bytes in base58 standard."
					},
					"encodeFromString(string)": {
						"notice": "encodeFromString is used to encode the given string in base58 standard."
					},
					"encodeToString(bytes)": {
						"notice": "encodeToString is used to encode the given byte in base58 standard."
					},
					"indexOf(bytes,bytes1)": {
						"notice": "indexOf is used to find where char_ appears in data_."
					},
					"slice(bytes,uint256,uint256)": {
						"notice": "slice is used to slice the given byte, returns the bytes in the range of [start_, end_)"
					}
				},
				"notice": "This algorithm was migrated from github.com/mr-tron/base58 to solidity. Note that it is not yet optimized for gas, so it is recommended to use it only in the view/pure function.",
				"version": 1
			}
		}
	}
}