{
	"data": {
		"bytecode": {
			"linkReferences": {},
			"object": "610fc661004d600b8282823980515f1a6073146041577f4e487b71000000000000000000000000000000000000000000000000000000005f525f60045260245ffd5b305f52607381538281f3fe7300000000000000000000000000000000000000003014608060405260043610610055575f3560e01c8063046a466a14610059578063529d1bb7146100895780638178ff43146100b9578063e0041396146100ea575b5f80fd5b610073600480360381019061006e9190610b81565b61011a565b6040516100809190610c28565b60405180910390f35b6100a3600480360381019061009e9190610b81565b61012c565b6040516100b09190610c28565b60405180910390f35b6100d360048036038101906100ce9190610d3b565b61013e565b6040516100e1929190610dc7565b60405180910390f35b61010460048036038101906100ff9190610e18565b6101dc565b6040516101119190610c28565b60405180910390f35b6060610125826102b6565b9050919050565b6060610137826106b0565b9050919050565b5f805f5b84518110156101cd57837effffffffffffffffffffffffffffffffffffffffffffffffffffffffffffff191685828151811061018157610180610e84565b5b602001015160f81c60f81b7effffffffffffffffffffffffffffffffffffffffffffffffffffffffffffff1916036101c05780600192509250506101d5565b8080600101915050610142565b505f80915091505b9250929050565b60605f83830367ffffffffffffffff8111156101fb576101fa610a5d565b5b6040519080825280601f01601f19166020018201604052801561022d5781602001600182028036833780820191505090505b5090505f5b8484038110156102aa57858582018151811061025157610250610e84565b5b602001015160f81c60f81b82828151811061026f5761026e610e84565b5b60200101907effffffffffffffffffffffffffffffffffffffffffffffffffffffffffffff191690815f1a9053508080600101915050610232565b50809150509392505050565b60605f603190505f835190505f805b82811080156102f65750838682815181106102e3576102e2610e84565b5b602001015160f81c60f81b60f81c60ff16145b1561031057818060010192505080806001019150506102c5565b505f805f8060016117e361209f88028161032d5761032c610eb1565b5b040160020267ffffffffffffffff81111561034b5761034a610a5d565b5b6040519080825280601f01601f19166020018201604052801561037d5781602001600182028036833780820191505090505b5090505f6004600388018161039557610394610eb1565b5b0467ffffffffffffffff8111156103af576103ae610a5d565b5b6040519080825280602002602001820160405280156103dd5781602001602082028036833780820191505090505b5090505f5b8a51811015610510575f8b82815181106103ff576103fe610e84565b5b602001015160f81c60f81b905061042e6040518060600160405280603a8152602001610f57603a91398261013e565b809650819750505084610476576040517f08c379a000000000000000000000000000000000000000000000000000000000815260040161046d90610f38565b60405180910390fd5b5f600184510390505b5f81126105015786603a85838151811061049c5761049b610e84565b5b602002602001015163ffffffff160267ffffffffffffffff16019750602088901c965063ffffffff88168482815181106104d9576104d8610e84565b5b602002602001019063ffffffff16908163ffffffff168152505080806001900391505061047f565b505080806001019150506103e2565b505f60086004898161052557610524610eb1565b5b060290505f8167ffffffffffffffff160361053f57602090505b6008810390505f805b835181101561060d575b60208367ffffffffffffffff1610156105fc578267ffffffffffffffff1684828151811061058357610582610e84565b5b602002602001015163ffffffff16901c60f81b8583815181106105a9576105a8610e84565b5b60200101907effffffffffffffffffffffffffffffffffffffffffffffffffffffffffffff191690815f1a905350818060010192505060088367ffffffffffffffff16106105fc57600883039250610552565b601892508080600101915050610548565b505f8890505b8451811015610692575f60f81b85828151811061063357610632610e84565b5b602001015160f81c60f81b7effffffffffffffffffffffffffffffffffffffffffffffffffffffffffffff1916111561068557610673858a8303846101dc565b9b5050505050505050505050506106ab565b8080600101915050610613565b5061069e845f836101dc565b9a50505050505050505050505b919050565b60605f825190505f5b818110801561070957505f60f81b8482815181106106da576106d9610e84565b5b602001015160f81c60f81b7effffffffffffffffffffffffffffffffffffffffffffffffffffffffffffff1916145b1561071b5780806001019150506106b9565b60016117e361209f838503028161073557610734610eb1565b5b0482010191505f8267ffffffffffffffff81111561075657610755610a5d565b5b6040519080825280601f01601f1916602001820160405280156107885781602001600182028036833780820191505090505b5090505f805f6001860390505f5b88518110156108a9576001870392508881815181106107b8576107b7610e84565b5b602001015160f81c60f81b60f81c60ff1693505b818313806107e057505f8463ffffffff1614155b15610899578483815181106107f8576107f7610e84565b5b602001015160f81c60f81b60f81c60ff166101000261ffff1684019350603a8463ffffffff168161082c5761082b610eb1565b5b0660f81b85848151811061084357610842610e84565b5b60200101907effffffffffffffffffffffffffffffffffffffffffffffffffffffffffffff191690815f1a905350603a8463ffffffff168161088857610887610eb1565b5b0493508280600190039350506107cc565b8291508080600101915050610796565b505f8590505b86811080156108ff57505f60f81b8582815181106108d0576108cf610e84565b5b602001015160f81c60f81b7effffffffffffffffffffffffffffffffffffffffffffffffffffffffffffff1916145b156109115780806001019150506108af565b85810385510396505f8767ffffffffffffffff81111561093457610933610a5d565b5b6040519080825280601f01601f1916602001820160405280156109665781602001600182028036833780820191505090505b5090505f5b88811015610a23575f888483010390506040518060600160405280603a8152602001610f57603a91398882815181106109a7576109a6610e84565b5b602001015160f81c60f81b60f81c60ff16815181106109c9576109c8610e84565b5b602001015160f81c60f81b8383815181106109e7576109e6610e84565b5b60200101907effffffffffffffffffffffffffffffffffffffffffffffffffffffffffffff191690815f1a90535050808060010191505061096b565b508098505050505050505050919050565b5f604051905090565b5f80fd5b5f80fd5b5f80fd5b5f80fd5b5f601f19601f8301169050919050565b7f4e487b71000000000000000000000000000000000000000000000000000000005f52604160045260245ffd5b610a9382610a4d565b810181811067ffffffffffffffff82111715610ab257610ab1610a5d565b5b80604052505050565b5f610ac4610a34565b9050610ad08282610a8a565b919050565b5f67ffffffffffffffff821115610aef57610aee610a5d565b5b610af882610a4d565b9050602081019050919050565b828183375f83830152505050565b5f610b25610b2084610ad5565b610abb565b905082815260208101848484011115610b4157610b40610a49565b5b610b4c848285610b05565b509392505050565b5f82601f830112610b6857610b67610a45565b5b8135610b78848260208601610b13565b91505092915050565b5f60208284031215610b9657610b95610a3d565b5b5f82013567ffffffffffffffff811115610bb357610bb2610a41565b5b610bbf84828501610b54565b91505092915050565b5f81519050919050565b5f82825260208201905092915050565b8281835e5f83830152505050565b5f610bfa82610bc8565b610c048185610bd2565b9350610c14818560208601610be2565b610c1d81610a4d565b840191505092915050565b5f6020820190508181035f830152610c408184610bf0565b905092915050565b5f67ffffffffffffffff821115610c6257610c61610a5d565b5b610c6b82610a4d565b9050602081019050919050565b5f610c8a610c8584610c48565b610abb565b905082815260208101848484011115610ca657610ca5610a49565b5b610cb1848285610b05565b509392505050565b5f82601f830112610ccd57610ccc610a45565b5b8135610cdd848260208601610c78565b91505092915050565b5f7fff0000000000000000000000000000000000000000000000000000000000000082169050919050565b610d1a81610ce6565b8114610d24575f80fd5b50565b5f81359050610d3581610d11565b92915050565b5f8060408385031215610d5157610d50610a3d565b5b5f83013567ffffffffffffffff811115610d6e57610d6d610a41565b5b610d7a85828601610cb9565b9250506020610d8b85828601610d27565b9150509250929050565b5f819050919050565b610da781610d95565b82525050565b5f8115159050919050565b610dc181610dad565b82525050565b5f604082019050610dda5f830185610d9e565b610de76020830184610db8565b9392505050565b610df781610d95565b8114610e01575f80fd5b50565b5f81359050610e1281610dee565b92915050565b5f805f60608486031215610e2f57610e2e610a3d565b5b5f84013567ffffffffffffffff811115610e4c57610e4b610a41565b5b610e5886828701610cb9565b9350506020610e6986828701610e04565b9250506040610e7a86828701610e04565b9150509250925092565b7f4e487b71000000000000000000000000000000000000000000000000000000005f52603260045260245ffd5b7f4e487b71000000000000000000000000000000000000000000000000000000005f52601260045260245ffd5b5f82825260208201905092915050565b7f696e76616c6964206261736535382064696769740000000000000000000000005f82015250565b5f610f22601483610ede565b9150610f2d82610eee565b602082019050919050565b5f6020820190508181035f830152610f4f81610f16565b905091905056fe31323334353637383941424344454647484a4b4c4d4e505152535455565758595a6162636465666768696a6b6d6e6f707172737475767778797aa26469706673582212209a81bce6f9df542372cef6393f3af281acc68ad54a45659b397f5256fb1b9e1c64736f6c634300081a0033",
			"opcodes": "PUSH2 0xFC6 PUSH2 0x4D PUSH1 0xB DUP3 DUP3 DUP3 CODECOPY DUP1 MLOAD PUSH0 BYTE PUSH1 0x73 EQ PUSH1 0x41 JUMPI PUSH32 0x4E487B7100000000000000000000000000000000000000000000000000000000 PUSH0 MSTORE PUSH0 PUSH1 0x4 MSTORE PUSH1 0x24 PUSH0 REVERT JUMPDEST ADDRESS PUSH0 MSTORE PUSH1 0x73 DUP2 MSTORE8 DUP3 DUP2 RETURN INVALID PUSH20 0x0 ADDRESS EQ PUSH1 0x80 PUSH1 0x40 MSTORE PUSH1 0x4 CALLDATASIZE LT PUSH2 0x55 JUMPI PUSH0 CALLDATALOAD PUSH1 0xE0 SHR DUP1 PUSH4 0x46A466A EQ PUSH2 0x59 JUMPI DUP1 PUSH4 0x529D1BB7 EQ PUSH2 0x89 JUMPI DUP1 PUSH4 0x8178FF43 EQ PUSH2 0xB9 JUMPI DUP1 PUSH4 0xE0041396 EQ PUSH2 0xEA JUMPI JUMPDEST PUSH0 DUP1 REVERT JUMPDEST PUSH2 0x73 PUSH1 0x4 DUP1 CALLDATASIZE SUB DUP2 ADD SWAP1 PUSH2 0x6E SWAP2 SWAP1 PUSH2 0xB81 JUMP JUMPDEST PUSH2 0x11A JUMP JUMPDEST PUSH1 0x40 MLOAD PUSH2 0x80 SWAP2 SWAP1 PUSH2 0xC28 JUMP JUMPDEST PUSH1 0x40 MLOAD DUP1 SWAP2 SUB SWAP1 RETURN JUMPDEST PUSH2 0xA3 PUSH1 0x4 DUP1 CALLDATASIZE SUB DUP2 ADD SWAP1 PUSH2 0x9E SWAP2 SWAP1 PUSH2 0xB81 JUMP JUMPDEST PUSH2 0x12C JUMP JUMPDEST PUSH1 0x40 MLOAD PUSH2 0xB0 SWAP2 SWAP1 PUSH2 0xC28 JUMP JUMPDEST PUSH1 0x40 MLOAD DUP1 SWAP2 SUB SWAP1 RETURN JUMPDEST PUSH2 0xD3 PUSH1 0x4 DUP1 CALLDATASIZE SUB DUP2 ADD SWAP1 PUSH2 0xCE SWAP2 SWAP1 PUSH2 0xD3B JUMP JUMPDEST PUSH2 0x13E JUMP JUMPDEST PUSH1 0x40 MLOAD PUSH2 0xE1 SWAP3 SWAP2 SWAP1 PUSH2 0xDC7 JUMP JUMPDEST PUSH1 0x40 MLOAD DUP1 SWAP2 SUB SWAP1 RETURN JUMPDEST PUSH2 0x104 PUSH1 0x4 DUP1 CALLDATASIZE SUB DUP2 ADD SWAP1 PUSH2 0xFF SWAP2 SWAP1 PUSH2 0xE18 JUMP JUMPDEST PUSH2 0x1DC JUMP JUMPDEST PUSH1 0x40 MLOAD PUSH2 0x111 SWAP2 SWAP1 PUSH2 0xC28 JUMP JUMPDEST PUSH1 0x40 MLOAD DUP1 SWAP2 SUB SWAP1 RETURN JUMPDEST PUSH1 0x60 PUSH2 0x125 DUP3 PUSH2 0x2B6 JUMP JUMPDEST SWAP1 POP SWAP2 SWAP1 POP JUMP JUMPDEST PUSH1 0x60 PUSH2 0x137 DUP3 PUSH2 0x6B0 JUMP JUMPDEST SWAP1 POP SWAP2 SWAP1 POP JUMP JUMPDEST PUSH0 DUP1 PUSH0 JUMPDEST DUP5 MLOAD DUP2 LT ISZERO PUSH2 0x1CD JUMPI DUP4 PUSH31 0xFFFFFFFFFFFFFFFFFFFFFFFFFFFFFFFFFFFFFFFFFFFFFFFFFFFFFFFFFFFFFF NOT AND DUP6 DUP3 DUP2 MLOAD DUP2 LT PUSH2 0x181 JUMPI PUSH2 0x180 PUSH2 0xE84 JUMP JUMPDEST JUMPDEST PUSH1 0x20 ADD ADD MLOAD PUSH1 0xF8 SHR PUSH1 0xF8 SHL PUSH31 0xFFFFFFFFFFFFFFFFFFFFFFFFFFFFFFFFFFFFFFFFFFFFFFFFFFFFFFFFFFFFFF NOT AND SUB PUSH2 0x1C0 JUMPI DUP1 PUSH1 0x1 SWAP3 POP SWAP3 POP POP PUSH2 0x1D5 JUMP JUMPDEST DUP1 DUP1 PUSH1 0x1 ADD SWAP2 POP POP PUSH2 0x142 JUMP JUMPDEST POP PUSH0 DUP1 SWAP2 POP SWAP2 POP JUMPDEST SWAP3 POP SWAP3 SWAP1 POP JUMP JUMPDEST PUSH1 0x60 PUSH0 DUP4 DUP4 SUB PUSH8 0xFFFFFFFFFFFFFFFF DUP2 GT ISZERO PUSH2 0x1FB JUMPI PUSH2 0x1FA PUSH2 0xA5D JUMP JUMPDEST JUMPDEST PUSH1 0x40 MLOAD SWAP1 DUP1 DUP3 MSTORE DUP1 PUSH1 0x1F ADD PUSH1 0x1F NOT AND PUSH1 0x20 ADD DUP3 ADD PUSH1 0x40 MSTORE DUP1 ISZERO PUSH2 0x22D JUMPI DUP2 PUSH1 0x20 ADD PUSH1 0x1 DUP3 MUL DUP1 CALLDATASIZE DUP4 CALLDATACOPY DUP1 DUP3 ADD SWAP2 POP POP SWAP1 POP JUMPDEST POP SWAP1 POP PUSH0 JUMPDEST DUP5 DUP5 SUB DUP2 LT ISZERO PUSH2 0x2AA JUMPI DUP6 DUP6 DUP3 ADD DUP2 MLOAD DUP2 LT PUSH2 0x251 JUMPI PUSH2 0x250 PUSH2 0xE84 JUMP JUMPDEST JUMPDEST PUSH1 0x20 ADD ADD MLOAD PUSH1 0xF8 SHR PUSH1 0xF8 SHL DUP3 DUP3 DUP2 MLOAD DUP2 LT PUSH2 0x26F JUMPI PUSH2 0x26E PUSH2 0xE84 JUMP JUMPDEST JUMPDEST PUSH1 0x20 ADD ADD SWAP1 PUSH31 0xFFFFFFFFFFFFFFFFFFFFFFFFFFFFFFFFFFFFFFFFFFFFFFFFFFFFFFFFFFFFFF NOT AND SWAP1 DUP2 PUSH0 BYTE SWAP1 MSTORE8 POP DUP1 DUP1 PUSH1 0x1 ADD SWAP2 POP POP PUSH2 0x232 JUMP JUMPDEST POP DUP1 SWAP2 POP POP SWAP4 SWAP3 POP POP POP JUMP JUMPDEST PUSH1 0x60 PUSH0 PUSH1 0x31 SWAP1 POP PUSH0 DUP4 MLOAD SWAP1 POP PUSH0 DUP1 JUMPDEST DUP3 DUP2 LT DUP1 ISZERO PUSH2 0x2F6 JUMPI POP DUP4 DUP7 DUP3 DUP2 MLOAD DUP2 LT PUSH2 0x2E3 JUMPI PUSH2 0x2E2 PUSH2 0xE84 JUMP JUMPDEST JUMPDEST PUSH1 0x20 ADD ADD MLOAD PUSH1 0xF8 SHR PUSH1 0xF8 SHL PUSH1 0xF8 SHR PUSH1 0xFF AND EQ JUMPDEST ISZERO PUSH2 0x310 JUMPI DUP2 DUP1 PUSH1 0x1 ADD SWAP3 POP POP DUP1 DUP1 PUSH1 0x1 ADD SWAP2 POP POP PUSH2 0x2C5 JUMP JUMPDEST POP PUSH0 DUP1 PUSH0 DUP1 PUSH1 0x1 PUSH2 0x17E3 PUSH2 0x209F DUP9 MUL DUP2 PUSH2 0x32D JUMPI PUSH2 0x32C PUSH2 0xEB1 JUMP JUMPDEST JUMPDEST DIV ADD PUSH1 0x2 MUL PUSH8 0xFFFFFFFFFFFFFFFF DUP2 GT ISZERO PUSH2 0x34B JUMPI PUSH2 0x34A PUSH2 0xA5D JUMP JUMPDEST JUMPDEST PUSH1 0x40 MLOAD SWAP1 DUP1 DUP3 MSTORE DUP1 PUSH1 0x1F ADD PUSH1 0x1F NOT AND PUSH1 0x20 ADD DUP3 ADD PUSH1 0x40 MSTORE DUP1 ISZERO PUSH2 0x37D JUMPI DUP2 PUSH1 0x20 ADD PUSH1 0x1 DUP3 MUL DUP1 CALLDATASIZE DUP4 CALLDATACOPY DUP1 DUP3 ADD SWAP2 POP POP SWAP1 POP JUMPDEST POP SWAP1 POP PUSH0 PUSH1 0x4 PUSH1 0x3 DUP9 ADD DUP2 PUSH2 0x395 JUMPI PUSH2 0x394 PUSH2 0xEB1 JUMP JUMPDEST JUMPDEST DIV PUSH8 0xFFFFFFFFFFFFFFFF DUP2 GT ISZERO PUSH2 0x3AF JUMPI PUSH2 0x3AE PUSH2 0xA5D JUMP JUMPDEST JUMPDEST PUSH1 0x40 MLOAD SWAP1 DUP1 DUP3 MSTORE DUP1 PUSH1 0x20 MUL PUSH1 0x20 ADD DUP3 ADD PUSH1 0x40 MSTORE DUP1 ISZERO PUSH2 0x3DD JUMPI DUP2 PUSH1 0x20 ADD PUSH1 0x20 DUP3 MUL DUP1 CALLDATASIZE DUP4 CALLDATACOPY DUP1 DUP3 ADD SWAP2 POP POP SWAP1 POP JUMPDEST POP SWAP1 POP PUSH0 JUMPDEST DUP11 MLOAD DUP2 LT ISZERO PUSH2 0x510 JUMPI PUSH0 DUP12 DUP3 DUP2 MLOAD DUP2 LT PUSH2 0x3FF JUMPI PUSH2 0x3FE PUSH2 0xE84 JUMP JUMPDEST JUMPDEST PUSH1 0x20 ADD ADD MLOAD PUSH1 0xF8 SHR PUSH1 0xF8 SHL SWAP1 POP PUSH2 0x42E PUSH1 0x40 MLOAD DUP1 PUSH1 0x60 ADD PUSH1 0x40 MSTORE DUP1 PUSH1 0x3A DUP2 MSTORE PUSH1 0x20 ADD PUSH2 0xF57 PUSH1 0x3A SWAP2 CODECOPY DUP3 PUSH2 0x13E JUMP JUMPDEST DUP1 SWAP7 POP DUP2 SWAP8 POP POP POP DUP5 PUSH2 0x476 JUMPI PUSH1 0x40 MLOAD PUSH32 0x8C379A000000000000000000000000000000000000000000000000000000000 DUP2 MSTORE PUSH1 0x4 ADD PUSH2 0x46D SWAP1 PUSH2 0xF38 JUMP JUMPDEST PUSH1 0x40 MLOAD DUP1 SWAP2 SUB SWAP1 REVERT JUMPDEST PUSH0 PUSH1 0x1 DUP5 MLOAD SUB SWAP1 POP JUMPDEST PUSH0 DUP2 SLT PUSH2 0x501 JUMPI DUP7 PUSH1 0x3A DUP6 DUP4 DUP2 MLOAD DUP2 LT PUSH2 0x49C JUMPI PUSH2 0x49B PUSH2 0xE84 JUMP JUMPDEST JUMPDEST PUSH1 0x20 MUL PUSH1 0x20 ADD ADD MLOAD PUSH4 0xFFFFFFFF AND MUL PUSH8 0xFFFFFFFFFFFFFFFF AND ADD SWAP8 POP PUSH1 0x20 DUP9 SWAP1 SHR SWAP7 POP PUSH4 0xFFFFFFFF DUP9 AND DUP5 DUP3 DUP2 MLOAD DUP2 LT PUSH2 0x4D9 JUMPI PUSH2 0x4D8 PUSH2 0xE84 JUMP JUMPDEST JUMPDEST PUSH1 0x20 MUL PUSH1 0x20 ADD ADD SWAP1 PUSH4 0xFFFFFFFF AND SWAP1 DUP2 PUSH4 0xFFFFFFFF AND DUP2 MSTORE POP POP DUP1 DUP1 PUSH1 0x1 SWAP1 SUB SWAP2 POP POP PUSH2 0x47F JUMP JUMPDEST POP POP DUP1 DUP1 PUSH1 0x1 ADD SWAP2 POP POP PUSH2 0x3E2 JUMP JUMPDEST POP PUSH0 PUSH1 0x8 PUSH1 0x4 DUP10 DUP2 PUSH2 0x525 JUMPI PUSH2 0x524 PUSH2 0xEB1 JUMP JUMPDEST JUMPDEST MOD MUL SWAP1 POP PUSH0 DUP2 PUSH8 0xFFFFFFFFFFFFFFFF AND SUB PUSH2 0x53F JUMPI PUSH1 0x20 SWAP1 POP JUMPDEST PUSH1 0x8 DUP2 SUB SWAP1 POP PUSH0 DUP1 JUMPDEST DUP4 MLOAD DUP2 LT ISZERO PUSH2 0x60D JUMPI JUMPDEST PUSH1 0x20 DUP4 PUSH8 0xFFFFFFFFFFFFFFFF AND LT ISZERO PUSH2 0x5FC JUMPI DUP3 PUSH8 0xFFFFFFFFFFFFFFFF AND DUP5 DUP3 DUP2 MLOAD DUP2 LT PUSH2 0x583 JUMPI PUSH2 0x582 PUSH2 0xE84 JUMP JUMPDEST JUMPDEST PUSH1 0x20 MUL PUSH1 0x20 ADD ADD MLOAD PUSH4 0xFFFFFFFF AND SWAP1 SHR PUSH1 0xF8 SHL DUP6 DUP4 DUP2 MLOAD DUP2 LT PUSH2 0x5A9 JUMPI PUSH2 0x5A8 PUSH2 0xE84 JUMP JUMPDEST JUMPDEST PUSH1 0x20 ADD ADD SWAP1 PUSH31 0xFFFFFFFFFFFFFFFFFFFFFFFFFFFFFFFFFFFFFFFFFFFFFFFFFFFFFFFFFFFFFF NOT AND SWAP1 DUP2 PUSH0 BYTE SWAP1 MSTORE8 POP DUP2 DUP1 PUSH1 0x1 ADD SWAP3 POP POP PUSH1 0x8 DUP4 PUSH8 0xFFFFFFFFFFFFFFFF AND LT PUSH2 0x5FC JUMPI PUSH1 0x8 DUP4 SUB SWAP3 POP PUSH2 0x552 JUMP JUMPDEST PUSH1 0x18 SWAP3 POP DUP1 DUP1 PUSH1 0x1 ADD SWAP2 POP POP PUSH2 0x548 JUMP JUMPDEST POP PUSH0 DUP9 SWAP1 POP JUMPDEST DUP5 MLOAD DUP2 LT ISZERO PUSH2 0x692 JUMPI PUSH0 PUSH1 0xF8 SHL DUP6 DUP3 DUP2 MLOAD DUP2 LT PUSH2 0x633 JUMPI PUSH2 0x632 PUSH2 0xE84 JUMP JUMPDEST JUMPDEST PUSH1 0x20 ADD ADD MLOAD PUSH1 0xF8 SHR PUSH1 0xF8 SHL PUSH31 0xFFFFFFFFFFFFFFFFFFFFFFFFFFFFFFFFFFFFFFFFFFFFFFFFFFFFFFFFFFFFFF NOT AND GT ISZERO PUSH2 0x685 JUMPI PUSH2 0x673 DUP6 DUP11 DUP4 SUB DUP5 PUSH2 0x1DC JUMP JUMPDEST SWAP12 POP POP POP POP POP POP POP POP POP POP POP POP PUSH2 0x6AB JUMP JUMPDEST DUP1 DUP1 PUSH1 0x1 ADD SWAP2 POP POP PUSH2 0x613 JUMP JUMPDEST POP PUSH2 0x69E DUP5 PUSH0 DUP4 PUSH2 0x1DC JUMP JUMPDEST SWAP11 POP POP POP POP POP POP POP POP POP POP POP JUMPDEST SWAP2 SWAP1 POP JUMP JUMPDEST PUSH1 0x60 PUSH0 DUP3 MLOAD SWAP1 POP PUSH0 JUMPDEST DUP2 DUP2 LT DUP1 ISZERO PUSH2 0x709 JUMPI POP PUSH0 PUSH1 0xF8 SHL DUP5 DUP3 DUP2 MLOAD DUP2 LT PUSH2 0x6DA JUMPI PUSH2 0x6D9 PUSH2 0xE84 JUMP JUMPDEST JUMPDEST PUSH1 0x20 ADD ADD MLOAD PUSH1 0xF8 SHR PUSH1 0xF8 SHL PUSH31 0xFFFFFFFFFFFFFFFFFFFFFFFFFFFFFFFFFFFFFFFFFFFFFFFFFFFFFFFFFFFFFF NOT AND EQ JUMPDEST ISZERO PUSH2 0x71B JUMPI DUP1 DUP1 PUSH1 0x1 ADD SWAP2 POP POP PUSH2 0x6B9 JUMP JUMPDEST PUSH1 0x1 PUSH2 0x17E3 PUSH2 0x209F DUP4 DUP6 SUB MUL DUP2 PUSH2 0x735 JUMPI PUSH2 0x734 PUSH2 0xEB1 JUMP JUMPDEST JUMPDEST DIV DUP3 ADD ADD SWAP2 POP PUSH0 DUP3 PUSH8 0xFFFFFFFFFFFFFFFF DUP2 GT ISZERO PUSH2 0x756 JUMPI PUSH2 0x755 PUSH2 0xA5D JUMP JUMPDEST JUMPDEST PUSH1 0x40 MLOAD SWAP1 DUP1 DUP3 MSTORE DUP1 PUSH1 0x1F ADD PUSH1 0x1F NOT AND PUSH1 0x20 ADD DUP3 ADD PUSH1 0x40 MSTORE DUP1 ISZERO PUSH2 0x788 JUMPI DUP2 PUSH1 0x20 ADD PUSH1 0x1 DUP3 MUL DUP1 CALLDATASIZE DUP4 CALLDATACOPY DUP1 DUP3 ADD SWAP2 POP POP SWAP1 POP JUMPDEST POP SWAP1 POP PUSH0 DUP1 PUSH0 PUSH1 0x1 DUP7 SUB SWAP1 POP PUSH0 JUMPDEST DUP9 MLOAD DUP2 LT ISZERO PUSH2 0x8A9 JUMPI PUSH1 0x1 DUP8 SUB SWAP3 POP DUP9 DUP2 DUP2 MLOAD DUP2 LT PUSH2 0x7B8 JUMPI PUSH2 0x7B7 PUSH2 0xE84 JUMP JUMPDEST JUMPDEST PUSH1 0x20 ADD ADD MLOAD PUSH1 0xF8 SHR PUSH1 0xF8 SHL PUSH1 0xF8 SHR PUSH1 0xFF AND SWAP4 POP JUMPDEST DUP2 DUP4 SGT DUP1 PUSH2 0x7E0 JUMPI POP PUSH0 DUP5 PUSH4 0xFFFFFFFF AND EQ ISZERO JUMPDEST ISZERO PUSH2 0x899 JUMPI DUP5 DUP4 DUP2 MLOAD DUP2 LT PUSH2 0x7F8 JUMPI PUSH2 0x7F7 PUSH2 0xE84 JUMP JUMPDEST JUMPDEST PUSH1 0x20 ADD ADD MLOAD PUSH1 0xF8 SHR PUSH1 0xF8 SHL PUSH1 0xF8 SHR PUSH1 0xFF AND PUSH2 0x100 MUL PUSH2 0xFFFF AND DUP5 ADD SWAP4 POP PUSH1 0x3A DUP5 PUSH4 0xFFFFFFFF AND DUP2 PUSH2 0x82C JUMPI PUSH2 0x82B PUSH2 0xEB1 JUMP JUMPDEST JUMPDEST MOD PUSH1 0xF8 SHL DUP6 DUP5 DUP2 MLOAD DUP2 LT PUSH2 0x843 JUMPI PUSH2 0x842 PUSH2 0xE84 JUMP JUMPDEST JUMPDEST PUSH1 0x20 ADD ADD SWAP1 PUSH31 0xFFFFFFFFFFFFFFFFFFFFFFFFFFFFFFFFFFFFFFFFFFFFFFFFFFFFFFFFFFFFFF NOT AND SWAP1 DUP2 PUSH0 BYTE SWAP1 MSTORE8 POP PUSH1 0x3A DUP5 PUSH4 0xFFFFFFFF AND DUP2 PUSH2 0x888 JUMPI PUSH2 0x887 PUSH2 0xEB1 JUMP JUMPDEST JUMPDEST DIV SWAP4 POP DUP3 DUP1 PUSH1 0x1 SWAP1 SUB SWAP4 POP POP PUSH2 0x7CC JUMP JUMPDEST DUP3 SWAP2 POP DUP1 DUP1 PUSH1 0x1 ADD SWAP2 POP POP PUSH2 0x796 JUMP JUMPDEST POP PUSH0 DUP6 SWAP1 POP JUMPDEST DUP7 DUP2 LT DUP1 ISZERO PUSH2 0x8FF JUMPI POP PUSH0 PUSH1 0xF8 SHL DUP6 DUP3 DUP2 MLOAD DUP2 LT PUSH2 0x8D0 JUMPI PUSH2 0x8CF PUSH2 0xE84 JUMP JUMPDEST JUMPDEST PUSH1 0x20 ADD ADD MLOAD PUSH1 0xF8 SHR PUSH1 0xF8 SHL PUSH31 0xFFFFFFFFFFFFFFFFFFFFFFFFFFFFFFFFFFFFFFFFFFFFFFFFFFFFFFFFFFFFFF NOT AND EQ JUMPDEST ISZERO PUSH2 0x911 JUMPI DUP1 DUP1 PUSH1 0x1 ADD SWAP2 POP POP PUSH2 0x8AF JUMP JUMPDEST DUP6 DUP2 SUB DUP6 MLOAD SUB SWAP7 POP PUSH0 DUP8 PUSH8 0xFFFFFFFFFFFFFFFF DUP2 GT ISZERO PUSH2 0x934 JUMPI PUSH2 0x933 PUSH2 0xA5D JUMP JUMPDEST JUMPDEST PUSH1 0x40 MLOAD SWAP1 DUP1 DUP3 MSTORE DUP1 PUSH1 0x1F ADD PUSH1 0x1F NOT AND PUSH1 0x20 ADD DUP3 ADD PUSH1 0x40 MSTORE DUP1 ISZERO PUSH2 0x966 JUMPI DUP2 PUSH1 0x20 ADD PUSH1 0x1 DUP3 MUL DUP1 CALLDATASIZE DUP4 CALLDATACOPY DUP1 DUP3 ADD SWAP2 POP POP SWAP1 POP JUMPDEST POP SWAP1 POP PUSH0 JUMPDEST DUP9 DUP2 LT ISZERO PUSH2 0xA23 JUMPI PUSH0 DUP9 DUP5 DUP4 ADD SUB SWAP1 POP PUSH1 0x40 MLOAD DUP1 PUSH1 0x60 ADD PUSH1 0x40 MSTORE DUP1 PUSH1 0x3A DUP2 MSTORE PUSH1 0x20 ADD PUSH2 0xF57 PUSH1 0x3A SWAP2 CODECOPY DUP9 DUP3 DUP2 MLOAD DUP2 LT PUSH2 0x9A7 JUMPI PUSH2 0x9A6 PUSH2 0xE84 JUMP JUMPDEST JUMPDEST PUSH1 0x20 ADD ADD MLOAD PUSH1 0xF8 SHR PUSH1 0xF8 SHL PUSH1 0xF8 SHR PUSH1 0xFF AND DUP2 MLOAD DUP2 LT PUSH2 0x9C9 JUMPI PUSH2 0x9C8 PUSH2 0xE84 JUMP JUMPDEST JUMPDEST PUSH1 0x20 ADD ADD MLOAD PUSH1 0xF8 SHR PUSH1 0xF8 SHL DUP4 DUP4 DUP2 MLOAD DUP2 LT PUSH2 0x9E7 JUMPI PUSH2 0x9E6 PUSH2 0xE84 JUMP JUMPDEST JUMPDEST PUSH1 0x20 ADD ADD SWAP1 PUSH31 0xFFFFFFFFFFFFFFFFFFFFFFFFFFFFFFFFFFFFFFFFFFFFFFFFFFFFFFFFFFFFFF NOT AND SWAP1 DUP2 PUSH0 BYTE SWAP1 MSTORE8 POP POP DUP1 DUP1 PUSH1 0x1 ADD SWAP2 POP POP PUSH2 0x96B JUMP JUMPDEST POP DUP1 SWAP9 POP POP POP POP POP POP POP POP POP SWAP2 SWAP1 POP JUMP JUMPDEST PUSH0 PUSH1 0x40 MLOAD SWAP1 POP SWAP1 JUMP JUMPDEST PUSH0 DUP1 REVERT JUMPDEST PUSH0 DUP1 REVERT JUMPDEST PUSH0 DUP1 REVERT JUMPDEST PUSH0 DUP1 REVERT JUMPDEST PUSH0 PUSH1 0x1F NOT PUSH1 0x1F DUP4 ADD AND SWAP1 POP SWAP2 SWAP1 POP JUMP JUMPDEST PUSH32 0x4E487B7100000000000000000000000000000000000000000000000000000000 PUSH0 MSTORE PUSH1 0x41 PUSH1 0x4 MSTORE PUSH1 0x24 PUSH0 REVERT JUMPDEST PUSH2 0xA93 DUP3 PUSH2 0xA4D JUMP JUMPDEST DUP2 ADD DUP2 DUP2 LT PUSH8 0xFFFFFFFFFFFFFFFF DUP3 GT OR ISZERO PUSH2 0xAB2 JUMPI PUSH2 0xAB1 PUSH2 0xA5D JUMP JUMPDEST JUMPDEST DUP1 PUSH1 0x40 MSTORE POP POP POP JUMP JUMPDEST PUSH0 PUSH2 0xAC4 PUSH2 0xA34 JUMP JUMPDEST SWAP1 POP PUSH2 0xAD0 DUP3 DUP3 PUSH2 0xA8A JUMP JUMPDEST SWAP2 SWAP1 POP JUMP JUMPDEST PUSH0 PUSH8 0xFFFFFFFFFFFFFFFF DUP3 GT ISZERO PUSH2 0xAEF JUMPI PUSH2 0xAEE PUSH2 0xA5D JUMP JUMPDEST JUMPDEST PUSH2 0xAF8 DUP3 PUSH2 0xA4D JUMP JUMPDEST SWAP1 POP PUSH1 0x20 DUP2 ADD SWAP1 POP SWAP2 SWAP1 POP JUMP JUMPDEST DUP3 DUP2 DUP4 CALLDATACOPY PUSH0 DUP4 DUP4 ADD MSTORE POP POP POP JUMP JUMPDEST PUSH0 PUSH2 0xB25 PUSH2 0xB20 DUP5 PUSH2 0xAD5 JUMP JUMPDEST PUSH2 0xABB JUMP JUMPDEST SWAP1 POP DUP3 DUP2 MSTORE PUSH1 0x20 DUP2 ADD DUP5 DUP5 DUP5 ADD GT ISZERO PUSH2 0xB41 JUMPI PUSH2 0xB40 PUSH2 0xA49 JUMP JUMPDEST JUMPDEST PUSH2 0xB4C DUP5 DUP3 DUP6 PUSH2 0xB05 JUMP JUMPDEST POP SWAP4 SWAP3 POP POP POP JUMP JUMPDEST PUSH0 DUP3 PUSH1 0x1F DUP4 ADD SLT PUSH2 0xB68 JUMPI PUSH2 0xB67 PUSH2 0xA45 JUMP JUMPDEST JUMPDEST DUP2 CALLDATALOAD PUSH2 0xB78 DUP5 DUP3 PUSH1 0x20 DUP7 ADD PUSH2 0xB13 JUMP JUMPDEST SWAP2 POP POP SWAP3 SWAP2 POP POP JUMP JUMPDEST PUSH0 PUSH1 0x20 DUP3 DUP5 SUB SLT ISZERO PUSH2 0xB96 JUMPI PUSH2 0xB95 PUSH2 0xA3D JUMP JUMPDEST JUMPDEST PUSH0 DUP3 ADD CALLDATALOAD PUSH8 0xFFFFFFFFFFFFFFFF DUP2 GT ISZERO PUSH2 0xBB3 JUMPI PUSH2 0xBB2 PUSH2 0xA41 JUMP JUMPDEST JUMPDEST PUSH2 0xBBF DUP5 DUP3 DUP6 ADD PUSH2 0xB54 JUMP JUMPDEST SWAP2 POP POP SWAP3 SWAP2 POP POP JUMP JUMPDEST PUSH0 DUP2 MLOAD SWAP1 POP SWAP2 SWAP1 POP JUMP JUMPDEST PUSH0 DUP3 DUP3 MSTORE PUSH1 0x20 DUP3 ADD SWAP1 POP SWAP3 SWAP2 POP POP JUMP JUMPDEST DUP3 DUP2 DUP4 MCOPY PUSH0 DUP4 DUP4 ADD MSTORE POP POP POP JUMP JUMPDEST PUSH0 PUSH2 0xBFA DUP3 PUSH2 0xBC8 JUMP JUMPDEST PUSH2 0xC04 DUP2 DUP6 PUSH2 0xBD2 JUMP JUMPDEST SWAP4 POP PUSH2 0xC14 DUP2 DUP6 PUSH1 0x20 DUP7 ADD PUSH2 0xBE2 JUMP JUMPDEST PUSH2 0xC1D DUP2 PUSH2 0xA4D JUMP JUMPDEST DUP5 ADD SWAP2 POP POP SWAP3 SWAP2 POP POP JUMP JUMPDEST PUSH0 PUSH1 0x20 DUP3 ADD SWAP1 POP DUP2 DUP2 SUB PUSH0 DUP4 ADD MSTORE PUSH2 0xC40 DUP2 DUP5 PUSH2 0xBF0 JUMP JUMPDEST SWAP1 POP SWAP3 SWAP2 POP POP JUMP JUMPDEST PUSH0 PUSH8 0xFFFFFFFFFFFFFFFF DUP3 GT ISZERO PUSH2 0xC62 JUMPI PUSH2 0xC61 PUSH2 0xA5D JUMP JUMPDEST JUMPDEST PUSH2 0xC6B DUP3 PUSH2 0xA4D JUMP JUMPDEST SWAP1 POP PUSH1 0x20 DUP2 ADD SWAP1 POP SWAP2 SWAP1 POP JUMP JUMPDEST PUSH0 PUSH2 0xC8A PUSH2 0xC85 DUP5 PUSH2 0xC48 JUMP JUMPDEST PUSH2 0xABB JUMP JUMPDEST SWAP1 POP DUP3 DUP2 MSTORE PUSH1 0x20 DUP2 ADD DUP5 DUP5 DUP5 ADD GT ISZERO PUSH2 0xCA6 JUMPI PUSH2 0xCA5 PUSH2 0xA49 JUMP JUMPDEST JUMPDEST PUSH2 0xCB1 DUP5 DUP3 DUP6 PUSH2 0xB05 JUMP JUMPDEST POP SWAP4 SWAP3 POP POP POP JUMP JUMPDEST PUSH0 DUP3 PUSH1 0x1F DUP4 ADD SLT PUSH2 0xCCD JUMPI PUSH2 0xCCC PUSH2 0xA45 JUMP JUMPDEST JUMPDEST DUP2 CALLDATALOAD PUSH2 0xCDD DUP5 DUP3 PUSH1 0x20 DUP7 ADD PUSH2 0xC78 JUMP JUMPDEST SWAP2 POP POP SWAP3 SWAP2 POP POP JUMP JUMPDEST PUSH0 PUSH32 0xFF00000000000000000000000000000000000000000000000000000000000000 DUP3 AND SWAP1 POP SWAP2 SWAP1 POP JUMP JUMPDEST PUSH2 0xD1A DUP2 PUSH2 0xCE6 JUMP JUMPDEST DUP2 EQ PUSH2 0xD24 JUMPI PUSH0 DUP1 REVERT JUMPDEST POP JUMP JUMPDEST PUSH0 DUP2 CALLDATALOAD SWAP1 POP PUSH2 0xD35 DUP2 PUSH2 0xD11 JUMP JUMPDEST SWAP3 SWAP2 POP POP JUMP JUMPDEST PUSH0 DUP1 PUSH1 0x40 DUP4 DUP6 SUB SLT ISZERO PUSH2 0xD51 JUMPI PUSH2 0xD50 PUSH2 0xA3D JUMP JUMPDEST JUMPDEST PUSH0 DUP4 ADD CALLDATALOAD PUSH8 0xFFFFFFFFFFFFFFFF DUP2 GT ISZERO PUSH2 0xD6E JUMPI PUSH2 0xD6D PUSH2 0xA41 JUMP JUMPDEST JUMPDEST PUSH2 0xD7A DUP6 DUP3 DUP7 ADD PUSH2 0xCB9 JUMP JUMPDEST SWAP3 POP POP PUSH1 0x20 PUSH2 0xD8B DUP6 DUP3 DUP7 ADD PUSH2 0xD27 JUMP JUMPDEST SWAP2 POP POP SWAP3 POP SWAP3 SWAP1 POP JUMP JUMPDEST PUSH0 DUP2 SWAP1 POP SWAP2 SWAP1 POP JUMP JUMPDEST PUSH2 0xDA7 DUP2 PUSH2 0xD95 JUMP JUMPDEST DUP3 MSTORE POP POP JUMP JUMPDEST PUSH0 DUP2 ISZERO ISZERO SWAP1 POP SWAP2 SWAP1 POP JUMP JUMPDEST PUSH2 0xDC1 DUP2 PUSH2 0xDAD JUMP JUMPDEST DUP3 MSTORE POP POP JUMP JUMPDEST PUSH0 PUSH1 0x40 DUP3 ADD SWAP1 POP PUSH2 0xDDA PUSH0 DUP4 ADD DUP6 PUSH2 0xD9E JUMP JUMPDEST PUSH2 0xDE7 PUSH1 0x20 DUP4 ADD DUP5 PUSH2 0xDB8 JUMP JUMPDEST SWAP4 SWAP3 POP POP POP JUMP JUMPDEST PUSH2 0xDF7 DUP2 PUSH2 0xD95 JUMP JUMPDEST DUP2 EQ PUSH2 0xE01 JUMPI PUSH0 DUP1 REVERT JUMPDEST POP JUMP JUMPDEST PUSH0 DUP2 CALLDATALOAD SWAP1 POP PUSH2 0xE12 DUP2 PUSH2 0xDEE JUMP JUMPDEST SWAP3 SWAP2 POP POP JUMP JUMPDEST PUSH0 DUP1 PUSH0 PUSH1 0x60 DUP5 DUP7 SUB SLT ISZERO PUSH2 0xE2F JUMPI PUSH2 0xE2E PUSH2 0xA3D JUMP JUMPDEST JUMPDEST PUSH0 DUP5 ADD CALLDATALOAD PUSH8 0xFFFFFFFFFFFFFFFF DUP2 GT ISZERO PUSH2 0xE4C JUMPI PUSH2 0xE4B PUSH2 0xA41 JUMP JUMPDEST JUMPDEST PUSH2 0xE58 DUP7 DUP3 DUP8 ADD PUSH2 0xCB9 JUMP JUMPDEST SWAP4 POP POP PUSH1 0x20 PUSH2 0xE69 DUP7 DUP3 DUP8 ADD PUSH2 0xE04 JUMP JUMPDEST SWAP3 POP POP PUSH1 0x40 PUSH2 0xE7A DUP7 DUP3 DUP8 ADD PUSH2 0xE04 JUMP JUMPDEST SWAP2 POP POP SWAP3 POP SWAP3 POP SWAP3 JUMP JUMPDEST PUSH32 0x4E487B7100000000000000000000000000000000000000000000000000000000 PUSH0 MSTORE PUSH1 0x32 PUSH1 0x4 MSTORE PUSH1 0x24 PUSH0 REVERT JUMPDEST PUSH32 0x4E487B7100000000000000000000000000000000000000000000000000000000 PUSH0 MSTORE PUSH1 0x12 PUSH1 0x4 MSTORE PUSH1 0x24 PUSH0 REVERT JUMPDEST PUSH0 DUP3 DUP3 MSTORE PUSH1 0x20 DUP3 ADD SWAP1 POP SWAP3 SWAP2 POP POP JUMP JUMPDEST PUSH32 0x696E76616C696420626173653538206469676974000000000000000000000000 PUSH0 DUP3 ADD MSTORE POP JUMP JUMPDEST PUSH0 PUSH2 0xF22 PUSH1 0x14 DUP4 PUSH2 0xEDE JUMP JUMPDEST SWAP2 POP PUSH2 0xF2D DUP3 PUSH2 0xEEE JUMP JUMPDEST PUSH1 0x20 DUP3 ADD SWAP1 POP SWAP2 SWAP1 POP JUMP JUMPDEST PUSH0 PUSH1 0x20 DUP3 ADD SWAP1 POP DUP2 DUP2 SUB PUSH0 DUP4 ADD MSTORE PUSH2 0xF4F DUP2 PUSH2 0xF16 JUMP JUMPDEST SWAP1 POP SWAP2 SWAP1 POP JUMP INVALID BALANCE ORIGIN CALLER CALLVALUE CALLDATALOAD CALLDATASIZE CALLDATACOPY CODESIZE CODECOPY COINBASE TIMESTAMP NUMBER PREVRANDAO GASLIMIT CHAINID SELFBALANCE BASEFEE BLOBBASEFEE 0x4B 0x4C 0x4D 0x4E POP MLOAD MSTORE MSTORE8 SLOAD SSTORE JUMP JUMPI PC MSIZE GAS PUSH2 0x6263 PUSH5 0x6566676869 PUSH11 0x6B6D6E6F70717273747576 PUSH24 0x78797AA26469706673582212209A81BCE6F9DF542372CEF6 CODECOPY EXTCODEHASH GASPRICE CALLCODE DUP2 0xAC 0xC6 DUP11 0xD5 BLOBBASEFEE GASLIMIT PUSH6 0x9B397F5256FB SHL SWAP15 SHR PUSH5 0x736F6C6343 STOP ADDMOD BYTE STOP CALLER "
		},
		"gasEstimates": {
			"creation": {
				"codeDepositCost": "807600",
				"executionCost": "867",
				"totalCost": "808467"
			},
			"external": {
				"decodeFromString(string)": "infinite",
				"encodeFromString(string)": "infinite",
				"indexOf(bytes,bytes1)": "infinite",
				"slice(bytes,uint256,uint256)": "infinite"
			},
			"internal": {
				"decode(bytes memory)": "infinite",
				"encode(bytes memory)": "infinite",
				"encodeToString(bytes memory)": "infinite"
			}
		},
		"methodIdentifiers": {
			"decodeFromString(string)": "046a466a",
			"encodeFromString(string)": "529d1bb7",
			"indexOf(bytes,bytes1)": "8178ff43",
			"slice(bytes,uint256,uint256)": "e0041396"
		}
	},
	"abi": [
		{
			"inputs": [
				{
					"internalType": "string",
					"name": "data_",
					"type": "string"
				}
			],
			"name": "decodeFromString",
			"outputs": [
				{
					"internalType": "bytes",
					"name": "",
					"type": "bytes"
				}
			],
			"stateMutability": "pure",
			"type": "function"
		},
		{
			"inputs": [
				{
					"internalType": "string",
					"name": "data_",
					"type": "string"
				}
			],
			"name": "encodeFromString",
			"outputs": [
				{
					"internalType": "bytes",
					"name": "",
					"type": "bytes"
				}
			],
			"stateMutability": "pure",
			"type": "function"
		},
		{
			"inputs": [
				{
					"internalType": "bytes",
					"name": "data_",
					"type": "bytes"
				},
				{
					"internalType": "bytes1",
					"name": "char_",
					"type": "bytes1"
				}
			],
			"name": "indexOf",
			"outputs": [
				{
					"internalType": "uint256",
					"name": "",
					"type": "uint256"
				},
				{
					"internalType": "bool",
					"name": "",
					"type": "bool"
				}
			],
			"stateMutability": "pure",
			"type": "function"
		},
		{
			"inputs": [
				{
					"internalType": "bytes",
					"name": "data_",
					"type": "bytes"
				},
				{
					"internalType": "uint256",
					"name": "start_",
					"type": "uint256"
				},
				{
					"internalType": "uint256",
					"name": "end_",
					"type": "uint256"
				}
			],
			"name": "slice",
			"outputs": [
				{
					"internalType": "bytes",
					"name": "",
					"type": "bytes"
				}
			],
			"stateMutability": "pure",
			"type": "function"
		}
	]
}